:020000040800F2
:1000000088610020A101000849370008F331000889
:100010003D340008850B0008054200080000000080
:10002000000000000000000000000000593B000834
:10003000CB0C000800000000C93700085B3B00083B
:10004000BB010008BB010008BB010008BB010008A0
:10005000BB010008BB010008BB010008BB01000890
:10006000BB010008BB010008BB010008BB01000880
:10007000BB010008BB010008BB010008BB01000870
:10008000BB010008BB010008BB010008BB01000860
:10009000BB010008BB010008BB010008BB01000850
:1000A000BB010008BB010008BB010008BB01000840
:1000B000BB010008BB010008BB010008BB01000830
:1000C000BB010008BB010008BB010008BB01000820
:1000D000BB010008F9410008BB010008BB01000892
:1000E000BB010008BB010008BB010008BB01000800
:1000F000BB010008BB010008BB010008BB010008F0
:10010000BB010008BB010008BB010008BB010008DF
:10011000BB010008BB010008713B0008BB010008DF
:10012000BB010008F10B0008BB010008BB0100087F
:10013000BB010008BB010008BB010008BB010008AF
:10014000BB010008BB010008BB010008BB0100089F
:10015000BB010008BB010008BB010008BB0100088F
:10016000BB010008BB010008BB010008BB0100087F
:10017000BB010008BB010008BB0100080000000033
:10018000BB010008BB010008DFF810D000F008FC3C
:10019000004800476D6A0008AFF3008088610020C6
:1001A0000648804706480047FEE7FEE7FEE7FEE711
:1001B000FEE7FEE7FEE7FEE7FEE7FEE7613B00083D
:1001C000890100082DE9F05F0546002092469B4614
:1001D00088460646814640241BE02846414647465D
:1001E000224600F0A6FA53465A46C01A914110D34F
:1001F00011461846224600F08DFA2D1A67EB0108C9
:100200004F4622460120002100F084FA17EB000936
:100210004E41201EA4F10104DFDC484631462A4647
:100220004346BDE8F09F40EA01039B0703D009E085
:1002300008C9121F08C0042AFAD203E011F8013BD2
:1002400000F8013B521EF9D27047D2B201E000F82B
:10025000012B491EFBD270470022F6E710B513466A
:100260000A4604461946FFF7F0FF204610BD2DE967
:10027000FE4F804681EA0300C00F0C46009021F03B
:10028000004123F00045B8EB0200A94105D24046E9
:10029000214690461C460B46024623F00040104380
:1002A00047D0270DC7F30A00C3F30A510290401A42
:1002B000019040286BDAC3F3130040F4801B0098D0
:1002C000924620B10023D2EB030A63EB0B0B01989B
:1002D0005946C0F14002504600F01CFA06460D4651
:1002E00050465946019A00F034FA10EB080061417B
:1002F000002487EA115284EAE7731A4340D0009A37
:1003000062B3019A012A4FEA075215DC001B61EB28
:1003100002014FF0004202EA0752CDE90042001C00
:1003200041F5801132462B4600F06BFA03B0BDE870
:10033000F08F40462146F9E7001B61EB0201001CEB
:1003400041F5801300185B412018A2F5001747EB18
:10035000030140EAD570B6196D4111E06D084FEA0E
:10036000360645EAC0754FEA0752001B61EB0201F1
:10037000001C41F5801149084FEA30000019514135
:1003800032462B4603B0BDE8F04F00F02BBA009880
:10039000012240000023D0EB020263EBE0730098DF
:1003A00021464FEAE074B8EB000061EB0401E9E795
:1003B00083F000435BE781F0004158E72DE9FE4FF1
:1003C00081EA030404F0004421F0004100944FF05E
:1003D000000B23F0004350EA01045ED052EA03040C
:1003E0005BD0C3F30A54C1F30A552C44A4F2F3348E
:1003F0000194A0FB0254C1F3130141F48011C3F333
:10040000130343F4801301FB024400FB034E840AF0
:10041000970A44EA815447EA8357A4FB0768029588
:100420008D0A05FB07854FEA932C04FB0C54270526
:10043000029D4FEA065847EA1637B5EB08056EEB02
:10044000070C870E920E47EA811742EA8312A7FB38
:100450000201B6EB0B0164EB00042B0D43EA0C33F5
:100460005E1844EB1C50DA465146E7FB0201C5F327
:1004700013044FEA0B3343EA14534FEA0432019C4E
:1004800043EA0603A4F10C040294009CCDE900B4F5
:1004900000F0B7F903B0BDE8F08F00200146F9E79E
:1004A0002DE9F04D81EA030404F0004B21F00045F2
:1004B00014464FF0000A23F0004150EA050220D014
:1004C00054EA01021DD0C5F30A570246C5F31303CF
:1004D000C1F31300C1F30A5640F4801543F48013AE
:1004E000A7EB0608101BD64608F2FD3873EB050093
:1004F00002D308F1010801E092185B41B8F1000F46
:1005000003DA00200146BDE8F08D00204FF4801191
:10051000064684460EE0171B73EB050705D3121B36
:1005200063EB050306434CEA010C49084FEA30002F
:1005300092185B4150EA0107EDD152EA030012D054
:1005400082EA040083EA0501084305D0101BAB4191
:1005500006D20122002306E000224FF0004302E011
:100560006FF0010253101AEB06004CEB085110EB30
:100570000A0041EB0B01BDE8F04D00F033B90EB5B8
:10058000C10F80EAE0700844CA07002140F23343FB
:100590008DE80E000A460B4600F033F903B000BDAB
:1005A0000EB540F2334102910021CDE900110A4617
:1005B0000B4600F026F903B000BD70B5C1F30A5236
:1005C00001F000450024C1F3130140F2FF3341F470
:1005D00080119A4201DA002070BD40F233439A4202
:1005E000A2F2334203DC524200F0A3F800E0904054
:1005F0002C43F1D0404270BDC1F30A5210B5C1F393
:10060000130140F2FF3341F480119A4201DA0020D5
:1006100010BD40F233439A42A2F2334203DC52420D
:1006200000F087F810BD904010BD00F0004230F09F
:1006300000400AD0C10D01F56071C0F3160042EA16
:100640000151C2084007114370470020014670471E
:1006500030B5041E71F1000404DB4FF00044404249
:1006600064EB0101141E73F1000405DB1C464FF01E
:100670000043524263EB04038B4208BF824230BD09
:1006800030B5041E71F1000404DB4FF00044404219
:1006900064EB0101141E73F1000405DB1C464FF0EE
:1006A0000043524263EB0403994208BF904230BDBD
:1006B00001F0004330B421F0004150EA010206D0BD
:1006C0000A0DA2F56072C1F31301002A02DC30BCEE
:1006D00000207047440F44EAC104C100E01830BC58
:1006E00000EBC25000F047B830B50B460146002081
:1006F0002022012409E021FA02F59D4205D303FAE4
:1007000002F5491B04FA02F52844151EA2F1010264
:10071000F1DC30BD202A04DB203A00FA02F100208F
:1007200070479140C2F1200320FA03F3194390402F
:100730007047202A04DB203A21FA02F0002170479A
:1007400021FA02F3D040C2F1200291400843194639
:100750007047202A06DBCB17203A41FA02F043EA21
:10076000E07306E041FA02F3D040C2F1200291406A
:100770000843194670470029A8BF7047401C49002C
:1007800008BF20F00100704710B4B0FA80FC00FAF6
:100790000CF050EA010404BF10BC704749B1CCF121
:1007A000200421FA04F411FA0CF118BF01212143AD
:1007B0000843A3EB0C01CB1D4FEA00614FEA102068
:1007C00042BF002010BC704700EBC350104400290A
:1007D000A4BF10BC7047401C490008BF20F00100B6
:1007E00010BC704710B5141E73F1000408DA401CE9
:1007F00041F1000192185B411A4301D120F0010040
:1008000010BD2DE9F04D92469B4611B1B1FA81F22F
:1008100002E0B0FA80F220329046FFF77BFF0446F8
:100820000F4640EA0A0041EA0B0153465A46084384
:1008300013D0114653EA010019D0C8F140025046C6
:10084000FFF777FF05460E46504659464246FFF7EA
:1008500061FF084305D0012004E020463946BDE889
:10086000F08D0020054346EAE0762C4337430A9892
:100870006305E40AA0EB08000022FD0A44EA47549D
:100880000A3002D500200146E9E701051019694147
:10089000DDE9084500196941BDE8F04DA2E770B5F2
:1008A00021F0004303430CD0C1F30A550024D5EBDB
:1008B000040564EB0403D617AD1AB34102DB002034
:1008C000014670BD201841EB025170BD2DE9F04D7D
:1008D00000231A461B1A8A4103DB00200146BDE8AB
:1008E000F08DC1F30A52C1F3130141F480154FF0AA
:1008F000000BD10702D100186D41521E002704469B
:1009000040F2FF11384601EB620A3E46804602463D
:1009100000204FF48011FFF70CFFC2197141BB1882
:1009200046EB0100B4EB030C75EB000C04D3E41AA6
:1009300065EB000517460E46241908F101006D41CC
:1009400080463428E3DDF91946EB0600091BA8416F
:1009500003D24FF0FF32134601E0002213461BEB97
:10096000070046EB0A51BDE8F04DFFF73BBFC1F36E
:100970000A52C1F3130140F2FF3341F480119A424D
:1009800002DA00200146704740F233439A42A2F255
:10099000334202DC5242FFF7CCBEFFF7BBBE000081
:1009A000064C074D06E0E06840F0010394E80700BC
:1009B00098471034AC42F6D3FFF7EAFB007000080A
:1009C0002070000810B50146886B026C12F0500FC1
:1009D00005D0026CD20626D500F093FA10BD016C4A
:1009E00041F40071016401688A6812F0405F17D118
:1009F000027EAAB9CA6A12F4700F02D08A68520540
:100A00000ED44A6822F020024A60016C21F4807101
:100A10000164016CC90403D4016C41F0010101645B
:100A200000F000FA10BD806BC26CBDE810400846B3
:100A3000104710B5806B40210164416C41F0040106
:100A4000416400F05EFA10BD10B5806B00F058FAFA
:100A500010BD00004A494A6822F440324A604A68A0
:100A600043681A434A6001684A6822F480724A6007
:100A700001684A68036942EA03224A6001684A68D9
:100A800022F040724A6001684A6883681A434A60EB
:100A900001688A6822F400628A6001688A68C36813
:100AA0001A438A60816A6FF07062D14214D0016883
:100AB0008A6822F070628A6001688A68836A1A43D1
:100AC0008A6001688A6822F040528A6001688A68F8
:100AD000C36A1A438A6009E001688A6822F070627A
:100AE0008A6001688A6822F040528A6001688A68D8
:100AF00022F002028A6001688A68037E42EA4302A9
:100B00008A6090F8201089B101684A6842F4006256
:100B10004A6001684A6822F460424A6001684B6892
:100B2000426A521E43EA42324A6004E001684A685F
:100B300022F400624A600168CA6A22F47002CA6242
:100B40000168CB6A828B521E43EA0252CA62016874
:100B50008A6822F400728A6001688A6890F83030EE
:100B600042EA43228A6001688A6822F480628A60CD
:100B700001688A68406942EA802088607047000006
:100B800000230140FEE700F001B8000010B516494F
:100B9000022005F057FD1449144C08784A7840EAC1
:100BA000022060838878CA7840EA0220A0830A790C
:100BB00084F827200020A1F114035AB1588018703E
:100BC0001A78002A05D06083A08308704870887066
:100BD000C87010BD5A88521C92B25A800A2AEFD9A6
:100BE000588001221A70EBE76C000020905C002016
:100BF000014800F029BD0000C85700200168CAB2B2
:100C0000103A1823B2FBF3F2064B9B5CC3656FF3FB
:100C10000901032A02D9091D816500E08165806D03
:100C200070470000446E000810B5014600208A6A33
:100C30008B694FF0C074002B0ED0B3F5005F1AD053
:100C400062B3012A2AD0022A28D0032A03D1C96A12
:100C5000C90100D5012010BD1AB1012A06D0022A0F
:100C6000F9D1C96AC901F6D5012010BDC96AA142EE
:100C7000FBD1012010BD52B1012A0AD0022A06D0B0
:100C8000032AF7D1C96AA142F4D1012010BD012085
:100C900010BDC96AC901FBD5012010BD012010BDDE
:100CA00030B50468256825F48025256004686360F4
:100CB0008368402B04D0036899600068C26030BD2F
:100CC00003689A600068C16030BD704778B5002441
:100CD000009490F83C20012A19D0012280F83C2091
:100CE0000A680725092A14D90368DE680A3A02EB64
:100CF00042029540AE43DE600A788B680A3A02EB06
:100D0000420293400268D5682B43D36011E0022071
:100D100078BD03681E6902EB42029540AE431E6136
:100D20000A788B6802EB42029340026815692B43F4
:100D300013614A681F25072A13D203685E6B521E8F
:100D400002EB82029540AE435E630A8893B20A7951
:100D5000521E02EB820293400268556B2B43536391
:100D600028E00D2A13D203681E6BD21F02EB820209
:100D70009540AE431E630A8893B20A79D21F02EBF4
:100D8000820293400268156B2B43136312E00368E1
:100D9000DE6A0D3A02EB82029540AE43DE620A88BB
:100DA00093B20A790D3A02EB820293400268D56A47
:100DB0002B43D362174A184B05689D4206D10D6834
:100DC000122D03D1556845F48005556005689D4294
:100DD0001BD10B68102B01D0112B16D1536843F493
:100DE00000035360096810290FD10C490C4A0968A7
:100DF000B1FBF2F101EB81014900009102E00099A1
:100E0000491E009100990029F9D180F83C4000204A
:100E100078BD0000002301400020014000000020B8
:100E200040420F0070B500682549884247D12548E7
:100E300000F04AF92348A83005F030FB214CA834D3
:100E40006089FFF7ADFB9FED201B53EC112BFFF7E3
:100E5000B5FA9FED1F1B53EC112BFFF721FBFFF79A
:100E600027FC1D4D28602089FFF79AFB9FED1B1B77
:100E700053EC112BFFF7A2FA9FED1A1B53EC112B29
:100E8000FFF79CFAFFF714FC6860A089FFF788FB66
:100E90009FED161B53EC112BFFF790FA9FED151BDE
:100EA00053EC112BFFF7FCFAFFF702FCA860BDE83A
:100EB000704042F6F8221149024800F04FB870BD68
:100EC00000220140805700209999999999318A40D0
:100ED000000000000000F640285C0020CDCCCCCC07
:100EE000CC4C3940000000000000303F1F85EB5122
:100EF000B8FE6040666666666666E0409001002067
:100F00007047704770B504460026002C03D0206C53
:100F1000002510B107E0012070BD204600F01CF84C
:100F2000656484F83C50206CC00610D4206C20F41A
:100F3000885040F0020020642046FFF78BFD656476
:100F4000206C20F0020040F00100206400E0012647
:100F500084F83C50304670BD70470000F8B5044638
:100F60000023009394F83C00012807D0012084F866
:100F70003C0020688568ED0702D014E00220F8BD2F
:100F8000856845F0010585604648474D0068B0FB1F
:100F9000F5F000EB4000009002E00098401E009049
:100FA00000980028F9D120688568ED0503D585688B
:100FB00025F48075856020688568ED0768D0256C0C
:100FC00040F20166B54345F48075256440684005EC
:100FD00005D5206C20F4005040F480502064206C33
:100FE000C00404D5606C20F00600606400E0636417
:100FF00084F83C302D4EA36B2D48D863A36B2D484D
:101000001864A36B2C48D86423686FF02200186022
:101010002068436843F0806343602068836843F43A
:1010200080738360206813464C300A46A56B0146E6
:10103000284600F05BFC70682049C00607D0206895
:1010400088422DD1816811F0405F1CD028E02068D3
:1010500088420FD01A4A904203D1D1F80423D20615
:1010600008D0184A90421BD1D1F8041301F01F0197
:10107000102915D2816811F0405F11D1816841F0CB
:10108000804181600CE0816841F08041816007E02F
:10109000206C40F010002064606C40F0010060643F
:1010A0000020F8BD0000002040420F000023014056
:1010B000C5090008490A0008330A00080020014059
:1010C000002101400022014010B50446002094F8A0
:1010D0003C1001290CD0012184F83C1021688A6859
:1010E00022F001028A6021688A68D20702D01DE0DE
:1010F000022010BD8A6822F480728A60A16B91F888
:101100003520022A07D1084600F044FA18B1216CB4
:1011100041F04001216421684A6822F080624A60FF
:10112000216C21F4885141F001012164002184F8EF
:101130003C1010BD10B590F82020012A07D0022ADB
:1011400005D0416A41F480214162012010BD3C4834
:1011500000F50070026842F001020260026822F4A9
:101160007C52026002684B6A42EA032202600A7DF6
:1011700002F01F0301229A40C3699343C361A0F5A3
:101180000070CB69B3B9D0F80C329343C0F80C327D
:101190008C894B6864F31F434C6900EBC404C4F8AA
:1011A00040320C890B6864F31F434C6900EBC404A4
:1011B000C4F84432CB69012B16D1D0F80C3213435A
:1011C000C0F80C320C884B6864F31F434C6900EB89
:1011D000C404C4F840320C89CB6864F31F434C69E3
:1011E00000EBC404C4F844328B697BB1D0F80432FC
:1011F0001343C0F804320B6973B1D0F814321343AF
:10120000C0F81432096A01290CD010E0D0F8043279
:101210009343C0F80432EEE7D0F814329343C0F899
:101220001432EFE7D0F81C121143C0F81C12D0F8AA
:10123000001221F00101C0F80012002010BD0000D2
:10124000006400400246002092F82030012B01D0BB
:10125000022B04D121B11068006900F0030070472F
:101260001068C06800F00300704730B590F8204067
:10127000012C07D0022C05D0416A41F48021416243
:10128000012030BD21B104682469A4075FD003E0C8
:101290000468E468A40754D04FF4D874056804EBDC
:1012A00001142D5905F004059560F5B305682D5915
:1012B000ED08556005682C5904F00204D4604FF421
:1012C000DA74056804EB01142D5905F00F0515615A
:1012D00005682D59C5F30725956105682C59240C1F
:1012E00054614FF4DC72046802EB0112A4581C70C4
:1012F0000468A458240A5C700468A458240C9C70E8
:101300000468A258120EDA704FF4DE72046802EB21
:101310000112A4581C710468A458240A5C71046862
:10132000A458240C9C71046800E016E0A258120E28
:10133000DA71B9B10068016941F020010161002052
:1013400030BD416A41F400114162012030BD416A63
:1013500041F400114162012030BD05682D596D0D29
:101360001560A7E70068C16841F02001C160E6E7A9
:1013700070B50446002C03D094F8200010B104E0AE
:10138000012070BD204600F09DF82068016821F022
:101390000201016000F0E0FB054605260CE000F0CC
:1013A000DBFB401B0A2807D9606A40F4003060620A
:1013B00084F82060012070BD206840688007EED46A
:1013C0002068016841F00101016000F0C5FB05469D
:1013D0000CE000F0C1FB401B0A2807D9606A40F40A
:1013E0000030606284F82060012070BD2068406891
:1013F000C007EED0207E01283FD02068016821F090
:1014000080010160607E01283DD02068016821F0E4
:1014100040010160A07E01283BD02068016821F0D6
:1014200020010160E07E012839D02068016841F088
:1014300010010160207F012837D02068016821F069
:1014400008010160607F012835D02068016821F023
:1014500004010160D4E902010843D4E904121143F4
:1014600008436168491E08432168C8610020606222
:10147000012084F82000002070BD2068016841F040
:1014800080010160BEE72068016841F04001016011
:10149000C0E72068016841F020010160C2E72068D0
:1014A000016821F010010160C4E72068016841F083
:1014B00008010160C6E72068016841F0040101608D
:1014C000C8E7000030B587B00068194988422CD1C0
:1014D0001848016841F008010160016801F0080145
:1014E0000191016841F008010160006800F0080006
:1014F000019010481030016841F0007101600068EF
:1015000000F00070019002200290039001240494E6
:10151000059009200690084D02A9284600F01EFA01
:10152000029402A9284600F019FA07B030BD000065
:101530000064004030380240000C024070B50446A0
:1015400094F82000012805D0606A40F40020606211
:10155000012070BD022084F820002068016821F07D
:101560000101016000F0F8FA05460DE000F0F4FA20
:10157000401B0A2808D9606A40F4003060620520E8
:1015800084F82000012070BD20684068C007EDD1BC
:10159000606270BD2DE9F0410446A76D00F0DCFAF1
:1015A000054694F835000026022806D080206065A4
:1015B00084F834600120BDE8F0812068016821F0E2
:1015C000160101602068416921F080014161206CB1
:1015D00008B9A06C20B12068016821F00801016001
:1015E0002068016821F0010101600BE000F0B4FA0D
:1015F000401B052806D920203434206226700320A1
:101600006070D8E720680068C007EFD134343F200D
:1016100094F828108840B86026700120607000207F
:10162000C9E790F83510022903D0802141650120D7
:101630007047052180F835100068016821F001012C
:1016400001600020704700002DE9F84304464FF088
:101650000009CDF800906F484FF416510068B0FBB8
:10166000F1F7A56D2E6894F85C00082202FA00F1EB
:10167000314210D02068016849070CD5016821F07B
:101680000401016094F85C0002FA00F1A960606D49
:1016900040F00100606594F85C104FF0010808FA12
:1016A00001F0304208D021684969090604D5A860D4
:1016B000606D40F00200606594F85C100420884082
:1016C000304208D021680968890704D5A860606D98
:1016D00040F00400606594F85C10102088403042AF
:1016E00020D02168096809071CD5A8602068016816
:1016F00049030CD50068000304D4216C91B1204645
:1017000088470FE0A16C69B1204688470AE001686C
:10171000C90503D4016821F008010160216C09B1F9
:101720002046884794F85C102020884030424CD0F6
:1017300021680968C90648D5A86094F835000528CD
:101740000BD020680168490330D50068000328D415
:10175000616C51B32046884737E02068016821F06A
:10176000160101602068416921F080014161206C0F
:1017700008B9A06C20B12068016821F0080101605F
:1017800094F85C103F208840A86084F8349084F876
:101790003580216D00293BD001B02046BDE8F043E3
:1017A0000847E16B09B1204688470EE00168C9058A
:1017B00007D4016821F01001016084F8349084F8A6
:1017C0003580E16B09B120468847606D00281FD045
:1017D000606DC00714D0052084F8350020680168CA
:1017E00021F0010101600098401C0090B84203D82C
:1017F00020680068C007F6D184F8349084F83580FA
:10180000E16C002904D001B02046BDE8F043084750
:10181000BDE8F883000000202DE9F041044600F007
:101820009BF905465CB1002684F83460022084F8F8
:1018300035002068016821F0010101600DE0012000
:10184000BDE8F08100F088F9401B052805D920206B
:101850006065032084F83500F2E720680068C0075F
:10186000F0D121680A6820480240D4E901031843F6
:10187000D4E903352B43184363691843A36918431C
:10188000E3691843236A18431043626A042A03D1A8
:10189000D4E90B231A43104308602068406920F004
:1018A0000700656A29460543012704290DD1A06A6E
:1018B0000543E06A48B12046FFF7B6F928B1402059
:1018C000606584F835700120BAE7206845612046DC
:1018D000FFF794F994F85C203F21914081606665A0
:1018E00084F835700020ABE73F8010F02DE9F0411F
:1018F00004460025A66D94F8340001280DD001207F
:1019000084F8340094F835700020012F07D084F853
:10191000340002252846BDE8F0810220FBE70227BB
:1019200084F8357060652046FFF7BAF994F85C10CA
:101930003F208840B0602068016841F016010160D6
:10194000206C20B12068016841F008010160206826
:10195000016841F001010160DCE700002DE9F84F6A
:101960000022DFF89C914FF0010809F1040A0327D7
:101970004FF00F0C0AF1040B08FA02F50B682B402C
:10198000AB4272D10C7904F00304012C01D0022C7B
:1019900015D18668540007FA04FE26EA0E06D1F82F
:1019A0000CE00EFA04FE4EEA060EC0F808E04468A9
:1019B000AC430D79C5F300159540254345600C797E
:1019C000E443A40708D0C568540007FA04F6B543F9
:1019D0008E68A6402E43C6600C7904F00304022CE6
:1019E00011D1D40800EB8406356A5407E40E0CFAD2
:1019F00004FE25EA0E05D1F810E00EFA04FE4EEAC8
:101A0000050EC6F820E00568540007FA04F6B54351
:101A10000E7906F00306A6402E4306604C68E400EB
:101A200067D5384C256845F480452560246804F462
:101A300080440094344C22F003052E19D6F808583F
:101A400094074FEA147E0CFA0EF4A5432F4CA042E3
:101A500001D1002424E02E4CA04201D101241FE03A
:101A60002C4CA04202D102241AE042E02A4CA042AF
:101A700001D1032414E0294CA04201D104240FE039
:101A8000274CA04201D105240AE0264CA04201D1F6
:101A9000062405E0244CA04201D1072400E00824DC
:101AA00004FA0EF42C43C6F80848D9F800409C43C9
:101AB0004D68ED0300D51C43C9F80040DAF800403A
:101AC0009C434D68AD0300D51C43CAF80040DBF8C9
:101AD00000409C434D68ED0200D51C43CBF800400C
:101AE000074D0C352C689C434E68B60200D51C434C
:101AF0002C60521C102AFFF43FAFBDE8F88F0000A5
:101B0000003C0140443802400030014000000240E7
:101B10000004024000080240000C02400010024095
:101B20000014024000180240001C0240426921EAF1
:101B300002030A4043EA024181617047002A01D052
:101B400081617047090481617047000001480068A5
:101B5000000C7047002004E00148806870470000D6
:101B60007400002070B50446002C11D021684CF69A
:101B7000CC400860216845F255500860D4E9001057
:101B800048602168A0688860FFF7E6FF05460CE022
:101B9000012070BDFFF7E0FF401B302805D9206809
:101BA000C068800701D0032070BD2068C06880072E
:101BB000F0D121684AF6AA200860002070BD0068B4
:101BC0004AF6AA210160002070470000024881689F
:101BD00002781144816070477400002010B50948F4
:101BE000016841F400710160016841F480610160A5
:101BF000032000F059F80F2000F006F800F026F856
:101C0000002010BD003C024070B504460D4D4FF45D
:101C10007A712878B1FBF0F00B490968B1FBF0F05C
:101C200000F036FB08B1012070BD102C07D2002255
:101C30002146501E00F018F86C60002070BD012095
:101C400070BD0000740000200000002070470028D4
:101C500009DB00F01F02012191404009800000F1E2
:101C6000E020C0F800117047F0B40D460D4B1B6822
:101C7000C3F30223C3F10704042C00D90424191D63
:101C8000072901D2002300E0DB1E012606FA04F139
:101C9000491E294099409E40761E16403143F0BCB3
:101CA00002F0F8BA0CED00E000F00701054A1068F8
:101CB0004FF6FF03184040EA012003490843106033
:101CC000704700000CED00E00000FA052DE9F04738
:101CD00004460D46002C13D0DFF82891D9F80000F7
:101CE000EFB200F00700A8420CD289F80070D9F8D2
:101CF000000000F00700A84204D00120BDE8F087F2
:101D00000120FBE72068404E810712D5400703D52C
:101D1000306840F4E05030602078000703D5306828
:101D200040F4604030603068A16820F0F000084363
:101D300030602078C00731D0334960680839012805
:101D400008D002280BD0032809D0096889070BD4D2
:101D50000120D3E70968890306D40120CEE709688A
:101D6000890101D40120C9E7316821F00301014351
:101D70003160FFF7F1FE804641F2883A07E0FFF755
:101D8000EBFEA0EB0800504501D90320B6E7306810
:101D9000616800F00C00B0EB810FF0D1D9F80000C1
:101DA00000F00700A84209D989F80070D9F80000AE
:101DB00000F00700A84201D001209FE720784007EB
:101DC00005D53068E16820F4E050084330602078A1
:101DD000000706D53068216920F4604040EAC10060
:101DE000306000F03FF83168084AC1F30311515CDC
:101DF000C8400749086007480068FFF705FF002052
:101E00007CE70000003C0240083802402C6E0008CD
:101E100000000020780000200148006870470000A2
:101E20000000002000B5FFF7F7FF04490968044AE5
:101E3000C1F38221515CC84000BD00000838024057
:101E40003C6E000800B5FFF7E7FF04490968044A43
:101E5000C1F34231515CC84000BD00000838024067
:101E60003C6E000810B51748006810F00C011648C9
:101E700016D0164B042912D0082911D1114C241F59
:101E8000216801F03F02216849020AD52068C0F3A9
:101E90008810A0FB03010023FEF794F909E018461F
:101EA00010BD21680023C1F38811A1FB0001FEF7DA
:101EB00089F92168C1F30141491C4900B0FBF1F0E7
:101EC00010BD0000083802400024F400001BB700D9
:101ED0002DE9F84F0446002C13D02078DFF8A083BA
:101EE000C007A8F1040556D008F104000168C1F349
:101EF000810101290CD00068C0F38100022803D0C1
:101F00000DE00120BDE8F88FD8F80000400206D5AA
:101F1000286880033FD5606870BB0120F2E76068E5
:101F2000B0F5803F10D0B0F5A02F12D0286820F473
:101F300080302860286820F4802028606068E0B144
:101F4000FFF70AFE064614E0286840F48030286057
:101F5000F4E7286840F480202860286840F4803046
:101F60002860EBE7FFF7F8FD801B642801D9032008
:101F7000C8E728688003F5D50DE0FFF7EDFD0646BC
:101F800006E0FFF7E9FD801B642801D90320B9E7CB
:101F900028688003F5D42078BA4F80074FF00009F5
:101FA00048D5B748001D016811F00C0F08D0006833
:101FB000C0F38100022813D1D8F8000040020FD4EA
:101FC0002868800704D5E068012801D0012099E73E
:101FD0002868216920F0F80040EAC100286029E063
:101FE000E068B8B101203860FFF7B6FD064606E0AC
:101FF000FFF7B2FD801B022801D9032082E7286881
:102000008007F5D52868216920F0F80040EAC10072
:1020100028600FE0C7F80090FFF79EFD064606E037
:10202000FFF79AFD801B022801D903206AE7286880
:102030008007F5D42078000729D5DFF844A292481C
:1020400061690AF1700A89B101210160FFF784FD1D
:10205000064606E0FFF780FD801B022801D9032019
:1020600050E7DAF800008007F4D510E0C0F80090DF
:10207000FFF772FD064606E0FFF76EFD801B0228A3
:1020800001D903203EE7DAF800008007F4D4207875
:10209000400778D54FF0000A79483C300068C0000E
:1020A0000BD477483C30016841F0805101600068F2
:1020B00000F0805000904FF0010ADFF8D0B1DBF85B
:1020C0000000C00514D4DBF8000040F48070CBF8A9
:1020D0000000FFF741FD064606E0FFF73DFD801BCF
:1020E000022801D903200DE7DBF80000C005F4D574
:1020F000634EA0686C3601280FD0052812D03068D6
:1021000020F001003060306820F004003060A068EA
:10211000F8B1FFF721FD834617E0306840F0010079
:102120003060F4E7306840F004003060306840F020
:1021300001003060EBE7FFF70FFDA0EB0B0141F270
:102140008830814201D90320DCE630688007F2D56F
:1021500010E0FFF701FD834609E0FFF7FDFCA0EB6F
:102160000B0141F28830814201D90320CAE6306870
:102170008007F2D4BAF1010F05D141483C30016823
:1021800021F080510160A069C0B33D49091D096873
:102190004FF0FF36C1F38101022946D0022805D055
:1021A000C7F86090FFF7D8FC04463AE0C7F86090A3
:1021B000FFF7D2FC814607E0FFF7CEFCA0EB090059
:1021C000022801D903209DE628688001F4D4D4E9CF
:1021D00007010843616AA26A890106EB520241EADB
:1021E0000241084394F82C1040EA0160C8F800004E
:1021F00001203866FFF7B0FC044607E03DE0FFF73A
:10220000ABFC001B022801D903207BE62868800173
:10221000F5D532E0FFF7A0FC001B022801D903200E
:1022200070E628688001F5D427E0012823D0D8F88B
:102230000000E26900F4800191421AD1226A00F0A4
:102240003F01914215D147F6C071626A0140B1EB7E
:10225000821F0ED1A26A00F4403106EB5202B1EBAC
:10226000024F06D194F82C1000F07060B0EB016FB3
:1022700003D0012046E6012044E6002042E60000AB
:102280000438024000004742800E47420070004080
:1022900010B5401EB0F1807F01D3012010BD4FF07A
:1022A000E02460610F21601701F0F4FF0020A061BD
:1022B00007202061002010BD7047704710B590F8CE
:1022C0003C20012A22D0012280F83C20CA68002349
:1022D0008C6822F4407222434C6822F480622243CC
:1022E0000C6822F4006222430C6922F480522243DB
:1022F0004C6922F400522243C96922F480420A4305
:1023000001684A6480F83C30002010BD022010BDF6
:1023100010B50446002909D004290AD008290BD099
:1023200094F8450001280AD0012010BD94F842001D
:10233000F8E794F84300F5E794F84400F2E7022048
:1023400089B3042933D0082934D084F84500042205
:10235000206801F086FC2068416C41F40041416432
:1023600019492068884214D0B0F1804F11D0174924
:1023700088420ED0164988420BD01649884208D0B0
:102380001549884205D01549884202D0144988422F
:1023900013D1816801F00701062912D0016841F0CC
:1023A000010101600DE0FFE784F84200CFE784F807
:1023B0004300CCE784F84400C9E7016841F001011B
:1023C0000160002010BD000000000140000400403A
:1023D00000080040000C00400004014000400140A3
:1023E0000018004010B50446002C03D094F83D00BE
:1023F00010B107E0012010BD002084F83C00204609
:1024000000F016F8022084F83D00211D206801F03C
:10241000B5FB01203D3460726070A070E0702071E7
:102420006071A071E07120722070002010BD00006A
:1024300008B500680B49884212D10B48016841F089
:1024400010010160006800F01000009001221146A8
:102450003620FFF709FCBDE808403620FFF7F7BB40
:1024600008BD0000001000404038024090F83D10C8
:10247000012901D001207047022180F83D10016838
:10248000CA6842F00102CA6000681449884214D048
:10249000B0F1804F11D0124988420ED011498842C4
:1024A0000BD01149884208D01049884205D0104904
:1024B000884202D00F49884209D1816801F00701A2
:1024C000062908D0016841F00101016003E00168BC
:1024D00041F0010101600020704700000000014050
:1024E0000004004000080040000C004000040140CF
:1024F0000040014000180040704770B50446206855
:1025000001694FF00005C943890716D4C168C94362
:10251000890712D4E91E01610120207720688069B3
:10252000800703D02046FFF7E7FF05E0204600F0D4
:102530009BF8204600F028F9257720680169C943F7
:10254000490718D4C168C943490714D46FF004017E
:102550000161022020772068806910F4407F03D059
:102560002046FFF7C9FF05E0204600F07DF8204631
:1025700000F00AF9257720680169C943090717D4D3
:10258000C168C943090713D46FF008010161042031
:1025900020772068C069800703D02046FFF7ACFF92
:1025A00005E0204600F060F8204600F0EDF82577C1
:1025B00020680169C943C90618D4C168C943C9065E
:1025C00014D46FF010010161082020772068C069E1
:1025D00010F4407F03D02046FFF78EFF05E0204631
:1025E00000F042F8204600F0CFF825772068016916
:1025F000C943C90708D1C168C943C90704D1891EA5
:102600000161204600F030F920680169C9430906DC
:1026100009D4C168C943090605D46FF0800101617E
:102620002046FFF749FE20680169C943490609D4DD
:10263000C168C943490605D46FF0400101612046D5
:1026400000F022FC20680169C94389060BD4C168E7
:10265000C943890607D46FF0200101612046BDE817
:102660007040FFF72ABE70BD704770B504460D4636
:1026700094F83C0001280AD0012084F83C0042B1C3
:10268000042A1AD0082A2DD00C2A53D13EE0022069
:1026900070BD2946206801F0F1FA2068816941F097
:1026A000080181612068816921F00401816120684D
:1026B00081692A69114381613CE02946206801F063
:1026C00011FB2068816941F40061816120688169A2
:1026D00021F480618161206881692A6941EA0221CF
:1026E000816127E02946206801F036FB2068C16936
:1026F00041F00801C1612068C16921F00401C16194
:102700002068C1692A691143C16113E02946206824
:1027100001F05AFB2068C16941F40061C161206881
:10272000C16921F48061C1612068C1692A6941EAF7
:102730000221C161002084F83C0070BD10B5044640
:10274000002C03D094F83D0010B107E0012010BD2B
:10275000002084F83C00204600F015F8022084F8A0
:102760003D00211D206801F009FA01203D3460720E
:102770006070A070E07020716071A071E0712072D3
:102780002070002010BD70477047000010B504464F
:10279000002909D004290AD008290BD094F8410057
:1027A00001280AD0012010BD94F83E00F8E794F803
:1027B0003F00F5E794F84000F2E70220A9B30429AE
:1027C00037D0082938D084F841000122206801F070
:1027D0003BFA1E4920681E4A884201D0904203D12C
:1027E000436C43F4004343642068884213D0B0F143
:1027F000804F10D0174988420DD0174988420AD01F
:102800001649884207D0904205D01549884202D027
:102810001449884213D1816801F00701062912D0BA
:10282000016841F0010101600DE0FFE784F83E001E
:10283000CBE784F83F00C8E784F84000C5E70168AB
:1028400041F001010160002010BD000000000140C6
:10285000000401400004004000080040000C00405B
:1028600000400140001800402DE9F0412DED108B93
:102870000068FE4988427DD100F068FFFC49087875
:10288000401CC0B208709FEDFBDB9FEDFCEBFD4CE4
:10289000FD4D9FEDFECAC82803D9FD4A00201071E6
:1028A00008702888E988401AFDF769FE53EC1D2B53
:1028B000FDF784FD53EC1E2BFDF780FDFDF7F8FEC0
:1028C000FDF7B3FE41EC100BF24804F023F851EC95
:1028D000100BFDF7EDFEA060FDF7A7FE41EC100B1D
:1028E00001F0E8FC9FEDEC1B51EC100B53EC112BAD
:1028F000FDF7AEFE01D284ED02CA94ED020A9FED0F
:10290000E89B9FEDE9AB9FEDEABB9FEDEB8BB5EE4E
:10291000C00AEB4FF1EE10FA6BDDA888FDF740FE20
:102920008846064653EC192BFDF748FD41EC1F0B7A
:1029300048EC106B9FEDE31B01F0C6FC53EC1A2B27
:1029400051EC100BFDF73AFD53EC1F2BFDF78FFCFC
:1029500053EC1B2BFDF78BFCFDF7AAFEFDF765FE84
:1029600041EC100BD94803F0D5FF51EC100BFDF7EB
:102970009FFE00E06FE26060FDF757FE53EC182BFE
:10298000FDF71CFD41EC1F0BA068FDF74EFE41EC6E
:10299000100B01F08FFC53EC1F2B51EC100BFDF7CB
:1029A00057FE02D884ED04CA98E06068FDF73DFE4A
:1029B000B0EE481AF0EE681A53EC112BFDF7FEFC4E
:1029C00041EC1F0BA068FDF730FE41EC100B01F04D
:1029D00071FC53EC1F2B51EC100BFDF7E9FC9FED44
:1029E000BC1B53EC112BFDF75BFDFDF761FE206175
:1029F00074E0B5EEC00AF1EE10FA69D26888FDF70E
:102A0000CFFD8846064653EC192BFDF7D7FC41EC69
:102A10001F0B48EC106B9FEDAB1B01F055FC53EC0A
:102A20001A2B51EC100BFDF7C9FC53EC1F2BFDF7D3
:102A30001EFC53EC1B2BFDF71AFCFDF739FEFDF7CE
:102A4000F4FD41EC100BA14803F064FF51EC100BB6
:102A5000FDF72EFE6060FDF7E8FD53EC182BFDF747
:102A6000ADFC41EC1F0BA068FDF7DFFD41EC100B46
:102A700001F020FC53EC1F2B51EC100BFDF7E8FD8F
:102A800002D884ED04CA29E06068FDF7CEFDB0EEFF
:102A9000481AF0EE681A53EC112BFDF78FFC41EC4D
:102AA0001F0BA068FDF7C1FD41EC100B01F002FC0B
:102AB00053EC1F2B51EC100BFDF77AFC9FED861B9E
:102AC00053EC112BFDF7ECFCFDF7F2FD206105E066
:102AD00084ED02CA84ED01CA84ED04CAA88A698A19
:102AE000401AFDF74CFD53EC1D2BFDF767FC53EC32
:102AF0001E2BFDF763FCFDF7DBFDFDF796FD41ECBA
:102B0000100B774803F006FF51EC100BFDF7D0FDDA
:102B1000B860FDF78AFD41EC100B01F0CBFB9FED97
:102B20005E1B51EC100B53EC112BFDF791FD01D204
:102B300087ED02CAD7ED02CAF5EEC0CAF1EE10FA6F
:102B400060DD2D8A2846FDF72BFD53EC192BFDF790
:102B500035FC41EC190B05FB05F0FDF710FD53ECBE
:102B60001A2BFDF72BFC53EC192BFDF780FB53ECD4
:102B70001B2BFDF77CFBFDF79BFDFDF756FD41ECA4
:102B8000100B584803F0C6FE51EC100BFDF790FDFA
:102B90007860FDF74AFD53EC182BFDF70FFC41EC74
:102BA000190BB868FDF741FD41EC100B01F082FBF9
:102BB00053EC192B51EC100BFDF74AFD02D887EDB1
:102BC00004CAEBE07868FDF730FD53EC182BFDF7F5
:102BD000F5FB41EC180BB868FDF727FD41EC100B35
:102BE00001F068FB53EC182B51EC100BFDF7E0FBE8
:102BF0009FED371B53EC112BFDF752FCFDF758FDF1
:102C00003861CBE0F5EEC0CAF1EE10FA6CD2ED8976
:102C10002846FDF7C5FC53EC192BFDF7CFFB41EC23
:102C2000190B05FB05F0FDF7AAFC53EC1A2BFDF779
:102C3000C5FB53EC192BFDF71AFB53EC1B2BFDF7CF
:102C400016FBFDF735FD09EE100A87ED019A1CEE23
:102C5000900AFDF7EAFC41EC100B01F02BFB53EC62
:102C6000182B51EC100BFDF71BFC3EE00010004050
:102C7000100000206666666666A6424000000000FE
:102C80000000303FD85B00202858002000000000E2
:102C90006C000020F85A00207B14AE47E17A943F84
:102CA000F0A7C64B3789F73F588D25AC8DB153BF80
:102CB00066666666662679C07B14AE47E17AB43FE5
:102CC000005C00200000000000000040185B0020B5
:102CD0005EDFE23CF779BBBF5EDFE23CF779BB3FEA
:102CE000085B0020285B002052E0FDF7E1FC01EECC
:102CF000100AF0EE490AB0EE4C0A01F08EFA87EDA8
:102D0000010A10EE100AFDF790FC41EC100B54483C
:102D100003F000FE51EC100BFDF7CAFC7860FDF7E4
:102D200084FC53EC182BFDF749FB41EC190BB868F8
:102D3000FDF77BFC41EC100B01F0BCFA53EC192BB6
:102D400051EC100BFDF784FC02D887ED04CA25E096
:102D50007868FDF76AFC53EC182BFDF72FFB41EC6C
:102D6000180BB868FDF761FC41EC100B01F0A2FAFA
:102D700053EC182B51EC100BFDF71AFB1FED2A1B1F
:102D800053EC112BFDF78CFBFDF792FC386105E04D
:102D900087ED02CA87ED01CA87ED04CA94ED040AE3
:102DA000304803F0FDFC51EC100BFDF781FCA061F5
:102DB00097ED040A2C4803F0F3FC51EC100BFDF7DF
:102DC00077FCB861294D2869FDF72FFC9FED288B12
:102DD00053EC182BFDF7F2FA41EC100B01F06AFAF4
:102DE00051EC100BFDF764FCE0616869FDF71DFC18
:102DF00053EC182BFDF7E2FA41EC100B01F05AFAF4
:102E000051EC100BFDF754FCF86194ED060A1A48DA
:102E100003F098FC84ED060A97ED060A174803F0C4
:102E200091FC87ED060A9FED168ADFED168AD4ED38
:102E3000060AB0EE481AB0EE680A01F0EEF984ED29
:102E4000060AD7ED060AB0EE481AB0EE680A01F09D
:102E5000E4F987ED060ABDEC108BBDE8F0810000B7
:102E6000285B0020B85C0020205D0020645B00200F
:102E7000736891ED7C3FB53FD8590020185A002067
:102E8000CDCC4C3FCDCC4CBF704770477047000055
:102E9000F8B5044622681068D168536900F00F0540
:102EA000002D08D1860606D58E0604D52046BDE83D
:102EB000F84001F074B80026002D60D003F0010541
:102EC00001F490772F435AD0C20705D0CA0503D525
:102ED000226C42F001022264420705D5DA0703D0D2
:102EE000226C42F002022264820705D5DA0703D081
:102EF000226C42F004022264020707D501F020028E
:102F00002A4303D0226C42F008022264226C002A79
:102F10002BD0800604D5880602D5204601F03FF864
:102F200020684069C0F38010216C090700D408B301
:102F3000204601F00FF820684169490616D541691D
:102F400021F040014161A06B60B144490165A06B73
:102F5000FEF767FB002808D0A06B016D01B0BDE84B
:102F6000F04008472046FFF791FFF8BD2046FFF7E5
:102F70008DFFF8BD2046FFF789FF2664F8BD236B5F
:102F8000012B58D1C30656D5CB0654D510685068CE
:102F9000009050694FF0200340062ED5A16B0868C1
:102FA000406880B20028E9D0A58D8542E6D9E08549
:102FB000C869B0F5807F18D0D06820F48070D060E8
:102FC0002068416921F0010141612068416921F0D7
:102FD0004001416184F83E3026632068C16821F0D9
:102FE0001001C160A06BFEF7D5FAA08DE18D401AEB
:102FF00081B22046FFF749FFF8BDA08DE18D401A50
:1030000081B2E08D0028F7D00029F5D0D06820F4F7
:103010009070D0602068426922F00102426184F819
:103020003E3026632068C26822F01002C26020464B
:10303000FFF72BFFF8BD020606D50A0604D5204689
:10304000BDE8F84001F0A9B84006F3D54806F1D52F
:103050002046BDE8F84000F095BF0000453F00085D
:1030600070B50446002C04D094F83D00002510B142
:1030700006E0012070BD84F83C50204600F022F8A4
:10308000242084F83D002068C16821F40051C1600B
:10309000204600F0DDFF2068016921F490410161C4
:1030A0002068416921F02A0141612068C16841F42A
:1030B0000051C1602564202084F83D0084F83E0062
:1030C000002070BD30B587B000681F49884238D1F4
:1030D0001E48016841F010010160006800F0100016
:1030E00001901A481438016841F00101016001683B
:1030F00001F001010191016841F0010101600068E6
:1031000000F0010001904FF4007002900220039043
:10311000012104910590072406940D4D02A928462B
:10312000FEF71CFC29150291069402A92846FEF719
:1031300015FC2520FEF78BFD032211462520FEF706
:1031400093FD07B030BD000000100140443802403C
:103150000000024090F83E30202B01D00220704742
:1031600059B152B190F83C30012B08D0012380F8BE
:103170003C300023036300F0F5BF012070470220BC
:103180007047000030B400681649884228D1164ABA
:103190005088010419D41146440409784FF0000303
:1031A00007D50A2901D053800FE040F40040508039
:1031B0000BE00D2910D00D4DC0F30D042955401C16
:1031C00080B25080C72800D953800848012230BC03
:1031D0000549C830FFF7BEBF40F480405080F4E797
:1031E00030BC70470010014008000020840000201F
:1031F0007047FEE708B5FEF7F1FC00F065FA04231E
:1032000002220621A82003F0D3FCA82003F06AFACA
:103210004FF4E13003F0EEFD03F042FB42F2CF0148
:10322000092003F027F903F005F9002006231A040A
:103230004FF4A001009003F0CDF940F2DC510420DE
:1032400003F022FB03F060FA03F094FB02F068FF46
:10325000BDE8084003F010BC10B52DED088BB0EEB2
:10326000408AF0EE608A9FED6DAB9FED6EBB9FEDE7
:103270006F9B002A68D099B353EC192B51EC180BB3
:10328000FDF7FEF90FD253EC1A2B51EC180BFDF79A
:1032900095F8FDF7B1F9BDEC088B81B20020BDE8CF
:1032A000104003F043B853EC192B51EC180BFDF709
:1032B000CFF90FD253EC1B2B51EC180BFDF77EF816
:1032C000FDF79AF9BDEC088B80B20021BDE81040F3
:1032D00003F02CB8BDEC088BBDE8104000F038BC02
:1032E00053EC192B51EC180BFDF7CAF90FD253EC24
:1032F0001A2B51EC180BFDF761F8FDF77DF9BDECC9
:10330000088B80B20021BDE8104003F00FB853ECE9
:10331000192B51EC180BFDF79BF90FD253EC1B2B1B
:1033200051EC180BFDF74AF8FDF766F9BDEC088B78
:1033300081B20020BDE8104002F0F8BFBDEC088B60
:10334000BDE8104000F004BC98B353EC192B51ECCD
:10335000180BFDF795F90FD253EC1A2B51EC180B03
:10336000FDF72CF8FDF748F9BDEC088B80B2002181
:10337000BDE8104002F0C0BF53EC192B51EC180B04
:10338000FDF766F90FD253EC1B2B51EC180BFDF730
:1033900015F8FDF731F9BDEC088B81B20020BDE8CE
:1033A000104002F0A9BFBDEC088BBDE8104000F052
:1033B00041B853EC192B51EC180BFDF761F90FD202
:1033C00053EC1A2B51EC180BFCF7F8FFFDF714F92E
:1033D000BDEC088B81B20020BDE8104002F08CBF2C
:1033E00053EC192B51EC180BFDF732F90FD253ECBB
:1033F0001B2B51EC180BFCF7E1FFFDF7FDF8BDECC2
:10340000088B80B20021BDE8104002F075BFBDEC12
:10341000088BBDE8104000F00DB80000000000006F
:103420000000594000000000000059C000000000EA
:10343000000000000021084602F05EBFFEE7000029
:103440002DE9F0418EB006460D46142109A8FCF77F
:1034500003FF1C2102A8FCF7FFFE0024444A106869
:1034600040F001001060106800F001000190404A37
:10347000143A106840F001001060106800F001007C
:103480000190106840F001001060106800F0010029
:103490000190106840F010001060106800F01000FB
:1034A0000190106840F010001060106800F01000EB
:1034B00001909015099002220A920B920C92012021
:1034C0000D90DFF8B08009A94046FEF747FA802743
:1034D000099709A94046FEF741FA38010990DFF83B
:1034E000988009A94046FEF739FAF800099009A921
:1034F0004046FEF733FA224A204810605560946037
:10350000D6604015106197611046FFF717F96020EB
:1035100002900494059407940894002202A9184884
:10352000FFF7A3F8042202A91548FFF79EF81448F4
:10353000403804604460846004614461F901C16101
:1035400001464030FEF7BAFE00210D48FFF71EF994
:1035500000210B48FEF7DCFE04210948FFF716F9AD
:1035600004210748FEF7D4FE0EB0BDE8F08100004C
:1035700044380240000002400010024000000140B8
:10358000805800202DE9F0418EB006460D461421EA
:1035900009A8FCF761FE1C2102A8FCF75DFE0024CF
:1035A000434A106840F002001060106800F002000A
:1035B00001903F4A143A106840F00400106010680F
:1035C00000F004000190106840F0010010601068E5
:1035D00000F001000190106840F0040010601068D5
:1035E00000F004000190106840F0020010601068C4
:1035F00000F0020001904020099002220A920B92F2
:103600000C9203200D90DFF8AC8009A94046FEF72C
:10361000A5F92020099009A92748FEF79FF98027DE
:10362000099709A94046FEF799F90120099009A9CF
:103630002248FEF793F9234A2148106055609460B0
:10364000D6604015106197611046FFF777F860204B
:1036500002900494059407940894002202A9194842
:10366000FFF703F8042202A91648FEF7FEFF1548EB
:1036700068380460446084600461B90141614900B4
:10368000C16101466830FEF719FE00210D48FFF7C1
:103690007DF800210B48FEF73BFE04210948FFF7A7
:1036A00075F804210748FEF733FE0EB0BDE8F0813F
:1036B000443802400008024000000240000402407A
:1036C00000040140C858002010B553216320FFF7C3
:1036D000B7FE5321BDE810406320FFF753BF000041
:1036E0001748B2EE0E0A00ED060A0521017101210C
:1036F0004171B1EE080A00ED050AB7EE000A00EDCF
:10370000040AF0EE000A40ED030A00ED020AF7EEAB
:10371000080A40ED010A80ED000A9FED0A0A80EDDB
:10372000030A04210177B1EE030A80ED040AB7EE23
:103730000C0A80ED050AB7EE060A80ED060A70470E
:10374000B85B00209A99193E70470000F0B5002040
:103750000E4C00260127211F0D7814E000EB4001DC
:1037600004EB8102137963B934F821305B1C9BB2FE
:1037700024F82130B2F802C0634502D324F8216056
:103780001771401CC0B2A842E8D3F0BD1800002059
:10379000FFF730FD00240B4E0027A6F1040803F0CC
:1037A0006DF804EB440006EB8005287910B1A86899
:1037B00080472F71641C98F80000E4B28442EED375
:1037C0000024ECE718000020704700000FB470B52B
:1037D0002DED088BBDF932502846FCF7D0FE9FED49
:1037E000598B9FED5A9B9FED5BAB5C4C002D1EDD12
:1037F00053EC182BFCF754FE53EC192BFCF7DEFDB1
:1038000053EC1A2BFCF7DAFD41EC100B01F084FBB2
:10381000B0EE40BAF0EE60BA1C98FCF706FF53EC2D
:103820001B2BFCF7CBFDFCF743FF60601DE053EC66
:10383000182BFCF735FE53EC192BFCF7BFFD53ECAE
:103840001A2BFCF7BBFD41EC100B01F065FBB0EE51
:1038500040BAF0EE60BA1D98FCF7E7FE53EC1B2B64
:10386000FCF7ACFDFCF724FF6060BDF93000FCF70D
:1038700086FE53EC182BFCF713FE53EC192BFCF7C8
:103880009DFD53EC1A2BFCF799FD41EC100B01F058
:1038900043FBB0EE408AF0EE608A1E98FCF7C5FE4E
:1038A00053EC182BFCF78AFDFCF702FF00EE100A20
:1038B00084ED020AD4ED010A294C30EE801A84ED21
:1038C000041A70EEC00AC4ED050A04F12400D0ED1C
:1038D000061A21EE210A84ED060A60EEA10AC4ED63
:1038E000070A204802F02EFF84ED060A94ED070A2D
:1038F0001D4802F027FF84ED070A1C48D4ED060A94
:10390000C0ED000A1A4880ED000A04F19C008069AD
:10391000FCF78BFE41EC180B04F174008069FCF796
:1039200084FEB0EE481AF0EE681ABDEC088B41EC4C
:10393000100B00221146012070BC5DF814EB02F060
:10394000A5BE0000000000000058AB404AD8124D50
:10395000FB210940000000000000E03F480000207B
:10396000645B00205859002098590020B85C002062
:10397000205D002010B52DED088BB0EE418AF0EEF1
:10398000618A9FED6DAB9FED6EBB9FED6F9B002A33
:1039900068D098B353EC192B51EC180BFCF770FE60
:1039A0000FD253EC1A2B51EC180BFCF707FDFCF768
:1039B00023FEBDEC088B80B20021BDE8104002F070
:1039C0009BBC53EC192B51EC180BFCF741FE0FD2AA
:1039D00053EC1B2B51EC180BFCF7F0FCFCF70CFE26
:1039E000BDEC088B81B20020BDE8104002F084BC21
:1039F000BDEC088BBDE81040FFF71CBD53EC192B44
:103A000051EC180BFCF73CFE0FD253EC1A2B51EC87
:103A1000180BFCF7D3FCFCF7EFFDBDEC088B81B273
:103A20000020BDE8104002F067BC53EC192B51ECAC
:103A3000180BFCF70DFE0FD253EC1B2B51EC180B9F
:103A4000FCF7BCFCFCF7D8FDBDEC088B80B2002174
:103A5000BDE8104002F050BCBDEC088BBDE8104042
:103A6000FFF7E8BC99B353EC192B51EC180BFCF79A
:103A700007FE0FD253EC1A2B51EC180BFCF79EFCEF
:103A8000FCF7BAFDBDEC088B81B20020BDE8104008
:103A900002F04CBC53EC192B51EC180BFCF7D8FD81
:103AA0000FD253EC1B2B51EC180BFCF787FCFCF7E7
:103AB000A3FDBDEC088B80B20021BDE8104002F0F0
:103AC00035BCBDEC088BBDE8104000F041B853ECAC
:103AD000192B51EC180BFCF7D3FD0FD253EC1A2B1A
:103AE00051EC180BFCF76AFCFCF786FDBDEC088B6B
:103AF00080B20021BDE8104002F018BC53EC192B35
:103B000051EC180BFCF7A4FD0FD253EC1B2B51EC1E
:103B1000180BFCF753FCFCF76FFDBDEC088B81B272
:103B20000020BDE8104002F001BCBDEC088BBDE8F0
:103B3000104000F00DB800000000000000005940E7
:103B400000000000000059C000000000000000005C
:103B50000021084602F0EABB7047FEF737B80000C4
:103B60000248016841F470010160704788ED00E08F
:103B70000148FEF7C2BC0000105900202DE9F041B9
:103B80000268264D264E274FDFF89CC0274B4FF08A
:103B90008048A84209D0404507D0B04205D0B8427D
:103BA00003D0604501D0984203D122F070044A68E6
:103BB0002243A8421BD0404519D0B04217D0B8428A
:103BC00015D0604513D0984211D0194CA0420ED0A8
:103BD000184CA0420BD0184CA04208D0174CA04261
:103BE00005D0174CA04202D0164CA04203D122F4BB
:103BF0004074CA6822434C6922F08002224302606A
:103C00008A68C2620A688262A84201D0984201D1E1
:103C10000969016301214161BDE8F08100000140B3
:103C20000004004000080040000C00400004014077
:103C3000004001400044014000480140001800409D
:103C4000001C00400020004010B501F01F010123BE
:103C50008B40046A9C430462036A8A4013430362F4
:103C600010BD10B501F01F0104238B40046A9C4372
:103C70000462036A8A401343036210BDF0B5026A0E
:103C800022F001020262026A4368846924F070042F
:103C900024F003050C682C4322F002058A682A43AD
:103CA0000E4E0F4FB04201D0B84205D122F00805A8
:103CB000CA682A4322F00402B04201D0B84207D1B8
:103CC00023F4807323F400734D691D438B692B43E8
:103CD00043608461496841630262F0BD00000140B5
:103CE00000040140F0B5026A22F010020262036A89
:103CF0004268846924F4E04424F440740D6844EA82
:103D0000052423F020038D6843EA0513104D114E5E
:103D1000A84201D0B04206D123F08003CF6843EA25
:103D2000071323F04003A84201D0B04209D122F486
:103D3000806222F400624D6942EA85028D6942EA9E
:103D4000850242608461496881630362F0BD0000BE
:103D50000000014000040140F0B5026A22F48072C4
:103D60000262026A4368C46924F0700424F0030507
:103D70000C682C4322F400728D6842EA0522104D33
:103D8000104EA84201D0B04206D122F40062CF68A2
:103D900042EA072222F48062A84201D0B04209D14F
:103DA00023F4805323F400534D6943EA05138D69CE
:103DB00043EA05134360C4614968C1630262F0BD10
:103DC000000001400004014030B5026A22F4805234
:103DD0000262046A4268C36923F4E04323F4407337
:103DE0000D6843EA052324F400548D6844EA053441
:103DF000084DA84202D0084DA84204D122F48042C6
:103E00004D6942EA85124260C361496801640462F7
:103E100030BD00000000014000040140FCF7B3BECB
:103E20002DE9F04F9DB03548C068FCF7FEFBDFF888
:103E3000D0A004460D46DAF81800FCF7F6FBDFF8D0
:103E4000C4B006460F46DBF80400FCF7EEFB8046E4
:103E50008946DBF80800FCF7E8FBCDE91A01DBF83E
:103E60001000FCF7E2FBCDE91801274890ED000AAD
:103E700010EE100AFCF7D9FBCDE91601DAF80400C0
:103E8000FCF7D3FBCDE91401DAF80800FCF7CDFB11
:103E9000CDE91201DAF81000FCF7C7FB82461B4897
:103EA0008B4690ED000A10EE100AFCF7BEFB41ECC9
:103EB000100BCDE90C89CDE91045DDE91A01CDE9FA
:103EC0000E67CDE90A01DDE91801CDE90801DDE958
:103ED0001601CDE90601DDE91401CDE90401DDE9B2
:103EE0001201CDE9020153EC102BCDE900AB08A083
:103EF00000F0A8F91DB0BDE8F08F0000645B002061
:103F0000D85B0020005C0020205D0020B85C002011
:103F100025662C25662C25662C25662C25662C25E9
:103F2000662C25662C25662C25662C25660A09003C
:103F300002F09ABE4FF480610148FDF7F7BD000022
:103F40000004024010B5806B0021C185C184FEF7DA
:103F50009DFF10BD0168CA6822F49072CA600168B2
:103F60004A6922F001024A61016B012904D101680A
:103F7000CA6822F01002CA60202180F83E10002199
:103F80000163704710B50168CA6822F04002CA6038
:103F9000202180F83D10FFF72BF9002010BD10B54F
:103FA000044694F83E00222801D0022010BDA168EA
:103FB0004FF48052914201D1206920B1A06A914210
:103FC0001DD051B10BE0A06A21684968C1F3080116
:103FD0000180A06A801CA06209E0216979B1216892
:103FE000496801F07F010170A06A401CA062E08D69
:103FF000401E0004000CE08505D0002010BD2168A3
:1040000049680170F0E72068C16821F02001C160B3
:104010002068C16821F48071C1602068416921F085
:1040200001014161202084F83E00206B012805D069
:104030002046FFF7A7F80020206310BD2068C16864
:1040400021F01001C160A18D2046FEF71EFFF2E7AE
:104050002DE9F041044620680169E26821F44051ED
:1040600011430161A1682069E2690143606910435D
:1040700001432068C26849F20C639A430A43C26054
:1040800020684169A26921F44071114341613349BB
:104090002068884202D03249884202D1FDF7D2FE20
:1040A00001E0FDF7BFFEE1690023192764253226F0
:1040B000B1F5004F28D061688B0F8A00A0FB070183
:1040C000FCF780F80146B0FBF5F07A42504301EB73
:1040D000800006EB0010B0FBF5F000F0F002B1FB41
:1040E000F5F002EB0012B1FBF5F07B42584301EB17
:1040F000800006EB0010B0FBF5F0216800F00F0027
:1041000010448860BDE8F08161684A18A0FB07018F
:104110005B41FCF757F80146B0FBF5F00201B1FB3B
:10412000F5F06FF01803584301EB800006EBC00078
:10413000B0FBF5F000F0F80002EB4002B1FBF5F047
:10414000584301EB800006EBC000B0FBF5F021689E
:1041500000F0070010448860D4E700000010014020
:104160000014014081628285C285002101642222FF
:1041700080F83E2080F83C100168CA6842F48072E2
:10418000CA6001684A6942F001024A610068C16878
:1041900041F02001C1600020704790F83D102129B6
:1041A00001D0022070478168B1F5805F01D10169BB
:1041B00061B1016A4A1C0262026809785160C18CCF
:1041C000491E0904090CC1840AD013E0016A02687F
:1041D0000988C1F308015160016A891C0162EEE798
:1041E0000168CA6822F08002CA600068C16841F0B4
:1041F0004001C160002070470148FEF749BE000041
:104200004C010020FEE703460846984201DA1846B2
:1042100070479042FCDD10467047F0EE401AB0EE59
:10422000600AB4EEE10AF1EE10FA02D8B0EE610ACB
:104230007047B4EEC10AF1EE10FAF9DBB0EE410AB4
:10424000704700000FB4054B10B503A9044A02984B
:1042500001F0E2FB10BC5DF814FB00008D67000864
:104260000C00002003B401984100009850EAC120DE
:1042700018BF04204A0D18BF40F0010040F2FF7241
:10428000B2EB515F08BF40F00200012808BF0520D3
:1042900002B070470907090E002804DB00F1E02096
:1042A00080F80014704700F00F0000F1E02080F863
:1042B000141D70472DED020B019820F00040019075
:1042C0009DED000B02B070472DE9F04D2DED040B74
:1042D0002DED0E8B96B0DDE92550279CDDF890A0E2
:1042E00025F0004624F00048BAF1000F14BF012168
:1042F000002101EB4502FC4953184A1093422AD38E
:10430000002814BF0123002303EB44030B44F749A7
:104310008B4220D358EA00019FEDF59B76D0DFF861
:10432000D8B35D4503D1BAF1000F05D188E0BAF1E9
:10433000000F08BF002100D0012101EB450111F55C
:10434000001F08D8002814BF0121002101EB4401FF
:1043500011F5001F0BD99DED261B9DED240B16B00A
:10436000BDEC0E8B04B0BDE8F04D01F043BA002760
:10437000002DBCBFE149884521DAE1498845A8BF45
:1043800002271CDAC3451ADCDE4901EB2851142947
:1043900008DDC1F1340220FA02F101FA02F2824290
:1043A0000DD108E058B9C1F1140228FA02F101FA5E
:1043B00002F2424503D101F00101C1F1020756EAC0
:1043C0000A0124D1002C22DA002D18BF022F01D0BF
:1043D000012F0AD0022001F057FA16B0BDEC0E8B67
:1043E00004B0BDE8F04D01F0E3B9022001F04CFA51
:1043F00001F0DEF951EC100B81F0004141EC100BA3
:1044000016B0BDEC0E8B04B0BDE8F08D18E09FED4A
:10441000BEAB9FEDBF8B002871D1B848804522D13B
:1044200005F1804010F5801008BFBAF1000F07D0E9
:10443000B3450ADC002CA8BF9DED260BE0DA0DE0A9
:10444000B0EE490AF0EE690ADAE7002C06DA9DEDD3
:10445000260B51EC100B81F000416FE0AE48784420
:1044600090ED000BCCE7D8454DD1002C48DA2EB1A9
:1044700086423AD1BAF1000F42D126E0BAF1000FDC
:1044800013D0022001F000FA01F0CEF98DED020BFD
:104490009DED240B8DED000B10EE900A039961F356
:1044A0001E0003909DED020BAAE78DED02AB9DED82
:1044B000240B1AEE901A10EE900A8DED000B61F3AA
:1044C0001E0003909DED020B9AE78DED028B9DED92
:1044D000240B18EE901A10EE900A8DED000B61F38C
:1044E0001E0003909DED020B8AE709DA9DED240B77
:1044F00051EC190B53EC102BFBF7D2FF1EE020E020
:104500009DED240B7CE786421BDAB4F1804F0DD081
:10451000A4F10050B0F1FF5013D1002D11DB9DED3F
:10452000240B51EC100B02F00BFB07E09DED240B6C
:1045300053EC102B51EC100B00F0C2BC41EC100BF3
:104540005EE79DED240B51EC100B02F0D1F8BAF1AF
:10455000000FCDE90E0142D19FED710B46B3A6F1DC
:10456000E040B0F17F600CD05E4538D1002D00DA1C
:10457000A7B3022F0CBF01204FF0FF30FBF7FFFF66
:10458000DCE7002D01DD002C0DDA002D01DD002C13
:104590001FDB002D16DA002C14DB012F08BF9FED66
:1045A000620B3FF42DAFB0EE4A0AF0EE6A0A27E73D
:1045B000022F18BF002D0CD0012F0AD1002DFFF6BD
:1045C0001FAF06E0002DB8BF002C08DA012F3FF422
:1045D00017AFB0EE480AF0EE680A11E71BE00120C1
:1045E00000EBE57050EA070115D0791EB0EE498A5C
:1045F000F0EE698A084308BF9FED4D8B4E480025B9
:10460000804570DD4D494E48884514DDB0420DDBD4
:10461000002C19DB2FE0012001F036F916B0BDECBB
:104620000E8B04B0BDE8F04D01F0EEB8B34502DCEE
:10463000002C09DC1FE0864202DA002C1BDA03E0C2
:104640005E452BDD002C16DD022001F01DF901F086
:10465000EBF88DED020B53EC1A2B51EC180BFBF71A
:10466000ADFECDE900010399019861F31E000390AE
:104670009DED020BC4E6022001F006F901F0E4F81A
:1046800010EE901A18EE900A8DED020B8DED008B56
:1046900061F31E0003909DED020BB1E69DED0E0B44
:1046A00053EC192B51EC100BFBF782FE9FED260B00
:1046B000CDE9080153EC102B9DED080B51EC100BCC
:1046C000FBF77CFE9FED221B53EC112BFBF773FED7
:1046D0009DED081B53EC112BFBF770FE9FED1E1B8D
:1046E00053EC112B3CE08CE0FFFF1F00FFFF0F009D
:1046F000000000000000F03F0000F03F0000F07FED
:104700000000404301FCFFFF000000000000F07FBC
:104710000000000000000000A62A000000000000C9
:104720000000000000000080000000000000F0FF1A
:10473000000000000000F0BF0000E0410000F04376
:10474000FFFFEF3F00000000000000000000D03F2E
:10475000555555555555D53F000000000000E03F28
:10476000FBF729FE9DED080B41EC1A0B53EC102BC7
:1047700051EC100BFBF722FE53EC1A2BFBF71EFE3D
:1047800041EC1A0B9FEDFE0B53EC102B9DED080B2B
:1047900051EC100BFBF712FE41EC1B0B9FEDFA0BDB
:1047A00051EC1A0B53EC102BFBF708FE41EC1A0BE3
:1047B0009FEDF70B53EC102B9DED080B51EC100BFC
:1047C000FBF7FCFD53EC1A2BFBF7F2FD41EC1A0B47
:1047D00051EC1B0B53EC1A2BFBF749FD0690CDE96E
:1047E00006519DED060B53EC1B2B51EC100BFBF708
:1047F000DFFD53EC1A2BFBF7DEFD41EC100B00F054
:10480000A1B90020B6F5801F0EDA9FEDE30B53EC43
:10481000102B9DED0E0B51EC100BFBF7CFFDCDE9EE
:104820000E016FF034000E4600EB2650A0F2FF3769
:10483000C6F31300DA4940F07F6646F040568842DE
:10484000D8BF002408DDD7498142C8BF012403DC5A
:104850000024A6F580167F1CD348784400EBC400E2
:104860000F9690ED00CB9DED0E0B53EC1C2B51ECF5
:10487000100BFBF79DFD9DED0E0B41EC1B0B53EC5C
:104880001C2B51EC100BFBF7F2FC41EC100B51EC24
:10489000190B53EC102BFBF703FE41EC1D0B51ECF5
:1048A0001B0B53EC1D2BFBF789FD41EC1A0BBF488A
:1048B0008DED10AB7844109590ED000B4FF000504B
:1048C00040EA660000EB84408DED080B00F5002007
:1048D00009909DED080B53EC1C2B51EC100BFBF7D2
:1048E00067FD9DED0E1B53EC112BFBF764FD41ECB6
:1048F000100B53EC102B9DED100B51EC100BFBF734
:104900005DFD9DED080B41EC1C0B53EC102B9DED58
:10491000100B51EC100BFBF751FD53EC1B2BFBF76D
:104920004AFD53EC1C2BFBF743FD53EC1D2BFBF70F
:1049300045FD41EC1C0B53EC1A2B51EC1A0BFBF709
:104940003DFD41EC1B0B9A480621B0EE4B0AF0EE00
:104950006B0A784400F018FEB0EE401AF0EE601AD0
:10496000B0EE41DAF0EE61DA53EC1B2B51EC1B0B8D
:10497000FBF724FD53EC1D2BFBF720FD9DED100BE9
:1049800041EC1B0B53EC1A2B51EC100BFBF76FFC9B
:1049900053EC1C2BFBF712FD53EC1B2BFBF767FCB6
:1049A0009DED100B41EC1B0B53EC102B51EC100B3D
:1049B000FBF704FD41EC1D0B9FED7FEB53EC1E2B31
:1049C000FBF755FC53EC1B2BFBF751FC0890CDE992
:1049D00008519DED080B53EC1E2B51EC100BFBF70F
:1049E000E7FC53EC1D2BFBF7E3FC53EC1B2BFBF715
:1049F000E2FC9DED080B41EC1D0B53EC102B9DEDE3
:104A0000100B51EC100BFBF7D9FC41EC1B0B53ECDA
:104A10001A2B51EC1D0BFBF7D1FC9DED080B41EC63
:104A20001A0B53EC102B51EC1C0BFBF7C7FC53EC8F
:104A30001A2BFBF71CFC41EC1A0B51EC1B0B53EC33
:104A40001A2BFBF714FC0C90CDE90C519DED0C0BCF
:104A500053EC1B2B51EC100BFBF7AAFC53EC1A2B5D
:104A6000FBF7A9FC41EC1B0B9FED550B53EC102BF6
:104A70009DED0C0B51EC100BFBF7A0FC41EC1A0B5D
:104A80009FED510B51EC1B0B53EC102BFBF796FCDD
:104A900041EC1B0B9FED4E0B53EC102B9DED0C0BC3
:104AA00051EC100BFBF78AFC53EC1B2BFBF7DFFBE5
:104AB00041EC100B4848784400EBC40090ED001B1B
:104AC00051EC100B53EC112BFBF7D1FB41EC1B0B02
:104AD0003846FBF754FDCDE9080153EC1B2B51EC94
:104AE0001A0BFBF7C4FB41EC100B3C48784400EB7D
:104AF000C40090ED00CB51EC100B53EC1C2BFBF7DA
:104B0000B6FB9DED081B53EC112BFBF7B0FB069099
:104B1000CDE906519DED080B53EC102B9DED060BD6
:104B200051EC100BFBF744FC53EC1C2BFBF740FC47
:104B300053EC1A2BFBF73CFC53EC1B2BFBF73BFC19
:104B400041EC100B9DED261B53EC102B8DED001B43
:104B500000959DED260B51EC100BFBF72FFC9DED06
:104B6000000B41EC1A0B53EC102B9DED260B51EC76
:104B7000100BFBF71DFC9DED061B53EC112B2FE0DA
:104B8000000000604715F73FFE822B654715F73F91
:104B900044DF5DF80BAE543E0000000000004043CF
:104BA0008E9803007AB60B00F22500005026000014
:104BB0002A2500000000000000000000000008405E
:104BC000000000E009C7EE3FFD033ADC09C7EE3FF5
:104BD000F5015B14E02F3EBEB623000070230000F9
:104BE000FBF7ECFB53EC1A2BFBF741FB9DED060B9F
:104BF00041EC1A0B53EC102B9DED000B51EC100BFC
:104C0000FBF7DCFBCDE90C019DED0C0B51EC1A0B15
:104C100053EC102BFBF72BFBCDE902010C46AA4904
:104C20008C422FDB611A084318D19DED0C0B53EC1D
:104C3000102B9DED020B51EC100BFBF7B9FB41EC77
:104C40001B0B9FEDA30B51EC1A0B53EC102BFBF736
:104C50000EFB53EC1B2BFBF713FD2DD2022000F0B3
:104C600013FE00F0E1FD10EE901A18EE900A8DEDA3
:104C7000020B8DED008B61F31E0003909DED020B86
:104C8000FFF7BEBB944A24F00041914214D39349EC
:104C9000214408437FF4EFAC9DED0C0B53EC102B3B
:104CA0009DED020B51EC100BFBF782FB53EC1A2B22
:104CB000FBF7E6FC7FF6DFAC24F000408849894A28
:104CC000002601EB205182422BDA481C4FF4801160
:104CD00021FA00F02044844AC0F30A517A44A1F238
:104CE000FF3192ED000B814A8DED080BCA4020EA9E
:104CF0000202C0F3130040F48010C1F1140120FA45
:104D000001F60992002CB8BF76429DED080B53ECDA
:104D1000102B9DED0C0B51EC100BFBF749FBCDE973
:104D20000C019DED0C0B51EC1A0B53EC102BFBF707
:104D30009EFA9FED6F0B0890CDE9085153EC102BB4
:104D40009DED080B51EC100BFBF738FB41EC1B0BF6
:104D50009FED690B53EC102B9DED080B51EC100BE4
:104D6000FBF72CFB9DED0C0B41EC1C0B53EC102BBB
:104D70009DED080B51EC100BFBF71AFB53EC1A2BB3
:104D8000FBF719FB9FED5E1B53EC112BFBF716FB9A
:104D900053EC1C2BFBF76BFA41EC1A0B51EC1B0B81
:104DA00053EC1A2BFBF763FACDE902019DED020BE0
:104DB00053EC1B2B51EC100BFBF7FAFA53EC1A2BAC
:104DC000FBF7F9FA9DED020B41EC1A0B53EC102B9B
:104DD00051EC100BFBF7F2FACDE908014A489DEDC2
:104DE000080B0521784400F0CFFB9DED081B51EC2A
:104DF000100B53EC112BFBF7E1FA9DED021B53EC6A
:104E0000112BFBF7D8FACDE906019DED020B53EC0F
:104E10001A2B51EC100BFBF7D1FA53EC1A2BFBF7C2
:104E200026FA9FED3B0B41EC1A0B53EC102B9DED3A
:104E3000060B51EC100BFBF7BBFA9DED060B41EC9A
:104E40001B0B53EC102B9DED020B51EC100BFBF7E1
:104E5000B5FA53EC1B2BFBF723FB53EC1A2BFBF798
:104E6000A7FA9DED021B53EC112BFBF7A1FA53ECB3
:104E7000192BFBF7A0FACDE9020101EB0650011551
:104E80000029C8BF039015DC9DED020B324651ECA2
:104E9000100BFBF704FDFFF7E5F9042808BF00F04D
:104EA000D3FC32469DED020B51EC100BFBF7F7FCE7
:104EB000CDE902019DED020B51EC180B53EC102BC8
:104EC000FBF77CFAFFF73ABB0000904000000000BF
:104ED000FE822B654715973C00CC904000346F3F15
:104EE00001FCFFFF0000E03F28220000FFFF0F0051
:104EF00000000000432EE63F396CA80C615C20BE28
:104F0000EF39FAFE422EE63FC82000000000000004
:104F1000000000000000004010B52F499FED2C1B41
:104F20002DED020B84B0059820F000408842DCBFD4
:104F300000209DED040B32DD2849884209D10498F8
:104F400040B94FF0010000F09FFC00F05DFC06B09E
:104F500010BD05DB9DED040B00F042FC06B010BD5A
:104F600068469DED040B00F03BF810F0030011D0F3
:104F7000012818D09DED021B9DED000B02281AD0D0
:104F800000F04AFA51EC100B81F0004106B041EC00
:104F9000100B10BD9DED021B9DED000B012000F0DC
:104FA0006FFB06B010BD9DED021B9DED000B00F0E8
:104FB00033FA06B010BD012000F062FB51EC100B7B
:104FC00081F0004106B041EC100B10BD0000000064
:104FD0000000000000000000FB21E93F0000F07F1E
:104FE0002DE9F14F04462DED020B2DED088B8AB013
:104FF0009FEDE70B80ED020B139EE74826F000457E
:1050000085420ADC9DED120B002084ED000B0AB0F6
:10501000BDEC088B03B0BDE8F08FE0489FEDE0AB3E
:105020009FEDE1BBA84247DDE14F9FEDE39B9FED84
:10503000E48B9DED120B53EC1A2B51EC100B002E50
:105040001CDDFBF7B5F941EC100BBD4208D053EC69
:105050001B2B51EC100BFBF7ABF9C4E900010BE083
:1050600053EC192B51EC100BFBF7A2F953EC182B56
:10507000FBF79EF9C4E900010120C8E7FBF7F7F848
:1050800041EC100BBD4208D053EC1B2B51EC100B24
:10509000FBF7EDF8C4E900010BE053EC192B51ECE0
:1050A000100BFBF7E4F853EC182BFBF7E0F8C4E91E
:1050B00000014FF0FF30AAE7C348A84279DB9DED1D
:1050C000120B51EC100B01F013FB41EC180B9FED90
:1050D000C00B53EC102BFBF771F99FEDBF1B53EC8A
:1050E000112BFBF7C4F8FBF768FA0746FBF747FA02
:1050F00041EC190B53EC1A2BFBF760F953EC182B0E
:10510000FBF759F941EC180B53EC1B2B51EC190B25
:10511000FBF754F9DFF8C8A241EC100B4FEA155821
:105120000125FA4453EC102B51EC180BFBF740F916
:10513000032DC4E900013DD0C1F30A5005EB451130
:10514000A8EB00001139814234DA0AEB051BB0EEFE
:1051500048AA9BED000BF0EE68AA53EC102B51EC23
:10516000190BFBF72BF941EC1B0B51EC1A0B53EC11
:105170001B2BFBF71DF941EC180B51EC1A0B53ECF0
:10518000182BFBF715F953EC1B2BFBF711F99BEDD3
:10519000020B41EC1A0B53EC102B51EC190BFBF7E3
:1051A0000DF953EC1A2BFBF703F941EC100B6D1CB6
:1051B000B8E70EE0002EA8BF3846BFF628AF94ED42
:1051C000000B51EC100B81F00041C4E90001784262
:1051D0001DE7C6F3130040F4801EC6F30A50A0F288
:1051E000F530471100F01F05C5F12000DDF848B08B
:1051F00008900020069007900520EC467949002D84
:1052000007EB0002794408BF51F8221009D051F889
:10521000223001EB8201AB404A68089922FA01F181
:105220001943A1FB0E26A1FB0B131A449A4234BF6B
:105230000123002303EB06080CEB8003D3E901A64E
:105240000E448E4234BF0121002192448A4411B1A0
:10525000924502D903E0924501D2012100E00021EC
:10526000C3E901A641444CF82010011EA0F1010041
:10527000C4DC029800F10050850F0298DDE9036755
:105280008000DDF81480FBF77AF941EC1A0B304608
:10529000FBF786F99FED541B53EC112BFBF78EF8AF
:1052A00041EC1B0B3846FBF77BF99FED511B53EC90
:1052B000112BFBF783F841EC180B4046FBF770F914
:1052C0009FED4D1B53EC112BFBF778F841EC190BBC
:1052D00051EC180B53EC192BFAF7C9FF53EC1B2BAD
:1052E000FAF7C5FF53EC1A2BFAF7C1FFCDE9080115
:1052F000002008909DED080B53EC1A2B51EC100B7D
:10530000FBF756F853EC1B2BFBF752F853EC182B1A
:10531000FBF74EF853EC192BFBF74DF89FED381BBC
:1053200053EC112BFBF74AF89FED370B41EC180BB0
:1053300053EC102B9DED080B51EC100BFBF73EF8D6
:1053400053EC182BFAF793FF9FED310B41EC180B40
:1053500053EC102B9DED080B51EC100BFBF72EF8C6
:1053600053EC182BFAF783FF41EC100B139810F055
:10537000004F06D06D4251EC100B81F0004141EC22
:10538000100B284684ED000B41E6000000000000F1
:105390000000000000000000FB21E93F7CD9024032
:1053A00000004054FB21F93F3163621A61B4D03DE3
:1053B000FB21F93F000000000000601A61B4D03DFD
:1053C0007370032E8A19A33BFB21394100000000B2
:1053D00083C8C96D305FE43F000000000000E03F7B
:1053E000EA1D0000381D0000000000000000103E13
:1053F000000000000000103C000000000000103A17
:10540000182D4454FB21F93D3326A611460B113CBF
:1054100000000054FB21F93D10B52DED040B2DEDDE
:10542000088B82B0B0EE419AF0EE619A0B9820F0B2
:1054300000449FED4BABB4F1795F11DA9DED0A0B9F
:1054400051EC100BFBF7B9F8002801BFB0EE4A0A87
:10545000F0EE6A0A02B0BDEC088B04BF04B010BDC8
:105460009DED0A0B53EC102B51EC100BFAF7A6FF35
:1054700041EC180B3C480621B0EE480AF0EE680AF1
:10548000784400F081F853EC182B51EC100BFAF72C
:1054900095FF9DED0A0B41EC1B0B53EC192B51ECC6
:1054A000100BFAF78BFF41EC190B53EC1B2B51EC53
:1054B000180BFAF783FF53EC192BFAF779FF9FEDDE
:1054C0002C0B41EC190B53EC102B51EC180BFAF789
:1054D00075FF41EC100B2848844210DA53EC192B6D
:1054E00051EC100BFAF764FF53EC1A2BFAF763FF39
:1054F00041EC100B02B0BDEC088B04B010BD1F488E
:10550000A042BCBF9FED1E1B8DED001B06DBA4F56A
:1055100000100190002000909DED001B51EC100B3D
:1055200053EC112BFAF744FF9DED000B41EC180BE7
:1055300053EC102B51EC1A0BFAF73AFF41EC1A0B13
:1055400053EC192B51EC180BFAF732FF53EC1A2BD2
:10555000FAF731FF41EC100BCCE70000000000002F
:10556000000000000000F03F541A0000000000009E
:10557000000000000000E03F3333D33F0000E93F6C
:10558000000000000000D23F70B504462DED028BF4
:105590004D1E00EBC500B0EE408AF0EE608A90ED43
:1055A000000B35F0060017D053EC182B51EC100B04
:1055B000FAF704FF41EC100B6D1E04EBC50090EDF3
:1055C000001B51EC100B53EC112BFAF750FE41EC81
:1055D000100B35F00600E7D1022D36D0042D1CD07B
:1055E000062D1CBFBDEC028B70BD53EC182B51EC8B
:1055F000100BFAF7E3FE94ED0A1B53EC112BFAF7AC
:1056000036FE53EC182BFAF7D9FE94ED081B53EC39
:10561000112BFAF72CFE41EC100B53EC182B51EC2C
:10562000100BFAF7CBFE94ED061B53EC112BFAF797
:105630001EFE53EC182BFAF7C1FE94ED040B53EC4D
:10564000102BFAF714FE41EC100B53EC182B51EC15
:10565000100BFAF7B3FE94ED021B53EC112BFAF783
:1056600006FE53EC182BFAF7A9FE94ED001B53EC41
:10567000112BFAF7FCFDBDEC028B41EC100B70BD59
:1056800031B504462DED040B2DED0A8BB0EE41BA79
:10569000F0EE61BA0B989DED0A0B20F00040B0F1DE
:1056A000795F0DDA51EC100BFEF7DCFD042808BF22
:1056B00000F0CAF89DED0A0BBDEC0A8B05B030BDB9
:1056C00053EC102B51EC100BFAF778FE41EC180B51
:1056D0009DED0A0B53EC182B51EC100BFAF76EFEF4
:1056E00041EC190B2C48B0EE480AF0EE680A05218F
:1056F0007844FFF749FF9FED2ACBB0EE40AAF0EEC9
:1057000060AA9CB353EC1C2B51EC190BFAF756FE14
:1057100041EC1C0B53EC1A2B51EC190BFAF74EFE13
:105720009FED210B41EC190B53EC102B51EC1B0B93
:10573000FAF744FE53EC192BFAF73AFE53EC182B08
:10574000FAF73CFE53EC1B2BFAF732FE53EC1C2B02
:10575000FAF72EFE9DED0A1B53EC112BFAF72BFEE8
:10576000BDEC0A8B05B041EC100B30BDFFE753ECEC
:105770001A2B51EC180BFAF721FE53EC1C2BFAF7FD
:1057800076FD53EC192BFAF719FE9DED0A1B53EC2D
:10579000112BFAF76CFDE3E7E418000000000000AD
:1057A000495555555555C5BF000000000000E03F64
:1057B0009FED070B10B553EC102B9FED070B51EC31
:1057C000100BFAF76DFE41EC100B10BD000000004D
:1057D0000000000000000000000000000000F03F9A
:1057E00010B553EC102B51EC100BFAF740FD41ECC7
:1057F000100B10BD10B553EC112B51EC100BFAF738
:1058000036FD41EC100B10BD9FED050B10B553ECB0
:10581000102B51EC100BFAF743FE41EC100B10BDAE
:1058200000000000000000009FED050B10B553ECD8
:10583000102B51EC100BFAF7C1FD41EC100B10BD11
:1058400000000000000000709FED050B10B553EC48
:10585000102B51EC100BFAF7B1FD41EC100B10BD01
:10586000000000000000001002E008C8121F08C17C
:10587000002AFAD170477047002001E001C1121FD1
:10588000002AFBD170470000014908607047000002
:10589000800000202DE9FF5F82B00021DDE90430A7
:1058A000020DDDF840B0034318D044F61050A2F2C8
:1058B000FF3242431514119801281FD0A5EB0B00AD
:1058C000401C5FEA000A4FF000064E4FDFF83891A7
:1058D000B046504615D5CAF1000413E011980124D2
:1058E0004AA3012801D16FEA0B010298119AC0E97D
:1058F0000031C0E9024206B0BDE8F09FCBF10000E4
:10590000DFE704460021404A491842EB0450CDE944
:10591000001012E0E00707D032463B4640464946B9
:10592000FAF74CFD8046894632463B4610461946FA
:10593000FAF744FD06460F466410002CEAD1DDE973
:105940000401DDE90023BAF1000F06DAFAF736FDAB
:1059500042464B46FAF732FD05E0FAF7A1FD424612
:105960004B46FAF79DFD04460E460022284BFAF7F7
:1059700087FE03D84FF0FF30014607E00022254B99
:1059800020463146FAF773FCFAF7F1FF102409E0DC
:10599000002C0ADB0A220023FAF714FC039B3032A6
:1059A0001A55641E50EA0102F2D1641C039AC4F134
:1059B00011031444119A012A03D0012208430DD186
:1059C0000AE0084304D000204FF0110B119072E759
:1059D000A3EB0B056D1E0DE05B4504DD4FF00002EF
:1059E00005F1010504E003DA4FF00002A5F101051D
:1059F000002AECD002981199C0E90231C0E90045B3
:105A000079E70000000014400000F03F3000000083
:105A10000000F0430000E03F2DE9FF4F95B09A46AB
:105A2000884606460025EEE1252877D10024274642
:105A3000F94A0121039400E0044316F8013F203B9A
:105A400001FA03F01042F7D130782A2811D06FF014
:105A50002F033078A0F13002092A16D8039A44F0B7
:105A6000020402EB820203EB42021044761C039014
:105A7000EFE758F8042B0392002A03DA504244F46B
:105A80000054039044F00204761C30782E2816D17E
:105A900016F8010F44F004042A280DD06FF02F02ED
:105AA0003078A0F13003092B09D807EB870302EB0C
:105AB0004303C718761CF3E758F8047B761C30784C
:105AC0006C280FD006DC4C2817D068280DD06A2827
:105AD00014D104E0742810D07A280FD10DE044F4DA
