:020000040800F2
:10000000081C0020A1010008A93800088734000856
:10001000953500083D0E0008B943000800000000B7
:10002000000000000000000000000000053C000887
:100030001F1100080000000029390008073C0008D3
:10004000C5010008C5010008C5010008C501000878
:10005000C5010008C5010008C5010008C501000868
:10006000C5010008C5010008C5010008C501000858
:10007000C5010008C5010008C5010008C501000848
:10008000C5010008C5010008C5010008C501000838
:10009000410E0008C5010008C5010008C50100089F
:1000A000C5010008C5010008C5010008C501000818
:1000B000C5010008C5010008C5010008C501000808
:1000C000C5010008C5010008C5010008C5010008F8
:1000D000C5010008D1420008C5010008C50100089B
:1000E000C5010008C5010008C5010008C5010008D8
:1000F000C5010008C5010008C5010008C5010008C8
:10010000C5010008C5010008C5010008C5010008B7
:10011000C5010008C50100081D3C0008C501000814
:10012000C501000845100008C5010008C501000808
:10013000C5010008C5010008C5010008C501000887
:10014000C5010008C5010008C5010008C501000877
:10015000C5010008C5010008C5010008C501000867
:10016000C5010008C5010008C5010008C501000857
:10017000C5010008C5010008C50100080000000015
:10018000C5010008C5010008DFF810D000F0F8FB39
:1001900000480047715A0008AFF30080081C002097
:1001A0000948016841F47001016008488047084827
:1001B0000047FEE7FEE7FEE7FEE7FEE7FEE7FEE7B5
:1001C000FEE7FEE7FEE7000088ED00E00D3C0008DA
:1001D000890100082DE9F05F0546002092469B4604
:1001E00088460646814640241BE02846414647464D
:1001F000224600F0A6FA53465A46C01A914110D33F
:1002000011461846224600F08DFA2D1A67EB0108B8
:100210004F4622460120002100F084FA17EB000926
:100220004E41201EA4F10104DFDC484631462A4637
:100230004346BDE8F09F40EA01039B0703D009E075
:1002400008C9121F08C0042AFAD203E011F8013BC2
:1002500000F8013B521EF9D27047D2B201E000F81B
:10026000012B491EFBD270470022F6E710B513465A
:100270000A4604461946FFF7F0FF204610BD2DE957
:10028000FE4F804681EA0300C00F0C46009021F02B
:10029000004123F00045B8EB0200A94105D24046D9
:1002A000214690461C460B46024623F00040104370
:1002B00047D0270DC7F30A00C3F30A510290401A32
:1002C000019040286BDAC3F3130040F4801B0098C0
:1002D000924620B10023D2EB030A63EB0B0B01988B
:1002E0005946C0F14002504600F01CFA06460D4641
:1002F00050465946019A00F034FA10EB080061416B
:10030000002487EA115284EAE7731A4340D0009A26
:1003100062B3019A012A4FEA075215DC001B61EB18
:1003200002014FF0004202EA0752CDE90042001CF0
:1003300041F5801132462B4600F06BFA03B0BDE860
:10034000F08F40462146F9E7001B61EB0201001CDB
:1003500041F5801300185B412018A2F5001747EB08
:10036000030140EAD570B6196D4111E06D084FEAFE
:10037000360645EAC0754FEA0752001B61EB0201E1
:10038000001C41F5801149084FEA30000019514125
:1003900032462B4603B0BDE8F04F00F02BBA009870
:1003A000012240000023D0EB020263EBE0730098CF
:1003B00021464FEAE074B8EB000061EB0401E9E785
:1003C00083F000435BE781F0004158E72DE9FE4FE1
:1003D00081EA030404F0004421F0004100944FF04E
:1003E000000B23F0004350EA01045ED052EA0304FC
:1003F0005BD0C3F30A54C1F30A552C44A4F2F3347E
:100400000194A0FB0254C1F3130141F48011C3F322
:10041000130343F4801301FB024400FB034E840AE0
:10042000970A44EA815447EA8357A4FB0768029578
:100430008D0A05FB07854FEA932C04FB0C54270516
:10044000029D4FEA065847EA1637B5EB08056EEBF2
:10045000070C870E920E47EA811742EA8312A7FB28
:100460000201B6EB0B0164EB00042B0D43EA0C33E5
:100470005E1844EB1C50DA465146E7FB0201C5F317
:1004800013044FEA0B3343EA14534FEA0432019C3E
:1004900043EA0603A4F10C040294009CCDE900B4E5
:1004A00000F0B7F903B0BDE8F08F00200146F9E78E
:1004B0002DE9F04D81EA030404F0004B21F00045E2
:1004C00014464FF0000A23F0004150EA050220D004
:1004D00054EA01021DD0C5F30A570246C5F31303BF
:1004E000C1F31300C1F30A5640F4801543F480139E
:1004F000A7EB0608101BD64608F2FD3873EB050083
:1005000002D308F1010801E092185B41B8F1000F35
:1005100003DA00200146BDE8F08D00204FF4801181
:10052000064684460EE0171B73EB050705D3121B26
:1005300063EB050306434CEA010C49084FEA30001F
:1005400092185B4150EA0107EDD152EA030012D044
:1005500082EA040083EA0501084305D0101BAB4181
:1005600006D20122002306E000224FF0004302E001
:100570006FF0010253101AEB06004CEB085110EB20
:100580000A0041EB0B01BDE8F04D00F033B90EB5A8
:10059000C10F80EAE0700844CA07002140F23343EB
:1005A0008DE80E000A460B4600F033F903B000BD9B
:1005B0000EB540F2334102910021CDE900110A4607
:1005C0000B4600F026F903B000BD70B5C1F30A5226
:1005D00001F000450024C1F3130140F2FF3341F460
:1005E00080119A4201DA002070BD40F233439A42F2
:1005F000A2F2334203DC524200F0A3F800E0904044
:100600002C43F1D0404270BDC1F30A5210B5C1F382
:10061000130140F2FF3341F480119A4201DA0020C5
:1006200010BD40F233439A42A2F2334203DC5242FD
:1006300000F087F810BD904010BD00F0004230F08F
:1006400000400AD0C10D01F56071C0F3160042EA06
:100650000151C2084007114370470020014670470E
:1006600030B5041E71F1000404DB4FF00044404239
:1006700064EB0101141E73F1000405DB1C464FF00E
:100680000043524263EB04038B4208BF824230BDF9
:1006900030B5041E71F1000404DB4FF00044404209
:1006A00064EB0101141E73F1000405DB1C464FF0DE
:1006B0000043524263EB0403994208BF904230BDAD
:1006C00001F0004330B421F0004150EA010206D0AD
:1006D0000A0DA2F56072C1F31301002A02DC30BCDE
:1006E00000207047440F44EAC104C100E01830BC48
:1006F00000EBC25000F047B830B50B460146002071
:100700002022012409E021FA02F59D4205D303FAD3
:1007100002F5491B04FA02F52844151EA2F1010254
:10072000F1DC30BD202A04DB203A00FA02F100207F
:1007300070479140C2F1200320FA03F3194390401F
:100740007047202A04DB203A21FA02F0002170478A
:1007500021FA02F3D040C2F1200291400843194629
:100760007047202A06DBCB17203A41FA02F043EA11
:10077000E07306E041FA02F3D040C2F1200291405A
:100780000843194670470029A8BF7047401C49001C
:1007900008BF20F00100704710B4B0FA80FC00FAE6
:1007A0000CF050EA010404BF10BC704749B1CCF111
:1007B000200421FA04F411FA0CF118BF012121439D
:1007C0000843A3EB0C01CB1D4FEA00614FEA102058
:1007D00042BF002010BC704700EBC35010440029FA
:1007E000A4BF10BC7047401C490008BF20F00100A6
:1007F00010BC704710B5141E73F1000408DA401CD9
:1008000041F1000192185B411A4301D120F001002F
:1008100010BD2DE9F04D92469B4611B1B1FA81F21F
:1008200002E0B0FA80F220329046FFF77BFF0446E8
:100830000F4640EA0A0041EA0B0153465A46084374
:1008400013D0114653EA010019D0C8F140025046B6
:10085000FFF777FF05460E46504659464246FFF7DA
:1008600061FF084305D0012004E020463946BDE879
:10087000F08D0020054346EAE0762C4337430A9882
:100880006305E40AA0EB08000022FD0A44EA47548D
:100890000A3002D500200146E9E701051019694137
:1008A000DDE9084500196941BDE8F04DA2E72DE9F1
:1008B000F04D00231A461B1A8A4103DB0020014633
:1008C000BDE8F08DC1F30A52C1F3130141F4801564
:1008D0004FF0000BD10702D100186D41521E0027C6
:1008E000044640F2FF11384601EB620A3E4680465C
:1008F000024600204FF48011FFF723FFC219714117
:10090000BB1846EB0100B4EB030C75EB000C04D3F1
:10091000E41A65EB000517460E46241908F101009C
:100920006D4180463428E3DDF91946EB0600091BCA
:10093000A84103D24FF0FF32134601E000221346D4
:100940001BEB070046EB0A51BDE8F04DFFF752BF25
:10095000C1F30A52C1F3130140F2FF3341F4801195
:100960009A4202DA00200146704740F233439A422D
:10097000A2F2334202DC5242FFF7E3BEFFF7D2BEDF
:10098000064C074D06E0E06840F0010394E80700DC
:1009900098471034AC42F6D3FFF7FAFB906000089A
:1009A000B060000870B58C1810F8015B15F00703F3
:1009B00001D110F8013B2A1106D110F8012B03E0F8
:1009C00010F8016B01F8016B5B1EF9D12B0705D400
:1009D0000023521E0DD401F8013BFAE710F8013B49
:1009E000CB1A921C03E013F8015B01F8015B521E65
:1009F000F9D5A142D8D3002070BD10B50146886B4F
:100A0000026C12F0500F05D0026CD20626D500F011
:100A1000B8FC10BD016C41F40071016401688A6882
:100A200012F0405F17D1027EAAB9CA6A12F4700FA1
:100A300002D08A6852050ED44A6822F020024A6029
:100A4000016C21F480710164016CC90403D4016C50
:100A500041F00101016400F025FC10BD806BC26C07
:100A6000BDE810400846104710B5806B4021016476
:100A7000416C41F00401416400F083FC10BD10B5ED
:100A8000806B00F07DFC10BD4A494A6822F4403278
:100A90004A604A6843681A434A6001684A6822F417
:100AA00080724A6001684A68036942EA03224A6028
:100AB00001684A6822F040724A6001684A688368A7
:100AC0001A434A6001688A6822F400628A600168F9
:100AD0008A68C3681A438A60816A6FF07062D14283
:100AE00014D001688A6822F070628A6001688A689E
:100AF000836A1A438A6001688A6822F040528A60D9
:100B000001688A68C36A1A438A6009E001688A68D2
:100B100022F070628A6001688A6822F040528A601E
:100B200001688A6822F002028A6001688A68037E8E
:100B300042EA43028A6090F8201089B101684A684D
:100B400042F400624A6001684A6822F460424A60E6
:100B500001684B68426A521E43EA42324A6004E02E
:100B600001684A6822F400624A600168CA6A22F495
:100B70007002CA620168CB6A828B521E43EA02523B
:100B8000CA6201688A6822F400728A6001688A6811
:100B900090F8303042EA43228A6001688A6822F481
:100BA00080628A6001688A68406942EA80208860C1
:100BB000704700000023014070B504462DED068B00
:100BC00015461E46414890ED000A84ED000A91ED5D
:100BD000038A96ED000A05F0C3F900EE100A96EDBF
:100BE000001AB8EEC00A60EE080A95ED000A60EE41
:100BF000800A41EE000A96ED000A95ED011A20EEFA
:100C0000010AB5EEC00AF1EE10FA0BDD04F059FF4F
:100C100095ED031AB4EEC81AF1EE10FA19DDB0EE34
:100C2000481A16E0B5EEC00AF1EE10FA0DD204F043
:100C300024FF95ED031AF1EE480AB4EEE01AF1EE46
:100C400010FA06D2B0EE601A03E09FED210AB0EE72
:100C5000401AD5ED000AB0EE408A01EE208A84EDFC
:100C6000018AD4ED008A18EE900AFFF7E6FC9FEDAA
:100C7000199B53EC192BFFF7A9FBFFF721FD0AEE97
:100C8000100AB1EE680A10EE100AFFF7D6FC53EC1A
:100C9000192BFFF79BFBFFF713FD00EE100AB0EED8
:100CA0004A1AF0EE480A03F088FB84ED010A94ED3D
:100CB000001AC0EE010A94ED020A60EE800A20EEEE
:100CC000800A85ED0A0ABDEC068B70BD2815002050
:100CD00000000000CDCCCCCCCCCCEC3F70B50C46A9
:100CE0002DED028BB0EE401A264DD4ED000A95EDA5
:100CF000020A30EEC00AB5EEC00AF1EE10FA0ADBC5
:100D0000F5EEC00AF1EE10FA02DBD2ED040A0CE0B7
:100D1000D2ED050A09E0F5EEC00AF1EE10FA02DBA9
:100D2000D2ED050A01E0D2ED040A60EE810AB0EED0
:100D3000E08AF1EE488AB0EE481AF0EE680A00F058
:100D40000FF9DFED110A78EE200AC0EE201AF6EE58
:100D5000000AB7EE080A21EEA01A21EE800A21EE61
:100D6000211A01EE610A38EE681A21EE001A95ED9B
:100D7000020A01EE200A84ED000A85ED020ABDECAC
:100D8000028B70BD54000020BD37863570B50C460F
:100D90002DED028BB0EE401A264DD4ED000A95EDF4
:100DA000010A30EEC00AB5EEC00AF1EE10FA0ADB15
:100DB000F5EEC00AF1EE10FA02DBD2ED000A0CE00B
:100DC000D2ED030A09E0F5EEC00AF1EE10FA02DBFB
:100DD000D2ED010A01E0D2ED020A60EE810AB0EE26
:100DE000E08AF1EE488AB0EE481AF0EE680A00F0A8
:100DF000B7F8DFED110A78EE200AC0EE201AF6EE01
:100E0000000AB7EE080A21EEA01A21EE800A21EEB0
:100E1000211A01EE610A38EE681A21EE001A95EDEA
:100E2000010A01EE200A84ED000A85ED010ABDECFD
:100E3000028B70BD54000020BD378635FEE70000F0
:100E4000014800F0D5BC0000441500207FB56C4679
:100E5000414D7BE072B64148A97800EB011090E863
:100E60000E00C0688DE80E000390A878401C00F0CA
:100E70001F00A87062B60098801E072866D2DFE8BF
:100E800000F00412202E3C4A58009DF80C20082A3D
:100E90005CD33148211D2430FFF7CDF92E48243092
:100EA00004F0B6FA52E09DF80C20082A4ED32A48E6
:100EB000211D2C30FFF7BFF927482C3004F086FAAB
:100EC00044E09DF80C20082A40D32348211D3430EB
:100ED000FFF7B1F92048343004F05EFA36E09DF8AF
:100EE0000C20082A32D31C48211D3C30FFF7A3F9FF
:100EF00019483C3004F068FA28E09DF80C20082AD4
:100F000024D31548211D4430FFF795F91248443089
:100F100004F07AFA1AE09DF80C20082A16D30E483D
:100F2000211D4C30FFF787F90B484C3004F06EFA66
:100F30000CE09DF80C20082A08D30748211D143026
:100F4000FFF779F90448143004F05FFAA87869785B
:100F500088427FF47FAF7FBDD80000208415002039
:100F6000B4EEE00AF1EE10FA02D2B0EE600A704779
:100F7000B4EEC10AF1EE10FAF9DDB0EE410A7047A5
:100F800070B505462DED028B0C4694ED050A04F074
:100F9000E7FF00EE100AD5ED030AB8EEC00A20EE16
:100FA000200AD4ED000A20EE208A94ED010AD4ED47
:100FB000050A00EE208A1E4D2E683046FFF73DFBE5
:100FC0009FED1C0B53EC102BFFF700FAFFF778FB9B
:100FD00008EE900A3046FFF730FB9FED180B53ECFC
:100FE000102BFFF7F3F9FFF76BFB00EE100AB0EEE2
:100FF000681AF0EE480A03F0E0F910EE106A28686B
:10100000FFF71BFB41EC180B3046FFF716FB41ECDA
:10101000100B03F00DFA53EC182B51EC100BFFF7EB
:1010200047FAFFF74DFB2063BDEC028B70BD00005B
:1010300028150020CDCCCCCCCCCCEC3FCDCCCCCC2E
:10104000CCCCECBF014800F081BE00006C03002056
:101050000168CAB2103A1823B2FBF3F2064B9B5C4C
:10106000C3656FF30901032A02D9091D816500E0F8
:101070008165806D704700008860000810B50146EA
:1010800000208A6A8B694FF0C074002B0ED0B3F534
:10109000005F1AD062B3012A2AD0022A28D0032A7C
:1010A00003D1C96AC90100D5012010BD1AB1012AB6
:1010B00006D0022AF9D1C96AC901F6D5012010BDAE
:1010C000C96AA142FBD1012010BD52B1012A0AD048
:1010D000022A06D0032AF7D1C96AA142F4D101201D
:1010E00010BD012010BDC96AC901FBD5012010BD8A
:1010F000012010BD30B50468256825F480252560E1
:10110000046863608368402B04D0036899600068BA
:10111000C26030BD03689A600068C16030BD70472E
:10112000094990ED080AD1ED000A20EE200AD0ED21
:10113000050A90ED011A00EEC10AD0ED000A80EE1A
:10114000201A80ED071A70472815002078B5002472
:10115000009490F83C20012A19D0012280F83C200C
:101160000A680725092A14D90368DE680A3A02EBDF
:1011700042029540AE43DE600A788B680A3A02EB81
:10118000420293400268D5682B43D36011E00220ED
:1011900078BD03681E6902EB42029540AE431E61B2
:1011A0000A788B6802EB42029340026815692B4370
:1011B00013614A681F25072A13D203685E6B521E0B
:1011C00002EB82029540AE435E630A8893B20A79CD
:1011D000521E02EB820293400268556B2B4353630D
:1011E00028E00D2A13D203681E6BD21F02EB820285
:1011F0009540AE431E630A8893B20A79D21F02EB70
:10120000820293400268156B2B43136312E003685C
:10121000DE6A0D3A02EB82029540AE43DE620A8836
:1012200093B20A790D3A02EB820293400268D56AC2
:101230002B43D362174A184B05689D4206D10D68AF
:10124000122D03D1556845F48005556005689D420F
:101250001BD10B68102B01D0112B16D1536843F40E
:1012600000035360096810290FD10C490C4A096822
:10127000B1FBF2F101EB81014900009102E000991C
:10128000491E009100990029F9D180F83C400020C6
:1012900078BD000000230140002001400000002034
:1012A00040420F0070B500682649884249D126485F
:1012B00000F04AF92448A83003F03AFF224CA83441
:1012C0006089FFF775F99FED211B53EC112BFFF798
:1012D0007DF89FED201B53EC112BFFF7E9F8FFF78A
:1012E000EFF91E4D28602089FFF762F99FED1C1B66
:1012F00053EC112BFFF76AF89FED1B1B53EC112BDE
:10130000FFF764F8FFF7DCF96860A089FFF750F990
:101310009FED171B53EC112BFFF758F89FED161B91
:1013200053EC112BFFF7C4F8FFF7CAF9A86004F0DB
:1013300009FCA4F5C271BDE870406E22024800F0BD
:101340004DB870BD0022014024030020999999995D
:1013500099318A40000000000000F6402815002066
:10136000CDCCCCCCCC4C3940000000000000303F4C
:101370001F85EB51B8FE6040666666666666E040B3
:101380007047704770B504460026002C03D0206CCF
:10139000002510B107E0012070BD204600F01CF8C8
:1013A000656484F83C50206CC00610D4206C20F496
:1013B000885040F0020020642046FFF765FB65641A
:1013C000206C20F0020040F00100206400E00126C3
:1013D00084F83C50304670BD70470000F8B50446B4
:1013E0000023009394F83C00012807D0012084F8E2
:1013F0003C0020688568ED0702D014E00220F8BDAB
:10140000856845F0010585604648474D0068B0FB9A
:10141000F5F000EB4000009002E00098401E0090C4
:1014200000980028F9D120688568ED0503D5856806
:1014300025F48075856020688568ED0768D0256C87
:1014400040F20166B54345F4807525644068400567
:1014500005D5206C20F4005040F480502064206CAE
:10146000C00404D5606C20F00600606400E0636492
:1014700084F83C302D4EA36B2D48D863A36B2D48C8
:101480001864A36B2C48D86423686FF0220018609E
:101490002068436843F0806343602068836843F4B6
:1014A00080738360206813464C300A46A56B014662
:1014B000284600F09DFD70682049C00607D02068CE
:1014C00088422DD1816811F0405F1CD028E020684F
:1014D00088420FD01A4A904203D1D1F80423D20691
:1014E00008D0184A90421BD1D1F8041301F01F0113
:1014F000102915D2816811F0405F11D1816841F047
:10150000804181600CE0816841F08041816007E0AA
:10151000206C40F010002064606C40F001006064BA
:101520000020F8BD0000002040420F0000230140D1
:10153000FB0900087F0A0008690A00080020014032
:10154000002101400022014010B50446002094F81B
:101550003C1001290CD0012184F83C1021688A68D4
:1015600022F001028A6021688A68D20702D01DE059
:10157000022010BD8A6822F480728A60A16B91F803
:101580003520022A07D1084600F086FB18B1216CED
:1015900041F04001216421684A6822F080624A607B
:1015A000216C21F4885141F001012164002184F86B
:1015B0003C1010BD90F82020012A07D0022A05D047
:1015C000416A41F48021416201207047006842690C
:1015D0000A4342610020704710B590F82020012A8C
:1015E00007D0022A05D0416A41F4802141620120DE
:1015F00010BD3C4800F50070026842F00102026034
:10160000026822F47C52026002684B6A42EA0322BA
:1016100002600A7D02F01F0301229A40C3699343CE
:10162000C361A0F50070CB69B3B9D0F80C32934315
:10163000C0F80C328C894B6864F31F434C6900EB93
:10164000C404C4F840320C890B6864F31F434C692E
:1016500000EBC404C4F84432CB69012B16D1D0F896
:101660000C321343C0F80C320C884B6864F31F43F0
:101670004C6900EBC404C4F840320C89CB6864F3B5
:101680001F434C6900EBC404C4F844328B697BB13E
:10169000D0F804321343C0F804320B6973B1D0F8A8
:1016A00014321343C0F81432096A01290CD010E037
:1016B000D0F804329343C0F80432EEE7D0F8143285
:1016C0009343C0F81432EFE7D0F81C121143C0F86E
:1016D0001C12D0F8001221F00101C0F80012002005
:1016E00010BD000000640040704730B590F8204005
:1016F000012C07D0022C05D0416A41F480214162BF
:10170000012030BD21B104682469A4075FD003E043
:101710000468E468A40754D04FF4D874056804EB57
:1017200001142D5905F004059560F5B305682D5990
:10173000ED08556005682C5904F00204D4604FF49C
:10174000DA74056804EB01142D5905F00F051561D5
:1017500005682D59C5F30725956105682C59240C9A
:1017600054614FF4DC72046802EB0112A4581C703F
:101770000468A458240A5C700468A458240C9C7063
:101780000468A258120EDA704FF4DE72046802EB9D
:101790000112A4581C710468A458240A5C710468DE
:1017A000A458240C9C71046800E016E0A258120EA4
:1017B000DA71B9B10068016941F0200101610020CE
:1017C00030BD416A41F400114162012030BD416ADF
:1017D00041F400114162012030BD05682D596D0DA5
:1017E0001560A7E70068C16841F02001C160E6E725
:1017F0002DE9F05F0546002428684669D0F804907A
:101800008768D0F80CA0D0F810B0D0F81880F10795
:1018100048D0F90714D001218160B80703D52846C4
:1018200000F034FA0CE0780702D54FF4006407E0CA
:10183000380702D54FF4805402E0284600F025FA1C
:10184000F80516D529684FF480708860B80503D56F
:10185000284600F01DFA0CE0780502D544F4005447
:1018600007E0380502D544F4804402E0284600F041
:101870000EFAF80316D529684FF480308860B80353
:1018800003D5284600F006FA0CE0780302D544F4AC
:10189000004407E0380302D544F4803402E02846CF
:1018A00000F0F7F9300707D55FEACA6004D544F4C1
:1018B000007429681020C86070074FF0080707D52A
:1018C0005FEA0A7004D52868C760284600F074F9FA
:1018D000B00706D52868C068800702D0284600F007
:1018E0006DF9700607D55FEACB6004D544F48064D7
:1018F000296810200861B00607D55FEA0B7004D58F
:1019000028680761284600F091F9F00606D5286896
:101910000069800702D0284600F089F9B00308D595
:101920005FEAC96005D5296810204860284600F0A4
:101930007FF9F00307D55FEA097004D5286847608E
:10194000284600F0A8F9300446D55FEA497040D532
:10195000F00504D55FEAC87001D044F00104B00579
:1019600004D55FEA887001D544F00204700504D5FF
:101970005FEA487001D544F00404300529D518F019
:10198000700F26D008F07000402815D006DC102813
:1019900009D020280AD0302816D10AE050280ED0CD
:1019A000602811D10EE044F008040DE044F010046A
:1019B0000AE044F0200407E044F0400404E044F06E
:1019C000800401E044F480742868816921F070018A
:1019D0008161296804204860002C05D0686A204392
:1019E00068622846FFF780FEBDE8F09F70B50446A8
:1019F000002C03D094F8200010B104E0012070BD49
:101A0000204600F09DF82068016821F00201016085
:101A100000F024FC054605260CE000F01FFC401BEE
:101A20000A2807D9606A40F40030606284F82060B8
:101A3000012070BD206840688007EED420680168EE
:101A400041F00101016000F009FC05460CE000F0E6
:101A500005FC401B0A2807D9606A40F40030606228
:101A600084F82060012070BD20684068C007EED077
:101A7000207E01283FD02068016821F080010160AC
:101A8000607E01283DD02068016821F0400101609E
:101A9000A07E01283BD02068016821F02001016070
:101AA000E07E012839D02068016841F01001016012
:101AB000207F012837D02068016821F008010160EB
:101AC000607F012835D02068016821F004010160A1
:101AD000D4E902010843D4E90412114308436168C0
:101AE000491E08432168C86100206062012084F813
:101AF0002000002070BD2068016841F08001016075
:101B0000BEE72068016841F040010160C0E720683D
:101B1000016841F020010160C2E72068016821F0FE
:101B200010010160C4E72068016841F0080101600C
:101B3000C6E72068016841F004010160C8E70000C1
:101B400030B587B00068194988422CD1184801681F
:101B500041F008010160016801F00801019101688C
:101B600041F008010160006800F008000190104891
:101B70001030016841F000710160006800F00070F1
:101B80000190022002900390012404940590092002
:101B90000690084D02A9284600F062FA029402A9B4
:101BA000284600F05DFA07B030BD00000064004038
:101BB00030380240000C02407047000030B589B058
:101BC0006B4602AA0021FFF790FD002827D172B6CC
:101BD000144C6078401C00F01F05A07885421DD091
:101BE00011496278029801EB0212106006980828E9
:101BF00001D9082000E00698627801EB0212107308
:101C0000607801EB0010027B607801EB0010001D92
:101C10006946FEF710FB65700120207062B609B0BE
:101C200030BD0000D80000208415002070477047A8
:101C3000704770B5044694F82000012805D0606A0A
:101C400040F400206062012070BD022084F8200072
:101C50002068016821F00101016000F0FFFA0546EB
:101C60000DE000F0FBFA401B0A2808D9606A40F436
:101C700000306062052084F82000012070BD2068DB
:101C80004068C007EDD1606270BD70477047704713
:101C900070477047704770472DE9F0410446A76DC3
:101CA00000F0DCFA054694F835000026022806D03C
:101CB0008020606584F834600120BDE8F0812068F0
:101CC000016821F0160101602068416921F080015E
:101CD0004161206C08B9A06C20B12068016821F036
:101CE000080101602068016821F0010101600BE03A
:101CF00000F0B4FA401B052806D9202034342062B5
:101D0000267003206070D8E720680068C007EFD114
:101D100034343F2094F828108840B86026700120A1
:101D200060700020C9E790F83510022903D08021A7
:101D3000416501207047052180F835100068016871
:101D400021F0010101600020704700002DE9F843F7
:101D500004464FF00009CDF800906F484FF416513B
:101D60000068B0FBF1F7A56D2E6894F85C000822BE
:101D700002FA00F1314210D02068016849070CD501
:101D8000016821F00401016094F85C0002FA00F19E
:101D9000A960606D40F00100606594F85C104FF040
:101DA000010808FA01F0304208D0216849690906A3
:101DB00004D5A860606D40F00200606594F85C1086
:101DC00004208840304208D021680968890704D57A
:101DD000A860606D40F00400606594F85C1010200D
:101DE0008840304220D02168096809071CD5A860C6
:101DF0002068016849030CD50068000304D4216CF5
:101E000091B1204688470FE0A16C69B12046884710
:101E10000AE00168C90503D4016821F008010160E6
:101E2000216C09B12046884794F85C102020884036
:101E300030424CD021680968C90648D5A86094F89A
:101E4000350005280BD020680168490330D50068AB
:101E5000000328D4616C51B32046884737E02068DE
:101E6000016821F0160101602068416921F08001BC
:101E70004161206C08B9A06C20B12068016821F094
:101E80000801016094F85C103F208840A86084F845
:101E9000349084F83580216D00293BD001B0204674
:101EA000BDE8F0430847E16B09B1204688470EE0E2
:101EB0000168C90507D4016821F01001016084F8A8
:101EC000349084F83580E16B09B120468847606D15
:101ED00000281FD0606DC00714D0052084F835009D
:101EE0002068016821F0010101600098401C009009
:101EF000B84203D820680068C007F6D184F834904F
:101F000084F83580E16C002904D001B02046BDE89A
:101F1000F0430847BDE8F883000000202DE9F041B8
:101F2000044600F09BF905465CB1002684F8346055
:101F3000022084F835002068016821F00101016069
:101F40000DE00120BDE8F08100F088F9401B052874
:101F500005D920206065032084F83500F2E7206869
:101F60000068C007F0D121680A6820480240D4E91F
:101F700001031843D4E903352B431843636918431D
:101F8000A3691843E3691843236A18431043626A3C
:101F9000042A03D1D4E90B231A43104308602068B4
:101FA000406920F00700656A294605430127042996
:101FB0000DD1A06A0543E06A48B12046FFF75EF8FC
:101FC00028B14020606584F835700120BAE72068A8
:101FD00045612046FFF73CF894F85C203F21914092
:101FE0008160666584F835700020ABE73F8010F0B3
:101FF0002DE9F04104460025A66D94F8340001282F
:102000000DD0012084F8340094F835700020012FA1
:1020100007D084F8340002252846BDE8F08102206C
:10202000FBE7022784F8357060652046FFF762F809
:1020300094F85C103F208840B0602068016841F04F
:1020400016010160206C20B12068016841F0080190
:1020500001602068016841F001010160DCE70000D7
:102060002DE9F84F0022DFF89C914FF0010809F1AB
:10207000040A03274FF00F0C0AF1040B08FA02F5CB
:102080000B682B40AB4272D10C7904F00304012C95
:1020900001D0022C15D18668540007FA04FE26EA06
:1020A0000E06D1F80CE00EFA04FE4EEA060EC0F859
:1020B00008E04468AC430D79C5F30015954025430D
:1020C00045600C79E443A40708D0C568540007FABA
:1020D00004F6B5438E68A6402E43C6600C7904F022
:1020E0000304022C11D1D40800EB8406356A54078E
:1020F000E40E0CFA04FE25EA0E05D1F810E00EFA03
:1021000004FE4EEA050EC6F820E00568540007FA02
:1021100004F6B5430E7906F00306A6402E4306608A
:102120004C68E40067D5384C256845F48045256047
:10213000246804F480440094344C22F003052E19E2
:10214000D6F8085894074FEA147E0CFA0EF4A5430B
:102150002F4CA04201D1002424E02E4CA04201D1FA
:1021600001241FE02C4CA04202D102241AE042E0DC
:102170002A4CA04201D1032414E0294CA04201D1F1
:1021800004240FE0274CA04201D105240AE0264C8C
:10219000A04201D1062405E0244CA04201D107242D
:1021A00000E0082404FA0EF42C43C6F80848D9F8D5
:1021B00000409C434D68ED0300D51C43C9F8004026
:1021C000DAF800409C434D68AD0300D51C43CAF8C3
:1021D0000040DBF800409C434D68ED0200D51C43F5
:1021E000CBF80040074D0C352C689C434E68B60276
:1021F00000D51C432C60521C102AFFF43FAFBDE8F1
:10220000F88F0000003C014044380240003001409B
:10221000000002400004024000080240000C02409E
:10222000001002400014024000180240001C02404E
:10223000426921EA02030A4043EA02418161704790
:10224000002A01D081617047090481617047000054
:1022500001480068000C7047002004E001488068D5
:10226000704700002C01002070B50446002C11D0EE
:1022700021684CF6CC400860216845F25550086052
:10228000D4E9001048602168A0688860FFF7E6FF85
:1022900005460CE0012070BDFFF7E0FF401B302831
:1022A00005D92068C068800701D0032070BD206870
:1022B000C0688007F0D121684AF6AA200860002093
:1022C00070BD00684AF6AA21016000207047000036
:1022D0000248816802781144816070472C01002017
:1022E00010B50948016841F400710160016841F4CA
:1022F00080610160032000F059F80F2000F006F81B
:1023000000F026F8002010BD003C024070B50446E5
:102310000D4D4FF47A712878B1FBF0F00B49096844
:10232000B1FBF0F000F036FB08B1012070BD102CBD
:1023300007D200222146501E00F018F86C600020E1
:1023400070BD012070BD00002C01002000000020A5
:102350007047002809DB00F01F020121914040096D
:10236000800000F1E020C0F800117047F0B40D4685
:102370000D4B1B68C3F30223C3F10704042C00D9DF
:102380000424191D072901D2002300E0DB1E0126C9
:1023900006FA04F1491E294099409E40761E1640D7
:1023A0003143F0BC02F034B80CED00E000F007015E
:1023B000054A10684FF6FF03184040EA0120034920
:1023C00008431060704700000CED00E00000FA05C3
:1023D0002DE9F04704460D46002C13D0DFF8289174
:1023E000D9F80000EFB200F00700A8420CD289F83B
:1023F0000070D9F8000000F00700A84204D00120C6
:10240000BDE8F0870120FBE72068404E810712D528
:10241000400703D5306840F4E05030602078000772
:1024200003D5306840F4604030603068A16820F027
:10243000F000084330602078C00731D0334960682D
:102440000839012808D002280BD0032809D00968D0
:1024500089070BD40120D3E70968890306D401203A
:10246000CEE70968890101D40120C9E7316821F06C
:10247000030101433160FFF7F1FE804641F2883AE3
:1024800007E0FFF7EBFEA0EB0800504501D9032061
:10249000B6E73068616800F00C00B0EB810FF0D156
:1024A000D9F8000000F00700A84209D989F80070A7
:1024B000D9F8000000F00700A84201D001209FE7F2
:1024C0002078400705D53068E16820F4E0500843E3
:1024D00030602078000706D53068216920F460401C
:1024E00040EAC100306000F03FF83168084AC1F3AB
:1024F0000311515CC8400749086007480068FFF7AE
:1025000005FF00207CE70000003C02400838024044
:1025100070600008000000203001002001480068C1
:10252000704700000000002000B5FFF7F7FF0449E6
:102530000968044AC1F38221515CC84000BD000013
:10254000083802408060000800B5FFF7E7FF044943
:102550000968044AC1F34231515CC84000BD000023
:10256000083802408060000810B51748006810F075
:102570000C01164816D0164B042912D0082911D187
:10258000114C241F216801F03F02216849020AD53D
:102590002068C0F38810A0FB03010023FDF71AFE9A
:1025A00009E0184610BD21680023C1F38811A1FB82
:1025B0000001FDF70FFE2168C1F30141491C4900EC
:1025C000B0FBF1F010BD0000083802400024F40018
:1025D000001BB7002DE9F84F0446002C13D02078DB
:1025E000DFF8A083C007A8F1040556D008F1040065
:1025F0000168C1F3810101290CD00068C0F381009A
:10260000022803D00DE00120BDE8F88FD8F80000C3
:10261000400206D5286880033FD5606870BB012062
:10262000F2E76068B0F5803F10D0B0F5A02F12D06F
:10263000286820F480302860286820F480202860F2
:102640006068E0B1FFF70AFE064614E0286840F42F
:1026500080302860F4E7286840F4802028602868EB
:1026600040F480302860EBE7FFF7F8FD801B64281A
:1026700001D90320C8E728688003F5D50DE0FFF7EE
:10268000EDFD064606E0FFF7E9FD801B642801D951
:102690000320B9E728688003F5D42078BA4F800773
:1026A0004FF0000948D5B748001D016811F00C0F24
:1026B00008D00068C0F38100022813D1D8F80000C8
:1026C00040020FD42868800704D5E068012801D0B3
:1026D000012099E72868216920F0F80040EAC1004C
:1026E000286029E0E068B8B101203860FFF7B6FD46
:1026F000064606E0FFF7B2FD801B022801D9032041
:1027000082E728688007F5D52868216920F0F8005D
:1027100040EAC10028600FE0C7F80090FFF79EFD77
:10272000064606E0FFF79AFD801B022801D9032028
:102730006AE728688007F5D42078000729D5DFF8F4
:1027400044A2924861690AF1700A89B101210160CD
:10275000FFF784FD064606E0FFF780FD801B022898
:1027600001D9032050E7DAF800008007F4D510E023
:10277000C0F80090FFF772FD064606E0FFF76EFD19
:10278000801B022801D903203EE7DAF80000800709
:10279000F4D42078400778D54FF0000A79483C30CF
:1027A0000068C0000BD477483C30016841F080518C
:1027B0000160006800F0805000904FF0010ADFF8DF
:1027C000D0B1DBF80000C00514D4DBF8000040F401
:1027D0008070CBF80000FFF741FD064606E0FFF7EA
:1027E0003DFD801B022801D903200DE7DBF8000026
:1027F000C005F4D5634EA0686C3601280FD00528BB
:1028000012D0306820F001003060306820F0040001
:102810003060A068F8B1FFF721FD834617E030680B
:1028200040F001003060F4E7306840F004003060B0
:10283000306840F001003060EBE7FFF70FFDA0EBE0
:102840000B0141F28830814201D90320DCE6306877
:102850008007F2D510E0FFF701FD834609E0FFF79E
:10286000FDFCA0EB0B0141F28830814201D903202D
:10287000CAE630688007F2D4BAF1010F05D14148A9
:102880003C30016821F080510160A069C0B33D492E
:10289000091D09684FF0FF36C1F38101022946D0B6
:1028A000022805D0C7F86090FFF7D8FC04463AE04C
:1028B000C7F86090FFF7D2FC814607E0FFF7CEFC37
:1028C000A0EB0900022801D903209DE628688001B9
:1028D000F4D4D4E907010843616AA26A890106EBCE
:1028E000520241EA0241084394F82C1040EA016088
:1028F000C8F8000001203866FFF7B0FC044607E086
:102900003DE0FFF7ABFC001B022801D903207BE66A
:1029100028688001F5D532E0FFF7A0FC001B0228F3
:1029200001D9032070E628688001F5D427E001284A
:1029300023D0D8F80000E26900F4800191421AD156
:10294000226A00F03F01914215D147F6C071626AD8
:102950000140B1EB821F0ED1A26A00F4403106EBB8
:102960005202B1EB024F06D194F82C1000F07060C7
:10297000B0EB016F03D0012046E6012044E60020C1
:1029800042E600000438024000004742800E474201
:102990000070004010B5401EB0F1807F01D30120CF
:1029A00010BD4FF0E02460610F21601701F030FD91
:1029B0000020A06107202061002010BD70477047F3
:1029C00010B590F83C20012A22D0012280F83C204A
:1029D000CA6800238C6822F4407222434C6822F4B7
:1029E000806222430C6822F4006222430C6922F4C4
:1029F000805222434C6922F400522243C96922F4D6
:102A000080420A4301684A6480F83C30002010BDCF
:102A1000022010BD10B50446002909D004290AD0AF
:102A200008290BD094F8450001280AD0012010BDD8
:102A300094F84200F8E794F84300F5E794F844006E
:102A4000F2E7022089B3042933D0082934D084F86E
:102A500045000422206801F05AF92068416C41F4D5
:102A60000041416419492068884214D0B0F1804F78
:102A700011D0174988420ED0164988420BD016490A
:102A8000884208D01549884205D01549884202D0AD
:102A90001449884213D1816801F00701062912D038
:102AA000016841F0010101600DE0FFE784F8420098
:102AB000CFE784F84300CCE784F84400C9E7016815
:102AC00041F001010160002010BD00000000014044
:102AD0000004004000080040000C004000040140D9
:102AE000004001400018004010B50446002C03D0FF
:102AF00094F83D0010B107E0012010BD002084F8DB
:102B00003C00204600F016F8022084F83D00211D0C
:102B1000206801F089F801203D3460726070A07077
:102B2000E07020716071A071E0712072207000204F
:102B300010BD000008B500680B49884212D10B484F
:102B4000016841F010010160006800F01000009081
:102B5000012211463620FFF709FCBDE80840362067
:102B6000FFF7F7BB08BD00000010004040380240EE
:102B700090F83D10012901D001207047022180F812
:102B80003D100168CA6842F00102CA600068144939
:102B9000884214D0B0F1804F11D0124988420ED033
:102BA000114988420BD01149884208D01049884207
:102BB00005D01049884202D00F49884209D1816866
:102BC00001F00701062908D0016841F00101016008
:102BD00003E0016841F0010101600020704700003E
:102BE000000001400004004000080040000C0040CC
:102BF000000401400040014000180040704770B5DB
:102C00000446206801694FF00005C943890716D4BE
:102C1000C168C943890712D4E91E016101202077E8
:102C200020688069800703D02046FFF7E7FF05E0B2
:102C3000204600F09BF8204600F028F92577206810
:102C40000169C943490718D4C168C943490714D465
:102C50006FF004010161022020772068806910F480
:102C6000407F03D02046FFF7C9FF05E0204600F073
:102C70007DF8204600F00AF9257720680169C943EC
:102C8000090717D4C168C943090713D46FF00801B5
:102C90000161042020772068C069800703D02046A6
:102CA000FFF7ACFF05E0204600F060F8204600F09A
:102CB000EDF8257720680169C943C90618D4C168B1
:102CC000C943C90614D46FF01001016108202077B0
:102CD0002068C06910F4407F03D02046FFF78EFFC4
:102CE00005E0204600F042F8204600F0CFF82577B6
:102CF00020680169C943C90708D1C168C943C90728
:102D000004D1891E0161204600F030F92068016974
:102D1000C943090609D4C168C943090605D46FF03F
:102D2000800101612046FFF749FE20680169C9431F
:102D3000490609D4C168C943490605D46FF040016A
:102D40000161204600F0EAF920680169C94389065B
:102D50000BD4C168C943890607D46FF02001016113
:102D60002046BDE87040FFF72ABE70BD704770B5C1
:102D700004460D4694F83C0001280AD0012084F84E
:102D80003C0042B1042A1AD0082A2DD00C2A53D173
:102D90003EE0022070BD2946206800F0C5FF206893
:102DA000816941F0080181612068816921F0040195
:102DB0008161206881692A69114381613CE029466B
:102DC000206800F0E5FF2068816941F400618161BD
:102DD0002068816921F480618161206881692A69A4
:102DE00041EA0221816127E02946206801F00AF8C2
:102DF0002068C16941F00801C1612068C16921F002
:102E00000401C1612068C1692A691143C16113E0ED
:102E10002946206801F02EF82068C16941F400615C
:102E2000C1612068C16921F48061C1612068C16904
:102E30002A6941EA0221C161002084F83C0070BD8A
:102E400010B50446002C03D094F83D0010B107E003
:102E5000012010BD002084F83C00204600F015F849
:102E6000022084F83D00211D206800F0DDFE0120D5
:102E70003D3460726070A070E07020716071A0716C
:102E8000E07120722070002010BD70477047000074
:102E900010B50446002909D004290AD008290BD00E
:102EA00094F8410001280AD0012010BD94F83E009A
:102EB000F8E794F83F00F5E794F84000F2E70220C5
:102EC000A9B3042937D0082938D084F84100012259
:102ED000206800F00FFF1E4920681E4A884201D07A
:102EE000904203D1436C43F400434364206888421A
:102EF00013D0B0F1804F10D0174988420DD0174938
:102F000088420AD01649884207D0904205D0154918
:102F1000884202D01449884213D1816801F0070128
:102F2000062912D0016841F0010101600DE0FFE7C0
:102F300084F83E00CBE784F83F00C8E784F84000FF
:102F4000C5E7016841F001010160002010BD0000EB
:102F5000000001400004014000040040000800405F
:102F6000000C004000400140001800402DE9F041F5
:102F70002DED028B00685B4988426FD100F096FC12
:102F80005B49594B594A01F12000FDF715FE58499C
:102F9000584B1031584A01F11C00FDF70DFE534CFF
:102FA000514894ED050A02F043FA51EC100BFDF77D
:102FB00087FBE062504D4F4895ED050A02F038FA64
:102FC00051EC100BFDF77CFBE862D4ED0B0A9FED92
:102FD0004B8AB0EE481ADFED4A8AB0EE680A01F07B
:102FE000ECF984ED0B0AD5ED0B0AB0EE481AB0EE01
:102FF000680A01F0E2F985ED0B0A204602F098FF1D
:10300000284602F095FF2046FEF78AF82846FEF78C
:1030100087F8374922463039354801F05FF934499D
:103020002A46183901F1280001F058F921463048A4
:10303000FDF7A6FF2E4829461030FDF7A1FF2046D8
:1030400002F03AFC284602F037FC2E4FE0689FED74
:103050002E8B2F4EB84202DD012001E03DE0002022
:10306000FDF7A6FA41EC100B01F0E2F953EC182B36
:1030700051EC100BFDF7F4FA12D1E868B84201DD0B
:10308000012000E00020FDF793FA41EC100B01F065
:10309000CFF953EC182B51EC100BFDF7E1FA0AD0E5
:1030A0007088401C80B27080B0F57A7F03D901200F
:1030B000307000207080307800280ED09FED150A07
:1030C00084ED090A85ED090A0122BDEC028BD103CA
:1030D000BDE8F0411048FFF7B3B8BDEC028BBDE886
:1030E000F08100000010004084170020C014002070
:1030F0002C050020C4170020F41400203333733F44
:10310000333373BF0000DC42000000000000000009
:1031100010000020000000000010024070477047BF
:1031200070470000F8B5044622681068D1685369FA
:1031300000F00F05002D08D1860606D58E0604D5B1
:103140002046BDE8F84000F096BF0026002D60D074
:1031500003F0010501F490772F435AD0C20705D040
:10316000CA0503D5226C42F001022264420705D54C
:10317000DA0703D0226C42F002022264820705D5EE
:10318000DA0703D0226C42F004022264020707D55A
:1031900001F020022A4303D0226C42F0080222648C
:1031A000226C002A2BD0800604D5880602D5204642
:1031B00000F061FF20684069C0F38010216C0907AE
:1031C00000D408B3204600F031FF20684169490669
:1031D00016D5416921F040014161A06B60B14449BD
:1031E0000165A06BFEF79FFD002808D0A06B016D64
:1031F00001B0BDE8F04008472046FFF791FFF8BD59
:103200002046FFF78DFFF8BD2046FFF789FF2664B3
:10321000F8BD236B012B58D1C30656D5CB0654D528
:1032200010685068009050694FF0200340062ED57A
:10323000A16B0868406880B20028E9D0A58D85425E
:10324000E6D9E085C869B0F5807F18D0D06820F451
:103250008070D0602068416921F0010141612068DF
:10326000416921F04001416184F83E3026632068C5
:10327000C16821F01001C160A06BFEF70DFDA08DAB
:10328000E18D401A81B22046FFF749FFF8BDA08DBD
:10329000E18D401A81B2E08D0028F7D00029F5D0E9
:1032A000D06820F49070D0602068426922F001025A
:1032B000426184F83E3026632068C26822F0100222
:1032C000C2602046FFF72BFFF8BD020606D50A06AE
:1032D00004D52046BDE8F84000F0CBBF4006F3D54A
:1032E0004806F1D52046BDE8F84000F0B7BE000022
:1032F0001D40000870B50446002C04D094F83D0031
:10330000002510B106E0012070BD84F83C50204635
:1033100000F022F8242084F83D002068C16821F4E0
:103320000051C160204600F0FFFE2068016921F4D1
:10333000904101612068416921F02A0141612068C2
:10334000C16841F40051C1602564202084F83D002B
:1033500084F83E00002070BD30B587B000681F497A
:10336000884238D11E48016841F0100101600068B0
:1033700000F0100001901A481438016841F0010172
:103380000160016801F001010191016841F0010152
:103390000160006800F0010001904FF4007002909D
:1033A00002200390012104910590072406940D4DFD
:1033B00002A92846FEF754FE29150291069402A997
:1033C0002846FEF74DFE2520FEF7C3FF03221146D7
:1033D0002520FEF7CBFF07B030BD000000100140F4
:1033E000443802400000024090F83E30202B01D0CB
:1033F0000220704759B152B190F83C30012B08D0EF
:10340000012380F83C300023036300F017BF012044
:10341000704702207047000030B4006816498842A7
:1034200028D1164A5088010419D411464404097859
:103430004FF0000307D50A2901D053800FE040F474
:10344000004050800BE00D2910D00D4DC0F30D044D
:103450002955401C80B25080C72800D953800848A5
:10346000012230BC0549C830FFF7BEBF40F48040A0
:103470005080F4E730BC7047001001400800002085
:103480003C0100207047FEE708B5FEF729FF00F079
:10349000C7F9042302220621A82002F071FDA8200A
:1034A00001F04EFF4FF4E13002F0C6FD02F0CCF91E
:1034B00042F2CF01092001F027FE01F005FE0020B5
:1034C00006231A044FF4A001009001F0CBFE40F255
:1034D000DC51042002F018F901F038FF02F02AFA5A
:1034E00001F048FC02F0C0FCBDE8084002F080B8E2
:1034F00010B52DED048BB0EE408AF0EE608A9FEDA2
:103500001D9B51EC180B53EC192BFDF7C1F811D290
:1035100051EC180B9FED190B53EC102BFCF756FFD9
:10352000FDF772F8BDEC048B80B20021BDE81040BD
:1035300001F00ABD53EC192B51EC180BFDF790F874
:1035400011D251EC180B9FED0F0B53EC102BFCF725
:103550003DFFFDF759F8BDEC048B81B20020BDE8BA
:10356000104001F0F1BCBDEC048BBDE8104000F050
:103570000DB8000000000000000000000000000086
:103580000000594000000000000059C0002108461A
:1035900001F0DABCFEE700002DE9F0418EB00646EE
:1035A0000D46142109A8FCF75FFE1C2102A8FCF7B8
:1035B0005BFE0024444A106840F00100106010686F
:1035C00000F001000190404A143A106840F00100F8
:1035D0001060106800F001000190106840F00100D8
:1035E0001060106800F001000190106840F01000B9
:1035F0001060106800F010000190106840F010009A
:103600001060106800F010000190901509900222DF
:103610000A920B920C9201200D90DFF8B08009A95C
:103620004046FEF71DFD8027099709A94046FEF791
:1036300017FD38010990DFF8988009A94046FEF788
:103640000FFDF800099009A94046FEF709FD224A3E
:103650002048106055609460D660401510619761F5
:103660001046FFF7EDFB6020029004940594079448
:103670000894002202A91848FFF779FB042202A946
:103680001548FFF774FB14484038046044608460B8
:1036900004614461F901C16101464030FFF790F9CE
:1036A00000210D48FFF7F4FB00210B48FFF7B2F9AA
:1036B00004210948FFF7ECFB04210748FFF7AAF9AA
:1036C0000EB0BDE8F0810000443802400000024026
:1036D0000010024000000140240400202DE9F041C8
:1036E0008EB006460D46142109A8FCF7BDFD1C212D
:1036F00002A8FCF7B9FD0024434A106840F002001C
:103700001060106800F0020001903F4A143A1068FF
:1037100040F004001060106800F004000190106890
:1037200040F001001060106800F001000190106886
:1037300040F004001060106800F004000190106870
:1037400040F002001060106800F00200019040207C
:10375000099002220A920B920C9203200D90DFF83E
:10376000AC8009A94046FEF77BFC2020099009A9FE
:103770002748FEF775FC8027099709A94046FEF700
:103780006FFC0120099009A92248FEF769FC234A31
:103790002148106055609460D660401510619761B3
:1037A0001046FFF74DFB60200290049405940794A7
:1037B0000894002202A91948FFF7D9FA042202A9A5
:1037C0001648FFF7D4FA15486838046044608460EE
:1037D0000461B90141614900C16101466830FFF7E8
:1037E000EFF800210D48FFF753FB00210B48FFF7CE
:1037F00011F904210948FFF74BFB04210748FFF7A3
:1038000009F90EB0BDE8F0814438024000080240DA
:103810000000024000040240000401406C0400204B
:1038200010B553216320FFF7B7FE5321BDE81040C8
:103830006320FFF753BF00001748B2EE0E0A00EDF9
:10384000060A0521017101214171B1EE040A00ED62
:10385000050AB7EE000A00ED040AF0EE000A40ED9A
:10386000030A00ED020ADFED0D0A40ED010A80EDCA
:10387000000A9FED0B0A80ED030A04210177B1EEE7
:10388000000A80ED040AB7EE0C0A80ED050A9FEDF0
:10389000050A80ED060A7047A01400209A99993F06
:1038A0009A99193E3433933F70470000F0B50020D9
:1038B0000E4C00260127211F0D7814E000EB40017B
:1038C00004EB8102137963B934F821305B1C9BB29D
:1038D00024F82130B2F802C0634502D324F82160F5
:1038E0001771401CC0B2A842E8D3F0BD18000020F8
:1038F000FFF7CAFD00240B4E0027A6F1040801F0D3
:10390000FDFE04EB440006EB8005287910B1A868A1
:1039100080472F71641C98F80000E4B28442EED313
:103920000024ECE718000020704700000FB430B509
:103930002DED048B83B0BDF92A402046FCF727FE0D
:10394000002C16DD9FED731B53EC112BFCF7B0FD23
:10395000FCF7B6FE00EE900AB7EE001ABFEE000AC2
:1039600000F02BFDDDED1A0A60EE800A20EE808A61
:1039700017E09FED6A1B53EC112BFCF799FDFCF748
:103980009FFE00EE900AB7EE001ABFEE000A00F0AC
:1039900014FD9DED1B1AF0EEC00A60EE810A20EEC8
:1039A000808ABDF928402046FCF7F1FDDDED1C8A38
:1039B000002C14DD9FED5B1B53EC112BFCF778FD05
:1039C000FCF77EFE00EE900AB7EE001ABFEE000A8A
:1039D00000F0F3FC68EE800A20EE809A15E09FED7F
:1039E000531B53EC112BFCF763FDFCF769FE00EE53
:1039F000900AB7EE001ABFEE000A00F0DEFCF0EE0F
:103A0000C00A60EEA80A20EE809A18EE100AFCF7B1
:103A100014FE9FED488B53EC182BFCF7D7FCFCF7FA
:103A20004FFE029019EE100AFCF707FE53EC182B1C
:103A3000FCF7CCFCFCF744FE0190404C404D207854
:103A4000401E00EB400005EBC002DFED3E9A02A9EC
:103A5000A4F14C00B0EE690AFDF798F910EE100AD7
:103A6000FCF7EBFD9FED388B53EC182BFCF7AEFC0D
:103A7000FCF726FE09EE100A2078B0EE690A401E17
:103A800000EB400005EBC00201A9A4F14C00FDF7DA
:103A900025F910EE100AFCF7D0FD53EC182BFCF7BB
:103AA00095FCFCF70DFE00EE100AA4F1740079EE0F
:103AB000000AC0ED040A39EE400A80ED050A9DEDCA
:103AC000101A234C60EE810AC4ED000A20EE010AB0
:103AD000204D85ED000A9FED208ADFED208AD4ED90
:103AE000000AB0EE481AB0EE680A00F066FC84EDF9
:103AF000000AD5ED000AB0EE481AB0EE680A00F0F0
:103B00005CFC85ED000A03B0BDEC048B30BC5DF8B5
:103B100014FB00000000000000E8AC4000000000C2
:103B20000088B340000000000004B0400000000026
:103B300000C0B240EC51B81E85EBD13FBC14002050
:103B4000600000200AD7233CCDCCCCCCCCCC0C40A0
:103B500084170020C41700200000C8420000C8C21B
:103B600010B52DED048BB0EE408AF0EE608A9FED2B
:103B70001D9B51EC180B53EC192BFCF789FD11D24E
:103B800051EC180B9FED190B53EC102BFCF71EFC9E
:103B9000FCF73AFDBDEC048B80B20021BDE810407B
:103BA00001F0ECB953EC192B51EC180BFCF758FD54
:103BB00011D251EC180B9FED0F0B53EC102BFCF7AF
:103BC00005FCFCF721FDBDEC048B81B20020BDE8B3
:103BD000104001F0D3B9BDEC048BBDE8104000F0FB
:103BE0000DB8000000000000000000000000000010
:103BF0000000594000000000000059C000210846A4
:103C000001F0BCB97047FEF763BB000002480168D1
:103C100041F470010160704788ED00E00148FEF753
:103C2000EEBF0000B40400202DE9F0410268264DEB
:103C3000264E274FDFF89CC0274B4FF08048A84204
:103C400009D0404507D0B04205D0B84203D0604506
:103C500001D0984203D122F070044A682243A8425E
:103C60001BD0404519D0B04217D0B84215D060459E
:103C700013D0984211D0194CA0420ED0184CA0423B
:103C80000BD0184CA04208D0174CA04205D0174CBE
:103C9000A04202D0164CA04203D122F44074CA685C
:103CA00022434C6922F08002224302608A68C26289
:103CB0000A688262A84201D0984201D10969016371
:103CC00001214161BDE8F081000001400004004095
:103CD00000080040000C004000040140004001408A
:103CE000004401400048014000180040001C004012
:103CF0000020004010B501F01F0101238B40046A31
:103D00009C430462036A8A401343036210BD10B5EA
:103D100001F01F0104238B40046A9C430462036A80
:103D20008A401343036210BDF0B5026A22F001021B
:103D30000262026A4368846924F0700424F0030577
:103D40000C682C4322F002058A682A430E4E0F4F5E
:103D5000B04201D0B84205D122F00805CA682A4312
:103D600022F00402B04201D0B84207D123F480739C
:103D700023F400734D691D438B692B4343608461B9
:103D8000496841630262F0BD000001400004014047
:103D9000F0B5026A22F010020262036A4268846986
:103DA00024F4E04424F440740D6844EA052423F02C
:103DB00020038D6843EA0513104D114EA84201D02F
:103DC000B04206D123F08003CF6843EA071323F003
:103DD0004003A84201D0B04209D122F4806222F40B
:103DE00000624D6942EA85028D6942EA85024260BD
:103DF0008461496881630362F0BD000000000140F6
:103E000000040140F0B5026A22F480720262026A84
:103E10004368C46924F0700424F003050C682C4343
:103E200022F400728D6842EA0522104D104EA8421D
:103E300001D0B04206D122F40062CF6842EA0722E4
:103E400022F48062A84201D0B04209D123F4805309
:103E500023F400534D6943EA05138D6943EA0513C2
:103E60004360C4614968C1630262F0BD0000014063
:103E70000004014030B5026A22F480520262046AF2
:103E80004268C36923F4E04323F440730D6843EAB6
:103E9000052324F400548D6844EA0534084DA842F3
:103EA00002D0084DA84204D122F480424D6942EA72
:103EB00085124260C36149680164046230BD00003C
:103EC0000000014000040140FCF7C0BF01F00CBA43
:103ED00030B595B0414991ED000A8DED000A40489A
:103EE00090ED050A8DED010A90ED040A8DED020AB0
:103EF00090ED030A8DED030A90ED070A8DED040A9B
:103F000090ED0A0A8DED050A90ED0B0A8DED060A7B
:103F100090ED0C0A8DED070A90ED080A8DED080A68
:103F200090ED090A8DED090A2E4890ED030A8DEDFA
:103F30000A0A91F8380000EE100AB8EE400A8DED3A
:103F40000B0A91ED070A8DED0C0A274890ED000A47
:103F50008DED0D0A254890ED050A8DED0E0A90EDC8
:103F6000040A8DED0F0A90ED030A8DED100A20482A
:103F700090ED000A8DED110A1E48B0F9001000EE18
:103F8000101AB8EEC00A8DED120AB0F9020000EE68
:103F9000100AB8EEC00A8DED130A174890ED000A1A
:103FA0008DED140A00246D4655F82400FCF745FBFE
:103FB00041EC100B11A053EC102B00F013FA142C51
:103FC00002D20FA000F00EFA641C152CECD315B031
:103FD0000CA0BDE8304000F005BA0000C417002076
:103FE000F41400203C05002084170020C014002099
:103FF0002815002070140020DC0000202566000039
:104000002C0000000D0A000001F080BD4FF480611B
:104010000148FEF70DB900000004024010B5806BA6
:104020000021C185C184FFF77BF810BD0168CA6813
:1040300022F49072CA6001684A6922F001024A6162
:10404000016B012904D10168CA6822F01002CA601C
:10405000202180F83E1000210163704710B50168EF
:10406000CA6822F04002CA60202180F83D10FFF7A4
:1040700009FA002010BD10B5044694F83E0022282D
:1040800001D0022010BDA1684FF48052914201D1AD
:10409000206920B1A06A91421DD051B10BE0A06A05
:1040A00021684968C1F308010180A06A801CA062F0
:1040B00009E0216979B12168496801F07F01017047
:1040C000A06A401CA062E08D401E0004000CE08548
:1040D00005D0002010BD216849680170F0E7206814
:1040E000C16821F02001C1602068C16821F480719D
:1040F000C1602068416921F001014161202084F8FC
:104100003E00206B012805D02046FFF785F90020EE
:10411000206310BD2068C16821F01001C160A18D2D
:104120002046FEF7FCFFF2E72DE9F0410446206847
:104130000169E26821F4405111430161A1682069DD
:10414000E26901436069104301432068C26849F293
:104150000C639A430A43C26020684169A26921F452
:1041600040711143416133492068884202D032498D
:10417000884202D1FEF7E8F901E0FEF7D5F9E169DE
:104180000023192764253226B1F5004F28D0616835
:104190008B0F8A00A0FB0701FCF71CF80146B0FB5F
:1041A000F5F07A42504301EB800006EB0010B0FBC3
:1041B000F5F000F0F002B1FBF5F002EB0012B1FBFC
:1041C000F5F07B42584301EB800006EB0010B0FB9A
:1041D000F5F0216800F00F0010448860BDE8F08120
:1041E00061684A18A0FB07015B41FBF7F3FF01463A
:1041F000B0FBF5F00201B1FBF5F06FF01803584386
:1042000001EB800006EBC000B0FBF5F000F0F80019
:1042100002EB4002B1FBF5F0584301EB800006EBE6
:10422000C000B0FBF5F0216800F007001044886082
:10423000D4E7000000100140001401408162828533
:10424000C28500210164222280F83E2080F83C10C3
:104250000168CA6842F48072CA6001684A6942F023
:1042600001024A610068C16841F02001C16000207C
:10427000704790F83D10212901D0022070478168D5
:10428000B1F5805F01D1016961B1016A4A1C026226
:10429000026809785160C18C491E0904090CC18467
:1042A0000AD013E0016A02680988C1F3080151606D
:1042B000016A891C0162EEE70168CA6822F0800287
:1042C000CA600068C16841F04001C16000207047C9
:1042D0000148FEF727BF0000040200202DE9F0414D
:1042E00004462DED028B0D46174620780026022845
:1042F00027D0A868FCF7A1F941EC180BF868FCF787
:104300009CF941EC100B00F093F853EC182B51EC96
:10431000100BFCF7BDF923D8A068401CA0602969E8
:1043200088421ED30220207095ED010AD5ED050AC2
:1043300020EE200A84ED030AA660BDEC028BBDE8E6
:10434000F081A068401CA060296901EB81018842CE
:10435000F3D3267095ED010A84ED030AA660ECE71D
:10436000A660207868B10128E7D16068401C6060D1
:10437000E9688842E1D3267095ED010A84ED030ACD
:10438000DBE76868FCF759F941EC180BF869FCF7B2
:1043900054F941EC100B00F04BF853EC182B51EC96
:1043A000100BFCF775F9C8D201202070666095EDFE
:1043B000000A84ED030AC0E7FEE7F0EE401AB0EE13
:1043C000600AB4EEE10AF1EE10FA02D8B0EE610A2A
:1043D0007047B4EEC10AF1EE10FAF9DBB0EE410A13
:1043E000704700000FB4054B10B503A9044A0298AA
:1043F00000F03CF910BC5DF814FB00008553000888
:104400000C00002020F00040C0F1FF40C00F7047BA
:104410000907090E002804DB00F1E02080F80014F1
:10442000704700F00F0000F1E02080F8141D704785
:104430002DED020B019820F0004001909DED000B46
:1044400002B0704700B52DED048BB0EE409AF0EE4F
:10445000609A83B051EC190BFCF729FA41EC180B68
:1044600018EE100A18EE901A8DED008B002818BF78
:104470000120084320F00040C0F17F6000F1E040DF
:10448000C00F14D019EE101A19EE900A8DED009B92
:10449000002918BF0121084320F00040C0F17F60CF
:1044A00000F1E040C00F04BF012000F017F8B0EEAB
:1044B000480A03B0F0EE680ABDEC048B00BD02E0D0
:1044C00008C8121F08C1002AFAD17047704700209F
:1044D00001E001C1121F002AFBD1704701490860A9
:1044E00070470000380100202DE9FF5F82B00021F5
:1044F000DDE90430020DDDF840B0034318D044F686
:104500001050A2F2FF3242431514119801281FD017
:10451000A5EB0B00401C5FEA000A4FF000064E4F6F
:10452000DFF83891B046504615D5CAF1000413E0C3
:10453000119801244AA3012801D16FEA0B010298C6
:10454000119AC0E90031C0E9024206B0BDE8F09F0F
:10455000CBF10000DFE704460021404A491842EB56
:104560000450CDE9001012E0E00707D032463B4688
:1045700040464946FBF72AFF8046894632463B467D
:1045800010461946FBF722FF06460F466410002C22
:10459000EAD1DDE90401DDE90023BAF1000F06DA12
:1045A000FBF714FF42464B46FBF710FF05E0FBF715
:1045B0007FFF42464B46FBF77BFF04460E46002238
:1045C000284BFCF765F803D84FF0FF30014607E0B1
:1045D0000022254B20463146FBF751FEFCF7B8F987
:1045E000102409E0002C0ADB0A220023FBF7F2FD6D
:1045F000039B30321A55641E50EA0102F2D1641C4A
:10460000039AC4F111031444119A012A03D0012220
:1046100008430DD10AE0084304D000204FF0110BED
:10462000119072E7A3EB0B056D1E0DE05B4504DDF9
:104630004FF0000205F1010504E003DA4FF000023B
:10464000A5F10105002AECD002981199C0E90231C8
:10465000C0E9004579E70000000014400000F03F89
:10466000300000000000F0430000E03F2DE9FF4F64
:1046700095B09A46884606460025EEE1252877D172
:1046800000242746F94A0121039400E0044316F868
:10469000013F203B01FA03F01042F7D130782A287D
:1046A00011D06FF02F033078A0F13002092A16D80C
:1046B000039A44F0020402EB820203EB420210442C
:1046C000761C0390EFE758F8042B0392002A03DAD4
:1046D000504244F40054039044F00204761C3078B5
:1046E0002E2816D116F8010F44F004042A280DD004
:1046F0006FF02F023078A0F13003092B09D807EBB7
:10470000870302EB4303C718761CF3E758F8047BD2
:10471000761C30786C280FD006DC4C2817D068281F
:104720000DD06A2814D104E0742810D07A280FD153
:104730000DE044F400140AE044F4801401E044F471
:1047400040147278824202D104F58014761C761CE3
:10475000307866280BD013DC582877D009DC002885
:1047600075D04528F6D04628F4D047281AD193E1D1
:1047700018E0632835D0642879D0652812D18BE100
:10478000702873D008DC6728F1D069286FD06E28B4
:104790000DD06F2806D1ACE073282CD0752874D0CA
:1047A000782853D05246179990476D1C54E1C4F3B2
:1047B0000250022809D003280DD0D8F80010042890
:1047C0000DD00D6008F1040846E1D8F80010EA1792
:1047D000C1E90052F6E7D8F800100D80F2E70D703D
:1047E000F0E718F8041B8DF8001000208DF8010088
:1047F000EB46012003E058F804BB4FF0FF3061079F
:104800004FF0000102D40DE009F101018946B942DF
:104810000FDA8145F8DB1BF809100029F4D108E014
:1048200009F1010189468142FADB1BF809100029D0
:10483000F6D103985346A0EB090721463846179A4C
:1048400000F080FA284400EB090507E044E008E1A5
:104850000DE01BF8010B524617999047B9F1010979
:10486000F7D2534621463846179AF2E039E00A213A
:10487000C4F302524FF0000B0091022A06D058F800
:10488000040BC117032A09D00AE023E008F107004E
:1048900020F00702F2E80201904605E000B2C117DD
:1048A000042A01D140B2C117002906DA0A460021C4
:1048B000404261EB02012D2202E0220504D52B22A9
:1048C0008DF80420012203E0E20701D02022F7E75F
:1048D000914657E00A2100E010214FF0000B0091B3
:1048E0000BE010214FF0000B44F004040827009166
:1048F00003E008204FF0000B0090C4F30252022A9C
:1049000005D058F8040B0021032A08D008E008F16C
:10491000070020F00702F2E80201904603E080B2AF
:10492000042A00D1C0B24FF0000922072AD53278FC
:10493000702A07D0DDF800C08CF0100C5CEA0B0C7C
:1049400005D00EE040228DF80420012208E050EA54
:10495000010306D030238DF804308DF805200222A3
:104960009146009B83F0080353EA0B030AD150EAF7
:10497000010201D1620705D530228DF804204FF0E5
:1049800001097F1E3278582A04D039A20C920CAA51
:1049900002920BE03BA2F9E75B46009AFBF71AFC98
:1049A0000C9B9B5C029A521E0292137050EA010209
:1049B000F2D1029804A9081A00F1200B600702D571
:1049C00024F4803400E001275F4502DDA7EB0B00F3
:1049D00000E0002000EB0B01009003984944401ACE
:1049E0000390E00306D453462146179A039800F03B
:1049F000A9F90544002706E001A85246C05D1799B1
:104A000090476D1C7F1C4F45F6DBE0030CD55346E9
:104A10002146179A039800F095F9054404E03020E8
:104A20005246179990476D1C0099481E0090002926
:104A3000F5DC08E00298029952460078491C029180
:104A4000179990476D1CBBF10001ABF1010BF1DC34
:104A50005BE100F065F90544761C307800287FF4AE
:104A60000DAE19B02846BDE8F08F000009280100FE
:104A700030313233343536373839616263646566D4
:104A80000000000030313233343536373839414296
:104A90004344454600000000600700D4062708F1A3
:104AA000070020F00700F0E80223804603F0004CE6
:104AB0005FEA0C0001D097A009E0200501D596A07F
:104AC00005E0E00701D095A001E0AFF24C001390A3
:104AD000307823F0004365280CD006DC452809D047
:104AE00046281DD047287FD13BE0662818D067288C
:104AF0007AD136E00021112F01DB112000E0781C73
:104B0000CDE9000104A90CA8FFF7EEFCDDE90D01D9
:104B10000C9A4FF0000B07F10109109200914EE042
:104B20004FF000400097CDE9011004A90CA8FFF751
:104B3000DBFCDDE90D020C9B0F994FF0000B914659
:104B40001093009211B9791C00EB0109B7EB090031
:104B500003D4C0F1FF3B07F10109A9EB0700019065
:104B600042E0012F00DA01270021112F01DD112081
:104B700000E03846CDE9000104A90CA8FFF7B4FC19
:104B8000DDE90D010C9A00914FF0000BB94610922F
:104B900021070FD4009A4A4503DA914601E0A9F1B2
:104BA0000109B9F1010F05DD109AA9F10101515C6C
:104BB0003029F4D0B84202DA10F1040F03DA0121EF
:104BC000CDE9011010E0002803DC8344A9EB0001CB
:104BD00002E0411C494500DD8946A0EB0B00401C6A
:104BE00001904FF000400290200705D401984845FD
:104BF00002DB4FF0FF30019000208DF84B0002984F
:104C00000DF14B07B0F1004F25D002200C902B2066
:104C10000D90029800280CDA404202902D200D9051
:104C200007E00A210298FBF767FD3031029007F890
:104C3000011D0C99481E0C900029F2DC02980028F6
:104C4000EFD1791E0D980870307800F0200040F008
:104C5000450007F8020D11A8C01BC01D0290139853
:104C6000007800B1012000EB0901019801EBE0712F
:104C7000029801440398401A401E0390E00306D4B2
:104C800053462146179A039800F05CF805441398A0
:104C9000007818B15246179990476D1CE00323D550
:104CA00053462146179A039800F04CF805441BE040
:104CB000BBF1000F07DB0098584504DD10981799E9
:104CC00010F80B0001E017993020524690470198E8
:104CD0000BF1010B401E05F10105019004D12E20BE
:104CE0005246179990476D1CB9F10001A9F10109CD
:104CF000DEDC05E017F8010B5246179990476D1C52
:104D00000299481E02900029F4DC53462146179A66
:104D100003989EE62D0000002B00000020000000FC
:104D20002DE9F041044600251E461746880404D4A8
:104D300005E039462020B0476D1C641EF9D5284691
:104D4000BDE8F0812DE9F041044600251E4690465D
:104D5000C80301D5302700E02027880404D505E0EA
:104D600041463846B0476D1C641EF9D52846BDE85B
:104D7000F081000070B586B000253748016841F425
:104D800080610160006800F480600090324814384F
:104D9000016841F480010160016801F48001009123
:104DA000016841F001010160016801F00101009119
:104DB000016841F004010160016801F00401009103
:104DC000016841F020010160006800F020000090BF
:104DD0000F26019603240294039501A91F48FDF7AD
:104DE0003FF94FF4607001900294039501A91C48AB
:104DF000FDF736F901960294039501A91948FDF7CC
:104E00002FF900F03DF8194C174820604FF08060F2
:104E10006060A560E5600014206140006061800072
:104E2000A061E561C00020622046FDF777F8A4F19B
:104E300048008463A063022201213920FDF796FA1D
:104E40003920FDF786FAA4F592716E2201F1DC009B
:104E5000FCF7C4FA06B070BD4438024000000240BE
:104E60000014024000080240286402406C03002045
:104E70001FB50091019202936946FCF767F91FBDC7
:104E800010B52F482D4901604FF480314160002159
:104E90008160C16001220261027680F820100B233C
:104EA000C3614162274B8362C16280F83020FCF706
:104EB00069FA0723012200212148FFF7D9FF0723C0
:104EC000022201211E48FFF7D3FF072303220221FC
:104ED0001B48FFF7CDFF0723042203211848FFF7E3
:104EE000C7FF0522072311461548FFF7C1FF062219
:104EF000072311461248FFF7BBFF07231A4619463E
:104F00000F48FFF7B5FF072308220A210C48FFF7D7
:104F1000AFFF072309220B210948FFF7A9FF072349
:104F20000A220C210648FFF7A3FF07230B22BDE846
:104F300010400D210248FFF79BBF000000220140F6
:104F4000240300200100000F70B504460D460948F7
:104F50003221C16001464030FDF732FD054A403242
:104F60001268506C40F40041516403484463856307
:104F700070BD0000E40300200000014070B504464D
:104F80000D4609483222C26001466830FDF718FD1F
:104F9000054A68321268506C40F400435364034879
:104FA0000460001D056070BD04040020340401404D
:104FB00000219FED080A002200EB810383ED000A27
:104FC00000EB4103A3F85822491C9629F4DB80F832
:104FD0008423704700000000064B4FF40061002856
:104FE00003D000221846FDF72BB901221846FDF721
:104FF00027B90000001802402DE9F0412DED028B89
:105000000024DFF8A8809FED2A8BA8F1680698F8A5
:105010000C00294D06F13407002809D00020FFF7C5
:10502000DBFF2C8034763C76BDEC028BBDE8F08152
:10503000224890ED000A10EE100AFBF7FEFA41EC50
:10504000100BFFF7F5F953EC182B51EC100BFBF795
:1050500007FBE9D21A4890ED000A10EE100AFBF7A0
:10506000ECFA41EC100BFFF7E3F953EC182B51EC81
:10507000100BFBF7F5FAD7D22888401C80B22880A5
:105080001E28D1D900F0F0FE00F0B2FA0120FFF79F
:10509000A3FF9FED0C0A86ED090A87ED090A01209E
:1050A000307638762C80A8F80E40BDE72815002011
:1050B0009A9999999999B93F540000208417002032
:1050C000C41700200000000000B587B00C4801683C
:1050D00041F040010160006800F0400001904FF491
:1050E000006002900120039004900220059002A924
:1050F0000448FCF7B5FF0120FFF76EFF07B000BDC5
:10510000303802400018024010B5084A064B1360C0
:10511000516000219160D0601046FDF7E5FCBDE8CC
:1051200010400248FDF724BD00100040B4040020E8
:1051300030B58BB004462C216846FBF795F800206B
:10514000474A00EB400101EBC001009B32F81150CF
:105150002B4400934B1C019D32F813302B440193D8
:105160008B1C029D32F813302B440293CB1C039D01
:1051700032F813302B4403930B1D049D32F8133087
:105180002B4404934B1D059D32F813302B4405939B
:105190008B1D069D32F813302B440693CB1D079DC3
:1051A00032F813302B44079301F10803089D32F8BD
:1051B00013302B44089301F10903099D32F8133091
:1051C0002B4409930A310A9B32F8111019440A91B1
:1051D000401C0A28B5DB00990A20B1FBF0F10091D0
:1051E0000199B1FBF0F101910299B1FBF0F102914B
:1051F0000399B1FBF0F103910499B1FBF0F1049133
:105200000599B1FBF0F105910699B1FBF0F106911A
:105210000799B1FBF0F107910899B1FBF0F1089102
:105220000999B1FBF0F109910A99B1FBF0F00A90EC
:1052300000982080019860800298A0800398E08008
:1052400004982081059860810698A0810798E081E4
:1052500008982082099860820A98A0820BB030BD1D
:105260004802002070B58AB00E9D1E4C1C4E266070
:105270006360A560E0602261616100252576657646
:10528000A5760126E676257765772046FCF7AEFB06
:1052900010B101200AB070BD0595069507960095DE
:1052A000019502950395049508960E20099069468C
:1052B0000C48FCF791F908B10220EBE70948FCF72C
:1052C000B8FC02210748FCF775F9002202211420DE
:1052D000FDF74CF81420FDF73CF80020DAE7000059
:1052E000006400404415002000B591B0FEF7A4FA18
:1052F00000F016FAFFF780FE402206496846FAF7EA
:105300009AFF0448383828300FC8FEF70FFB11B059
:1053100000BD00008014002010B52DED028BB0EE12
:10532000418AF0EE618AFEF7E3F8B0EE480AF0EE4B
:10533000680ABDEC028BBDE81040FEF711BC00000E
:1053400001490860704700000400002010B50948BA
:10535000FFF72EFE0848FFF72BFE0848FFF728FE50
:105360000748FFF725FE00F0E5FABDE8104000F021
:1053700025BA000068050020F0080020780C002005
:105380000010002003490A685206FCD5C2B24A60E8
:10539000704700000010014001784278DFED080AF4
:1053A00041EA022109B200EE101A0649B8EEC00A1D
:1053B00080EE201A81ED001A807808717047000095
:1053C00000000543E40000207047000010B50446CB
:1053D0009FED0A1A2078617840EA012000B200EEC1
:1053E000100AF8EEC00A80EE810A054800F00AFAB9
:1053F000044880ED000AA178017110BD0000064349
:1054000028140020DC00002070477047704700001F
:105410000178427841EA022204498A808278C3787E
:1054200042EA0322CA8000790872704738150020CA
:1054300070B504462DED028BD4ED000A30EEC00AA3
:1054400084ED070A94ED070A5049B0EEC00A10EE49
:10545000100A884201DD012500E0002594ED000AD4
:1054600010EE100AFBF7E9F841EC100BFEF7E0FF35
:105470009FED471B51EC100B53EC112BFBF708F978
:105480001BD294ED000AB0EEC00A10EE100AFBF732
:10549000D4F89FED411B53EC112BFAF797FF94EDD5
:1054A000070A41EC180BB0EEC00A10EE100AFBF729
:1054B000C4F853EC182BFBF7EBF84FF000064DB196
:1054C000E06B401CE063B0F5FA7F06D9012084F858
:1054D000380002E0E66384F8386094ED000A10EECC
:1054E000100AFBF7AAF841EC100BFEF7A1FF9FEDA5
:1054F0002C1B51EC100B53EC112BFBF7B1F801D224
:1055000084F8386094ED070AD4ED080A30EE600A9A
:10551000D4ED030A60EE200A94ED040A94ED071A14
:1055200020EE010A94ED071AD4ED081AB0EE002A15
:1055300001EEC21AD4ED091A31EE211AD4ED051A82
:1055400021EE211A94F8380018B1D4ED0D1A21EE8D
:10555000800A30EE800A30EE010AD4ED010A30EE06
:10556000800A84ED010A94ED080A84ED090A94ED9D
:10557000070A84ED080A94ED010A10EE100AFBF701
:105580005CF8BDEC028B41EC100B70BD0000A0403C
:105590000000000000002E409A9999999999D93FEE
:1055A000000000000000084010B504462DED028BFD
:1055B000B0EE408AF0EE608A53EC112B51EC180BE0
:1055C000FAF75DFE41EC100B51EC180B53EC102B6D
:1055D000FAF76EFFC4E900019FED030B84ED020BA7
:1055E000BDEC028B10BD00000000000000000000B8
:1055F000374900200870486088609FED360A0846E9
:1056000080ED030A00201031087048608860084669
:1056100080ED030ADFED301A4038C0ED001A80ED4E
:10562000010ADFED2E0AC0ED020A4FF47A71C16063
:1056300042F2107202619FED2A1A80ED051A1830AD
:10564000C0ED001A80ED010AC0ED020AC1600261DE
:1056500080ED051A3830F3EE080AC0ED000AB7EE07
:10566000001A80ED021A9FED1F0A80ED010A0C302E
:10567000C0ED000A80ED021A80ED010A1A4880EDA3
:105680000C0ADFED1A0AC0ED010ADFED190AC0EDC0
:10569000000A80ED070A80ED090A80ED080A80ED16
:1056A0000A0A80ED0B0A134880ED0C0A9FED121ACE
:1056B00080ED011AC0ED000A80ED070A80ED090AAD
:1056C00080ED080A80ED0A0A80ED0B0A70470000A1
:1056D0002C0500200000C8420000DC420000964279
:1056E000C3F5283F00000000C01400204260E53DE3
:1056F0004260653DF41400201F85EB3D0148FCF736
:10570000E0BD00003C140020044A034B13605060CD
:1057100091601046FCF7A8BD003000403C1400200A
:105720002DE9F04100251F4E1F4C0127A08810FBDA
:1057300000F1E08810FB0010FAF729FF41EC100B94
:10574000FEF780FE9FED191B51EC100B53EC112B53
:10575000FAF786FF04D2A580E5803573777301E000
:1057600037737573B4F90400FAF711FF41EC100BAD
:10577000104800F0AFF851EC100BFAF726FF094D76
:10578000B83D2880B4F90600FAF701FF41EC100B90
:10579000094800F09FF851EC100BFAF716FF6880EB
:1057A000BDE8F08128150020381500200000000019
:1057B00000C08240D8130020C81300209FED041AB7
:1057C000DFED040A9FED040A044800F009B8000068
:1057D00000000000CDCCCC3D6F12833A281400208D
:1057E00080ED000AC0ED010A80ED021AB7EE000A52
:1057F00080ED030A9FED020A80ED040A7047000065
:105800000000000090ED021AD0ED030AD0ED001A5E
:1058100070EEA10AD0ED011A31EEA02AC0EE821A74
:10582000C0ED041A30EE412AB0EE410A01EE820AC0
:1058300080ED020AB7EE001A31EE611A61EE200A1D
:10584000C0ED030A7047000030B587B01748016803
:1058500041F002010160016801F00201019101685B
:1058600041F010010160006800F0100001904FF459
:1058700080640294012003900490022005900C4D56
:1058800002A92846FCF7ECFB6201029202A9094832
:10589000FCF7E6FB002221462846FCF7D1FC00225B
:1058A00021462846FCF7CCFC07B030BD303802401A
:1058B000000402400010024010B5044694ED0C1A9A
:1058C000D4ED080AB1EE410AFEF777FD84ED090A2E
:1058D00010BD000010B504462DED068BB0EE40AAB9
:1058E000F0EE60AA94ED008B9FED100B53EC182B9B
:1058F00051EC100BFAF764FD94ED022B53EC122BD4
:10590000FAF764FD41EC190B53EC1A2B51EC180B10
:10591000FAF75CFD53EC192BFAF7B1FCC4E902016C
:1059200041EC100BBDEC068B10BD00000000000028
:105930000000F03F10B52DED068B9FED428BB0EED1
:10594000481AF0EE681A9FED41AB4248B0EE4A0AA1
:10595000F0EE6A0AFFF728FE3E48B0EE481AF0EE75
:10596000681AB0EE4A0AF0EE6A0A1030FFF71CFE21
:105970003848B0EE481AF0EE681AB0EE4A0AF0EE77
:105980006A0A2030FFF710FE3248B0EE481AF0EEF7
:10599000681AB0EE4A0AF0EE6A0A3030FFF704FEE9
:1059A0009FED2D9B2B48B0EE4A0AB0EE491AF0EE5F
:1059B000691AF0EE6A0A4030FFF7F6FD2548B0EEAE
:1059C000491AF0EE691AB0EE4A0AF0EE6A0A50304F
:1059D000FFF7EAFD9FED22AB1E48B0EE491AF0EE4C
:1059E000691AB0EE4A0AF0EE6A0A6030FFF7DCFD91
:1059F0001848B0EE491AF0EE691AB0EE4A0AF0EE15
:105A00006A0A7030FFF7D0FD9FED179B1148B0EE8A
:105A1000481AF0EE681AB0EE490AF0EE690A8030D2
:105A2000FFF7C2FDB0EE481AF0EE681AB0EE490A70
:105A3000F0EE690ABDEC068B0648BDE810409030D8
:105A4000FFF7B2BD0000000000408F4000000000E2
:105A5000000024408813002000000000000059408E
:105A6000000000000000004000000000000049406D
:105A700010B5FDF73DFF002010BD10B52DED028BD8
:105A8000F0EE408AB0EE608A18EE900AFEF7BAFC9B
:105A900020B1B0EE480ABDEC028B10BD18EE100A22
:105AA000FEF7B0FC10B1B0EE680AF4E7F4EEC88A75
:105AB000F1EE10FA02D2B0EE480AECE7B0EE680A56
:105AC000E9E710B52DED028BF0EE408AB0EE608A6A
:105AD00018EE900AFEF796FC20B1B0EE480ABDEC35
