:020000040800F2
:1000000068140020A10100084D3500082B310008BC
:1000100039320008BD0C000835400008000000001F
:10002000000000000000000000000000C1380008CF
:10003000D70D000800000000CD350008C3380008C7
:10004000BB010008BB010008BB010008BB010008A0
:10005000BB010008BB010008BB010008BB01000890
:10006000BB010008BB010008BB010008BB01000880
:10007000BB010008BB010008BB010008BB01000870
:10008000BB010008BB010008BB010008BB01000860
:10009000BB010008BB010008BB010008BB01000850
:1000A000BB010008BB010008BB010008BB01000840
:1000B000BB010008BB010008BB010008BB01000830
:1000C000BB010008BB010008BB010008BB01000820
:1000D000BB010008413F0008BB010008BB0100084C
:1000E000BB010008BB010008BB010008BB01000800
:1000F000BB010008BB010008BB010008BB010008F0
:10010000BB010008BB010008BB010008BB010008DF
:10011000BB010008BB010008D9380008BB0100087A
:10012000BB010008FD0C0008BB010008BB01000872
:10013000BB010008BB010008BB010008BB010008AF
:10014000BB010008BB010008BB010008BB0100089F
:10015000BB010008BB010008BB010008BB0100088F
:10016000BB010008BB010008BB010008BB0100087F
:10017000BB010008BB010008BB0100080000000033
:10018000BB010008BB010008DFF810D000F0F0FB55
:10019000004800479D5D0008AFF300806814002010
:1001A0000648804706480047FEE7FEE7FEE7FEE711
:1001B000FEE7FEE7FEE7FEE7FEE7FEE7C9380008D8
:1001C000890100082DE9F05F0546002092469B4614
:1001D00088460646814640241BE02846414647465D
:1001E000224600F0A6FA53465A46C01A914110D34F
:1001F00011461846224600F08DFA2D1A67EB0108C9
:100200004F4622460120002100F084FA17EB000936
:100210004E41201EA4F10104DFDC484631462A4647
:100220004346BDE8F09F40EA01039B0703D009E085
:1002300008C9121F08C0042AFAD203E011F8013BD2
:1002400000F8013B521EF9D27047D2B201E000F82B
:10025000012B491EFBD270470022F6E710B513466A
:100260000A4604461946FFF7F0FF204610BD2DE967
:10027000FE4F804681EA0300C00F0C46009021F03B
:10028000004123F00045B8EB0200A94105D24046E9
:10029000214690461C460B46024623F00040104380
:1002A00047D0270DC7F30A00C3F30A510290401A42
:1002B000019040286BDAC3F3130040F4801B0098D0
:1002C000924620B10023D2EB030A63EB0B0B01989B
:1002D0005946C0F14002504600F01CFA06460D4651
:1002E00050465946019A00F034FA10EB080061417B
:1002F000002487EA115284EAE7731A4340D0009A37
:1003000062B3019A012A4FEA075215DC001B61EB28
:1003100002014FF0004202EA0752CDE90042001C00
:1003200041F5801132462B4600F06BFA03B0BDE870
:10033000F08F40462146F9E7001B61EB0201001CEB
:1003400041F5801300185B412018A2F5001747EB18
:10035000030140EAD570B6196D4111E06D084FEA0E
:10036000360645EAC0754FEA0752001B61EB0201F1
:10037000001C41F5801149084FEA30000019514135
:1003800032462B4603B0BDE8F04F00F02BBA009880
:10039000012240000023D0EB020263EBE0730098DF
:1003A00021464FEAE074B8EB000061EB0401E9E795
:1003B00083F000435BE781F0004158E72DE9FE4FF1
:1003C00081EA030404F0004421F0004100944FF05E
:1003D000000B23F0004350EA01045ED052EA03040C
:1003E0005BD0C3F30A54C1F30A552C44A4F2F3348E
:1003F0000194A0FB0254C1F3130141F48011C3F333
:10040000130343F4801301FB024400FB034E840AF0
:10041000970A44EA815447EA8357A4FB0768029588
:100420008D0A05FB07854FEA932C04FB0C54270526
:10043000029D4FEA065847EA1637B5EB08056EEB02
:10044000070C870E920E47EA811742EA8312A7FB38
:100450000201B6EB0B0164EB00042B0D43EA0C33F5
:100460005E1844EB1C50DA465146E7FB0201C5F327
:1004700013044FEA0B3343EA14534FEA0432019C4E
:1004800043EA0603A4F10C040294009CCDE900B4F5
:1004900000F0B7F903B0BDE8F08F00200146F9E79E
:1004A0002DE9F04D81EA030404F0004B21F00045F2
:1004B00014464FF0000A23F0004150EA050220D014
:1004C00054EA01021DD0C5F30A570246C5F31303CF
:1004D000C1F31300C1F30A5640F4801543F48013AE
:1004E000A7EB0608101BD64608F2FD3873EB050093
:1004F00002D308F1010801E092185B41B8F1000F46
:1005000003DA00200146BDE8F08D00204FF4801191
:10051000064684460EE0171B73EB050705D3121B36
:1005200063EB050306434CEA010C49084FEA30002F
:1005300092185B4150EA0107EDD152EA030012D054
:1005400082EA040083EA0501084305D0101BAB4191
:1005500006D20122002306E000224FF0004302E011
:100560006FF0010253101AEB06004CEB085110EB30
:100570000A0041EB0B01BDE8F04D00F033B90EB5B8
:10058000C10F80EAE0700844CA07002140F23343FB
:100590008DE80E000A460B4600F033F903B000BDAB
:1005A0000EB540F2334102910021CDE900110A4617
:1005B0000B4600F026F903B000BD70B5C1F30A5236
:1005C00001F000450024C1F3130140F2FF3341F470
:1005D00080119A4201DA002070BD40F233439A4202
:1005E000A2F2334203DC524200F0A3F800E0904054
:1005F0002C43F1D0404270BDC1F30A5210B5C1F393
:10060000130140F2FF3341F480119A4201DA0020D5
:1006100010BD40F233439A42A2F2334203DC52420D
:1006200000F087F810BD904010BD00F0004230F09F
:1006300000400AD0C10D01F56071C0F3160042EA16
:100640000151C2084007114370470020014670471E
:1006500030B5041E71F1000404DB4FF00044404249
:1006600064EB0101141E73F1000405DB1C464FF01E
:100670000043524263EB04038B4208BF824230BD09
:1006800030B5041E71F1000404DB4FF00044404219
:1006900064EB0101141E73F1000405DB1C464FF0EE
:1006A0000043524263EB0403994208BF904230BDBD
:1006B00001F0004330B421F0004150EA010206D0BD
:1006C0000A0DA2F56072C1F31301002A02DC30BCEE
:1006D00000207047440F44EAC104C100E01830BC58
:1006E00000EBC25000F047B830B50B460146002081
:1006F0002022012409E021FA02F59D4205D303FAE4
:1007000002F5491B04FA02F52844151EA2F1010264
:10071000F1DC30BD202A04DB203A00FA02F100208F
:1007200070479140C2F1200320FA03F3194390402F
:100730007047202A04DB203A21FA02F0002170479A
:1007400021FA02F3D040C2F1200291400843194639
:100750007047202A06DBCB17203A41FA02F043EA21
:10076000E07306E041FA02F3D040C2F1200291406A
:100770000843194670470029A8BF7047401C49002C
:1007800008BF20F00100704710B4B0FA80FC00FAF6
:100790000CF050EA010404BF10BC704749B1CCF121
:1007A000200421FA04F411FA0CF118BF01212143AD
:1007B0000843A3EB0C01CB1D4FEA00614FEA102068
:1007C00042BF002010BC704700EBC350104400290A
:1007D000A4BF10BC7047401C490008BF20F00100B6
:1007E00010BC704710B5141E73F1000408DA401CE9
:1007F00041F1000192185B411A4301D120F0010040
:1008000010BD2DE9F04D92469B4611B1B1FA81F22F
:1008100002E0B0FA80F220329046FFF77BFF0446F8
:100820000F4640EA0A0041EA0B0153465A46084384
:1008300013D0114653EA010019D0C8F140025046C6
:10084000FFF777FF05460E46504659464246FFF7EA
:1008500061FF084305D0012004E020463946BDE889
:10086000F08D0020054346EAE0762C4337430A9892
:100870006305E40AA0EB08000022FD0A44EA47549D
:100880000A3002D500200146E9E701051019694147
:10089000DDE9084500196941BDE8F04DA2E72DE901
:1008A000F04D00231A461B1A8A4103DB0020014643
:1008B000BDE8F08DC1F30A52C1F3130141F4801574
:1008C0004FF0000BD10702D100186D41521E0027D6
:1008D000044640F2FF11384601EB620A3E4680466C
:1008E000024600204FF48011FFF723FFC219714127
:1008F000BB1846EB0100B4EB030C75EB000C04D302
:10090000E41A65EB000517460E46241908F10100AC
:100910006D4180463428E3DDF91946EB0600091BDA
:10092000A84103D24FF0FF32134601E000221346E4
:100930001BEB070046EB0A51BDE8F04DFFF752BF35
:10094000C1F30A52C1F3130140F2FF3341F48011A5
:100950009A4202DA00200146704740F233439A423D
:10096000A2F2334202DC5242FFF7E3BEFFF7D2BEEF
:10097000064C074D06E0E06840F0010394E80700EC
:1009800098471034AC42F6D3FFF702FCA061000890
:10099000C061000810B50146886B026C12F0500F60
:1009A00005D0026CD20626D500F02FFB10BD016CDD
:1009B00041F40071016401688A6812F0405F17D148
:1009C000027EAAB9CA6A12F4700F02D08A68520570
:1009D0000ED44A6822F020024A60016C21F4807132
:1009E0000164016CC90403D4016C41F0010101648C
:1009F00000F09EFA10BD806BC26CBDE81040084646
:100A0000104710B5806B40210164416C41F0040136
:100A1000416400F0FAFA10BD10B5806B00F0F4FAF2
:100A200010BD00004A494A6822F440324A604A68D0
:100A300043681A434A6001684A6822F480724A6037
:100A400001684A68036942EA03224A6001684A6809
:100A500022F040724A6001684A6883681A434A601B
:100A600001688A6822F400628A6001688A68C36843
:100A70001A438A60816A6FF07062D14214D00168B3
:100A80008A6822F070628A6001688A68836A1A4301
:100A90008A6001688A6822F040528A6001688A6828
:100AA000C36A1A438A6009E001688A6822F07062AA
:100AB0008A6001688A6822F040528A6001688A6808
:100AC00022F002028A6001688A68037E42EA4302D9
:100AD0008A6090F8201089B101684A6842F4006287
:100AE0004A6001684A6822F460424A6001684B68C3
:100AF000426A521E43EA42324A6004E001684A6890
:100B000022F400624A600168CA6A22F47002CA6272
:100B10000168CB6A828B521E43EA0252CA620168A4
:100B20008A6822F400728A6001688A6890F830301E
:100B300042EA43228A6001688A6822F480628A60FD
:100B400001688A68406942EA802088607047000036
:100B50000023014010B504462DED068BF0EE401A3F
:100B6000F0EE608A4D48D0ED000AC4ED010A91ED27
:100B7000038AB0EE610A05F0E7F900EE900A94ED01
:100B8000001AF8EEE00A60EE880A20EE81AA11EE63
:100B9000900AFFF74AFD9FED421B53EC112BFFF724
:100BA0000DFCFFF785FD00EE100A9FED3F9BB5EEB3
:100BB000C00AF1EE10FA1ADDF0EE4A0A05F017F954
:100BC00010EE100AFFF731FD53EC192BFFF74FFB26
:100BD000FFF76EFD00EE900AF4EEC88AF1EE10FA0F
:100BE00002DDB0EE480A25E0B0EE680A22E0B5EE7C
:100BF000C00AF1EE10FA19D2F0EE4A0A05F0D3F865
:100C000010EE100AFFF711FD53EC192BFFF7D0FB84
:100C1000FFF74EFD00EE900AB1EE480AF4EEC08AEE
:100C2000F1EE10FA06D3B0EE680A03E0DFED200A19
:100C3000B0EE600A94ED001A40EE010AB0EE609A40
:100C4000D4ED019A19EE900AFFF7EFFC9FED198B96
:100C500053EC182BFFF7B2FBFFF72AFD0AEE100A40
:100C6000B1EE690A10EE100AFFF7DFFC53EC182B07
:100C7000FFF7A4FBFFF71CFD00EE100AB0EE4A1AC6
:100C8000F0EE490A03F0D7F994ED011AC0EE010A1B
:100C9000BDEC068BB0EE600A10BD0000280F0020EE
:100CA0005EDFE23CF779BB3F000000000000E03F60
:100CB00000000000CDCCCCCCCCCCEC3FFEE700F06B
:100CC00001B800001CB50C49022004F0C3FD00204F
:100CD00009496A460B5C1354401C0828FADB064895
:100CE0009DF80010133801709DF8011041709DF8B7
:100CF000021081701CBD000066000020014800F059
:100D000027BD0000440200200168CAB2103A18232F
:100D1000B2FBF3F2064B9B5CC3656FF30901032A38
:100D200002D9091D816500E08165806D7047000072
:100D30007460000810B5014600208A6A8B694FF084
:100D4000C074002B0ED0B3F5005F1AD062B3012A35
:100D50002AD0022A28D0032A03D1C96AC90100D5A2
:100D6000012010BD1AB1012A06D0022AF9D1C96AA0
:100D7000C901F6D5012010BDC96AA142FBD10120ED
:100D800010BD52B1012A0AD0022A06D0032AF7D197
:100D9000C96AA142F4D1012010BD012010BDC96A69
:100DA000C901FBD5012010BD012010BD30B504687C
:100DB000256825F480252560046863608368402BDE
:100DC00004D0036899600068C26030BD03689A600F
:100DD0000068C16030BD704778B50024009490F879
:100DE0003C20012A19D0012280F83C200A680725FE
:100DF000092A14D90368DE680A3A02EB42029540D8
:100E0000AE43DE600A788B680A3A02EB42029340F6
:100E10000268D5682B43D36011E0022078BD0368D7
:100E20001E6902EB42029540AE431E610A788B6850
:100E300002EB42029340026815692B4313614A6832
:100E40001F25072A13D203685E6B521E02EB820233
:100E50009540AE435E630A8893B20A79521E02EB54
:100E6000820293400268556B2B43536328E00D2A9E
:100E700013D203681E6BD21F02EB82029540AE4371
:100E80001E630A8893B20A79D21F02EB8202934052
:100E90000268156B2B43136312E00368DE6A0D3A98
:100EA00002EB82029540AE43DE620A8893B20A7971
:100EB0000D3A02EB820293400268D56A2B43D3625B
:100EC000174A184B05689D4206D10D68122D03D1B3
:100ED000556845F48005556005689D421BD10B6837
:100EE000102B01D0112B16D1536843F4000353602B
:100EF000096810290FD10C490C4A0968B1FBF2F1BD
:100F000001EB81014900009102E00099491E009126
:100F100000990029F9D180F83C40002078BD0000FC
:100F200000230140002001400000002040420F004B
:100F300070B500682549884247D1254800F048F936
:100F40002348A83004F0B4FB214CA8346089FFF793
:100F500027FB9FED201B53EC112BFFF72FFA9FED82
:100F60001F1B53EC112BFFF79BFAFFF7A1FB1D4D45
:100F700028602089FFF714FB9FED1B1B53EC112BFE
:100F8000FFF71CFA9FED1A1B53EC112BFFF716FA13
:100F9000FFF78EFB6860A089FFF702FB9FED161B31
:100FA00053EC112BFFF70AFA9FED151B53EC112B95
:100FB000FFF776FAFFF77CFBA860A4F58C71BDE81B
:100FC00070403722024800F04DB870BD0022014049
:100FD000FC0100209999999999318A4000000000FC
:100FE0000000F640280F0020CDCCCCCCCC4C3940B2
:100FF000000000000000303F1F85EB51B8FE60404C
:10100000666666666666E0407047704770B504467F
:101010000026002C03D0206C002510B107E0012031
:1010200070BD204600F01CF8656484F83C50206CCC
:10103000C00610D4206C20F4885040F002002064D8
:101040002046FFF7EFFC6564206C20F0020040F0C2
:101050000100206400E0012684F83C50304670BD59
:1010600070470000F8B504460023009394F83C0054
:10107000012807D0012084F83C0020688568ED072E
:1010800002D014E00220F8BD856845F001058560B6
:101090004648474D0068B0FBF5F000EB400000907B
:1010A00002E00098401E009000980028F9D12068C6
:1010B0008568ED0503D5856825F480758560206811
:1010C0008568ED0768D0256C40F20166B54345F4AC
:1010D000807525644068400505D5206C20F40050DB
:1010E00040F480502064206CC00404D5606C20F073
:1010F0000600606400E0636484F83C302D4EA36B0E
:101100002D48D863A36B2D481864A36B2C48D86472
:1011100023686FF0220018602068436843F0806302
:1011200043602068836843F48073836020681346BB
:101130004C300A46A56B0146284600F05BFC7068FF
:101140002049C00607D0206888422DD1816811F05F
:10115000405F1CD028E0206888420FD01A4A904295
:1011600003D1D1F80423D20608D0184A90421BD1EB
:10117000D1F8041301F01F01102915D2816811F074
:10118000405F11D1816841F0804181600CE081684D
:1011900041F08041816007E0206C40F01000206445
:1011A000606C40F0010060640020F8BD0000002089
:1011B00040420F000023014095090008190A000869
:1011C000030A0008002001400021014000220140E4
:1011D00010B50446002094F83C1001290CD00121E0
:1011E00084F83C1021688A6822F001028A60216834
:1011F0008A68D20702D01DE0022010BD8A6822F45E
:1012000080728A60A16B91F83520022A07D10846C6
:1012100000F044FA18B1216C41F0400121642168CA
:101220004A6822F080624A60216C21F4885141F0C2
:1012300001012164002184F83C1010BD10B590F824
:101240002020012A07D0022A05D0416A41F48021DA
:101250004162012010BD3C4800F50070026842F078
:1012600001020260026822F47C52026002684B6A4A
:1012700042EA032202600A7D02F01F0301229A4023
:10128000C3699343C361A0F50070CB69B3B9D0F8CB
:101290000C329343C0F80C328C894B6864F31F43C3
:1012A0004C6900EBC404C4F840320C890B6864F349
:1012B0001F434C6900EBC404C4F84432CB69012BD2
:1012C00016D1D0F80C321343C0F80C320C884B689E
:1012D00064F31F434C6900EBC404C4F840320C892A
:1012E000CB6864F31F434C6900EBC404C4F8443278
:1012F0008B697BB1D0F804321343C0F804320B6918
:1013000073B1D0F814321343C0F81432096A0129BA
:101310000CD010E0D0F804329343C0F80432EEE76A
:10132000D0F814329343C0F81432EFE7D0F81C120F
:101330001143C0F81C12D0F8001221F00101C0F8CE
:101340000012002010BD0000006400400246002092
:1013500092F82030012B01D0022B04D121B110686A
:10136000006900F0030070471068C06800F00300D7
:10137000704730B590F82040012C07D0022C05D0E2
:10138000416A41F480214162012030BD21B10468ED
:101390002469A4075FD003E00468E468A40754D07C
:1013A0004FF4D874056804EB01142D5905F00405B9
:1013B0009560F5B305682D59ED08556005682C5901
:1013C00004F00204D4604FF4DA74056804EB0114ED
:1013D0002D5905F00F05156105682D59C5F3072531
:1013E000956105682C59240C54614FF4DC72046833
:1013F00002EB0112A4581C700468A458240A5C7003
:101400000468A458240C9C700468A258120EDA7068
:101410004FF4DE72046802EB0112A4581C710468D8
:10142000A458240A5C710468A458240C9C710468B4
:1014300000E016E0A258120EDA71B9B10068016935
:1014400041F020010161002030BD416A41F40011EA
:101450004162012030BD416A41F400114162012026
:1014600030BD05682D596D0D1560A7E70068C1688E
:1014700041F02001C160E6E770B50446002C03D0BE
:1014800094F8200010B104E0012070BD204600F067
:101490009DF82068016821F00201016000F0E0FB86
:1014A000054605260CE000F0DBFB401B0A2807D9A7
:1014B000606A40F40030606284F82060012070BDF2
:1014C000206840688007EED42068016841F001017F
:1014D000016000F0C5FB05460CE000F0C1FB401BBD
:1014E0000A2807D9606A40F40030606284F82060FE
:1014F000012070BD20684068C007EED0207E012822
:101500003FD02068016821F080010160607E0128E1
:101510003DD02068016821F040010160A07E0128D3
:101520003BD02068016821F020010160E07E0128A5
:1015300039D02068016841F010010160207F012846
:1015400037D02068016821F008010160607F012820
:1015500035D02068016821F004010160D4E902015E
:101560000843D4E90412114308436168491E084343
:101570002168C86100206062012084F820000020FA
:1015800070BD2068016841F080010160BEE72068FD
:10159000016841F040010160C0E72068016841F046
:1015A00020010160C2E72068016821F0100101609C
:1015B000C4E72068016841F008010160C6E72068BF
:1015C000016841F004010160C8E7000030B587B050
:1015D0000068194988422CD11848016841F0080177
:1015E0000160016801F008010191016841F0080102
:1015F0000160006800F00800019010481030016898
:1016000041F000710160006800F00070019002205C
:101610000290039001240494059009200690084D3F
:1016200002A9284600F01EFA029402A9284600F0FA
:1016300019FA07B030BD00000064004030380240A5
:10164000000C024070B5044694F82000012805D033
:10165000606A40F400206062012070BD022084F8BE
:1016600020002068016821F00101016000F0F8FA13
:1016700005460DE000F0F4FA401B0A2808D9606A1C
:1016800040F400306062052084F82000012070BD25
:1016900020684068C007EDD1606270BD2DE9F0415F
:1016A0000446A76D00F0DCFA054694F835000026E4
:1016B000022806D08020606584F834600120BDE8EF
:1016C000F0812068016821F01601016020684169FD
:1016D00021F080014161206C08B9A06C20B1206824
:1016E000016821F0080101602068016821F0010112
:1016F00001600BE000F0B4FA401B052806D9202059
:1017000034342062267003206070D8E720680068B7
:10171000C007EFD134343F2094F828108840B860D7
:101720002670012060700020C9E790F8351002296A
:1017300003D08021416501207047052180F83510D4
:101740000068016821F0010101600020704700007D
:101750002DE9F84304464FF00009CDF800906F489A
:101760004FF416510068B0FBF1F7A56D2E6894F8A0
:101770005C00082202FA00F1314210D020680168B2
:1017800049070CD5016821F00401016094F85C0060
:1017900002FA00F1A960606D40F00100606594F804
:1017A0005C104FF0010808FA01F0304208D02168BF
:1017B0004969090604D5A860606D40F002006065C3
:1017C00094F85C1004208840304208D021680968F1
:1017D000890704D5A860606D40F00400606594F846
:1017E0005C1010208840304220D021680968090729
:1017F0001CD5A8602068016849030CD50068000367
:1018000004D4216C91B1204688470FE0A16C69B1E6
:10181000204688470AE00168C90503D4016821F021
:1018200008010160216C09B12046884794F85C10DA
:101830002020884030424CD021680968C90648D52C
:10184000A86094F8350005280BD02068016849038A
:1018500030D50068000328D4616C51B32046884716
:1018600037E02068016821F01601016020684169B5
:1018700021F080014161206C08B9A06C20B1206882
:10188000016821F00801016094F85C103F20884055
:10189000A86084F8349084F83580216D00293BD00D
:1018A00001B02046BDE8F0430847E16B09B120468E
:1018B00088470EE00168C90507D4016821F01001CE
:1018C000016084F8349084F83580E16B09B12046DA
:1018D0008847606D00281FD0606DC00714D00520B8
:1018E00084F835002068016821F00101016000984A
:1018F000401C0090B84203D820680068C007F6D1A9
:1019000084F8349084F83580E16C002904D001B06B
:101910002046BDE8F0430847BDE8F88300000020FA
:101920002DE9F041044600F09BF905465CB1002624
:1019300084F83460022084F835002068016821F0C2
:10194000010101600DE00120BDE8F08100F088F99F
:10195000401B052805D920206065032084F8350048
:10196000F2E720680068C007F0D121680A682048C3
:101970000240D4E901031843D4E903352B4318434B
:1019800063691843A3691843E3691843236A18433A
:101990001043626A042A03D1D4E90B231A4310438B
:1019A00008602068406920F00700656A2946054301
:1019B000012704290DD1A06A0543E06A48B12046F9
:1019C000FFF7B8F928B14020606584F83570012030
:1019D000BAE7206845612046FFF796F994F85C2045
:1019E0003F2191408160666584F835700020ABE747
:1019F0003F8010F02DE9F04104460025A66D94F8D3
:101A0000340001280DD0012084F8340094F835709A
:101A10000020012F07D084F8340002252846BDE8B5
:101A2000F0810220FBE7022784F8357060652046CC
:101A3000FFF7BCF994F85C103F208840B060206844
:101A4000016841F016010160206C20B12068016836
:101A500041F0080101602068016841F00101016066
:101A6000DCE700002DE9F84F0022DFF89C914FF0F1
:101A7000010809F1040A03274FF00F0C0AF1040BC7
:101A800008FA02F50B682B40AB4272D10C7904F0D6
:101A90000304012C01D0022C15D18668540007FAEA
:101AA00004FE26EA0E06D1F80CE00EFA04FE4EEA19
:101AB000060EC0F808E04468AC430D79C5F3001584
:101AC0009540254345600C79E443A40708D0C568D8
:101AD000540007FA04F6B5438E68A6402E43C6604C
:101AE0000C7904F00304022C11D1D40800EB840615
:101AF000356A5407E40E0CFA04FE25EA0E05D1F807
:101B000010E00EFA04FE4EEA050EC6F820E0056865
:101B1000540007FA04F6B5430E7906F00306A64012
:101B20002E4306604C68E40067D5384C256845F4C0
:101B300080452560246804F480440094344C22F0ED
:101B400003052E19D6F8085894074FEA147E0CFAAC
:101B50000EF4A5432F4CA04201D1002424E02E4CCA
:101B6000A04201D101241FE02C4CA04202D102244A
:101B70001AE042E02A4CA04201D1032414E0294C8F
:101B8000A04201D104240FE0274CA04201D105243A
:101B90000AE0264CA04201D1062405E0244CA042D4
:101BA00001D1072400E0082404FA0EF42C43C6F8FF
:101BB0000848D9F800409C434D68ED0300D51C430C
:101BC000C9F80040DAF800409C434D68AD0300D5E9
:101BD0001C43CAF80040DBF800409C434D68ED020E
:101BE00000D51C43CBF80040074D0C352C689C43B6
:101BF0004E68B60200D51C432C60521C102AFFF41C
:101C00003FAFBDE8F88F0000003C0140443802407F
:101C10000030014000000240000402400008024081
:101C2000000C024000100240001402400018024064
:101C3000001C0240426921EA02030A4043EA0241D1
:101C400081617047002A01D0816170470904816178
:101C50007047000001480068000C7047002004E055
:101C600001488068704700007000002070B504468D
:101C7000002C11D021684CF6CC400860216845F258
:101C800055500860D4E9001048602168A068886059
:101C9000FFF7E6FF05460CE0012070BDFFF7E0FF0F
:101CA000401B302805D92068C068800701D0032078
:101CB00070BD2068C0688007F0D121684AF6AA206C
:101CC0000860002070BD00684AF6AA21016000206B
:101CD00070470000024881680278114481607047B3
:101CE0007000002010B50948016841F400710160DE
:101CF000016841F480610160032000F059F80F2071
:101D000000F006F800F026F8002010BD003C02406C
:101D100070B504460D4D4FF47A712878B1FBF0F0A0
:101D20000B490968B1FBF0F000F036FB08B1012067
:101D300070BD102C07D200222146501E00F018F86A
:101D40006C60002070BD012070BD0000700000209C
:101D5000000000207047002809DB00F01F0201216D
:101D600091404009800000F1E020C0F80011704768
:101D7000F0B40D460D4B1B68C3F30223C3F10704F7
:101D8000042C00D90424191D072901D2002300E0E6
:101D9000DB1E012606FA04F1491E294099409E40A7
:101DA000761E16403143F0BC02F088B90CED00E01D
:101DB00000F00701054A10684FF6FF03184040EA9B
:101DC0000120034908431060704700000CED00E05B
:101DD0000000FA052DE9F04704460D46002C13D00B
:101DE000DFF82891D9F80000EFB200F00700A84210
:101DF0000CD289F80070D9F8000000F00700A84262
:101E000004D00120BDE8F0870120FBE72068404EA8
:101E1000810712D5400703D5306840F4E0503060A8
:101E20002078000703D5306840F4604030603068A7
:101E3000A16820F0F000084330602078C00731D05E
:101E4000334960680839012808D002280BD00328DC
:101E500009D0096889070BD40120D3E709688903F1
:101E600006D40120CEE70968890101D40120C9E721
:101E7000316821F0030101433160FFF7F1FE804634
:101E800041F2883A07E0FFF7EBFEA0EB080050456F
:101E900001D90320B6E73068616800F00C00B0EBB0
:101EA000810FF0D1D9F8000000F00700A84209D94D
:101EB00089F80070D9F8000000F00700A84201D0AE
:101EC00001209FE72078400705D53068E16820F4BD
:101ED000E050084330602078000706D5306821695B
:101EE00020F4604040EAC100306000F03FF8316803
:101EF000084AC1F30311515CC8400749086007480C
:101F00000068FFF705FF00207CE70000003C02406E
:101F1000083802405C6000080000002074000020C7
:101F200001480068704700000000002000B5FFF77E
:101F3000F7FF04490968044AC1F38221515CC84093
:101F400000BD0000083802406C60000800B5FFF7D3
:101F5000E7FF04490968044AC1F34231515CC840B3
:101F600000BD0000083802406C60000810B517483A
:101F7000006810F00C01164816D0164B042912D038
:101F8000082911D1114C241F216801F03F0221685A
:101F900049020AD52068C0F38810A0FB0301002382
:101FA000FEF710F909E0184610BD21680023C1F3BF
:101FB0008811A1FB0001FEF705F92168C1F3014179
:101FC000491C4900B0FBF1F010BD00000838024088
:101FD0000024F400001BB7002DE9F84F0446002C44
:101FE00013D02078DFF8A083C007A8F1040556D0ED
:101FF00008F104000168C1F3810101290CD00068D7
:10200000C0F38100022803D00DE00120BDE8F88F65
:10201000D8F80000400206D5286880033FD56068E4
:1020200070BB0120F2E76068B0F5803F10D0B0F5DA
:10203000A02F12D0286820F480302860286820F46F
:10204000802028606068E0B1FFF70AFE064614E0D1
:10205000286840F480302860F4E7286840F4802045
:102060002860286840F480302860EBE7FFF7F8FD2F
:10207000801B642801D90320C8E728688003F5D5B0
:102080000DE0FFF7EDFD064606E0FFF7E9FD801BDA
:10209000642801D90320B9E728688003F5D42078A3
:1020A000BA4F80074FF0000948D5B748001D0168B6
:1020B00011F00C0F08D00068C0F38100022813D182
:1020C000D8F8000040020FD42868800704D5E068E3
:1020D000012801D0012099E72868216920F0F80043
:1020E00040EAC100286029E0E068B8B1012038600A
:1020F000FFF7B6FD064606E0FFF7B2FD801B02289B
:1021000001D9032082E728688007F5D5286821696E
:1021100020F0F80040EAC10028600FE0C7F8009006
:10212000FFF79EFD064606E0FFF79AFD801B02289A
:1021300001D903206AE728688007F5D420780007D2
:1021400029D5DFF844A2924861690AF1700A89B181
:1021500001210160FFF784FD064606E0FFF780FDE0
:10216000801B022801D9032050E7DAF8000080071D
:10217000F4D510E0C0F80090FFF772FD064606E0C7
:10218000FFF76EFD801B022801D903203EE7DAF835
:1021900000008007F4D42078400778D54FF0000A7B
:1021A00079483C300068C0000BD477483C30016867
:1021B00041F080510160006800F0805000904FF0C5
:1021C000010ADFF8D0B1DBF80000C00514D4DBF859
:1021D000000040F48070CBF80000FFF741FD064698
:1021E00006E0FFF73DFD801B022801D903200DE723
:1021F000DBF80000C005F4D5634EA0686C360128FA
:102200000FD0052812D0306820F00100306030680F
:1022100020F004003060A068F8B1FFF721FD83468C
:1022200017E0306840F001003060F4E7306840F0BB
:1022300004003060306840F001003060EBE7FFF7E9
:102240000FFDA0EB0B0141F28830814201D9032040
:10225000DCE630688007F2D510E0FFF701FD834629
:1022600009E0FFF7FDFCA0EB0B0141F28830814251
:1022700001D90320CAE630688007F2D4BAF1010F11
:1022800005D141483C30016821F080510160A069CE
:10229000C0B33D49091D09684FF0FF36C1F3810104
:1022A000022946D0022805D0C7F86090FFF7D8FC75
:1022B00004463AE0C7F86090FFF7D2FC814607E099
:1022C000FFF7CEFCA0EB0900022801D903209DE610
:1022D00028688001F4D4D4E907010843616AA26A3E
:1022E000890106EB520241EA0241084394F82C109E
:1022F00040EA0160C8F8000001203866FFF7B0FC32
:10230000044607E03DE0FFF7ABFC001B022801D9C3
:1023100003207BE628688001F5D532E0FFF7A0FCBA
:10232000001B022801D9032070E628688001F5D43B
:1023300027E0012823D0D8F80000E26900F48001EA
:1023400091421AD1226A00F03F01914215D147F61D
:10235000C071626A0140B1EB821F0ED1A26A00F423
:10236000403106EB5202B1EB024F06D194F82C102B
:1023700000F07060B0EB016F03D0012046E6012051
:1023800044E6002042E600000438024000004742D4
:10239000800E47420070004010B5401EB0F1807FB3
:1023A00001D3012010BD4FF0E02460610F216017C0
:1023B00001F084FE0020A06107202061002010BDF4
:1023C0007047704710B590F83C20012A22D00122B6
:1023D00080F83C20CA6800238C6822F440722243B3
:1023E0004C6822F4806222430C6822F4006222438B
:1023F0000C6922F4805222434C6922F40052224399
:10240000C96922F480420A4301684A6480F83C307A
:10241000002010BD022010BD10B50446002909D0CF
:1024200004290AD008290BD094F8450001280AD0C5
:10243000012010BD94F84200F8E794F84300F5E756
:1024400094F84400F2E7022089B3042933D0082924
:1024500034D084F845000422206801F0B6FA2068E0
:10246000416C41F40041416419492068884214D00C
:10247000B0F1804F11D0174988420ED016498842DA
:102480000BD01649884208D01549884205D0154915
:10249000884202D01449884213D1816801F00701B3
:1024A000062912D0016841F0010101600DE0FFE74B
:1024B00084F84200CFE784F84300CCE784F8440076
:1024C000C9E7016841F001010160002010BD000072
:1024D000000001400004004000080040000C0040E3
:1024E00000040140004001400018004010B50446BF
:1024F000002C03D094F83D0010B107E0012010BD7E
:10250000002084F83C00204600F016F8022084F8F1
:102510003D00211D206801F0E5F901203D34607285
:102520006070A070E07020716071A071E071207225
:102530002070002010BD000008B500680B498842DB
:1025400012D10B48016841F010010160006800F0F1
:1025500010000090012211463620FFF709FCBDE86B
:1025600008403620FFF7F7BB08BD00000010004010
:102570004038024090F83D10012901D001207047F9
:10258000022180F83D100168CA6842F00102CA6069
:1025900000681449884214D0B0F1804F11D012491C
:1025A00088420ED0114988420BD01149884208D088
:1025B0001049884205D01049884202D00F4988420C
:1025C00009D1816801F00701062908D0016841F0AE
:1025D0000101016003E0016841F001010160002098
:1025E0007047000000000140000400400008004067
:1025F000000C004000040140004001400018004071
:10260000704770B50446206801694FF00005C94362
:10261000890716D4C168C943890712D4E91E01612C
:102620000120207720688069800703D02046FFF7CB
:10263000E7FF05E0204600F09BF8204600F028F96F
:10264000257720680169C943490718D4C168C9437F
:10265000490714D46FF0040101610220207720683B
:10266000806910F4407F03D02046FFF7C9FF05E0E2
:10267000204600F07DF8204600F00AF92577206812
:102680000169C943090717D4C168C943090713D4AD
:102690006FF008010161042020772068C06980077D
:1026A00003D02046FFF7ACFF05E0204600F060F8BD
:1026B000204600F0EDF8257720680169C943C90676
:1026C00018D4C168C943C90614D46FF01001016160
:1026D000082020772068C06910F4407F03D020468E
:1026E000FFF78EFF05E0204600F042F8204600F09C
:1026F000CFF8257720680169C943C90708D1C168A7
:10270000C943C90704D1891E0161204600F030F990
:1027100020680169C943090609D4C168C94309068B
:1027200005D46FF0800101612046FFF749FE206863
:102730000169C943490609D4C168C943490605D49A
:102740006FF040010161204600F03AFB206801690A
:10275000C94389060BD4C168C943890607D46FF001
:10276000200101612046BDE87040FFF72ABE70BD20
:10277000704770B504460D4694F83C0001280AD015
:10278000012084F83C0042B1042A1AD0082A2DD036
:102790000C2A53D13EE0022070BD2946206801F08A
:1027A00021F92068816941F008018161206881690F
:1027B00021F004018161206881692A6911438161E6
:1027C0003CE02946206801F041F92068816941F424
:1027D000006181612068816921F4806181612068E4
:1027E00081692A6941EA0221816127E0294620683E
:1027F00001F066F92068C16941F00801C1612068F3
:10280000C16921F00401C1612068C1692A691143CD
:10281000C16113E02946206801F08AF92068C16986
:1028200041F40061C1612068C16921F48061C16126
:102830002068C1692A6941EA0221C161002084F847
:102840003C0070BD10B50446002C03D094F83D0048
:1028500010B107E0012010BD002084F83C002046A4
:1028600000F015F8022084F83D00211D206801F0D9
:1028700039F801203D3460726070A070E070207102
:102880006071A071E07120722070002010BD70474F
:102890007047000010B50446002909D004290AD069
:1028A00008290BD094F8410001280AD0012010BD5E
:1028B00094F83E00F8E794F83F00F5E794F84000FC
:1028C000F2E70220A9B3042937D0082938D084F8C8
:1028D00041000122206801F06BF81E4920681E4A61
:1028E000884201D0904203D1436C43F400434364D7
:1028F0002068884213D0B0F1804F10D01749884229
:102900000DD0174988420AD01649884207D0904214
:1029100005D01549884202D01449884213D18168F4
:1029200001F00701062912D0016841F001010160A0
:102930000DE0FFE784F83E00CBE784F83F00C8E7EE
:1029400084F84000C5E7016841F001010160002002
:1029500010BD0000000001400004014000040040E0
:1029600000080040000C00400040014000180040FA
:1029700070B52DED108B0068F2499FEDF3EBF44C30
:10298000F44D9FEDF58B9FEDF6CA88427ED100F0A5
:10299000DFFDE8882988401AFDF7F1FD53EC1E2B76
:1029A000FDF70CFD53EC182BFDF708FDFDF780FE3D
:1029B000A060FDF73AFE41EC100BEA4803F002F983
:1029C00051EC100BFDF774FEA060FDF72EFE41ECFC
:1029D000100B01F083FB9FEDE41B51EC100B53EC4B
:1029E000112BFDF735FE01D284ED02CAD4ED02CAE7
:1029F0009FEDDF9B9FEDE0AB9FEDE1BB9FEDE2FB29
:102A0000F5EEC0CAE24EF1EE10FA2ED2A888FDF71C
:102A1000C7FD53EC182BFDF7D1FC53EC192BFDF738
:102A2000CDFC53EC1A2BFDF7C3FC41EC1D0BB0EEB3
:102A30006C0A03F089FAFDF7A2FD53EC1D2BFDF79C
:102A4000BDFC53EC1B2BFDF72BFDFDF731FE606049
:102A5000FDF7EBFD41EC100BCE4803F0B3F851EC61
:102A6000100BFDF725FE606037E0F5EEC0CAF1EE11
:102A700010FA30DD6888FDF793FD53EC182BFDF755
:102A80009DFC53EC192BFDF799FC00E057E153EC4A
:102A90001A2BFDF78DFC41EC1D0BB0EE6C0A03F018
:102AA00053FAFDF76CFD53EC1D2BFDF787FC53EC3F
:102AB0001B2BFDF7F5FCFDF7FBFD6060FDF7B5FD99
:102AC00041EC100BB34803F07DF851EC100BFDF70F
:102AD000EFFD606001E084ED01CA6068FDF7A5FDCF
:102AE00041EC100B01F0FAFA53EC1F2B51EC100BD8
:102AF000FDF7AEFD01D284ED01CA6068FDF795FDDA
:102B00009FEDA51B53EC112BFDF758FC41EC1D0B61
:102B1000A068FDF78AFD53EC1D2BFDF749FC9FEDE6
:102B2000A0DB53EC1D2BFDF7BBFCFDF7C1FD2061C5
:102B3000FDF77BFD41EC100B01F0D0FA9FED9A1BE5
:102B400051EC100B53EC112BFDF782FD01D284EDFB
:102B500004CA688AA98A401AFDF711FD53EC1E2B9E
:102B6000FDF72CFC53EC182BFDF728FCFDF7A0FD1E
:102B7000B060FDF75AFD41EC100B8D4803F022F8D0
:102B800051EC100BFDF794FDB060FDF74EFD41ECEC
:102B9000100B01F0A3FA9FED741B51EC100B53ECDA
:102BA000112BFDF755FD01D286ED02CAD6ED02CA02
:102BB000F5EEC0CAF1EE10FA2ED2288AFDF7F0FC2D
:102BC00053EC182BFDF7FAFB53EC192BFDF7F6FB32
:102BD00053EC1A2BFDF7ECFB41EC180BB0EE6C0A32
:102BE00003F0B2F9FDF7CBFC53EC182BFDF7E6FB35
:102BF00053EC1B2BFDF754FCFDF75AFD7060FDF7FD
:102C000014FD41EC100B6B4802F0DCFF51EC100B93
:102C1000FDF74EFD706035E0F5EEC0CAF1EE10FA3A
:102C20002EDDE889FDF7BCFC53EC182BFDF7C6FB45
:102C300053EC192BFDF7C2FB53EC1A2BFDF7B8FB35
:102C400041EC180BB0EE6C0A03F07EF9FDF797FC2F
:102C500053EC182BFDF7B2FB53EC1B2BFDF720FCBC
:102C6000FDF726FD7060FDF7E0FC41EC100B5148CC
:102C700002F0A8FF51EC100BFDF71AFD706001E0A7
:102C800086ED01CA7068FDF7D0FC41EC100B01F035
:102C900025FA53EC1F2B51EC100BFDF7D9FC01D298
:102CA00086ED01CA7068FDF7C0FC9FED3B1B53EC3D
:102CB000112BFDF783FB41EC180BB068FDF7B5FC59
:102CC00053EC182BFDF774FB53EC1D2BFDF7E8FBC1
:102CD000FDF7EEFC3061FDF7A8FC41EC100B01F0B4
:102CE000FDF99FED311B51EC100B53EC112BFDF74F
:102CF000AFFC01D286ED04CA94ED010A2E4801F022
:102D000025F92D4896ED010A203001F01FF92B4DD1
:102D10002949D4ED010A95ED060A01F11000FDF7ED
:102D200019FF84ED060A2449D6ED010A203195EDFC
:102D3000070A01F11000FDF70DFF86ED060ABDEC54
:102D4000108B70BD001000406666666666A6424045
:102D5000C80E0020A4020020000000000000303F48
:102D600000000000A80D00209A9999999999A93F0F
:102D70006666666666660A409D8026C286A7EF3F45
:102D80002758C05D2625753F9A9999999999C93F09
:102D9000F80E0020C80D00206ABC74931804B63FDA
:102DA0005EDFE23CF779BB3F000000000000E03F3F
:102DB000B80D0020D80D0020D4030020540E0020B0
:102DC0007047704770470000F8B5044622681068E5
:102DD000D168536900F00F05002D08D1860606D58D
:102DE0008E0604D52046BDE8F84000F07CBF0026E2
:102DF000002D60D003F0010501F490772F435AD0E5
:102E0000C20705D0CA0503D5226C42F00102226434
:102E1000420705D5DA0703D0226C42F00202226491
:102E2000820705D5DA0703D0226C42F0040222643F
:102E3000020707D501F020022A4303D0226C42F09A
:102E400008022264226C002A2BD0800604D5880652
:102E500002D5204600F047FF20684069C0F380108B
:102E6000216C090700D408B3204600F017FF206842
:102E70004169490616D5416921F040014161A06BC5
:102E800060B144490165A06BFEF74FFC002808D0F3
:102E9000A06B016D01B0BDE8F04008472046FFF788
:102EA00091FFF8BD2046FFF78DFFF8BD2046FFF7E4
:102EB00089FF2664F8BD236B012B58D1C30656D574
:102EC000CB0654D510685068009050694FF020032D
:102ED00040062ED5A16B0868406880B20028E9D072
:102EE000A58D8542E6D9E085C869B0F5807F18D008
:102EF000D06820F48070D0602068416921F0010121
:102F000041612068416921F04001416184F83E300F
:102F100026632068C16821F01001C160A06BFEF734
:102F2000BDFBA08DE18D401A81B22046FFF749FF1D
:102F3000F8BDA08DE18D401A81B2E08D0028F7D058
:102F40000029F5D0D06820F49070D06020684269E4
:102F500022F00102426184F83E3026632068C26894
:102F600022F01002C2602046FFF72BFFF8BD0206D8
:102F700006D50A0604D52046BDE8F84000F0B1BFEA
:102F80004006F3D54806F1D52046BDE8F84000F0EC
:102F90009DBE00008D3C000870B50446002C04D096
:102FA00094F83D00002510B106E0012070BD84F8C2
:102FB0003C50204600F022F8242084F83D00206890
:102FC000C16821F40051C160204600F0E5FE206890
:102FD000016921F4904101612068416921F02A01D1
:102FE00041612068C16841F40051C160256420201E
:102FF00084F83D0084F83E00002070BD30B587B0F5
:1030000000681F49884238D11E48016841F010010C
:103010000160006800F0100001901A48143801683F
:1030200041F001010160016801F0010101910168B5
:1030300041F001010160006800F0010001904FF4CF
:103040000070029002200390012104910590072452
:1030500006940D4D02A92846FEF704FD291502919C
:10306000069402A92846FEF7FDFC2520FEF773FE14
:10307000032211462520FEF77BFE07B030BD00007D
:1030800000100140443802400000024090F83E30F9
:10309000202B01D00220704759B152B190F83C303A
:1030A000012B08D0012380F83C300023036300F09B
:1030B000FDBE0120704702207047000030B4006858
:1030C0001649884228D1164A5088010419D411465D
:1030D000440409784FF0000307D50A2901D0538032
:1030E0000FE040F4004050800BE00D2910D00D4D52
:1030F000C0F30D042955401C80B25080C72800D968
:1031000053800848012230BC0549C830FFF7BEBFD4
:1031100040F480405080F4E730BC7047001001401C
:1031200008000020800000207047FEE708B5FEF789
:10313000D9FD00F0C7F9042302220621A82002F0DD
:1031400015FFA82002F0D6FB4FF4E13002F06AFF31
:1031500002F0FEFC42F2CF01092002F095FA02F0E3
:1031600073FA002006231A044FF4A001009002F025
:1031700039FB40F2DC51042002F056FC02F0CCFB9B
:1031800002F050FD02F0C8F802F072FEBDE80840FF
:1031900002F00ABC10B52DED048BB0EE408AF0EEC3
:1031A000608A9FED1D9B51EC180B53EC192BFDF71A
:1031B00067FA11D251EC180B9FED190B53EC102B41
:1031C000FDF7FCF8FDF718FABDEC048B80B2002186
:1031D000BDE8104002F08AB953EC192B51EC180BE2
:1031E000FDF736FA11D251EC180B9FED0F0B53EC93
:1031F000102BFDF7E3F8FDF7FFF9BDEC048B81B26E
:103200000020BDE8104002F071B9BDEC048BBDE8B0
:10321000104000F00DB800000000000000000000A9
:10322000000000000000594000000000000059C0EC
:103230000021084602F05AB9FEE700002DE9F041EE
:103240008EB006460D46142109A8FDF705F81C218D
:1032500002A8FDF701F80024444A106840F001007C
:103260001060106800F001000190404A143A1068A4
:1032700040F001001060106800F00100019010683B
:1032800040F001001060106800F00100019010682B
:1032900040F010001060106800F0100001901068FD
:1032A00040F010001060106800F0100001909015C0
:1032B000099002220A920B920C9201200D90DFF8E5
:1032C000B08009A94046FEF7CDFB8027099709A9E0
:1032D0004046FEF7C7FB38010990DFF8988009A93E
:1032E0004046FEF7BFFBF800099009A94046FEF7EB
:1032F000B9FB224A2048106055609460D6604015A2
:10330000106197611046FFF79DFA602002900494C7
:10331000059407940894002202A91848FFF729FA97
:10332000042202A91548FFF724FA14484038046023
:103330004460846004614461F901C1610146403028
:10334000FFF740F800210D48FFF7A4FA00210B48D1
:10335000FFF762F804210948FFF79CFA04210748A7
:10336000FFF75AF80EB0BDE8F08100004438024083
:10337000000002400010024000000140FC0200205A
:103380002DE9F0418EB006460D46142109A8FCF740
:1033900063FF1C2102A8FCF75FFF0024434A10686A
:1033A00040F002001060106800F0020001903F4AF7
:1033B000143A106840F004001060106800F0040037
:1033C0000190106840F001001060106800F00100EA
:1033D0000190106840F004001060106800F00400D4
:1033E0000190106840F002001060106800F00200C8
:1033F00001904020099002220A920B920C92032025
:103400000D90DFF8AC8009A94046FEF72BFB202089
:10341000099009A92748FEF725FB8027099709A9E4
:103420004046FEF71FFB0120099009A92248FEF73C
:1034300019FB234A2148106055609460D6604015FE
:10344000106197611046FFF7FDF960200290049427
:10345000059407940894002202A91948FFF789F9F6
:10346000042202A91648FFF784F915486838046059
:10347000446084600461B90141614900C161014651
:103480006830FEF79FFF00210D48FFF703FA002187
:103490000B48FEF7C1FF04210948FFF7FBF904219F
:1034A0000748FEF7B9FF0EB0BDE8F081443802408E
:1034B00000080240000002400004024000040140F5
:1034C0004403002010B553216320FFF7B7FE5321BA
:1034D000BDE810406320FFF753BF00001748B2EE6D
:1034E0000E0A00ED060A0521017101214171B1EEBC
:1034F000080A00ED050AF7EE080A40ED040AB0EEEE
:10350000000A00ED030AB7EE000A00ED020A9FED83
:103510000C1A00ED011A80ED000A9FED0A0A80EDF9
:10352000030A03210177B0EE0E0A80ED040AC0ED14
:10353000050A9FED050A80ED060A7047A80E0020D7
:103540009A99993F9A99193ECDCC8C3F70470000CB
:10355000F0B500200E4C00260127211F0D7814E045
:1035600000EB400104EB8102137963B934F8213098
:103570005B1C9BB224F82130B2F802C0634502D331
:1035800024F821601771401CC0B2A842E8D3F0BDF6
:1035900014000020FFF7CAFD00240B4E0027A6F1FF
:1035A000040802F03BFA04EB440006EB800528799E
:1035B00010B1A86880472F71641C98F80000E4B22D
:1035C0008442EED30024ECE7140000207047000092
:1035D0000FB470B52DED0A8BBDF93A609FED828B6B
:1035E0009FED839B9FED84AB3046FCF7C8FF0D46F3
:1035F0000446002E33DD45EC1B4B1E98FDF715F8F5
:1036000053EC182BFCF74CFF53EC1B2BFCF7D6FEAE
:10361000FDF74EF8064645EC104B53EC182B51ECD9
:10362000100BFCF73DFF53EC192BFCF7C7FE53ECD6
:103630001A2BFCF7C3FE41EC100B00F059FDB0EE65
:1036400040BAF0EE60BA3046FCF7EFFF53EC1B2BAC
:10365000FCF7B4FEFDF72CF80BEE100A38E030460C
:1036600001DAC0F10000FCF78AFF41EC1B0B1F9848
:10367000FCF7DBFF53EC182BFCF712FF53EC1B2B72
:10368000FCF79CFEFDF714F8064645EC104B53EC96
:10369000182B51EC100BFCF703FF53EC192BFCF724
:1036A0008DFE53EC1A2BFCF789FE41EC100B00F059
:1036B0001FFDB0EE40BAF0EE60BA3046FCF7B5FF41
:1036C00053EC1B2BFCF77AFEFCF7F2FF0BEE100A13
:1036D000BDF93800041E00DA4042FCF750FF41EC0F
:1036E0001C0B2098FCF7A1FF53EC182BFCF7D8FE1D
:1036F00053EC1C2BFCF762FEFCF7DAFF0546204674
:10370000FCF73DFF53EC182BFCF7CAFE53EC192BCA
:10371000FCF754FE53EC1A2BFCF750FE41EC100B57
:1037200000F0E6FCB0EE408AF0EE608A2846FCF736
:103730007CFF53EC182BFCF741FEFCF7B9FF00EEC1
:10374000100A2F4C7BEE000AC4ED040A7BEE401AEF
:10375000C4ED051A9DED141A20EE810A84ED060AC7
:1037600061EE810AC4ED070A10EE100AFCF75DFF56
:1037700041EC100B234802F025FA51EC100BFCF73A
:1037800097FF214D00EE100A85ED000AE069FCF775
:103790004CFF41EC100B1D4802F014FA51EC100BD9
:1037A000FCF786FF1A4C00EE100A84ED000A9FED2C
:1037B000198ADFED198AD5ED000AB0EE481AB0EE8D
:1037C000680A00F038FC85ED000AD4ED000AB0EE7E
:1037D000481AB0EE680A00F02EFC84ED000ABDEC39
:1037E0000A8B70BC5DF814FB0000000000005E4016
:1037F0004AD8124DFB210940000000000000E03FC4
:10380000540E0020080E0020940F0020180E0020F7
:10381000C80F00200000C8420000C8C210B52DED3E
:10382000048BB0EE408AF0EE608A9FED1D9B51EC58
:10383000180B53EC192BFCF723FF11D251EC180B8A
:103840009FED190B53EC102BFCF7B8FDFCF7D4FEE1
:10385000BDEC048B80B20021BDE8104001F060BED9
:1038600053EC192B51EC180BFCF7F2FE11D251EC72
:10387000180B9FED0F0B53EC102BFCF79FFDFCF783
:10388000BBFEBDEC048B81B20020BDE8104001F00E
:1038900047BEBDEC048BBDE8104000F00DB8000041
:1038A000000000000000000000000000000059407F
:1038B00000000000000059C00021084601F030BEA1
:1038C0007047FEF707BA00000248016841F4700132
:1038D0000160704788ED00E00148FEF792BE0000ED
:1038E0008C0300202DE9F0410268264D264E274F1B
:1038F000DFF89CC0274B4FF08048A84209D04045D4
:1039000007D0B04205D0B84203D0604501D09842FC
:1039100003D122F070044A682243A8421BD04045DC
:1039200019D0B04217D0B84215D0604513D0984294
:1039300011D0194CA0420ED0184CA0420BD0184CFC
:10394000A04208D0174CA04205D0174CA04202D08C
:10395000164CA04203D122F44074CA6822434C6939
:1039600022F08002224302608A68C2620A68826290
:10397000A84201D0984201D1096901630121416146
:10398000BDE8F08100000140000400400008004054
:10399000000C004000040140004001400044014090
:1039A0000048014000180040001C0040002000407A
:1039B00010B501F01F0101238B40046A9C4304628F
:1039C000036A8A401343036210BD10B501F01F0162
:1039D00004238B40046A9C430462036A8A401343B5
:1039E000036210BDF0B5026A22F001020262026AAF
:1039F0004368846924F0700424F003050C682C43A8
:103A000022F002058A682A430E4E0F4FB04201D0C1
:103A1000B84205D122F00805CA682A4322F0040200
:103A2000B04201D0B84207D123F4807323F400736D
:103A30004D691D438B692B43436084614968416331
:103A40000262F0BD0000014000040140F0B5026ACE
:103A500022F010020262036A4268846924F4E0449E
:103A600024F440740D6844EA052423F020038D6893
:103A700043EA0513104D114EA84201D0B04206D1C1
:103A800023F08003CF6843EA071323F04003A842E2
:103A900001D0B04209D122F4806222F400624D6963
:103AA00042EA85028D6942EA850242608461496882
:103AB00081630362F0BD000000000140000401408A
:103AC000F0B5026A22F480720262026A4368C46935
:103AD00024F0700424F003050C682C4322F40072D7
:103AE0008D6842EA0522104D104EA84201D0B04226
:103AF00006D122F40062CF6842EA072222F48062F3
:103B0000A84201D0B04209D123F4805323F40053DA
:103B10004D6943EA05138D6943EA05134360C461A7
:103B20004968C1630262F0BD000001400004014029
:103B300030B5026A22F480520262046A4268C369A4
:103B400023F4E04323F440730D6843EA052324F48F
:103B500000548D6844EA0534084DA84202D0084D4F
:103B6000A84204D122F480424D6942EA85124260A3
:103B7000C36149680164046230BD00000000014077
:103B800000040140FDF79BB801F088BE2DE9F04F1D
:103B90009BB02D4EF069FCF748FD04460D46B06918
:103BA000FCF743FD064629480F46C068FCF73DFD7B
:103BB000DFF89CA080468946DAF80400FCF735FD62
:103BC000CDE91801DAF80800FCF72FFDCDE9160160
:103BD000DAF81000FCF729FDCDE914011D48406812
:103BE000FCF723FDCDE912011A488068FCF71DFDA2
:103BF000824618488B460069FCF717FD41EC100B14
:103C00001248CDE90C89CDE90E67CDE91045007861
:103C10000A90DDE91801CDE90801DDE91601CDE9D9
:103C20000601DDE91401CDE90401DDE91201CDE968
:103C3000020153EC102BCDE900AB07A000F010FA05
:103C40001BB0BDE8F08F0000540E0020F4030020EC
:103C5000F80E0020C80E002025662C25662C25664F
:103C60002C25662C25662C25662C25642C25662C97
:103C700025662C25660D0A0002F0DEB84FF480613F
:103C80000148FDF7D7BF00000004024010B5806B6B
:103C90000021C185C184FFF795F810BD0168CA688D
:103CA00022F49072CA6001684A6922F001024A61F6
:103CB000016B012904D10168CA6822F01002CA60B0
:103CC000202180F83E1000210163704710B5016883
:103CD000CA6822F04002CA60202180F83D10FFF738
:103CE00023FA002010BD10B5044694F83E002228A7
:103CF00001D0022010BDA1684FF48052914201D141
:103D0000206920B1A06A91421DD051B10BE0A06A98
:103D100021684968C1F308010180A06A801CA06283
:103D200009E0216979B12168496801F07F010170DA
:103D3000A06A401CA062E08D401E0004000CE085DB
:103D400005D0002010BD216849680170F0E72068A7
:103D5000C16821F02001C1602068C16821F4807130
:103D6000C1602068416921F001014161202084F88F
:103D70003E00206B012805D02046FFF79FF9002068
:103D8000206310BD2068C16821F01001C160A18DC1
:103D90002046FFF716F8F2E72DE9F04104462068C7
:103DA0000169E26821F4405111430161A168206971
:103DB000E26901436069104301432068C26849F227
:103DC0000C639A430A43C26020684169A26921F4E6
:103DD00040711143416133492068884202D0324921
:103DE000884202D1FEF7B2F801E0FEF79FF8E169E0
:103DF0000023192764253226B1F5004F28D06168C9
:103E00008B0F8A00A0FB0701FCF7DCF90146B0FB31
:103E1000F5F07A42504301EB800006EB0010B0FB56
:103E2000F5F000F0F002B1FBF5F002EB0012B1FB8F
:103E3000F5F07B42584301EB800006EB0010B0FB2D
:103E4000F5F0216800F00F0010448860BDE8F081B3
:103E500061684A18A0FB07015B41FCF7B3F9014612
:103E6000B0FBF5F00201B1FBF5F06FF01803584319
:103E700001EB800006EBC000B0FBF5F000F0F800AD
:103E800002EB4002B1FBF5F0584301EB800006EB7A
:103E9000C000B0FBF5F0216800F007001044886016
:103EA000D4E70000001001400014014081628285C7
:103EB000C28500210164222280F83E2080F83C1057
:103EC0000168CA6842F48072CA6001684A6942F0B7
:103ED00001024A610068C16841F02001C160002010
:103EE000704790F83D10212901D002207047816869
:103EF000B1F5805F01D1016961B1016A4A1C0262BA
:103F0000026809785160C18C491E0904090CC184FA
:103F10000AD013E0016A02680988C1F30801516000
:103F2000016A891C0162EEE70168CA6822F080021A
:103F3000CA600068C16841F04001C160002070475C
:103F40000148FEF741BF00004801002070B504465B
:103F50002DED028BB0EE408A20780025022825D076
:103F600018EE100AFCF761FB41EC100B00F0B6F8FC
:103F70009FED291B51EC100B53EC112BFCF780FB30
:103F800013D8A068401CA06042F2107188420DD383
:103F9000022020709FED220A84ED030A4CF250307B
:103FA000A0606560BDEC028B70BDA560207850B14B
:103FB0009FED1C0A01281FD00228F3D1A06828B366
:103FC000401EA060EEE718EE100AFCF72EFB41EC55
:103FD000100B00F083F89FED141B51EC100B53EC09
:103FE000112BFCF74DFBDDD20120207065609FEDA9
:103FF000100A84ED030AD5E76068401C6060B0F5E4
:10400000FA6FCFD3257084ED030ACBE7257084EDDA
:10401000030A6560C6E70000000000000000494098
:104020000000FC4100007C42000000000000544001
:104030000000A042FEE7F0EE401AB0EE600AB4EED7
:10404000E10AF1EE10FA02D8B0EE610A7047B4EE60
:10405000C10AF1EE10FAF9DBB0EE410A7047000038
:104060000FB4054B10B503A9044A029800F0D0FD27
:1040700010BC5DF814FB00004D5900080C00002036
:1040800003B401984100009850EAC12018BF0420F1
:104090004A0D18BF40F0010040F2FF72B2EB515FD1
:1040A00008BF40F00200012808BF052002B0704799
:1040B00020F00040C0F1FF40C00F70470907090E13
:1040C000002804DB00F1E02080F80014704700F0C5
:1040D0000F0000F1E02080F8141D70472DED020B59
:1040E000019820F0004001909DED000B02B0704758
:1040F00010B52F499FED2C1B2DED020B84B00598B8
:1041000020F000408842DCBF00209DED040B32DD32
:104110002849884209D1049840B94FF0010000F0C5
:10412000AFFC00F07DFC06B010BD05DB9DED040B7F
:1041300000F06AFC06B010BD68469DED040B00F06F
:104140007BF810F0030011D0012818D09DED021B60
:104150009DED000B02281AD000F08AFA51EC100BEA
:1041600081F0004106B041EC100B10BD9DED021B2B
:104170009DED000B012000F0AFFB06B010BD9DEDE2
:10418000021B9DED000B00F073FA06B010BD01207C
:1041900000F0A2FB51EC100B81F0004106B041ECA5
:1041A000100B10BD00000000000000000000000027
:1041B000FB21E93F0000F07F00B52DED048BB0EE50
:1041C000409AF0EE609A83B051EC190BFCF767FB54
:1041D00041EC180B18EE100A18EE901A8DED008BBA
:1041E000002818BF0120084320F00040C0F17F6084
:1041F00000F1E040C00F14D019EE101A19EE900A29
:104200008DED009B002918BF0121084320F00040DC
:10421000C0F17F6000F1E040C00F04BF012000F05A
:104220002FFCB0EE480A03B0F0EE680ABDEC048B38
:1042300000BD0000000000002DE9F14F04462DED07
:10424000020B2DED088B8AB09FEDE70B80ED020B82
:10425000139EE74826F0004585420ADC9DED120BCF
:10426000002084ED000B0AB0BDEC088B03B0BDE864
:10427000F08FE0489FEDE0AB9FEDE1BBA84247DD4A
:10428000E14F9FEDE39B9FEDE48B9DED120B53EC13
:104290001A2B51EC100B002E1CDDFCF789F841ECB9
:1042A000100BBD4208D053EC1B2B51EC100BFCF74C
:1042B0007FF8C4E900010BE053EC192B51EC100B13
:1042C000FCF776F853EC182BFCF772F8C4E9000100
:1042D0000120C8E7FBF7CBFF41EC100BBD4208D033
:1042E00053EC1B2B51EC100BFBF7C1FFC4E9000191
:1042F0000BE053EC192B51EC100BFBF7B8FF53EC10
:10430000182BFBF7B4FFC4E900014FF0FF30AAE718
:10431000C348A84279DB9DED120B51EC100B01F064
:10432000EFFA41EC180B9FEDC00B53EC102BFCF790
:1043300045F89FEDBF1B53EC112BFBF798FFFCF7E3
:104340003CF90746FCF71BF941EC190B53EC1A2B0F
:10435000FCF734F853EC182BFCF72DF841EC180B54
:1043600053EC1B2B51EC190BFCF728F8DFF8C8A213
:1043700041EC100B4FEA15580125FA4453EC102B71
:1043800051EC180BFCF714F8032DC4E900013DD0E3
:10439000C1F30A5005EB4511A8EB00001139814229
:1043A00034DA0AEB051BB0EE48AA9BED000BF0EEE9
:1043B00068AA53EC102B51EC190BFBF7FFFF41ECF3
:1043C0001B0B51EC1A0B53EC1B2BFBF7F1FF41ECD1
:1043D000180B51EC1A0B53EC182BFBF7E9FF53ECBD
:1043E0001B2BFBF7E5FF9BED020B41EC1A0B53EC8B
:1043F000102B51EC190BFBF7E1FF53EC1A2BFBF7D9
:10440000D7FF41EC100B6D1CB8E70EE0002EA8BFE3
:104410003846BFF628AF94ED000B51EC100B81F03D
:104420000041C4E9000178421DE7C6F3130040F4DF
:10443000801EC6F30A50A0F2F530471100F01F05A8
:10444000C5F12000DDF848B00890002006900790E4
:104450000520EC467949002D07EB0002794408BF9E
:1044600051F8221009D051F8223001EB8201AB4003
:104470004A68089922FA01F11943A1FB0E26A1FB13
:104480000B131A449A4234BF0123002303EB06089E
:104490000CEB8003D3E901A60E448E4234BF012108
:1044A000002192448A4411B1924502D903E0924519
:1044B00001D2012100E00021C3E901A641444CF8EA
:1044C0002010011EA0F10100C4DC029800F1005090
:1044D000850F0298DDE903678000DDF81480FCF7A2
:1044E0004EF841EC1A0B3046FCF75AF89FED541B7E
:1044F00053EC112BFBF762FF41EC1B0B3846FCF72A
:104500004FF89FED511B53EC112BFBF757FF41EC7C
:10451000180B4046FCF744F89FED4D1B53EC112B54
:10452000FBF74CFF41EC190B51EC180B53EC192B1A
:10453000FBF79DFE53EC1B2BFBF799FE53EC1A2B5C
:10454000FBF795FECDE90801002008909DED080BD2
:1045500053EC1A2B51EC100BFBF72AFF53EC1B2BDF
:10456000FBF726FF53EC182BFBF722FF53EC192B1C
:10457000FBF721FF9FED381B53EC112BFBF71EFFC0
:104580009FED370B41EC180B53EC102B9DED080BF6
:1045900051EC100BFBF712FF53EC182BFBF767FEE7
:1045A0009FED310B41EC180B53EC102B9DED080BDC
:1045B00051EC100BFBF702FF53EC182BFBF757FEE7
:1045C00041EC100B139810F0004F06D06D4251ECE7
:1045D000100B81F0004141EC100B284684ED000BDC
:1045E00041E60000000000000000000000000000A4
:1045F000FB21E93F7CD9024000004054FB21F93FF8
:104600003163621A61B4D03DFB21F93F0000000024
:104610000000601A61B4D03D7370032E8A19A33B69
:10462000FB2139410000000083C8C96D305FE43FC1
:10463000000000000000E03F321D0000801C000070
:10464000000000000000103E000000000000103CD0
:10465000000000000000103A182D4454FB21F93DE1
:104660003326A611460B113C00000054FB21F93DF6
:1046700010B52DED040B2DED088B82B0B0EE419AF4
:10468000F0EE619A0B9820F000449FED4BABB4F133
:10469000795F11DA9DED0A0B51EC100BFBF78DFFE2
:1046A000002801BFB0EE4A0AF0EE6A0A02B0BDEC83
:1046B000088B04BF04B010BD9DED0A0B53EC102B0A
:1046C00051EC100BFBF77AFE41EC180B3C4806212D
:1046D000B0EE480AF0EE680A784400F081F853EC36
:1046E000182B51EC100BFBF769FE9DED0A0B41EC0A
:1046F0001B0B53EC192B51EC100BFBF75FFE41EC3D
:10470000190B53EC1B2B51EC180BFBF757FE53EC1A
:10471000192BFBF74DFE9FED2C0B41EC190B53ECC5
:10472000102B51EC180BFBF749FE41EC100B2848FD
:10473000844210DA53EC192B51EC100BFBF738FEC6
:1047400053EC1A2BFBF737FE41EC100B02B0BDEC1B
:10475000088B04B010BD1F48A042BCBF9FED1E1BBC
:104760008DED001B06DBA4F50010019000200090E9
:104770009DED001B51EC100B53EC112BFBF718FEB9
:104780009DED000B41EC180B53EC102B51EC1A0B68
:10479000FBF70EFE41EC1A0B53EC192B51EC180BE6
:1047A000FBF706FE53EC1A2BFBF705FE41EC100B52
:1047B000CCE7000000000000000000000000F03F17
:1047C000A419000000000000000000000000E03F0D
:1047D0003333D33F0000E93F000000000000D23F28
:1047E00070B504462DED028B4D1E00EBC500B0EEFA
:1047F000408AF0EE608A90ED000B35F0060017D08D
:1048000053EC182B51EC100BFBF7D8FD41EC100BBF
:104810006D1E04EBC50090ED001B51EC100B53EC2A
:10482000112BFBF724FD41EC100B35F00600E7D10E
:10483000022D36D0042D1CD0062D1CBFBDEC028BE2
:1048400070BD53EC182B51EC100BFBF7B7FD94ED3A
:104850000A1B53EC112BFBF70AFD53EC182BFBF74B
:10486000ADFD94ED081B53EC112BFBF700FD41EC63
:10487000100B53EC182B51EC100BFBF79FFD94ED34
:10488000061B53EC112BFBF7F2FC53EC182BFBF738
:1048900095FD94ED040B53EC102BFBF7E8FC41EC79
:1048A000100B53EC182B51EC100BFBF787FD94ED1C
:1048B000021B53EC112BFBF7DAFC53EC182BFBF724
:1048C0007DFD94ED001B53EC112BFBF7D0FCBDECF0
:1048D000028B41EC100B70BD31B504462DED040B7D
:1048E0002DED0A8BB0EE41BAF0EE61BA0B989DED5A
:1048F0000A0B20F00040B0F1795F0DDA51EC100B9B
:10490000FFF7BEFB042808BF00F09AF89DED0A0BE4
:10491000BDEC0A8B05B030BD53EC102B51EC100BE5
:10492000FBF74CFD41EC180B9DED0A0B53EC182BDB
:1049300051EC100BFBF742FD41EC190B2C48B0EE8B
:10494000480AF0EE680A05217844FFF749FF9FED19
:104950002ACBB0EE40AAF0EE60AA9CB353EC1C2B1D
:1049600051EC190BFBF72AFD41EC1C0B53EC1A2BF5
:1049700051EC190BFBF722FD9FED210B41EC190BBC
:1049800053EC102B51EC1B0BFBF718FD53EC192BC0
:10499000FBF70EFD53EC182BFBF710FD53EC1B2B14
:1049A000FBF706FD53EC1C2BFBF702FD9DED0A1BEC
:1049B00053EC112BFBF7FFFCBDEC0A8B05B041EC6F
:1049C000100B30BDFFE753EC1A2B51EC180BFBF723
:1049D000F5FC53EC1C2BFBF74AFC53EC192BFBF7B3
:1049E000EDFC9DED0A1B53EC112BFBF740FCE3E7BC
:1049F0002C18000000000000495555555555C5BFFD
:104A0000000000000000E03F10B553EC102B51EC0B
:104A1000100BFBF72CFC41EC100B10BD000000004C
:104A20009FED050B10B553EC102B51EC100BFBF761
:104A300037FD41EC100B10BD00000000000000002D
:104A40009FED050B10B553EC102B51EC100BFBF741
:104A5000B5FC41EC100B10BD000000000000001080
:104A600002E008C8121F08C1002AFAD17047704737
:104A7000002001E001C1121F002AFBD17047000095
:104A800001490860704700007C0000202DE9FF5FAD
:104A900082B00021DDE90430020DDDF840B00343AF
:104AA00018D044F61050A2F2FF3242431514119868
:104AB00001281FD0A5EB0B00401C5FEA000A4FF055
:104AC00000064E4FDFF83891B046504615D5CAF172
:104AD000000413E0119801244AA3012801D16FEAD0
:104AE0000B010298119AC0E90031C0E9024206B0F8
:104AF000BDE8F09FCBF10000DFE704460021404A0B
:104B0000491842EB0450CDE9001012E0E00707D04D
:104B100032463B4640464946FBF750FC80468946B4
:104B200032463B4610461946FBF748FC06460F4600
:104B30006410002CEAD1DDE90401DDE90023BAF1BB
:104B4000000F06DAFBF73AFC42464B46FBF736FC11
:104B500005E0FBF7A5FC42464B46FBF7A1FC0446EB
:104B60000E460022284BFBF78BFD03D84FF0FF3099
:104B7000014607E00022254B20463146FBF777FB34
:104B8000FBF7DEFE102409E0002C0ADB0A220023DA
:104B9000FBF718FB039B30321A55641E50EA0102E2
:104BA000F2D1641C039AC4F111031444119A012A2E
:104BB00003D0012208430DD10AE0084304D00020AD
:104BC0004FF0110B119072E7A3EB0B056D1E0DE07A
:104BD0005B4504DD4FF0000205F1010504E003DA56
:104BE0004FF00002A5F10105002AECD002981199BE
:104BF000C0E90231C0E9004579E700000000144037
:104C00000000F03F300000000000F0430000E03FF3
:104C10002DE9FF4F95B09A46884606460025EEE1FD
:104C2000252877D100242746F94A0121039400E082
:104C3000044316F8013F203B01FA03F01042F7D17C
:104C400030782A2811D06FF02F033078A0F130028D
:104C5000092A16D8039A44F0020402EB820203EBFD
:104C600042021044761C0390EFE758F8042B03929D
:104C7000002A03DA504244F40054039044F0020442
:104C8000761C30782E2816D116F8010F44F0040453
:104C90002A280DD06FF02F023078A0F13003092BB5
:104CA00009D807EB870302EB4303C718761CF3E729
:104CB00058F8047B761C30786C280FD006DC4C2822
:104CC00017D068280DD06A2814D104E0742810D0B9
:104CD0007A280FD10DE044F400140AE044F4801463
:104CE00001E044F440147278824202D104F5801449
:104CF000761C761C307866280BD013DC582877D0C9
:104D000009DC002875D04528F6D04628F4D047287D
:104D10001AD193E118E0632835D0642879D065284A
:104D200012D18BE1702873D008DC6728F1D0692894
:104D30006FD06E280DD06F2806D1ACE073282CD030
:104D4000752874D0782853D05246179990476D1C17
:104D500054E1C4F30250022809D003280DD0D8F83A
:104D6000001004280DD00D6008F1040846E1D8F8C1
:104D70000010EA17C1E90052F6E7D8F800100D80DC
:104D8000F2E70D70F0E718F8041B8DF80010002012
:104D90008DF80100EB46012003E058F804BB4FF00A
:104DA000FF3061074FF0000102D40DE009F101016D
:104DB0008946B9420FDA8145F8DB1BF80910002952
:104DC000F4D108E009F1010189468142FADB1BF8C0
:104DD00009100029F6D103985346A0EB0907214694
:104DE0003846179A00F080FA284400EB090507E0DE
:104DF00044E008E10DE01BF8010B5246179990477B
:104E0000B9F10109F7D2534621463846179AF2E024
:104E100039E00A21C4F302524FF0000B0091022A3C
:104E200006D058F8040BC117032A09D00AE023E082
:104E300008F1070020F00702F2E80201904605E0C1
:104E400000B2C117042A01D140B2C117002906DA05
:104E50000A460021404261EB02012D2202E02205B8
:104E600004D52B228DF80420012203E0E20701D0B3
:104E70002022F7E7914657E00A2100E010214FF089
:104E8000000B00910BE010214FF0000B44F00404E4
:104E90000827009103E008204FF0000B0090C4F3B6
:104EA0000252022A05D058F8040B0021032A08D028
:104EB00008E008F1070020F00702F2E8020190463E
:104EC00003E080B2042A00D1C0B24FF000092207EB
:104ED0002AD53278702A07D0DDF800C08CF0100C8B
:104EE0005CEA0B0C05D00EE040228DF80420012274
:104EF00008E050EA010306D030238DF804308DF825
:104F0000052002229146009B83F0080353EA0B031D
:104F10000AD150EA010201D1620705D530228DF88D
:104F200004204FF001097F1E3278582A04D039A29C
:104F30000C920CAA02920BE03BA2F9E75B46009AA6
:104F4000FBF740F90C9B9B5C029A521E0292137075
:104F500050EA0102F2D1029804A9081A00F1200BCC
:104F6000600702D524F4803400E001275F4502DDAC
:104F7000A7EB0B0000E0002000EB0B010090039872
:104F80004944401A0390E00306D453462146179A39
:104F9000039800F0A9F90544002706E001A852464D
:104FA000C05D179990476D1C7F1C4F45F6DBE003F1
:104FB0000CD553462146179A039800F095F90544FD
:104FC00004E030205246179990476D1C0099481E06
:104FD00000900029F5DC08E002980299524600781A
:104FE000491C0291179990476D1CBBF10001ABF170
:104FF000010BF1DC5BE100F065F90544761C3078CB
:1050000000287FF40DAE19B02846BDE8F08F0000EF
:10501000092801003031323334353637383961628E
:105020006364656600000000303132333435363752
:10503000383941424344454600000000600700D42F
:10504000062708F1070020F00700F0E80223804659
:1050500003F0004C5FEA0C0001D097A009E02005A6
:1050600001D596A005E0E00701D095A001E0AFF2E0
:105070004C001390307823F0004365280CD006DCF8
:10508000452809D046281DD047287FD13BE0662817
:1050900018D067287AD136E00021112F01DB1120CA
:1050A00000E0781CCDE9000104A90CA8FFF7EEFC94
:1050B000DDE90D010C9A4FF0000B07F10109109288
:1050C00000914EE04FF000400097CDE9011004A997
:1050D0000CA8FFF7DBFCDDE90D020C9B0F994FF0EC
:1050E000000B91461093009211B9791C00EB010955
:1050F000B7EB090003D4C0F1FF3B07F10109A9EBAD
:105100000700019042E0012F00DA01270021112F52
:1051100001DD112000E03846CDE9000104A90CA80A
:10512000FFF7B4FCDDE90D010C9A00914FF0000B84
:10513000B946109221070FD4009A4A4503DA9146E6
:1051400001E0A9F10109B9F1010F05DD109AA9F1FA
:105150000101515C3029F4D0B84202DA10F1040F99
:1051600003DA0121CDE9011010E0002803DC8344BB
:10517000A9EB000102E0411C494500DD8946A0EB96
:105180000B00401C01904FF000400290200705D416
:105190000198484502DB4FF0FF30019000208DF868
:1051A0004B0002980DF14B07B0F1004F25D00220C3
:1051B0000C902B200D90029800280CDA40420290AF
:1051C0002D200D9007E00A210298FBF78DFA30316F
:1051D000029007F8011D0C99481E0C900029F2DC82
:1051E00002980028EFD1791E0D980870307800F0F1
:1051F000200040F0450007F8020D11A8C01BC01D9B
:1052000002901398007800B1012000EB0901019889
:1052100001EBE071029801440398401A401E03908C
:10522000E00306D453462146179A039800F05CF831
:1052300005441398007818B15246179990476D1C91
:10524000E00323D553462146179A039800F04CF803
:1052500005441BE0BBF1000F07DB0098584504DD57
:105260001098179910F80B0001E01799302052465A
:10527000904701980BF1010B401E05F101050190CB
:1052800004D12E205246179990476D1CB9F10001A8
:10529000A9F10109DEDC05E017F8010B5246179968
:1052A00090476D1C0299481E02900029F4DC534679
:1052B0002146179A03989EE62D0000002B0000005F
:1052C000200000002DE9F041044600251E46174647
:1052D000880404D405E039462020B0476D1C641EC4
:1052E000F9D52846BDE8F0812DE9F04104460025B6
:1052F0001E469046C80301D5302700E020278804C9
:1053000004D505E041463846B0476D1C641EF9D50A
:105310002846BDE8F081000070B586B0002537480A
:10532000016841F480610160006800F480600090D1
:1053300032481438016841F480010160016801F4C9
:1053400080010091016841F001010160016801F0F4
:1053500001010091016841F004010160016801F060
:1053600004010091016841F020010160006800F033
:10537000200000900F26019603240294039501A9B2
:105380001F48FCF76FFB4FF4607001900294039587
:1053900001A91C48FCF766FB01960294039501A93C
:1053A0001948FCF75FFB00F03DF8194C17482060E6
:1053B0004FF080606060A560E560001420614000EF
:1053C00060618000A061E561C00020622046FCF7BA
:1053D000A7FAA4F148008463A063022201213920C6
:1053E000FCF7C6FC3920FCF7B6FCA4F1B801372263
:1053F00001F17000FBF736FE06B070BD4438024084
:1054000000000240001402400008024028640240EC
:10541000440200201FB50091019202936946FBF7F8
:10542000DBFC1FBD10B52F482D4901604FF48031C2
:10543000416000218160C16001220261027680F832
:1054400020100B23C3614162274B8362C16280F845
:105450003020FBF7DBFD0723012200212148FFF765
:10546000D9FF0723022201211E48FFF7D3FF07239C
:10547000032202211B48FFF7CDFF0723042203214B
:105480001848FFF7C7FF0522072311461548FFF705
:10549000C1FF0622072311461248FFF7BBFF07236F
:1054A0001A4619460F48FFF7B5FF072308220A21BD
:1054B0000C48FFF7AFFF072309220B210948FFF72C
:1054C000A9FF07230A220C210648FFF7A3FF0723A1
:1054D0000B22BDE810400D210248FFF79BBF0000E2
:1054E00000220140FC0100200100000F70B50446BD
:1054F0000D4609483221C16001464030FCF762FF89
:10550000054A40321268506C40F40041516403482F
:105510004463856370BD0000BC02002000000140B0
:1055200070B504460D4609483222C2600146683013
:10553000FCF748FF054A68321268506C40F400439B
:10554000536403480460001D056070BDDC02002048
:105550003404014000219FED080A002200EB810382
:1055600083ED000A00EB4103A3F89021491C642954
:10557000F4DB80F85822704700000000064B4FF41F
:105580000061002803D000221846FCF75BBB012213
:105590001846FCF757BB0000001802402DE9F04107
:1055A0002DED028B00242348224D234F007B603DCC
:1055B0009FED228B05F13006002809D00020FFF76F
:1055C000DDFF3C802C753475BDEC028BBDE8F081AD
:1055D0002869FBF72AF841EC100BFEF77FFD53EC2E
:1055E000182B51EC100BFBF733F8EDD83069FBF7B3
:1055F0001CF841EC100BFEF771FD53EC182B51EC2D
:10560000100BFBF725F8DFD800F032FC0120FFF784
:10561000B5FF9FED0C0A85ED060A86ED060A0548E2
:10562000D43880ED060A80ED070A01202875307510
:105630003C80C9E7280F0020500000200000000037
:105640000000F03F0000000000B587B00C48016882
:1056500041F040010160006800F0400001904FF40B
:10566000006002900120039004900220059002A99E
:105670000448FCF7F7F90120FFF780FF07B000BDF1
:10568000303802400018024010B5084A064B13603B
:10569000516000219160D0601046FCF727FFBDE803
:1056A00010400248FCF766BF001000408C03002049
:1056B00030B58BB004462C216846FAF7CDFD0020AA
:1056C000474A00EB400101EBC001009B32F811504A
:1056D0002B4400934B1C019D32F813302B44019353
:1056E0008B1C029D32F813302B440293CB1C039D7C
:1056F00032F813302B4403930B1D049D32F8133002
:105700002B4404934B1D059D32F813302B44059315
:105710008B1D069D32F813302B440693CB1D079D3D
:1057200032F813302B44079301F10803089D32F837
:1057300013302B44089301F10903099D32F813300B
:105740002B4409930A310A9B32F8111019440A912B
:10575000401C0528B5DB00990520B1FBF0F1009154
:105760000199B1FBF0F101910299B1FBF0F10291C5
:105770000399B1FBF0F103910499B1FBF0F10491AD
:105780000599B1FBF0F105910699B1FBF0F1069195
:105790000799B1FBF0F107910899B1FBF0F108917D
:1057A0000999B1FBF0F109910A99B1FBF0F00A9067
:1057B00000982080019860800298A0800398E08083
:1057C00004982081059860810698A0810798E0815F
:1057D00008982082099860820A98A0820BB030BD98
:1057E0008C01002070B58AB00E9D194C174E2660B2
:1057F0006360A560E06022616161002525766576C1
:10580000A5760126E676257765772046FBF734FEF8
:1058100010B101200AB070BD059506950796009558
:10582000019502950395049508960E200990694606
:105830000748FBF703FD08B10220EBE70448FBF73C
:1058400001FF08B10320E5E70020E3E70064004022
:10585000380F002070B504460D4600210E48FBF7B6
:1058600075FD48B10C4A2B46403200210A48FBF72F
:1058700080FD18B1002070BD002070BD0649403188
:105880000868A04203D1886808B9C86808B1002038
:1058900070BD087C70BD0000380F002000B591B0CD
:1058A000FDF71CFE00F0CCF8FFF778FE4022064919
:1058B0006846FAF7B8FC0448343824300FC8FDF7BE
:1058C00087FE11B000BD0000880E002010B52DED40
:1058D000028BB0EE418AF0EE618AFDF75BFCB0EE20
:1058E000480AF0EE680ABDEC028BBDE81040FDF7F7
:1058F00095BF0000014908607047000004000020C7
:1059000082B0CDE9000121F0004001909DED000B37
:1059100002B051EC100B704710B50848FFF71AFEA3
:105920000748FFF717FE0748FFF714FE0648FFF782
:1059300011FEBDE8104000F075B900001804002009
:1059400074060020D00800202C0B002003490A68B0
:105950005206FCD5C2B24A607047000000100140F8
:1059600010B504462DED028BB0EE408AF0EE608A51
:1059700053EC112B51EC180BFAF779FC41EC100B9E
:1059800051EC180B53EC102BFAF78AFDC4E9000117
:105990009FED030B84ED020BBDEC028B10BD0000EC
:1059A000000000000000000016499FED150A81ED7F
:1059B000030A0020087048608860203181ED030AE6
:1059C000087048608860104890ED020AA1F110004C
:1059D00080ED030A9FED0D0A80ED000A0C48D0ED22
:1059E000020A01F11000C0ED030A80ED000A0A4826
:1059F0009FED080A80ED060A80ED070A7047000057
:105A000000007C42D4030020C80E0020C520B03D19
:105A1000F80E002000000000540E00200148FCF7A2
:105A200052B90000480E0020044A034B1360506036
:105A300091601046FCF71AB900300040480E002073
:105A40002DE9F0412DED048B00250127384E9FED07
:105A5000399B3A4C94F9000010FB00F194F90100D5
:105A600010FB0010FAF78BFD41EC100BFEF7A4FBC6
:105A7000B0EE408AF0EE608A9FED310B51EC180BCE
:105A800053EC102BFAF7E4FD04D2257065703573E2
:105A9000777326E03773757353EC192B51EC180BA1
:105AA000FAF7EEFD1DD253EC182B51EC190BFAF757
:105AB000F7FC41EC180B94F90000FAF760FD53EC89
:105AC000182BFAF77BFCFAF778FD207094F90100A7
:105AD000FAF755FD53EC182BFAF770FCFAF76DFD49
