:020000040800F2
:10000000E0180020A1010008D9340008B73000082A
:10001000C5310008D50D0008B53F000800000000FC
:10002000000000000000000000000000353800085B
:10003000D30F0008000000005935000837380008C9
:10004000BB010008BB010008BB010008BB010008A0
:10005000BB010008BB010008BB010008BB01000890
:10006000BB010008BB010008BB010008BB01000880
:10007000BB010008BB010008BB010008BB01000870
:10008000BB010008BB010008BB010008BB01000860
:10009000BB010008BB010008BB010008BB01000850
:1000A000BB010008BB010008BB010008BB01000840
:1000B000BB010008BB010008BB010008BB01000830
:1000C000BB010008BB010008BB010008BB01000820
:1000D000BB010008CD3E0008BB010008BB010008C1
:1000E000BB010008BB010008BB010008BB01000800
:1000F000BB010008BB010008BB010008BB010008F0
:10010000BB010008BB010008BB010008BB010008DF
:10011000BB010008BB0100084D380008BB01000806
:10012000BB010008F90E0008BB010008BB01000874
:10013000BB010008BB010008BB010008BB010008AF
:10014000BB010008BB010008BB010008BB0100089F
:10015000BB010008BB010008BB010008BB0100088F
:10016000BB010008BB010008BB010008BB0100087F
:10017000BB010008BB010008BB0100080000000033
:10018000BB010008BB010008DFF810D000F0F0FB55
:1001900000480047D9550008AFF30080E018002060
:1001A0000648804706480047FEE7FEE7FEE7FEE711
:1001B000FEE7FEE7FEE7FEE7FEE7FEE73D38000864
:1001C000890100082DE9F05F0546002092469B4614
:1001D00088460646814640241BE02846414647465D
:1001E000224600F0A6FA53465A46C01A914110D34F
:1001F00011461846224600F08DFA2D1A67EB0108C9
:100200004F4622460120002100F084FA17EB000936
:100210004E41201EA4F10104DFDC484631462A4647
:100220004346BDE8F09F40EA01039B0703D009E085
:1002300008C9121F08C0042AFAD203E011F8013BD2
:1002400000F8013B521EF9D27047D2B201E000F82B
:10025000012B491EFBD270470022F6E710B513466A
:100260000A4604461946FFF7F0FF204610BD2DE967
:10027000FE4F804681EA0300C00F0C46009021F03B
:10028000004123F00045B8EB0200A94105D24046E9
:10029000214690461C460B46024623F00040104380
:1002A00047D0270DC7F30A00C3F30A510290401A42
:1002B000019040286BDAC3F3130040F4801B0098D0
:1002C000924620B10023D2EB030A63EB0B0B01989B
:1002D0005946C0F14002504600F01CFA06460D4651
:1002E00050465946019A00F034FA10EB080061417B
:1002F000002487EA115284EAE7731A4340D0009A37
:1003000062B3019A012A4FEA075215DC001B61EB28
:1003100002014FF0004202EA0752CDE90042001C00
:1003200041F5801132462B4600F06BFA03B0BDE870
:10033000F08F40462146F9E7001B61EB0201001CEB
:1003400041F5801300185B412018A2F5001747EB18
:10035000030140EAD570B6196D4111E06D084FEA0E
:10036000360645EAC0754FEA0752001B61EB0201F1
:10037000001C41F5801149084FEA30000019514135
:1003800032462B4603B0BDE8F04F00F02BBA009880
:10039000012240000023D0EB020263EBE0730098DF
:1003A00021464FEAE074B8EB000061EB0401E9E795
:1003B00083F000435BE781F0004158E72DE9FE4FF1
:1003C00081EA030404F0004421F0004100944FF05E
:1003D000000B23F0004350EA01045ED052EA03040C
:1003E0005BD0C3F30A54C1F30A552C44A4F2F3348E
:1003F0000194A0FB0254C1F3130141F48011C3F333
:10040000130343F4801301FB024400FB034E840AF0
:10041000970A44EA815447EA8357A4FB0768029588
:100420008D0A05FB07854FEA932C04FB0C54270526
:10043000029D4FEA065847EA1637B5EB08056EEB02
:10044000070C870E920E47EA811742EA8312A7FB38
:100450000201B6EB0B0164EB00042B0D43EA0C33F5
:100460005E1844EB1C50DA465146E7FB0201C5F327
:1004700013044FEA0B3343EA14534FEA0432019C4E
:1004800043EA0603A4F10C040294009CCDE900B4F5
:1004900000F0B7F903B0BDE8F08F00200146F9E79E
:1004A0002DE9F04D81EA030404F0004B21F00045F2
:1004B00014464FF0000A23F0004150EA050220D014
:1004C00054EA01021DD0C5F30A570246C5F31303CF
:1004D000C1F31300C1F30A5640F4801543F48013AE
:1004E000A7EB0608101BD64608F2FD3873EB050093
:1004F00002D308F1010801E092185B41B8F1000F46
:1005000003DA00200146BDE8F08D00204FF4801191
:10051000064684460EE0171B73EB050705D3121B36
:1005200063EB050306434CEA010C49084FEA30002F
:1005300092185B4150EA0107EDD152EA030012D054
:1005400082EA040083EA0501084305D0101BAB4191
:1005500006D20122002306E000224FF0004302E011
:100560006FF0010253101AEB06004CEB085110EB30
:100570000A0041EB0B01BDE8F04D00F033B90EB5B8
:10058000C10F80EAE0700844CA07002140F23343FB
:100590008DE80E000A460B4600F033F903B000BDAB
:1005A0000EB540F2334102910021CDE900110A4617
:1005B0000B4600F026F903B000BD70B5C1F30A5236
:1005C00001F000450024C1F3130140F2FF3341F470
:1005D00080119A4201DA002070BD40F233439A4202
:1005E000A2F2334203DC524200F0A3F800E0904054
:1005F0002C43F1D0404270BDC1F30A5210B5C1F393
:10060000130140F2FF3341F480119A4201DA0020D5
:1006100010BD40F233439A42A2F2334203DC52420D
:1006200000F087F810BD904010BD00F0004230F09F
:1006300000400AD0C10D01F56071C0F3160042EA16
:100640000151C2084007114370470020014670471E
:1006500030B5041E71F1000404DB4FF00044404249
:1006600064EB0101141E73F1000405DB1C464FF01E
:100670000043524263EB04038B4208BF824230BD09
:1006800030B5041E71F1000404DB4FF00044404219
:1006900064EB0101141E73F1000405DB1C464FF0EE
:1006A0000043524263EB0403994208BF904230BDBD
:1006B00001F0004330B421F0004150EA010206D0BD
:1006C0000A0DA2F56072C1F31301002A02DC30BCEE
:1006D00000207047440F44EAC104C100E01830BC58
:1006E00000EBC25000F047B830B50B460146002081
:1006F0002022012409E021FA02F59D4205D303FAE4
:1007000002F5491B04FA02F52844151EA2F1010264
:10071000F1DC30BD202A04DB203A00FA02F100208F
:1007200070479140C2F1200320FA03F3194390402F
:100730007047202A04DB203A21FA02F0002170479A
:1007400021FA02F3D040C2F1200291400843194639
:100750007047202A06DBCB17203A41FA02F043EA21
:10076000E07306E041FA02F3D040C2F1200291406A
:100770000843194670470029A8BF7047401C49002C
:1007800008BF20F00100704710B4B0FA80FC00FAF6
:100790000CF050EA010404BF10BC704749B1CCF121
:1007A000200421FA04F411FA0CF118BF01212143AD
:1007B0000843A3EB0C01CB1D4FEA00614FEA102068
:1007C00042BF002010BC704700EBC350104400290A
:1007D000A4BF10BC7047401C490008BF20F00100B6
:1007E00010BC704710B5141E73F1000408DA401CE9
:1007F00041F1000192185B411A4301D120F0010040
:1008000010BD2DE9F04D92469B4611B1B1FA81F22F
:1008100002E0B0FA80F220329046FFF77BFF0446F8
:100820000F4640EA0A0041EA0B0153465A46084384
:1008300013D0114653EA010019D0C8F140025046C6
:10084000FFF777FF05460E46504659464246FFF7EA
:1008500061FF084305D0012004E020463946BDE889
:10086000F08D0020054346EAE0762C4337430A9892
:100870006305E40AA0EB08000022FD0A44EA47549D
:100880000A3002D500200146E9E701051019694147
:10089000DDE9084500196941BDE8F04DA2E72DE901
:1008A000F04D00231A461B1A8A4103DB0020014643
:1008B000BDE8F08DC1F30A52C1F3130141F4801574
:1008C0004FF0000BD10702D100186D41521E0027D6
:1008D000044640F2FF11384601EB620A3E4680466C
:1008E000024600204FF48011FFF723FFC219714127
:1008F000BB1846EB0100B4EB030C75EB000C04D302
:10090000E41A65EB000517460E46241908F10100AC
:100910006D4180463428E3DDF91946EB0600091BDA
:10092000A84103D24FF0FF32134601E000221346E4
:100930001BEB070046EB0A51BDE8F04DFFF752BF35
:10094000C1F30A52C1F3130140F2FF3341F48011A5
:100950009A4202DA00200146704740F233439A423D
:10096000A2F2334202DC5242FFF7E3BEFFF7D2BEEF
:10097000064C074D06E0E06840F0010394E80700EC
:1009800098471034AC42F6D3FFF702FC705C0008C5
:10099000905C000810B50146886B026C12F0500F95
:1009A00005D0026CD20626D500F045FC10BD016CC6
:1009B00041F40071016401688A6812F0405F17D148
:1009C000027EAAB9CA6A12F4700F02D08A68520570
:1009D0000ED44A6822F020024A60016C21F4807132
:1009E0000164016CC90403D4016C41F0010101648C
:1009F00000F0B2FB10BD806BC26CBDE81040084631
:100A0000104710B5806B40210164416C41F0040136
:100A1000416400F010FC10BD10B5806B00F00AFCC2
:100A200010BD00004A494A6822F440324A604A68D0
:100A300043681A434A6001684A6822F480724A6037
:100A400001684A68036942EA03224A6001684A6809
:100A500022F040724A6001684A6883681A434A601B
:100A600001688A6822F400628A6001688A68C36843
:100A70001A438A60816A6FF07062D14214D00168B3
:100A80008A6822F070628A6001688A68836A1A4301
:100A90008A6001688A6822F040528A6001688A6828
:100AA000C36A1A438A6009E001688A6822F07062AA
:100AB0008A6001688A6822F040528A6001688A6808
:100AC00022F002028A6001688A68037E42EA4302D9
:100AD0008A6090F8201089B101684A6842F4006287
:100AE0004A6001684A6822F460424A6001684B68C3
:100AF000426A521E43EA42324A6004E001684A6890
:100B000022F400624A600168CA6A22F47002CA6272
:100B10000168CB6A828B521E43EA0252CA620168A4
:100B20008A6822F400728A6001688A6890F830301E
:100B300042EA43228A6001688A6822F480628A60FD
:100B400001688A68406942EA802088607047000036
:100B50000023014070B504462DED068B15461E4658
:100B6000404890ED000A84ED000A91ED038A96ED6D
:100B7000000A04F0A9FF00EE100A96ED001AB8EE84
:100B8000C00A60EE080A95ED000A60EE800A41EEA8
:100B9000000A96ED000A95ED011A20EE010AB5EE65
:100BA000C00AF1EE10FA0BDD04F03FFD95ED031ADB
:100BB000B4EEC81AF1EE10FA19DDB0EE481A16E0DC
:100BC000B5EEC00AF1EE10FA0DD204F00AFD95ED73
:100BD000031AF1EE480AB4EEE01AF1EE10FA06D26A
:100BE000B0EE601A03E09FED200AB0EE401AD5ED9A
:100BF000000AB0EE409A01EE209A84ED019AD4EDFD
:100C0000009A19EE900AFFF710FD9FED188B53EC38
:100C1000182BFFF7D3FBFFF74BFD0AEE100AB1EEDE
:100C2000690A10EE100AFFF700FD53EC182BFFF7CE
:100C3000C5FBFFF73DFD00EE100AB0EE4A1AF0EEDC
:100C4000490A03F0B8F984ED010A94ED001AC0EEE8
:100C5000010A94ED020A20EE800A85ED0A0ABDEC35
:100C6000068B70BDF413002000000000CDCCCCCC6E
:100C7000CCCCEC3F70B504462DED028BB0EE401AA3
:100C8000264DD4ED000A95ED020A30EEC00AB5EE0D
:100C9000C00AF1EE10FA0ADBF5EEC00AF1EE10FA26
:100CA00002DBD1ED040A0CE0D1ED050A09E0F5EE16
:100CB000C00AF1EE10FA02DBD1ED050A01E0D1ED38
:100CC000040A60EE810AB0EEE08AF1EE488AB0EEE6
:100CD000481AF0EE680A00F07EF8DFED110A78EEAF
:100CE000200AC0EE201AF6EE000AB7EE080A21EE3E
:100CF000A01A21EE800A21EE211A01EE610A38EED7
:100D0000681A21EE001A95ED020A01EE200A84ED20
:100D1000000A85ED020ABDEC028B70BD5400002074
:100D2000BD37863570B504462DED028BB0EE401A06
:100D3000264DD4ED000A95ED010A30EEC00AB5EE5D
:100D4000C00AF1EE10FA0ADBF5EEC00AF1EE10FA75
:100D500002DBD1ED000A0CE0D1ED030A09E0F5EE6B
:100D6000C00AF1EE10FA02DBD1ED010A01E0D1ED8B
:100D7000020A60EE810AB0EEE08AF1EE488AB0EE37
:100D8000481AF0EE680A00F026F8DFED110A78EE56
:100D9000200AC0EE201AF6EE000AB7EE080A21EE8D
:100DA000A01A21EE800A21EE211A01EE610A38EE26
:100DB000681A21EE001A95ED010A01EE200A84ED71
:100DC000000A85ED010ABDEC028B70BD54000020C5
:100DD000BD378635FEE7B4EEE00AF1EE10FA02D236
:100DE000B0EE600A7047B4EEC10AF1EE10FAF9DD18
:100DF000B0EE410A7047000070B505462DED028B3C
:100E00000C4694ED050A04F05FFE00EE100AD5EDE5
:100E1000030AB8EEC00A20EE200AD4ED000A20EE44
:100E2000208A94ED010AD4ED050A00EE208A1E4DB9
:100E30002E683046FFF7F9FB9FED1C0B53EC102B8F
:100E4000FFF7BCFAFFF734FC08EE900A3046FFF7D4
:100E5000ECFB9FED180B53EC102BFFF7AFFAFFF7ED
:100E600027FC00EE100AB0EE681AF0EE480A03F014
:100E7000A2F810EE106A2868FFF7D7FB41EC180BB8
:100E80003046FFF7D2FB41EC100B03F0CFF853ECE8
:100E9000182B51EC100BFFF703FBFFF709FC206345
:100EA000BDEC028B70BD0000F4130020CDCCCCCC87
:100EB000CCCCEC3FCDCCCCCCCCCCECBFAFF30080D9
:100EC0001CB50C49022003F0F9FF002009496A46CD
:100ED0000B5C1354401C0828FADB06489DF80010F0
:100EE000133801709DF8011041709DF80210817057
:100EF0001CBD000074000020014800F03FBD000050
:100F0000500200200168CAB2103A1823B2FBF3F273
:100F1000064B9B5CC3656FF30901032A02D9091DC7
:100F2000816500E08165806D70470000685C0008A5
:100F300010B5014600208A6A8B694FF0C074002BFF
:100F40000ED0B3F5005F1AD062B3012A2AD0022A6C
:100F500028D0032A03D1C96AC90100D5012010BDD8
:100F60001AB1012A06D0022AF9D1C96AC901F6D5F7
:100F7000012010BDC96AA142FBD1012010BD52B1B0
:100F8000012A0AD0022A06D0032AF7D1C96AA1424F
:100F9000F4D1012010BD012010BDC96AC901FBD5E3
:100FA000012010BD012010BD30B50468256825F46E
:100FB00080252560046863608368402B04D0036843
:100FC00099600068C26030BD03689A600068C160C3
:100FD00030BD7047094990ED080AD1ED000A20EEB6
:100FE000200AD0ED050A90ED011A00EEC10AD0EDFD
:100FF000000A80EE201A80ED071A7047F4130020D3
:1010000078B50024009490F83C20012A19D00122E0
:1010100080F83C200A680725092A14D90368DE688D
:101020000A3A02EB42029540AE43DE600A788B68D2
:101030000A3A02EB420293400268D5682B43D36020
:1010400011E0022078BD03681E6902EB4202954060
:10105000AE431E610A788B6802EB4202934002683D
:1010600015692B4313614A681F25072A13D20368A9
:101070005E6B521E02EB82029540AE435E630A88AD
:1010800093B20A79521E02EB820293400268556BBA
:101090002B43536328E00D2A13D203681E6BD21F23
:1010A00002EB82029540AE431E630A8893B20A792E
:1010B000D21F02EB820293400268156B2B4313632D
:1010C00012E00368DE6A0D3A02EB82029540AE43FD
:1010D000DE620A8893B20A790D3A02EB82029340EB
:1010E0000268D56A2B43D362174A184B05689D42A4
:1010F00006D10D68122D03D1556845F48005556061
:1011000005689D421BD10B68102B01D0112B16D105
:10111000536843F400035360096810290FD10C4948
:101120000C4A0968B1FBF2F101EB81014900009121
:1011300002E00099491E009100990029F9D180F838
:101140003C40002078BD0000002301400020014009
:101150000000002040420F0070B500682649884218
:1011600049D1264800F04AF92448A83003F0D4FDBC
:10117000224CA8346089FFF713FA9FED211B53EC32
:10118000112BFFF71BF99FED201B53EC112BFFF7E1
:1011900087F9FFF78DFA1E4D28602089FFF700FAC6
:1011A0009FED1C1B53EC112BFFF708F99FED1B1B48
:1011B00053EC112BFFF702F9FFF77AFA6860A08968
:1011C000FFF7EEF99FED171B53EC112BFFF7F6F825
:1011D0009FED161B53EC112BFFF762F9FFF768FA2E
:1011E000A86004F063FAA4F58C71BDE87040372262
:1011F000024800F04DB870BD0022014008020020F6
:101200009999999999318A40000000000000F640B0
:10121000F4130020CDCCCCCCCC4C394000000000E5
:101220000000303F1F85EB51B8FE60406666666681
:101230006666E0407047704770B504460026002C93
:1012400003D0206C002510B107E0012070BD2046BE
:1012500000F01CF8656484F83C50206CC00610D483
:10126000206C20F4885040F0020020642046FFF7F4
:10127000D9FB6564206C20F0020040F0010020647E
:1012800000E0012684F83C50304670BD70470000F5
:10129000F8B504460023009394F83C00012807D0D9
:1012A000012084F83C0020688568ED0702D014E036
:1012B0000220F8BD856845F0010585604648474D28
:1012C0000068B0FBF5F000EB4000009002E00098F1
:1012D000401E009000980028F9D120688568ED052F
:1012E00003D5856825F48075856020688568ED07DD
:1012F00068D0256C40F20166B54345F480752564DD
:101300004068400505D5206C20F4005040F4805022
:101310002064206CC00404D5606C20F0060060647A
:1013200000E0636484F83C302D4EA36B2D48D863F5
:10133000A36B2D481864A36B2C48D86423686FF006
:10134000220018602068436843F08063436020688F
:10135000836843F480738360206813464C300A46E8
:10136000A56B0146284600F05BFC70682049C0066A
:1013700007D0206888422DD1816811F0405F1CD0D1
:1013800028E0206888420FD01A4A904203D1D1F851
:101390000423D20608D0184A90421BD1D1F8041376
:1013A00001F01F01102915D2816811F0405F11D1A1
:1013B000816841F0804181600CE0816841F08041AA
:1013C000816007E0206C40F010002064606C40F009
:1013D000010060640020F8BD0000002040420F00C2
:1013E0000023014095090008190A0008030A0008B3
:1013F00000200140002101400022014010B50446B8
:10140000002094F83C1001290CD0012184F83C10F4
:1014100021688A6822F001028A6021688A68D207FE
:1014200002D01DE0022010BD8A6822F480728A601A
:10143000A16B91F83520022A07D1084600F044FA42
:1014400018B1216C41F04001216421684A6822F002
:1014500080624A60216C21F4885141F001012164CD
:10146000002184F83C1010BD10B590F82020012A0E
:1014700007D0022A05D0416A41F48021416201204F
:1014800010BD3C4800F50070026842F001020260A5
:10149000026822F47C52026002684B6A42EA03222C
:1014A00002600A7D02F01F0301229A40C369934340
:1014B000C361A0F50070CB69B3B9D0F80C32934387
:1014C000C0F80C328C894B6864F31F434C6900EB05
:1014D000C404C4F840320C890B6864F31F434C69A0
:1014E00000EBC404C4F84432CB69012B16D1D0F808
:1014F0000C321343C0F80C320C884B6864F31F4362
:101500004C6900EBC404C4F840320C89CB6864F326
:101510001F434C6900EBC404C4F844328B697BB1AF
:10152000D0F804321343C0F804320B6973B1D0F819
:1015300014321343C0F81432096A01290CD010E0A8
:10154000D0F804329343C0F80432EEE7D0F81432F6
:101550009343C0F81432EFE7D0F81C121143C0F8DF
:101560001C12D0F8001221F00101C0F80012002076
:1015700010BD0000006400400246002092F82030B8
:10158000012B01D0022B04D121B11068006900F0B9
:10159000030070471068C06800F00300704730B562
:1015A00090F82040012C07D0022C05D0416A41F46C
:1015B00080214162012030BD21B104682469A40763
:1015C0005FD003E00468E468A40754D04FF4D874F3
:1015D000056804EB01142D5905F004059560F5B379
:1015E00005682D59ED08556005682C5904F0020472
:1015F000D4604FF4DA74056804EB01142D5905F03A
:101600000F05156105682D59C5F307259561056816
:101610002C59240C54614FF4DC72046802EB011263
:10162000A4581C700468A458240A5C700468A45868
:10163000240C9C700468A258120EDA704FF4DE720B
:10164000046802EB0112A4581C710468A458240A0F
:101650005C710468A458240C9C71046800E016E0D6
:10166000A258120EDA71B9B10068016941F0200187
:101670000161002030BD416A41F400114162012046
:1016800030BD416A41F400114162012030BD05685E
:101690002D596D0D1560A7E70068C16841F0200164
:1016A000C160E6E770B50446002C03D094F8200032
:1016B00010B104E0012070BD204600F09DF82068C4
:1016C000016821F00201016000F0E0FB05460526FB
:1016D0000CE000F0DBFB401B0A2807D9606A40F4ED
:1016E0000030606284F82060012070BD206840688E
:1016F0008007EED42068016841F00101016000F02C
:10170000C5FB05460CE000F0C1FB401B0A2807D9C9
:10171000606A40F40030606284F82060012070BD8F
:1017200020684068C007EED0207E01283FD02068A6
:10173000016821F080010160607E01283DD02068B1
:10174000016821F040010160A07E01283BD02068A3
:10175000016821F020010160E07E012839D0206875
:10176000016841F010010160207F012837D0206816
:10177000016821F008010160607F012835D02068F0
:10178000016821F004010160D4E902010843D4E9B1
:101790000412114308436168491E08432168C86167
:1017A00000206062012084F82000002070BD2068C5
:1017B000016841F080010160BEE72068016841F0E6
:1017C00040010160C0E72068016841F0200101602C
:1017D000C2E72068016821F010010160C4E72068B9
:1017E000016841F008010160C6E72068016841F026
:1017F00004010160C8E7000030B587B000681949EE
:1018000088422CD11848016841F008010160016844
:1018100001F008010191016841F0080101600068D0
:1018200000F00800019010481030016841F000718C
:101830000160006800F000700190022002900390A7
:1018400001240494059009200690084D02A9284619
:1018500000F01EFA029402A9284600F019FA07B017
:1018600030BD00000064004030380240000C0240EF
:1018700070B5044694F82000012805D0606A40F451
:1018800000206062012070BD022084F820002068E2
:10189000016821F00101016000F0F8FA05460DE051
:1018A00000F0F4FA401B0A2808D9606A40F40030BE
:1018B0006062052084F82000012070BD2068406827
:1018C000C007EDD1606270BD2DE9F0410446A76DFF
:1018D00000F0DCFA054694F835000026022806D010
:1018E0008020606584F834600120BDE8F0812068C4
:1018F000016821F0160101602068416921F0800132
:101900004161206C08B9A06C20B12068016821F009
:10191000080101602068016821F0010101600BE00D
:1019200000F0B4FA401B052806D920203434206288
:10193000267003206070D8E720680068C007EFD1E8
:1019400034343F2094F828108840B8602670012075
:1019500060700020C9E790F83510022903D080217B
:10196000416501207047052180F835100068016845
:1019700021F0010101600020704700002DE9F843CB
:1019800004464FF00009CDF800906F484FF416510F
:101990000068B0FBF1F7A56D2E6894F85C00082292
:1019A00002FA00F1314210D02068016849070CD5D5
:1019B000016821F00401016094F85C0002FA00F172
:1019C000A960606D40F00100606594F85C104FF014
:1019D000010808FA01F0304208D021684969090677
:1019E00004D5A860606D40F00200606594F85C105A
:1019F00004208840304208D021680968890704D54E
:101A0000A860606D40F00400606594F85C101020E0
:101A10008840304220D02168096809071CD5A86099
:101A20002068016849030CD50068000304D4216CC8
:101A300091B1204688470FE0A16C69B120468847E4
:101A40000AE00168C90503D4016821F008010160BA
:101A5000216C09B12046884794F85C10202088400A
:101A600030424CD021680968C90648D5A86094F86E
:101A7000350005280BD020680168490330D500687F
:101A8000000328D4616C51B32046884737E02068B2
:101A9000016821F0160101602068416921F0800190
:101AA0004161206C08B9A06C20B12068016821F068
:101AB0000801016094F85C103F208840A86084F819
:101AC000349084F83580216D00293BD001B0204648
:101AD000BDE8F0430847E16B09B1204688470EE0B6
:101AE0000168C90507D4016821F01001016084F87C
:101AF000349084F83580E16B09B120468847606DE9
:101B000000281FD0606DC00714D0052084F8350070
:101B10002068016821F0010101600098401C0090DC
:101B2000B84203D820680068C007F6D184F8349022
:101B300084F83580E16C002904D001B02046BDE86E
:101B4000F0430847BDE8F883000000202DE9F0418C
:101B5000044600F09BF905465CB1002684F8346029
:101B6000022084F835002068016821F0010101603D
:101B70000DE00120BDE8F08100F088F9401B052848
:101B800005D920206065032084F83500F2E720683D
:101B90000068C007F0D121680A6820480240D4E9F3
:101BA00001031843D4E903352B43184363691843F1
:101BB000A3691843E3691843236A18431043626A10
:101BC000042A03D1D4E90B231A4310430860206888
:101BD000406920F00700656A29460543012704296A
:101BE0000DD1A06A0543E06A48B12046FFF7A0F98D
:101BF00028B14020606584F835700120BAE720687C
:101C000045612046FFF77EF994F85C203F21914022
:101C10008160666584F835700020ABE73F8010F086
:101C20002DE9F04104460025A66D94F83400012802
:101C30000DD0012084F8340094F835700020012F75
:101C400007D084F8340002252846BDE8F081022040
:101C5000FBE7022784F8357060652046FFF7A4F99A
:101C600094F85C103F208840B0602068016841F023
:101C700016010160206C20B12068016841F0080164
:101C800001602068016841F001010160DCE70000AB
:101C90002DE9F84F0022DFF89C914FF0010809F17F
:101CA000040A03274FF00F0C0AF1040B08FA02F59F
:101CB0000B682B40AB4272D10C7904F00304012C69
:101CC00001D0022C15D18668540007FA04FE26EADA
:101CD0000E06D1F80CE00EFA04FE4EEA060EC0F82D
:101CE00008E04468AC430D79C5F3001595402543E1
:101CF00045600C79E443A40708D0C568540007FA8E
:101D000004F6B5438E68A6402E43C6600C7904F0F5
:101D10000304022C11D1D40800EB8406356A540761
:101D2000E40E0CFA04FE25EA0E05D1F810E00EFAD6
:101D300004FE4EEA050EC6F820E00568540007FAD6
:101D400004F6B5430E7906F00306A6402E4306605E
:101D50004C68E40067D5384C256845F4804525601B
:101D6000246804F480440094344C22F003052E19B6
:101D7000D6F8085894074FEA147E0CFA0EF4A543DF
:101D80002F4CA04201D1002424E02E4CA04201D1CE
:101D900001241FE02C4CA04202D102241AE042E0B0
:101DA0002A4CA04201D1032414E0294CA04201D1C5
:101DB00004240FE0274CA04201D105240AE0264C60
:101DC000A04201D1062405E0244CA04201D1072401
:101DD00000E0082404FA0EF42C43C6F80848D9F8A9
:101DE00000409C434D68ED0300D51C43C9F80040FA
:101DF000DAF800409C434D68AD0300D51C43CAF897
:101E00000040DBF800409C434D68ED0200D51C43C8
:101E1000CBF80040074D0C352C689C434E68B60249
:101E200000D51C432C60521C102AFFF43FAFBDE8C4
:101E3000F88F0000003C014044380240003001406F
:101E4000000002400004024000080240000C024072
:101E5000001002400014024000180240001C024022
:101E6000426921EA02030A4043EA02418161704764
:101E7000002A01D081617047090481617047000028
:101E800001480068000C7047002004E001488068A9
:101E9000704700007C00002070B50446002C11D073
:101EA00021684CF6CC400860216845F25550086026
:101EB000D4E9001048602168A0688860FFF7E6FF59
:101EC00005460CE0012070BDFFF7E0FF401B302805
:101ED00005D92068C068800701D0032070BD206844
:101EE000C0688007F0D121684AF6AA200860002067
:101EF00070BD00684AF6AA2101600020704700000A
:101F00000248816802781144816070477C0000209B
:101F100010B50948016841F400710160016841F49D
:101F200080610160032000F059F80F2000F006F8EE
:101F300000F026F8002010BD003C024070B50446B9
:101F40000D4D4FF47A712878B1FBF0F00B49096818
:101F5000B1FBF0F000F036FB08B1012070BD102C91
:101F600007D200222146501E00F018F86C600020B5
:101F700070BD012070BD00007C000020000000202A
:101F80007047002809DB00F01F0201219140400941
:101F9000800000F1E020C0F800117047F0B40D4659
:101FA0000D4B1B68C3F30223C3F10704042C00D9B3
:101FB0000424191D072901D2002300E0DB1E01269D
:101FC00006FA04F1491E294099409E40761E1640AB
:101FD0003143F0BC02F01AB80CED00E000F007014C
:101FE000054A10684FF6FF03184040EA01200349F4
:101FF00008431060704700000CED00E00000FA0597
:102000002DE9F04704460D46002C13D0DFF8289147
:10201000D9F80000EFB200F00700A8420CD289F80E
:102020000070D9F8000000F00700A84204D0012099
:10203000BDE8F0870120FBE72068404E810712D5FC
:10204000400703D5306840F4E05030602078000746
:1020500003D5306840F4604030603068A16820F0FB
:10206000F000084330602078C00731D03349606801
:102070000839012808D002280BD0032809D00968A4
:1020800089070BD40120D3E70968890306D401200E
:10209000CEE70968890101D40120C9E7316821F040
:1020A000030101433160FFF7F1FE804641F2883AB7
:1020B00007E0FFF7EBFEA0EB0800504501D9032035
:1020C000B6E73068616800F00C00B0EB810FF0D12A
:1020D000D9F8000000F00700A84209D989F800707B
:1020E000D9F8000000F00700A84201D001209FE7C6
:1020F0002078400705D53068E16820F4E0500843B7
:1021000030602078000706D53068216920F46040EF
:1021100040EAC100306000F03FF83168084AC1F37E
:102120000311515CC8400749086007480068FFF781
:1021300005FF00207CE70000003C02400838024018
:10214000D85B0008000000208000002001480068E3
:10215000704700000000002000B5FFF7F7FF0449BA
:102160000968044AC1F38221515CC84000BD0000E7
:1021700008380240E85B000800B5FFF7E7FF0449B4
:102180000968044AC1F34231515CC84000BD0000F7
:1021900008380240E85B000810B51748006810F0E6
:1021A0000C01164816D0164B042912D0082911D15B
:1021B000114C241F216801F03F02216849020AD511
:1021C0002068C0F38810A0FB03010023FDF7FAFF8D
:1021D00009E0184610BD21680023C1F38811A1FB56
:1021E0000001FDF7EFFF2168C1F30141491C4900DF
:1021F000B0FBF1F010BD0000083802400024F400EC
:10220000001BB7002DE9F84F0446002C13D02078AE
:10221000DFF8A083C007A8F1040556D008F1040038
:102220000168C1F3810101290CD00068C0F381006D
:10223000022803D00DE00120BDE8F88FD8F8000097
:10224000400206D5286880033FD5606870BB012036
:10225000F2E76068B0F5803F10D0B0F5A02F12D043
:10226000286820F480302860286820F480202860C6
:102270006068E0B1FFF70AFE064614E0286840F403
:1022800080302860F4E7286840F4802028602868BF
:1022900040F480302860EBE7FFF7F8FD801B6428EE
:1022A00001D90320C8E728688003F5D50DE0FFF7C2
:1022B000EDFD064606E0FFF7E9FD801B642801D925
:1022C0000320B9E728688003F5D42078BA4F800747
:1022D0004FF0000948D5B748001D016811F00C0FF8
:1022E00008D00068C0F38100022813D1D8F800009C
:1022F00040020FD42868800704D5E068012801D087
:10230000012099E72868216920F0F80040EAC1001F
:10231000286029E0E068B8B101203860FFF7B6FD19
:10232000064606E0FFF7B2FD801B022801D9032014
:1023300082E728688007F5D52868216920F0F80031
:1023400040EAC10028600FE0C7F80090FFF79EFD4B
:10235000064606E0FFF79AFD801B022801D90320FC
:102360006AE728688007F5D42078000729D5DFF8C8
:1023700044A2924861690AF1700A89B101210160A1
:10238000FFF784FD064606E0FFF780FD801B02286C
:1023900001D9032050E7DAF800008007F4D510E0F7
:1023A000C0F80090FFF772FD064606E0FFF76EFDED
:1023B000801B022801D903203EE7DAF800008007DD
:1023C000F4D42078400778D54FF0000A79483C30A3
:1023D0000068C0000BD477483C30016841F0805160
:1023E0000160006800F0805000904FF0010ADFF8B3
:1023F000D0B1DBF80000C00514D4DBF8000040F4D5
:102400008070CBF80000FFF741FD064606E0FFF7BD
:102410003DFD801B022801D903200DE7DBF80000F9
:10242000C005F4D5634EA0686C3601280FD005288E
:1024300012D0306820F001003060306820F00400D5
:102440003060A068F8B1FFF721FD834617E03068DF
:1024500040F001003060F4E7306840F00400306084
:10246000306840F001003060EBE7FFF70FFDA0EBB4
:102470000B0141F28830814201D90320DCE630684B
:102480008007F2D510E0FFF701FD834609E0FFF772
:10249000FDFCA0EB0B0141F28830814201D9032001
:1024A000CAE630688007F2D4BAF1010F05D141487D
:1024B0003C30016821F080510160A069C0B33D4902
:1024C000091D09684FF0FF36C1F38101022946D08A
:1024D000022805D0C7F86090FFF7D8FC04463AE020
:1024E000C7F86090FFF7D2FC814607E0FFF7CEFC0B
:1024F000A0EB0900022801D903209DE6286880018D
:10250000F4D4D4E907010843616AA26A890106EBA1
:10251000520241EA0241084394F82C1040EA01605B
:10252000C8F8000001203866FFF7B0FC044607E059
:102530003DE0FFF7ABFC001B022801D903207BE63E
:1025400028688001F5D532E0FFF7A0FC001B0228C7
:1025500001D9032070E628688001F5D427E001281E
:1025600023D0D8F80000E26900F4800191421AD12A
:10257000226A00F03F01914215D147F6C071626AAC
:102580000140B1EB821F0ED1A26A00F4403106EB8C
:102590005202B1EB024F06D194F82C1000F070609B
:1025A000B0EB016F03D0012046E6012044E6002095
:1025B00042E600000438024000004742800E4742D5
:1025C0000070004010B5401EB0F1807F01D30120A3
:1025D00010BD4FF0E02460610F21601701F016FD7F
:1025E0000020A06107202061002010BD70477047C7
:1025F00010B590F83C20012A22D0012280F83C201E
:10260000CA6800238C6822F4407222434C6822F48A
:10261000806222430C6822F4006222430C6922F497
:10262000805222434C6922F400522243C96922F4A9
:1026300080420A4301684A6480F83C30002010BDA3
:10264000022010BD10B50446002909D004290AD083
:1026500008290BD094F8450001280AD0012010BDAC
:1026600094F84200F8E794F84300F5E794F8440042
:10267000F2E7022089B3042933D0082934D084F842
:1026800045000422206801F05AF92068416C41F4A9
:102690000041416419492068884214D0B0F1804F4C
:1026A00011D0174988420ED0164988420BD01649DE
:1026B000884208D01549884205D01549884202D081
:1026C0001449884213D1816801F00701062912D00C
:1026D000016841F0010101600DE0FFE784F842006C
:1026E000CFE784F84300CCE784F84400C9E70168E9
:1026F00041F001010160002010BD00000000014018
:102700000004004000080040000C004000040140AC
:10271000004001400018004010B50446002C03D0D2
:1027200094F83D0010B107E0012010BD002084F8AE
:102730003C00204600F016F8022084F83D00211DE0
:10274000206801F089F801203D3460726070A0704B
:10275000E07020716071A071E07120722070002023
:1027600010BD000008B500680B49884212D10B4823
:10277000016841F010010160006800F01000009055
:10278000012211463620FFF709FCBDE8084036203B
:10279000FFF7F7BB08BD00000010004040380240C2
:1027A00090F83D10012901D001207047022180F8E6
:1027B0003D100168CA6842F00102CA60006814490D
:1027C000884214D0B0F1804F11D0124988420ED007
:1027D000114988420BD01149884208D010498842DB
:1027E00005D01049884202D00F49884209D181683A
:1027F00001F00701062908D0016841F001010160DC
:1028000003E0016841F00101016000207047000011
:10281000000001400004004000080040000C00409F
:10282000000401400040014000180040704770B5AE
:102830000446206801694FF00005C943890716D492
:10284000C168C943890712D4E91E016101202077BC
:1028500020688069800703D02046FFF7E7FF05E086
:10286000204600F09BF8204600F028F925772068E4
:102870000169C943490718D4C168C943490714D439
:102880006FF004010161022020772068806910F454
:10289000407F03D02046FFF7C9FF05E0204600F047
:1028A0007DF8204600F00AF9257720680169C943C0
:1028B000090717D4C168C943090713D46FF0080189
:1028C0000161042020772068C069800703D020467A
:1028D000FFF7ACFF05E0204600F060F8204600F06E
:1028E000EDF8257720680169C943C90618D4C16885
:1028F000C943C90614D46FF0100101610820207784
:102900002068C06910F4407F03D02046FFF78EFF97
:1029100005E0204600F042F8204600F0CFF8257789
:1029200020680169C943C90708D1C168C943C907FB
:1029300004D1891E0161204600F030F92068016948
:10294000C943090609D4C168C943090605D46FF013
:10295000800101612046FFF749FE20680169C943F3
:10296000490609D4C168C943490605D46FF040013E
:102970000161204600F0EAF920680169C94389062F
:102980000BD4C168C943890607D46FF020010161E7
:102990002046BDE87040FFF72ABE70BD704770B595
:1029A00004460D4694F83C0001280AD0012084F822
:1029B0003C0042B1042A1AD0082A2DD00C2A53D147
:1029C0003EE0022070BD2946206800F0C5FF206867
:1029D000816941F0080181612068816921F0040169
:1029E0008161206881692A69114381613CE029463F
:1029F000206800F0E5FF2068816941F40061816191
:102A00002068816921F480618161206881692A6977
:102A100041EA0221816127E02946206801F00AF895
:102A20002068C16941F00801C1612068C16921F0D5
:102A30000401C1612068C1692A691143C16113E0C1
:102A40002946206801F02EF82068C16941F4006130
:102A5000C1612068C16921F48061C1612068C169D8
:102A60002A6941EA0221C161002084F83C0070BD5E
:102A700010B50446002C03D094F83D0010B107E0D7
:102A8000012010BD002084F83C00204600F015F81D
:102A9000022084F83D00211D206800F0DDFE0120A9
:102AA0003D3460726070A070E07020716071A07140
:102AB000E07120722070002010BD70477047000048
:102AC00010B50446002909D004290AD008290BD0E2
:102AD00094F8410001280AD0012010BD94F83E006E
:102AE000F8E794F83F00F5E794F84000F2E7022099
:102AF000A9B3042937D0082938D084F8410001222D
:102B0000206800F00FFF1E4920681E4A884201D04D
:102B1000904203D1436C43F40043436420688842ED
:102B200013D0B0F1804F10D0174988420DD017490B
:102B300088420AD01649884207D0904205D01549EC
:102B4000884202D01449884213D1816801F00701FC
:102B5000062912D0016841F0010101600DE0FFE794
:102B600084F83E00CBE784F83F00C8E784F84000D3
:102B7000C5E7016841F001010160002010BD0000BF
:102B80000000014000040140000400400008004033
:102B9000000C004000400140001800402DE9F041C9
:102BA0002DED028B00685B4988426FD100F096FCE6
:102BB0005B49594B594A01F12000FDF7CBFF5849B9
:102BC000584B1031584A01F11C00FDF7C3FF534C1C
:102BD000514894ED050A02F0EBF951EC100BFDF7AA
:102BE00067FDE062504D4F4895ED050A02F0E0F9AF
:102BF00051EC100BFDF75CFDE862D4ED0B0A9FED84
:102C00004B8AB0EE481ADFED4A8AB0EE680A01F04E
:102C1000D2F984ED0B0AD5ED0B0AB0EE481AB0EEEE
:102C2000680A01F0C8F985ED0B0A204602F034FF6E
:102C3000284602F031FF2046FEF7CCF92846FEF781
:102C4000C9F9374922463039354801F045F9344948
:102C50002A46183901F1280001F03EF92146304892
:102C6000FEF7CAF82E4829461030FEF7C5F8204670
:102C700002F0D6FB284602F0D3FB2E4FE0689FED12
:102C80002E8B2F4EB84202DD012001E03DE00020F6
:102C9000FDF786FC41EC100B01F0C8F953EC182B42
:102CA00051EC100BFDF7D4FC12D1E868B84201DDFD
:102CB000012000E00020FDF773FC41EC100B01F057
:102CC000B5F953EC182B51EC100BFDF7C1FC0AD0F1
:102CD0007088401C80B27080B0F57A7F03D90120E3
:102CE000307000207080307800280ED09FED150ADB
:102CF00084ED090A85ED090A0122BDEC028BD1039E
:102D0000BDE8F0411048FFF7B3B8BDEC028BBDE859
:102D1000F081000000100040601400208C1300209F
:102D200010040020A0140020C01300203333733F90
:102D3000333373BF0000F0420000000000000000C9
:102D40001000002000000000001002407047704793
:102D500070470000F8B5044622681068D1685369CE
:102D600000F00F05002D08D1860606D58E0604D585
:102D70002046BDE8F84000F07CBF0026002D60D062
:102D800003F0010501F490772F435AD0C20705D014
:102D9000CA0503D5226C42F001022264420705D520
:102DA000DA0703D0226C42F002022264820705D5C2
:102DB000DA0703D0226C42F004022264020707D52E
:102DC00001F020022A4303D0226C42F00802226460
:102DD000226C002A2BD0800604D5880602D5204616
:102DE00000F047FF20684069C0F38010216C09079C
:102DF00000D408B3204600F017FF20684169490657
:102E000016D5416921F040014161A06B60B1444990
:102E10000165A06BFEF79FFD002808D0A06B016D37
:102E200001B0BDE8F04008472046FFF791FFF8BD2C
:102E30002046FFF78DFFF8BD2046FFF789FF266487
:102E4000F8BD236B012B58D1C30656D5CB0654D5FC
:102E500010685068009050694FF0200340062ED54E
:102E6000A16B0868406880B20028E9D0A58D854232
:102E7000E6D9E085C869B0F5807F18D0D06820F425
:102E80008070D0602068416921F0010141612068B3
:102E9000416921F04001416184F83E302663206899
:102EA000C16821F01001C160A06BFEF70DFDA08D7F
:102EB000E18D401A81B22046FFF749FFF8BDA08D91
:102EC000E18D401A81B2E08D0028F7D00029F5D0BD
:102ED000D06820F49070D0602068426922F001022E
:102EE000426184F83E3026632068C26822F01002F6
:102EF000C2602046FFF72BFFF8BD020606D50A0682
:102F000004D52046BDE8F84000F0B1BF4006F3D537
:102F10004806F1D52046BDE8F84000F09DBE00000F
:102F2000193C000870B50446002C04D094F83D000C
:102F3000002510B106E0012070BD84F83C50204609
:102F400000F022F8242084F83D002068C16821F4B4
:102F50000051C160204600F0E5FE2068016921F4BF
:102F6000904101612068416921F02A014161206896
:102F7000C16841F40051C1602564202084F83D00FF
:102F800084F83E00002070BD30B587B000681F494E
:102F9000884238D11E48016841F010010160006884
:102FA00000F0100001901A481438016841F0010146
:102FB0000160016801F001010191016841F0010126
:102FC0000160006800F0010001904FF40070029071
:102FD00002200390012104910590072406940D4DD1
:102FE00002A92846FEF754FE29150291069402A96B
:102FF0002846FEF74DFE2520FEF7C3FF03221146AB
:103000002520FEF7CBFF07B030BD000000100140C7
:10301000443802400000024090F83E30202B01D09E
:103020000220704759B152B190F83C30012B08D0C2
:10303000012380F83C300023036300F0FDBE012033
:10304000704702207047000030B40068164988427B
:1030500028D1164A5088010419D41146440409782D
:103060004FF0000307D50A2901D053800FE040F448
:10307000004050800BE00D2910D00D4DC0F30D0421
:103080002955401C80B25080C72800D95380084879
:10309000012230BC0549C830FFF7BEBF40F4804074
:1030A0005080F4E730BC7047001001400800002059
:1030B0008C0000207047FEE708B5FEF729FF00F0FE
:1030C000C7F9042302220621A82002F00DFDA82042
:1030D00001F044FF4FF4E13002F062FD02F068F9C4
:1030E00042F2CF01092001F003FE01F0E1FD0020D2
:1030F00006231A044FF4A001009001F0A7FE40F24D
:10310000DC51042002F0C0F801F02EFF02F0C6F9F5
:1031100001F02EFC02F05CFCBDE8084002F028B88B
:1031200010B52DED048BB0EE408AF0EE608A9FED75
:103130001D9B51EC180B53EC192BFDF7A1FA11D282
:1031400051EC180B9FED190B53EC102BFDF736F9D2
:10315000FDF752FABDEC048B81B20020BDE81040AF
:1031600001F0F0BC53EC192B51EC180BFDF770FA81
:1031700011D251EC180B9FED0F0B53EC102BFDF7F8
:103180001DF9FDF739FABDEC048B80B20021BDE8D2
:10319000104001F0D7BCBDEC048BBDE8104000F03E
:1031A0000DB800000000000000000000000000005A
:1031B0000000594000000000000059C000210846EE
:1031C00001F0C0BCFEE700002DE9F0418EB00646DC
:1031D0000D46142109A8FDF73FF81C2102A8FDF7B0
:1031E0003BF80024444A106840F001001060106869
:1031F00000F001000190404A143A106840F00100CC
:103200001060106800F001000190106840F00100AB
:103210001060106800F001000190106840F010008C
:103220001060106800F010000190106840F010006D
:103230001060106800F010000190901509900222B3
:103240000A920B920C9201200D90DFF8B08009A930
:103250004046FEF71DFD8027099709A94046FEF765
:1032600017FD38010990DFF8988009A94046FEF75C
:103270000FFDF800099009A94046FEF709FD224A12
:103280002048106055609460D660401510619761C9
:103290001046FFF7EDFB602002900494059407941C
:1032A0000894002202A91848FFF779FB042202A91A
:1032B0001548FFF774FB144840380460446084608C
:1032C00004614461F901C16101464030FFF790F9A2
:1032D00000210D48FFF7F4FB00210B48FFF7B2F97E
:1032E00004210948FFF7ECFB04210748FFF7AAF97E
:1032F0000EB0BDE8F08100004438024000000240FA
:103300000010024000000140080300202DE9F041B8
:103310008EB006460D46142109A8FCF79DFF1C211E
:1033200002A8FCF799FF0024434A106840F002000D
:103330001060106800F0020001903F4A143A1068D3
:1033400040F004001060106800F004000190106864
:1033500040F001001060106800F00100019010685A
:1033600040F004001060106800F004000190106844
:1033700040F002001060106800F002000190402050
:10338000099002220A920B920C9203200D90DFF812
:10339000AC8009A94046FEF77BFC2020099009A9D2
:1033A0002748FEF775FC8027099709A94046FEF7D4
:1033B0006FFC0120099009A92248FEF769FC234A05
:1033C0002148106055609460D66040151061976187
:1033D0001046FFF74DFB602002900494059407947B
:1033E0000894002202A91948FFF7D9FA042202A979
:1033F0001648FFF7D4FA15486838046044608460C2
:103400000461B90141614900C16101466830FFF7BB
:10341000EFF800210D48FFF753FB00210B48FFF7A1
:1034200011F904210948FFF74BFB04210748FFF776
:1034300009F90EB0BDE8F0814438024000080240AE
:10344000000002400004024000040140500300203C
:1034500010B553216320FFF7B7FE5321BDE810409C
:103460006320FFF753BF00001748B2EE0E0A00EDCD
:10347000060A0521017101214171B1EE080A00ED32
:10348000050AB7EE000A00ED040AF0EE000A40ED6E
:10349000030A00ED020ADFED0D0A40ED010A80ED9E
:1034A000000A9FED0B0A80ED030A04210177B1EEBB
:1034B000030A80ED040AB7EE0C0A80ED050A9FEDC1
:1034C000050A80ED060A70476C1300209A99993F0F
:1034D0009A99193E3433933F70470000F0B50020AD
:1034E0000E4C00260127211F0D7814E000EB40014F
:1034F00004EB8102137963B934F821305B1C9BB271
:1035000024F82130B2F802C0634502D324F82160C8
:103510001771401CC0B2A842E8D3F0BD18000020CB
:10352000FFF7CAFD00240B4E0027A6F1040801F0A6
:10353000A5FE04EB440006EB8005287910B1A868CD
:1035400080472F71641C98F80000E4B28442EED3E7
:103550000024ECE718000020704700000FB430B5DD
:103560002DED048B83B0BDF92A409FED7C8B002CA0
:1035700025DD2046FDF703F841EC190B1A98FDF7FD
:1035800054F853EC182BFCF78BFF53EC192BFCF77A
:1035900015FFFDF78DF800EE100A00EE904AF8EEE8
:1035A000E00A20EE800A10EE100AFDF73EF853EC18
:1035B000182BFCF775FFFDF77BF8044627E0204643
:1035C00001DAC0F10000FCF7DAFF41EC190B1B989F
:1035D000FDF72BF853EC182BFCF762FF53EC192B7B
:1035E000FCF7ECFEFDF764F800EE100A00EE904ADE
:1035F000F8EEE00A20EE800A10EE100AFDF715F84A
:1036000053EC182BFCF74CFFFDF752F80446BDF9BC
:103610002800051E00DA4042FCF7B1FF41EC190B0F
:103620001C98FDF702F853EC182BFCF739FF53EC0C
:10363000192BFCF7C3FEFDF73BF800EE100A00EE75
:10364000905AF8EEE00A20EE800A10EE100AFCF71D
:10365000ECFF53EC182BFCF723FFFDF729F8054688
:103660002046FCF7E2FF9FED3F8B53EC182BFCF755
:10367000A5FEFDF71DF802902846FCF7D6FF53EC97
:10368000182BFCF79BFEFDF713F80190374C384DD3
:10369000DFED389A2078401E00EB400005EBC001BA
:1036A000B0EE690A02A8FDF73DFB10EE100AFCF728
:1036B000BCFF9FED318B53EC182BFCF77FFEFCF722
:1036C000F7FF09EE100A2078B0EE690A401E00EB01
:1036D000400005EBC00101A8FDF7CCFA10EE100A7E
:1036E000FCF7A3FF53EC182BFCF768FEFCF7E0FF98
:1036F00000EE100AA4F1740079EE000AC0ED040A8D
:1037000039EE400A80ED050A9DED101A1C4C60EE62
:10371000810AC4ED000A20EE010A1A4D85ED000A67
:103720009FED198ADFED198AD4ED000AB0EE481A30
:10373000B0EE680A00F03FFC84ED000AD5ED000A07
:10374000B0EE481AB0EE680A00F035FC85ED000ACC
:1037500003B0BDEC048B30BC5DF814FB000000002E
:1037600000005E40EC51B81E85EBD13F881300206D
:10377000F05B00088FC2753CCDCCCCCCCCCC0C40DF
:1037800060140020A01400200000C8420000C8C23D
:1037900010B52DED048BB0EE408AF0EE608A9FEDFF
:1037A0001D9B51EC180B53EC192BFCF769FF11D240
:1037B00051EC180B9FED190B53EC102BFCF7FEFD91
:1037C000FCF71AFFBDEC048B81B20020BDE810406D
:1037D00001F0D2B953EC192B51EC180BFCF738FF60
:1037E00011D251EC180B9FED0F0B53EC102BFCF783
:1037F000E5FDFCF701FFBDEC048B80B20021BDE8C4
:10380000104001F0B9B9BDEC048BBDE8104000F0E8
:103810000DB80000000000000000000000000000E3
:103820000000594000000000000059C00021084677
:1038300001F0A2B97047FEF763BB000002480168BF
:1038400041F470010160704788ED00E00148FEF727
:10385000EEBF0000980300202DE9F0410268264DDC
:10386000264E274FDFF89CC0274B4FF08048A842D8
:1038700009D0404507D0B04205D0B84203D06045DA
:1038800001D0984203D122F070044A682243A84232
:103890001BD0404519D0B04217D0B84215D0604572
:1038A00013D0984211D0194CA0420ED0184CA0420F
:1038B0000BD0184CA04208D0174CA04205D0174C92
:1038C000A04202D0164CA04203D122F44074CA6830
:1038D00022434C6922F08002224302608A68C2625D
:1038E0000A688262A84201D0984201D10969016345
:1038F00001214161BDE8F081000001400004004069
:1039000000080040000C004000040140004001405D
:10391000004401400048014000180040001C0040E5
:103920000020004010B501F01F0101238B40046A04
:103930009C430462036A8A401343036210BD10B5BE
:1039400001F01F0104238B40046A9C430462036A54
:103950008A401343036210BDF0B5026A22F00102EF
:103960000262026A4368846924F0700424F003054B
:103970000C682C4322F002058A682A430E4E0F4F32
:10398000B04201D0B84205D122F00805CA682A43E6
:1039900022F00402B04201D0B84207D123F4807370
:1039A00023F400734D691D438B692B43436084618D
:1039B000496841630262F0BD00000140000401401B
:1039C000F0B5026A22F010020262036A426884695A
:1039D00024F4E04424F440740D6844EA052423F000
:1039E00020038D6843EA0513104D114EA84201D003
:1039F000B04206D123F08003CF6843EA071323F0D7
:103A00004003A84201D0B04209D122F4806222F4DE
:103A100000624D6942EA85028D6942EA8502426090
:103A20008461496881630362F0BD000000000140C9
:103A300000040140F0B5026A22F480720262026A58
:103A40004368C46924F0700424F003050C682C4317
:103A500022F400728D6842EA0522104D104EA842F1
:103A600001D0B04206D122F40062CF6842EA0722B8
:103A700022F48062A84201D0B04209D123F48053DD
:103A800023F400534D6943EA05138D6943EA051396
:103A90004360C4614968C1630262F0BD0000014037
:103AA0000004014030B5026A22F480520262046AC6
:103AB0004268C36923F4E04323F440730D6843EA8A
:103AC000052324F400548D6844EA0534084DA842C7
:103AD00002D0084DA84204D122F480424D6942EA46
:103AE00085124260C36149680164046230BD000010
:103AF0000000014000040140FDF7E0B901F002BA06
:103B000030B593B0364991ED000A8DED010A354884
:103B100090ED050A8DED020A90ED040A8DED030A81
:103B200090ED030A8DED040A90ED070A8DED050A6C
:103B300090ED0A0A8DED060A90ED0B0A8DED070A4D
:103B400090ED0C0A8DED080A90ED080A8DED090A3A
:103B500090ED090A8DED0A0A234890ED030A8DEDD8
:103B60000B0A91F8380000EE100AB8EE400A8DED0D
:103B70000C0A91ED070A8DED0D0A1C4890ED000A24
:103B80008DED0E0A1A4890ED050A8DED0F0A90EDA5
:103B9000040A8DED100A90ED030A8DED110A154807
:103BA00090ED000A8DED120A002401AD55F82400B5
:103BB000FCF73BFD41EC100B0FA053EC102B00F079
:103BC0000FFA112C02D20DA000F00AFA641C122C7C
:103BD000ECD313B00AA0BDE8304000F001BA0000F9
:103BE000A0140020C0130020200400206014002036
:103BF0008C130020F4130020256600002C00000028
:103C00000D0A000001F036BD4FF480610148FEF757
:103C100027B900000004024010B5806B0021C18567
:103C2000C184FFF795F810BD0168CA6822F490724C
:103C3000CA6001684A6922F001024A61016B0129E8
:103C400004D10168CA6822F01002CA60202180F8FD
:103C50003E1000210163704710B50168CA6822F068
:103C60004002CA60202180F83D10FFF723FA0020AF
:103C700010BD10B5044694F83E00222801D0022061
:103C800010BDA1684FF48052914201D1206920B14A
:103C9000A06A91421DD051B10BE0A06A2168496829
:103CA000C1F308010180A06A801CA06209E02169BB
:103CB00079B12168496801F07F010170A06A401C58
:103CC000A062E08D401E0004000CE08505D00020BD
:103CD00010BD216849680170F0E72068C16821F0D3
:103CE0002001C1602068C16821F48071C160206832
:103CF000416921F001014161202084F83E00206BE0
:103D0000012805D02046FFF79FF90020206310BD51
:103D10002068C16821F01001C160A18D2046FFF725
:103D200016F8F2E72DE9F041044620680169E268DF
:103D300021F4405111430161A1682069E269014306
:103D40006069104301432068C26849F20C639A43DA
:103D50000A43C26020684169A26921F4407111439D
:103D6000416133492068884202D03249884202D1F9
:103D7000FEF702FA01E0FEF7EFF9E16900231927E7
:103D800064253226B1F5004F28D061688B0F8A0078
:103D9000A0FB0701FCF716FA0146B0FBF5F07A42EA
:103DA000504301EB800006EB0010B0FBF5F000F093
:103DB000F002B1FBF5F002EB0012B1FBF5F07B4233
:103DC000584301EB800006EB0010B0FBF5F02168D2
:103DD00000F00F0010448860BDE8F08161684A1867
:103DE000A0FB07015B41FCF7EDF90146B0FBF5F0E4
:103DF0000201B1FBF5F06FF01803584301EB8000AE
:103E000006EBC000B0FBF5F000F0F80002EB40025A
:103E1000B1FBF5F0584301EB800006EBC000B0FBAE
:103E2000F5F0216800F0070010448860D4E7000036
:103E3000001001400014014081628285C28500218A
:103E40000164222280F83E2080F83C100168CA6894
:103E500042F48072CA6001684A6942F001024A6114
:103E60000068C16841F02001C1600020704790F8EF
:103E70003D10212901D0022070478168B1F5805F93
:103E800001D1016961B1016A4A1C026202680978C4
:103E90005160C18C491E0904090CC1840AD013E089
:103EA000016A02680988C1F308015160016A891C2E
:103EB0000162EEE70168CA6822F08002CA60006809
:103EC000C16841F04001C160002070470148FEF721
:103ED00041BF0000540100202DE9F04104462DEDC2
:103EE000028B0D46174620780026022827D0A868A6
:103EF000FCF79BFB41EC180BF868FCF796FB41ECD8
:103F0000100B00F093F853EC182B51EC100BFCF74E
:103F1000B7FB23D8A068401CA060296988421ED343
:103F20000220207095ED010AD5ED050A20EE200A49
:103F300084ED030AA660BDEC028BBDE8F081A068A9
:103F4000401CA060296901EB81018842F3D32670EF
:103F500095ED010A84ED030AA660ECE7A6602078DF
:103F600068B10128E7D16068401C6060E968884258
:103F7000E1D3267095ED010A84ED030ADBE768685A
:103F8000FCF753FB41EC180BF869FCF74EFB41ECD6
:103F9000100B00F04BF853EC182B51EC100BFCF706
:103FA0006FFBC8D201202070666095ED000A84ED99
:103FB000030AC0E7FEE7F0EE401AB0EE600AB4EE86
:103FC000E10AF1EE10FA02D8B0EE610A7047B4EEE1
:103FD000C10AF1EE10FAF9DBB0EE410A70470000B9
:103FE0000FB4054B10B503A9044A029800F03CF940
:103FF00010BC5DF814FB00009D4F00080C00002071
:1040000020F00040C0F1FF40C00F70470907090EC3
:10401000002804DB00F1E02080F80014704700F075
:104020000F0000F1E02080F8141D70472DED020B09
:10403000019820F0004001909DED000B02B0704708
:1040400000B52DED048BB0EE409AF0EE609A83B08F
:1040500051EC190BFCF723FC41EC180B18EE100A7D
:1040600018EE901A8DED008B002818BF0120084330
:1040700020F00040C0F17F6000F1E040C00F14D09C
:1040800019EE101A19EE900A8DED009B002918BF49
:104090000121084320F00040C0F17F6000F1E040C2
:1040A000C00F04BF012000F017F8B0EE480A03B0BB
:1040B000F0EE680ABDEC048B00BD02E008C8121FD8
:1040C00008C1002AFAD170477047002001E001C101
:1040D000121F002AFBD17047014908607047000099
:1040E000880000202DE9FF5F82B00021DDE9043067
:1040F000020DDDF840B0034318D044F61050A2F290
:10410000FF3242431514119801281FD0A5EB0B0074
:10411000401C5FEA000A4FF000064E4FDFF838916E
:10412000B046504615D5CAF1000413E01198012499
:104130004AA3012801D16FEA0B010298119AC0E944
:104140000031C0E9024206B0BDE8F09FCBF10000AB
:10415000DFE704460021404A491842EB0450CDE90C
:10416000001012E0E00707D032463B464046494681
:10417000FCF724F98046894632463B4610461946EC
:10418000FCF71CF906460F466410002CEAD1DDE965
:104190000401DDE90023BAF1000F06DAFCF70EF99D
:1041A00042464B46FCF70AF905E0FCF779F942462E
:1041B0004B46FCF775F904460E460022284BFCF7E7
:1041C0005FFA03D84FF0FF30014607E00022254B8D
:1041D00020463146FCF74BF8FCF7B2FB102409E00F
:1041E000002C0ADB0A220023FBF7ECFF039B303292
:1041F0001A55641E50EA0102F2D1641C039AC4F1FC
:1042000011031444119A012A03D0012208430DD14D
:104210000AE0084304D000204FF0110B119072E720
:10422000A3EB0B056D1E0DE05B4504DD4FF00002B6
:1042300005F1010504E003DA4FF00002A5F10105E4
:10424000002AECD002981199C0E90231C0E900457A
:1042500079E70000000014400000F03F300000004B
:104260000000F0430000E03F2DE9FF4F95B09A4673
:10427000884606460025EEE1252877D1002427460A
:10428000F94A0121039400E0044316F8013F203B62
:1042900001FA03F01042F7D130782A2811D06FF0DC
:1042A0002F033078A0F13002092A16D8039A44F07F
:1042B000020402EB820203EB42021044761C0390DC
:1042C000EFE758F8042B0392002A03DA504244F433
:1042D0000054039044F00204761C30782E2816D146
:1042E00016F8010F44F004042A280DD06FF02F02B5
:1042F0003078A0F13003092B09D807EB870302EBD4
:104300004303C718761CF3E758F8047B761C307813
:104310006C280FD006DC4C2817D068280DD06A28EE
:1043200014D104E0742810D07A280FD10DE044F4A1
:1043300000140AE044F4801401E044F4401472785C
:10434000824202D104F58014761C761C30786628EF
:104350000BD013DC582877D009DC002875D045280D
:10436000F6D04628F4D047281AD193E118E0632804
:1043700035D0642879D0652812D18BE1702873D0AC
:1043800008DC6728F1D069286FD06E280DD06F281F
:1043900006D1ACE073282CD0752874D0782853D07F
:1043A0005246179990476D1C54E1C4F302500228FD
:1043B00009D003280DD0D8F8001004280DD00D60C6
:1043C00008F1040846E1D8F80010EA17C1E90052E4
:1043D000F6E7D8F800100D80F2E70D70F0E718F856
:1043E000041B8DF8001000208DF80100EB46012021
:1043F00003E058F804BB4FF0FF3061074FF00001B5
:1044000002D40DE009F101018946B9420FDA814574
:10441000F8DB1BF809100029F4D108E009F10101CB
:1044200089468142FADB1BF809100029F6D103986E
:104430005346A0EB090721463846179A00F080FA48
:10444000284400EB090507E044E008E10DE01BF813
:10445000010B524617999047B9F10109F7D253461B
:1044600021463846179AF2E039E00A21C4F3025295
:104470004FF0000B0091022A06D058F8040BC11728
:10448000032A09D00AE023E008F1070020F0070220
:10449000F2E80201904605E000B2C117042A01D1FA
:1044A00040B2C117002906DA0A460021404261EBFA
:1044B00002012D2202E0220504D52B228DF80420D2
:1044C000012203E0E20701D02022F7E7914657E0FE
:1044D0000A2100E010214FF0000B00910BE01021A9
:1044E0004FF0000B44F004040827009103E008207B
:1044F0004FF0000B0090C4F30252022A05D058F886
:10450000040B0021032A08D008E008F1070020F07E
:104510000702F2E80201904603E080B2042A00D1CB
:10452000C0B24FF0000922072AD53278702A07D08E
:10453000DDF800C08CF0100C5CEA0B0C05D00EE02E
:1045400040228DF80420012208E050EA010306D041
:1045500030238DF804308DF8052002229146009B0F
:1045600083F0080353EA0B030AD150EA010201D198
:10457000620705D530228DF804204FF001097F1E17
:104580003278582A04D039A20C920CAA02920BE07D
:104590003BA2F9E75B46009AFBF714FE0C9B9B5C81
:1045A000029A521E0292137050EA0102F2D102984E
:1045B00004A9081A00F1200B600702D524F4803406
:1045C00000E001275F4502DDA7EB0B0000E00020C3
:1045D00000EB0B01009003984944401A0390E0035C
:1045E00006D453462146179A039800F0A9F90544CA
:1045F000002706E001A85246C05D179990476D1C40
:104600007F1C4F45F6DBE0030CD553462146179A35
:10461000039800F095F9054404E0302052461799BC
:1046200090476D1C0099481E00900029F5DC08E0B9
:104630000298029952460078491C029117999047B6
:104640006D1CBBF10001ABF1010BF1DC5BE100F093
:1046500065F90544761C307800287FF40DAE19B05A
:104660002846BDE8F08F00000928010030313233C0
:10467000343536373839616263646566000000009E
:104680003031323334353637383941424344454688
:1046900000000000600700D4062708F1070020F0A2
:1046A0000700F0E80223804603F0004C5FEA0C00AC
:1046B00001D097A009E0200501D596A005E0E0070C
:1046C00001D095A001E0AFF24C001390307823F0B8
:1046D000004365280CD006DC452809D046281DD0AB
:1046E00047287FD13BE0662818D067287AD136E08A
:1046F0000021112F01DB112000E0781CCDE9000121
:1047000004A90CA8FFF7EEFCDDE90D010C9A4FF0AF
:10471000000B07F10109109200914EE04FF00040AC
:104720000097CDE9011004A90CA8FFF7DBFCDDE937
:104730000D020C9B0F994FF0000B914610930092C5
:1047400011B9791C00EB0109B7EB090003D4C0F1E2
:10475000FF3B07F10109A9EB0700019042E0012F9F
:1047600000DA01270021112F01DD112000E0384679
:10477000CDE9000104A90CA8FFF7B4FCDDE90D01A7
:104780000C9A00914FF0000BB946109221070FD4FC
:10479000009A4A4503DA914601E0A9F10109B9F10D
:1047A000010F05DD109AA9F10101515C3029F4D007
:1047B000B84202DA10F1040F03DA0121CDE9011049
:1047C00010E0002803DC8344A9EB000102E0411C57
:1047D000494500DD8946A0EB0B00401C01904FF0DD
:1047E00000400290200705D40198484502DB4FF0B5
:1047F000FF30019000208DF84B0002980DF14B071F
:10480000B0F1004F25D002200C902B200D90029883
:1048100000280CDA404202902D200D9007E00A217A
:104820000298FBF761FF3031029007F8011D0C99E7
:10483000481E0C900029F2DC02980028EFD1791E66
:104840000D980870307800F0200040F0450007F81F
:10485000020D11A8C01BC01D02901398007800B172
:10486000012000EB0901019801EBE071029801447D
:104870000398401A401E0390E00306D45346214695
:10488000179A039800F05CF805441398007818B163
:104890005246179990476D1CE00323D55346214695
:1048A000179A039800F04CF805441BE0BBF1000F89
:1048B00007DB0098584504DD1098179910F80B0095
:1048C00001E0179930205246904701980BF1010BF7
:1048D000401E05F10105019004D12E205246179982
:1048E00090476D1CB9F10001A9F10109DEDC05E07A
:1048F00017F8010B5246179990476D1C0299481EF4
:1049000002900029F4DC53462146179A03989EE64C
:104910002D0000002B000000200000002DE9F041D8
:10492000044600251E461746880404D405E039468F
:104930002020B0476D1C641EF9D52846BDE8F081E3
:104940002DE9F041044600251E469046C80301D5D6
:10495000302700E02027880404D505E0414638468A
:10496000B0476D1C641EF9D52846BDE8F0810000F3
:1049700070B586B000253748016841F48061016058
:10498000006800F48060009032481438016841F4F7
:1049900080010160016801F480010091016841F02B
:1049A00001010160016801F001010091016841F01D
:1049B00004010160016801F004010091016841F007
:1049C00020010160006800F0200000900F26019691
:1049D00003240294039501A91F48FDF759F94FF4E8
:1049E000607001900294039501A91C48FDF750F9ED
:1049F00001960294039501A91948FDF749F900F0C1
:104A00003DF8194C174820604FF080606060A56049
:104A1000E56000142061400060618000A061E561F4
:104A2000C00020622046FDF791F8A4F1480084639D
:104A3000A063022201213920FDF7B0FA3920FDF7E9
:104A4000A0FAA4F1B801372201F17000FCF720FCB4
:104A500006B070BD4438024000000240001402401D
:104A60000008024028640240500200201FB5009157
:104A7000019202936946FCF7C3FA1FBD10B52F4897
:104A80002D4901604FF48031416000218160C16097
:104A900001220261027680F820100B23C36141627B
:104AA000274B8362C16280F83020FCF7C5FB0723E7
:104AB000012200212148FFF7D9FF0723022201210B
:104AC0001E48FFF7D3FF0723032202211B48FFF7ED
:104AD000CDFF0723042203211848FFF7C7FF052253
:104AE000072311461548FFF7C1FF06220723114689
:104AF0001248FFF7BBFF07231A4619460F48FFF776
:104B0000B5FF072308220A210C48FFF7AFFF072350
:104B100009220B210948FFF7A9FF07230A220C21CC
:104B20000648FFF7A3FF07230B22BDE810400D2125
:104B30000248FFF79BBF000000220140080200204E
:104B40000100000F70B504460D4609483221C160CE
:104B500001464030FDF74CFD054A40321268506C6A
:104B600040F40041516403484463856370BD000014
:104B7000C80200200000014070B504460D460948F7
:104B80003222C26001466830FDF732FD054A6832C4
:104B90001268506C40F40043536403480460001DE5
:104BA000056070BDE80200203404014000219FED43
:104BB000080A002200EB810383ED000A00EB4103A9
:104BC000A3F85822491C9629F4DB80F88423704707
:104BD00000000000064B4FF40061002803D00022C3
:104BE0001846FDF745B901221846FDF741B9000006
:104BF000001802402DE9F0412DED028B00242548DC
:104C0000244D254F007B683D9FED248B05F1340634
:104C1000002809D00020FFF7DDFF3C802C76347699
:104C2000BDEC028BBDE8F0811E4890ED000A10EE4D
:104C3000100AFBF7FAFC41EC100BFFF7F7F953EC05
:104C4000182B51EC100BFBF703FDE9D2164890ED41
:104C5000000A10EE100AFBF7E8FC41EC100BFFF71E
:104C6000E5F953EC182B51EC100BFBF7F1FCD7D204
:104C700000F0AEFE00F07CFA0120FFF7ABFF9FEDE5
:104C80000B0A85ED090A86ED090A0120287630769F
:104C90003C80C5E7F4130020540000209A999999AC
:104CA0009999B93F60140020A01400200000000072
:104CB00000B587B00C48016841F040010160006810
:104CC00000F0400001904FF400600290012003903A
:104CD00004900220059002A90448FCF7D9FF0120A6
:104CE000FFF778FF07B000BD3038024000180240DF
:104CF00010B5084A064B1360516000219160D060E6
:104D00001046FDF709FDBDE810400248FDF748BD1B
:104D1000001000409803002030B58BB004462C21D1
:104D20006846FBF799FA0020474A00EB400101EB87
:104D3000C001009B32F811502B4400934B1C019D85
:104D400032F813302B4401938B1C029D32F8133040
:104D50002B440293CB1C039D32F813302B44039356
:104D60000B1D049D32F813302B4404934B1D059DFD
:104D700032F813302B4405938B1D069D32F8133007
:104D80002B440693CB1D079D32F813302B44079319
:104D900001F10803089D32F813302B44089301F108
:104DA0000903099D32F813302B4409930A310A9BF9
:104DB00032F8111019440A91401C0528B5DB0099FE
:104DC0000520B1FBF0F100910199B1FBF0F10191E7
:104DD0000299B1FBF0F102910399B1FBF0F103915B
:104DE0000499B1FBF0F104910599B1FBF0F1059143
:104DF0000699B1FBF0F106910799B1FBF0F107912B
:104E00000899B1FBF0F108910999B1FBF0F1099112
:104E10000A99B1FBF0F00A90009820800198608018
:104E20000298A0800398E080049820810598608112
:104E30000698A0810798E0810898208209986082EE
:104E40000A98A0820BB030BD9801002070B58AB0DE
:104E50000E9D194C174E26606360A560E0602261CC
:104E60006161002525766576A5760126E6762577AB
:104E700065772046FCF716FC10B101200AB070BD22
:104E8000059506950796009501950295039504955D
:104E900008960E20099069460748FCF7E5FA08B124
:104EA0000220EBE70448FCF7E3FC08B10320E5E748
:104EB0000020E3E7006400400414002070B50446BD
:104EC0000D4600210E48FCF757FB48B10C4A2B4613
:104ED000403200210A48FCF762FB18B1002070BD87
:104EE000002070BD064940310868A04203D188689F
:104EF00008B9C86808B1002070BD087C70BD00000A
:104F00000414002000B591B0FEF7AEFA00F0C8F925
:104F1000FFF770FE402206496846FBF784F9044813
:104F2000383828300FC8FEF719FB11B000BD00005B
:104F30004C13002010B52DED028BB0EE418AF0EE3F
:104F4000618AFEF7EDF8B0EE480AF0EE680ABDECB3
:104F5000028BBDE81040FEF71BBC00000149086051
:104F6000704700000400002010B50848FFF71EFE3F
:104F70000748FFF71BFE0748FFF718FE0648FFF734
:104F800015FEBDE8104000F089BA0000480400207A
:104F9000D0070020580B0020E00E002003490A68CB
:104FA0005206FCD5C2B24A607047000000100140B2
:104FB00070B504462DED028BD4ED000A30EEC00A28
:104FC00084ED070A94ED070A5049B0EEC00A10EECE
:104FD000100A884201DD012500E0002594ED000A59
:104FE00010EE100AFBF721FB41EC100BFFF71EF847
:104FF0009FED471B51EC100B53EC112BFBF740FBC3
:105000001BD294ED000AB0EEC00A10EE100AFBF7B6
:105010000CFB9FED411B53EC112BFBF7CFF994EDEB
:10502000070A41EC180BB0EEC00A10EE100AFBF7AD
:10503000FCFA53EC182BFBF723FB4FF000064DB1A5
:10504000E06B401CE063B0F5FA7F06D9012084F8DC
:10505000380002E0E66384F8386094ED000A10EE50
:10506000100AFBF7E2FA41EC100BFEF7DFFF9FEDB1
:105070002C1B51EC100B53EC112BFBF7E9FA01D26E
:1050800084F8386094ED070AD4ED080A30EE600A1F
:10509000D4ED030A60EE200A94ED040A94ED071A99
:1050A00020EE010A94ED071AD4ED081AB0EE002A9A
:1050B00001EEC21AD4ED091A31EE211AD4ED051A07
:1050C00021EE211A94F8380018B1D4ED0D1A21EE12
:1050D000800A30EE800A30EE010AD4ED010A30EE8B
:1050E000800A84ED010A94ED080A84ED090A94ED22
:1050F000070A84ED080A94ED010A10EE100AFBF786
:1051000094FABDEC028B41EC100B70BD0000A04086
:105110000000000000002E409A9999999999D93F72
:10512000000000000000084010B504462DED028B81
:10513000B0EE408AF0EE608A53EC112B51EC180B64
:10514000FBF795F841EC100B51EC180B53EC102BBE
:10515000FBF7A6F9C4E900019FED030B84ED020BF8
:10516000BDEC028B10BD000000000000000000003C
:10517000374900200870486088609FED360A08466D
:1051800080ED030A002010310870486088600846EE
:1051900080ED030ADFED301A4038C0ED001A80EDD3
:1051A000010ADFED2E0AC0ED020A4FF47A71C160E8
:1051B00042F2107202619FED2A1A80ED051A183032
:1051C000C0ED001A80ED010AC0ED020AC160026163
:1051D00080ED051A3830F3EE080AC0ED000AB7EE8C
:1051E000001A80ED021A9FED1F0A80ED010A0C30B3
:1051F000C0ED000A80ED021A80ED010A1A4880ED28
:105200000C0ADFED1A0AC0ED010ADFED190AC0ED44
:10521000000A80ED070A80ED090A80ED080A80ED9A
:105220000A0A80ED0B0A134880ED0C0A9FED121A52
:1052300080ED011AC0ED000A80ED070A80ED090A31
:1052400080ED080A80ED0A0A80ED0B0A7047000025
:10525000100400200000C8420000DC42000096421A
:10526000C3F5283F000000008C130020B29DEF3DE5
:105270003108AC3DC0130020AE47E13D0148FCF7CA
:1052800038BE000008130020044A034B136050602E
:1052900091601046FCF700BE00300040081300206B
:1052A0002DE9F0412DED048B00250127384E9FEDAF
:1052B000399B3A4C94F9000010FB00F194F901007D
:1052C00010FB0010FBF75BF941EC100BFEF7B8FE8A
:1052D000B0EE408AF0EE608A9FED310B51EC180B76
:1052E00053EC102BFBF7B4F904D2257065703573BD
:1052F000777326E03773757353EC192B51EC180B49
:10530000FBF7BEF91DD253EC182B51EC190BFBF730
:10531000C7F841EC180B94F90000FBF730F953EC97
:10532000182BFBF74BF8FBF748F9207094F90100B4
:10533000FBF725F953EC182BFBF740F8FBF73DF989
:10534000607094F90000FBF71AF941EC100B164855
:1053500000F074F851EC100BFBF72FF90C4DB83D31
:10536000288094F90100FBF70AF941EC100B0F4873
:1053700000F064F851EC100BFBF71FF92988494243
:10538000298040426880BDEC048BBDE8F0810000BC
:10539000F41300200000000000005E4061000020C7
:1053A0000000000000002840B8120020A8120020D1
:1053B00030B587B01748016841F00201016001680B
:1053C00001F002010191016841F0100101600068E3
:1053D00000F0100001904FF48064029401200390CB
:1053E0000490022005900C4D02A92846FCF750FCC1
:1053F0006201029202A90948FCF74AFC00222146F8
:105400002846FCF735FD002221462846FCF730FDF2
:1054100007B030BD303802400004024000100240A6
:1054200010B5044694ED0C1AD4ED080AB1EE410A09
:10543000FEF7C1FD84ED090A10BD000010B5044659
:105440002DED068BB0EE40AAF0EE60AA94ED008B35
:105450009FED100B53EC182B51EC100BFAF7A8FF33
:1054600094ED022B53EC122BFAF7A8FF41EC190B29
:1054700053EC1A2B51EC180BFAF7A0FF53EC192B35
:10548000FAF7F5FEC4E9020141EC100BBDEC068B06
:1054900010BD0000000000000000F03F10B52DED31
:1054A000068B9FED428BB0EE481AF0EE681A9FED26
:1054B00041AB4248B0EE4A0AF0EE6A0AFFF734FE0A
:1054C0003E48B0EE481AF0EE681AB0EE4A0AF0EE26
:1054D0006A0A1030FFF728FE3848B0EE481AF0EE9E
:1054E000681AB0EE4A0AF0EE6A0A2030FFF71CFE96
:1054F0003248B0EE481AF0EE681AB0EE4A0AF0EE02
:105500006A0A3030FFF710FE9FED2D9B2B48B0EE5E
:105510004A0AB0EE491AF0EE691AF0EE6A0A403013
:10552000FFF702FE2548B0EE491AF0EE691AB0EE18
:105530004A0AF0EE6A0A5030FFF7F6FD9FED22AB03
:105540001E48B0EE491AF0EE691AB0EE4A0AF0EEC3
:105550006A0A6030FFF7E8FD1848B0EE491AF0EE2D
:10556000691AB0EE4A0AF0EE6A0A7030FFF7DCFD05
:105570009FED179B1148B0EE481AF0EE681AB0EE96
:10558000490AF0EE690A8030FFF7CEFDB0EE481A06
:10559000F0EE681AB0EE490AF0EE690ABDEC068B2F
:1055A0000648BDE810409030FFF7BEBD0000000087
:1055B00000408F40000000000000244068120020DE
:1055C0000000000000005940000000000000004002
:1055D000000000000000494010B5FDF7A1FF0020C9
:1055E00010BD10B52DED028BF0EE408AB0EE608A52
:1055F00018EE900AFEF704FD20B1B0EE480ABDECAB
:10560000028B10BD18EE100AFEF7FAFC10B1B0EED6
:10561000680AF4E7F4EEC88AF1EE10FA02D2B0EEAE
:10562000480AECE7B0EE680AE9E710B52DED028B09
:10563000F0EE408AB0EE608A18EE900AFEF7E0FCC9
:1056400020B1B0EE480ABDEC028B10BD18EE100A76
:10565000FEF7D6FC10B1B0EE680AF4E7F4EEC88AA3
:10566000F1EE10FA02D2B0EE680AECE7B0EE480AAA
:10567000E9E7000010B52DED028B0B48406AFAF700
:10568000D4FF41EC180B08483438406AFAF7CDFFD4
:10569000B0EE481AF0EE681ABDEC028B41EC100B2C
:1056A000BDE81040FFF746BCC013002070B52DEDDB
:1056B0000E8BAF4D2888E988401AFAF760FF9FEDFE
:1056C000ADEB53EC1E2BFAF779FE9FEDACBB53EC20
:1056D0001B2BFAF773FEFAF7EBFFAA4C2061FAF7DF
:1056E000A4FF41EC100BA848FFF7A8FE51EC100BEB
:1056F000FAF7DEFF0DEE900AC4ED04DA9FEDA38BFE
:105700009FEDA49B9FEDA5AB9FEDA6DAF5EEC0DA69
:10571000F1EE10FA2EDDA888FAF742FF53EC1B2BAE
:10572000FAF74CFE53EC182BFAF748FE53EC192B02
:10573000FAF73EFE41EC1C0BB0EE6D0A00F0C4F926
:10574000FAF71DFF53EC1C2BFAF738FE53EC1A2B1B
:10575000FAF7A6FEFAF7ACFFE060FAF766FF41EC55
:10576000100B9148FFF76AFE51EC100BFAF7A0FFFF
:10577000E06035E0F5EEC0DAF1EE10FA2ED268887E
:10578000FAF70EFF53EC1B2BFAF718FE53EC182B0D
:10579000FAF714FE53EC192BFAF70AFE41EC1C0B36
:1057A000B0EE6D0A00F090F9FAF7E9FE53EC1C2B0D
:1057B000FAF704FE53EC1A2BFAF772FEFAF778FFA9
:1057C000E060FAF732FF41EC100B7748FFF736FE46
:1057D00051EC100BFAF76CFFE06001E084ED03DAA6
:1057E000E068FAF722FF9FED71CB53EC1C2BFAF720
:1057F000E5FDFAF75DFF00EE100AD4ED040A30EE85
:10580000C00A10EE100AFAF710FF9FED6A1B53EC66
:10581000112BFAF745FEFAF74BFF6061A88A698AF7
:10582000401AFAF7ACFE53EC1E2BFAF7C7FD53EC07
:105830001B2BFAF7C3FDFAF73BFF604C2061FAF728
:10584000F4FE41EC100B5E48FFF7F8FD51EC100B35
:10585000FAF72EFF0DEE900AC4ED04DAF5EEC0DA89
:10586000F1EE10FA2EDD288AFAF79AFE53EC1B2B84
:10587000FAF7A4FD53EC182BFAF7A0FD53EC192B03
:10588000FAF796FD41EC180BB0EE6D0A00F01CF92A
:10589000FAF775FE53EC182BFAF790FD53EC1A2B20
:1058A000FAF7FEFDFAF704FFE060FAF7BEFE41ECFE
:1058B000100B4448FFF7C2FD51EC100BFAF7F8FE4D
:1058C000E06035E0F5EEC0DAF1EE10FA2ED2E889AC
:1058D000FAF766FE53EC1B2BFAF770FD53EC182B0E
:1058E000FAF76CFD53EC192BFAF762FD41EC180B3B
:1058F000B0EE6D0A00F0E8F8FAF741FE53EC182B11
:10590000FAF75CFD53EC1A2BFAF7CAFDFAF7D0FE52
:10591000E060FAF78AFE41EC100B2A48FFF78EFD93
:1059200051EC100BFAF7C4FEE06001E084ED03DAFD
:10593000E068FAF77AFE53EC1C2BFAF73FFDFAF712
:10594000B7FE00EE100AD4ED040A30EEC00A10EEE5
:10595000100AFAF76AFE9FED1C1B53EC112BFAF7A5
:105960009FFDFAF7A5FE6061BDEC0E8B70BD0000D7
:10597000B00200206666666666A64240000000002F
:105980000000303F8C1300206812002066666666B7
:1059900066660A409D8026C286A7EF3F2758C05DF5
:1059A0002625753F00000000881200201B2FDD24F3
:1059B0000681B53FC1CAA145B6F3BD3FC013002063
:1059C0007812002098120020295C8FC2F528BC3F75
:1059D00028489FED270A80ED000A80ED010A80ED3E
:1059E000020A80ED070A80ED080A80ED090A9FEDA2
:1059F000222A80ED032ADFED210AC0ED040A80EDA2
:105A0000050A9FED1F1A80ED0D1ADFED1E1AC0ED7D
:105A10000C1A0021C163403080ED000A80ED010ABC
:105A200080ED020A80ED070A80ED080A80ED090A80
:105A300080ED032AC0ED040A80ED050A80ED0D1A01
:105A4000C0ED0C1AC163104880ED010A0F4880EDCB
:105A5000010A0F4880ED0B0A0E4981ED0B0A80ED1B
:105A60000A0A81ED0A0A80ED090A81ED090A7047E8
:105A700000000000601400205F29CB3BBD370637D3
:105A80000AD7233C6F12833A300400203C040020E4
:105A90008C130020C013002010B5044694ED0A0AB0
:105AA000D4ED0B0A70EE200AC4ED080A9FED041A2B
:105AB0009FED040AFEF77FFA84ED080A10BD00008E
:105AC0006666663F666666BFB5EEC00AF1EE10FA1E
:105AD00001DB01207047B5EEC00AF1EE10FAF9D2F1
