:020000040800F2
:100000009008002089010008B9190008BB180008F1
:10001000B519000845030008052500080000000088
:10002000000000000000000000000000991A000815
:1000300049030008000000006D1A00089B1A000820
:10004000A3010008A3010008A3010008A301000800
:10005000A3010008A3010008A3010008A3010008F0
:10006000A3010008A3010008A3010008A3010008E0
:10007000A3010008A3010008A3010008A3010008D0
:10008000A3010008A3010008A3010008A3010008C0
:10009000A3010008A3010008A3010008A3010008B0
:1000A000A3010008A3010008A3010008A3010008A0
:1000B000A3010008A301000885200008A30100088F
:1000C000A3010008A3010008A3010008A301000880
:1000D000A3010008F5240008A3010008A3010008FB
:1000E000A3010008A3010008A301000800F002F822
:1000F00000F03AF80AA090E8000C82448344AAF188
:100100000107DA4501D100F02FF8AFF2090EBAE885
:100110000F0013F0010F18BFFB1A43F0010318473B
:100120006040000080400000103A24BF78C878C1C9
:10013000FAD8520724BF30C830C144BF04680C60ED
:10014000704700000023002400250026103A28BF35
:1001500078C1FBD8520728BF30C148BF0B60704739
:100160001FB51FBD10B510BD00F06EF81146FFF7AA
:10017000F7FF02F007FB00F08CF803B4FFF7F2FF83
:1001800003BC02F067FA00000948804709480047AD
:10019000FEE7FEE7FEE7FEE7FEE7FEE7FEE7FEE737
:1001A000FEE7FEE704480549054A064B7047000094
:1001B000A31A0008ED00000890020020900800201B
:1001C000900400209004002070474FF0000200B51A
:1001D000134694469646203922BFA0E80C50A0E86A
:1001E0000C50B1F12001BFF4F7AF090728BFA0E818
:1001F0000C5048BF0CC05DF804EB890028BF40F8E4
:10020000042B08BF704748BF20F8022B11F0804F25
:1002100018BF00F8012B7047704770477047704750
:1002200010B500F009F8006810BD10B5044600F0E4
:1002300003F8046010BD0000004870473002002041
:1002400000487047300200207546FFF7F9FFAE46C0
:1002500005006946534620F00700854618B020B5D2
:10026000FFF7A0FFBDE820404FF000064FF0000769
:100270004FF000084FF0000B21F00701AC46ACE84E
:10028000C009ACE8C009ACE8C009ACE8C0098D46BB
:10029000704710B50446AFF300802046BDE810401B
:1002A000FFF76BBF2DE9F04104460E461049C868C0
:1002B00003F0BAFD8046314603F0CAFD074603F05D
:1002C00093FD05461CB90A48006845630EE0042CFE
:1002D00003D107480068856308E0082C03D104486F
:1002E0000068C56302E0024800680564BDE8F0816B
:1002F0004C0100202DE9F04104460E461049C86823
:1003000003F092FD8046314603F0A2FD074603F05C
:100310006BFD05461CB90A48006845630EE0042CD5
:1003200003D107480068856308E0082C03D104481E
:100330000068C56302E0024800680564BDE8F0811A
:100340009401002000BFFEE77047000070B504462E
:10035000002594F82100022803D00420A063012581
:1003600048E02068006820F00E00216808602068DE
:10037000006820F00100216808601F492068884259
:1003800001D1012026E01C4914312068884201D1A6
:1003900010201FE0184928312068884201D18015BB
:1003A00018E015493C312068884201D1801411E0E1
:1003B000114950312068884202D14FF4803009E061
:1003C0000D4964312068884202D14FF4801001E069
:1003D0004FF08070084908394860012084F82100F6
:1003E00000BF002084F8200000BF606B10B12046E1
:1003F000616B8847284670BD080002402DE9F84728
:100400000346002294466EE14FF0010808FA02F418
:10041000D1F8008008EA0400A0427DD1DFF8DCA218
:10042000D1F80480A8EB0A09D0453AD014DCB8F121
:10043000030F50D009DCB8F1000F31D0B8F1010F33
:100440001CD0B8F1020F49D120E0B8F1110F18D03B
:10045000B8F1120F42D11EE0B9F5881F25D006DC95
:10046000B9F5803F20D0B9F5801F37D11AE0B9F532
:10047000001F18D0B9F5041F30D117E0D1F80CC017
:100480002DE0D1F80C8008F1040C28E0D1F80C80A4
:1004900008F1080C23E0D1F80C8008F10C0C1EE0E8
:1004A00000BF00BF00BF00BF00BF00BFD1F8088081
:1004B000B8F1000F02D14FF0040C0BE0D1F8088026
:1004C000B8F1010F03D14FF0080C1C6102E04FF0AE
:1004D000080C5C6103E04FF0000C00E000BF00BFBF
:1004E000FF2801D8984601E003F104084646FF289A
:1004F00002D84FEA820803E0A2F108084FEA880810
:100500004746D6F800804FF00F0909FA07F928EAA4
:1005100009080CFA07F900E088E048EA0908C6F87B
:100520000080D1F8048008F08058B8F1805F7DD158
:1005300000BFDFF8CC81D8F8188048F00108DFF858
:10054000C091C9F81880C846D8F8188008F001088A
:10055000CDF8008000BF00BF4FEAB9384FEA9209DA
:1005600058F829504FEA82784FEA18794FF00F086F
:1005700008FA09F825EA0805DFF88881434502D121
:100580004FF0000816E0DFF88081434502D14FF0BC
:1005900001080FE0DFF87481434502D14FF00208F3
:1005A00008E0DFF86C81434502D14FF0030801E019
:1005B0004FF004084FEA82794FEA197908FA09F8EE
:1005C00048EA0505DFF84C814FEA920948F82950BE
:1005D000D1F8048008F48038B8F5803F0AD1DFF8FC
:1005E0003881D8F8008048EA0008DFF82C91C9F873
:1005F000008009E0DFF82081D8F8008028EA0008B0
:10060000DFF81491C9F80080D1F8048008F40038AC
:10061000B8F5003F10D1DFF8008108F10408D8F8E0
:10062000008048EA0008DFF8F09000E05AE009F1A5
:100630000409C9F800800DE0DFF8DC8008F1040847
:10064000D8F8008028EA0008DFF8CC9009F1040906
:10065000C9F80080D1F8048008F48018B8F5801F2C
:100660000ED1DFF8B48008F10808D8F8008048EA15
:100670000008DFF8A49009F10809C9F800800DE02E
:10068000DFF8948008F10808D8F8008028EA00080C
:10069000DFF8849009F10809C9F80080D1F80480D6
:1006A00008F40018B8F5001F0ED1DFF86C8008F1CF
:1006B0000C08D8F8008048EA0008DFF85C9009F1DF
:1006C0000C09C9F800800DE0DFF84C8008F10C0837
:1006D000D8F8008028EA0008DFF83C9009F10C09FE
:1006E000C9F80080521CD1F8008028FA02F8B8F14D
:1006F000000F7FF489AEBDE8F887000000001110FC
:100700000010024000080140000C014000100140B0
:1007100000140140080001400004014002469368B3
:100720000B400BB1012000E00020704710B5C268FB
:1007300021EA020302EA010443EA0443036110BD13
:100740000AB1016101E00B040361704701480068D0
:10075000704700003800002003480068034909780A
:10076000084401490860704738000020400000201C
:1007700010B50848006840F01000064908600520E0
:1007800000F080F80F2000F007F800F02BF80020B0
:1007900010BD00000020024070B504460E480078ED
:1007A0004FF47A71B1FBF0F00C490968B1FBF0F538
:1007B000284600F0E5FB08B1012070BD102C07D2DF
:1007C00000222146501E00F01EF80548046001E09A
:1007D0000120F2E70020F0E74000002000000020A8
:1007E0003C000020704701460846002809DB00F065
:1007F0001F0301229A4043099B0003F1E023C3F841
:10080000002100BF70472DE9F05F80460D46164677
:10081000002701F08DFE074639462A46334601F08F
:100820000700C0F1070ABAF1040F02D94FF0040A19
:1008300001E0C0F1070AD14600F1040ABAF1070F3E
:1008400002D24FF0000A01E0A0F1030AD4464FF0B3
:10085000010A0AFA09FAAAF1010A0AEA020A0AFADC
:100860000CFA4FF0010B0BFA0CFBABF1010B0BEA8E
:10087000030B4AEA0B042146404601F061FEBDE845
:10088000F09F000000BF00F00702064B19684FF60A
:10089000FF031940044B0B4343EA0221014B19604B
:1008A00000BF70470CED00E00000FA0570B504468B
:1008B0000D460CB9012070BD5A48006800F00700D1
:1008C000A8420ED25748006820F007002843554937
:1008D00008600846006800F00700A84201D0012027
:1008E000E9E7207800F0020002281DD1207800F00E
:1008F0000400042805D14C48406840F4E0604A49AF
:100900004860207800F00800082805D14648406873
:1009100040F46050444948604348406820F0F0008B
:10092000A168084340494860207800F0010078B38E
:100930006068012806D13C48006800F4003090B996
:100940000120B8E76068022806D13748006800F047
:10095000007040B90120AEE73348006800F00200A3
:1009600008B90120A7E73048406820F0030061681B
:1009700008432D494860FFF7E9FE064609E0FFF706
:10098000E5FE801B41F28831884202D9032092E7BC
:1009900007E02548406800F00C006168B0EB810F6B
:1009A000EDD12048006800F00700A8420ED91D488C
:1009B000006820F0070028431A49086008460068CC
:1009C00000F00700A84201D0012074E7207800F071
:1009D0000400042807D11448406820F4E060E1686E
:1009E000084311494860207800F00800082808D121
:1009F0000D48406820F46050216940EAC1000A496E
:100A0000486000F03FF808494968C1F30311074AFC
:100A1000515CC8400649086006480068FFF7BCFE04
:100A2000002048E70020024000100240D8400008A3
:100A3000000000203C0000200148006870470000D2
:100A40000000002000B5FFF7F7FF04494968C1F333
:100A50000221034A515CC84000BD00000010024062
:100A6000E840000800B5FFF7E7FF04494968C1F313
:100A7000C221034A515CC84000BD00000010024082
:100A8000E8400008F0B585B00FF26C0C9CE8E0106F
:100A900001A8A0E8E0101CA52D6800950021002207
:100AA000002300240020194D696801F00C05F5B100
:100AB000042D02D0082D19D101E0154819E001AD2F
:100AC000C1F38346AC5D01F4803555B10F4D6D68BF
:100AD000C5F340451DF805200D4D6543B5FBF2F308
:100AE00002E00C4D04FB05F3184602E000BF0A4883
:100AF00000BF00BF05B0F0BD0203040506070809EA
:100B00000A0B0C0D0E0F1010010200000010024025
:100B1000001BB70000093D0000127A00F8B504463A
:100B20000CB90120F8BD207800F00100002878D031
:100B3000F848406800F00C0004280CD0F5484068E4
:100B400000F00C00082811D1F248406800F4803011
:100B5000B0F5803F0AD1EF48006800F4003000286B
:100B60005FD0606800285CD10120DBE700BF6068CF
:100B7000B0F5803F06D1E748006840F48030E54991
:100B8000086028E0606858B9E248006820F48030C6
:100B9000E04908600846006820F4802008601AE0F8
:100BA0006068B0F5A02F0BD1DA48006840F48020CF
:100BB000D84908600846006840F4803008600AE0C0
:100BC000D448006820F48030D249086008460068A4
:100BD00020F48020086000BF606888B1FFF7B6FD90
:100BE000054606E0FFF7B2FD401B642801D903204B
:100BF00098E7C848006800F400300028F2D010E000
:100C0000FFF7A4FD054606E0FFF7A0FD401B6428A2
:100C100001D9032086E7BF48006800F400300028AF
:100C2000F2D1207800F00200022857D1B94840687C
:100C300000F00C0050B1B748406800F00C000828E4
:100C400018D1B448406800F4803098B9B1480068C1
:100C500000F0020020B12069012801D0012061E7E5
:100C6000AC48006820F0F800616940EAC100A94979
:100C7000086033E02069E8B10120A7490860FFF768
:100C800065FD054606E0FFF761FD401B022801D91E
:100C9000032047E79F48006800F002000028F2D0D8
:100CA0009C48006820F0F800616940EAC100994959
:100CB000086013E0002098490860FFF747FD0546EB
:100CC00006E0FFF743FD401B022801D9032029E776
:100CD0009048006800F002000028F2D1207800F06F
:100CE000080008282DD1A069B8B101208B490860FF
:100CF000FFF72CFD054606E0FFF728FD401B022804
:100D000001D903200EE78348406A00F00200002862
:100D1000F2D0012000F0ACFE13E000207F49086013
:100D2000FFF714FD054606E0FFF710FD401B022803
:100D300001D90320F6E67748406A00F00200002857
:100D4000F2D1207800F00400042873D10027714804
:100D5000C06900F0805070B900BF6E48C06940F0B3
:100D600080506C49C8610846C06900F0805000900E
:100D700000BF00BF01276A48006800F48070B0B966
:100D80006748006840F4807065490860FFF7DEFC42
:100D9000054606E0FFF7DAFC401B642801D9032072
:100DA000C0E65F48006800F480700028F2D000BF01
:100DB000E068012806D15748006A40F00100554913
:100DC000086227E0E06858B95248006A20F0010044
:100DD000504908620846006A20F00400086219E0E1
:100DE000E06805280BD14B48006A40F004004949EF
:100DF00008620846006A40F0010008620AE04548BF
:100E0000006A20F00100434908620846006A20F0A9
:100E10000400086200BFE068A0B1FFF797FC054638
:100E200009E0FFF793FC401B41F28831884202D968
:100E3000032077E622E03748006A00F0020000282D
:100E4000EFD012E0FFF782FC054608E0FFF77EFCDA
:100E5000401B41F28831884201D9032062E62D48C7
:100E6000006A00F002000028F0D1012F05D12948C6
:100E7000C06920F080502749C86100BFE069C8B34D
:100E80002448406800F00C00082860D0E06902287F
:100E900048D1002020490866FFF758FC054606E0C7
:100EA000FFF754FC401B022801D903203AE61948F9
:100EB000006800F000700028F2D1206AB0F5803F91
:100EC00007D11448406820F40030A1680843114954
:100ED0004860D4E9080108430E49496821F47411B7
:100EE00008430C49486001200B490866FFF72EFCB7
:100EF000054607E03DE0FFF729FC401B022801D929
:100F000003200FE60348006800F000700028F2D0CC
:100F10002FE00000001002400000424280044242E4
:100F200000700040002014490866FFF70FFC0546DA
:100F300006E0FFF70BFC401B022801D90320F1E576
:100F40000E48006800F000700028F2D111E0E0695E
:100F5000012800D1E6E50948466806F48031206A98
:100F6000814204D106F47011606A814201D00120EF
:100F7000D8E50020D6E50000000042420010024003
:100F800070B504462546681EB0F1807F01D301206C
:100F90000FE0681E4FF0E02148610F214FF0FF3055
:100FA00001F0CEFA00204FF0E021886107200861AF
:100FB000002070BD7047704710B504460CB9012081
:100FC00010BD94F83D0028B9002084F83C0020466C
:100FD00000F026F8022084F83D00211D206801F071
:100FE00059F8012084F8460000BF84F83E00012132
:100FF0003F200155402001554120015500BF00BF51
:10100000012084F842004320015544200155452029
:10101000015500BF012084F83D000020D0E700000A
:1010200038B504460D492068884215D100BF0C48E8
:10103000C06940F004000A49C8610846C06900F070
:101040000400009000BF00BF002201211E20FFF716
:10105000DAFB1E20FFF7C7FB38BD00000008004088
:1010600000100240014691F83D00012801D0012006
:101070007047022081F83D000868C06840F0010018
:101080000B68D860124B086898420BD00868B0F122
:10109000804F07D00F4B0868984203D00E4B08686A
:1010A00098420CD10868806800F00702062A0CD02C
:1010B0000868006840F001000B68186005E00868E7
:1010C000006840F001000B6818600020D0E70000C5
:1010D000002C01400004004000080040704710B59B
:1010E000044620680069C0F34000D8B12068C06899
:1010F000C0F34000B0B16FF0020021680861012028
:1011000020772068806900F0030018B12046FFF7BF
:10111000E5FF05E0204600F0ADF8204600F0BEF9FE
:101120000020207720680069C0F38000D8B12068D3
:10113000C068C0F38000B0B16FF00400216808619E
:10114000022020772068806900F4407018B12046A2
:10115000FFF7C4FF05E0204600F08CF8204600F0C1
:101160009DF90020207720680069C0F3C000D8B145
:101170002068C068C0F3C000B0B16FF008002168FB
:101180000861042020772068C06900F0030018B1CE
:101190002046FFF7A3FF05E0204600F06BF820464D
:1011A00000F07CF90020207720680069C0F300106F
:1011B000D8B12068C068C0F30010B0B16FF0100063
:1011C00021680861082020772068C06900F4407019
:1011D00018B12046FFF782FF05E0204600F04AF8EC
:1011E000204600F05BF9002020772068006900F0BD
:1011F000010058B12068C06800F0010030B16FF004
:10120000010021680861204600F0B4F920680069F7
:10121000C0F3C01058B12068C068C0F3C01030B12E
:101220006FF08000216808612046FFF7C3FE206848
:101230000069C0F3801058B12068C068C0F3801006
:1012400030B16FF0400021680861204600F0A4F939
:1012500020680069C0F3401058B12068C068C0F32E
:10126000401030B16FF02000216808612046FFF780
:10127000A2FE10BD704770B504460D46164600BF6D
:1012800094F83C00012801D1022070BD012084F8AF
:101290003C0000BF36B1042E1BD0082E31D00C2EDE
:1012A0005ED145E02946206800F040FF2068806953
:1012B00040F00800216888612068806920F00400FF
:1012C00021688861206880692969084321688861EC
:1012D00047E02946206800F059FF2068806940F403
:1012E0000060216888612068806920F4806021683E
:1012F000886120688069296940EA01202168886145
:101300002FE02946206800F075FF2068C06940F092
:1013100008002168C8612068C06920F004002168C5
:10132000C8612068C069296908432168C86118E05C
:101330002946206800F092FF2068C06940F40060F0
:101340002168C8612068C06920F480602168C86194
:101350002068C069296940EA01202168C86100E06D
:1013600000BF00BF00BF002084F83C0000BF00BFEA
:101370008BE710B504460CB9012010BD94F83D0070
:1013800028B9002084F83C00204600F025F802200F
:1013900084F83D00211D206800F07CFE012084F8C7
:1013A000460000BF84F83E0001213F200155402047
:1013B00001554120015500BF00BF012084F84200C3
:1013C00043200155442001554520015500BF01200F
:1013D00084F83D000020D0E710B586B00446002018
:1013E00002900390049005902068B0F1804F24D1C2
:1013F00000BF2748C06940F001002549C861084680
:10140000C06900F00100019000BF00BF00BF0846A6
:10141000806940F0040088610846806900F004009B
:10142000019000BF00BF0C20029002200390032017
:10143000059002A91748FEF7E1FF17492068884286
:1014400024D100BF1248C06940F002001049C861B1
:101450000846C06900F00200019000BF00BF00BF55
:101460000846806940F0040088610846806900F001
:101470000400019000BF00BFC02002900220039032
:101480000320059002A90348FEF7B8FF06B010BD7F
:1014900000100240000801400004004070470000B6
:1014A00070B504460D4615B994F83E000BE0042DC6
:1014B00002D13F20005D06E0082D02D14020005DF2
:1014C00001E04120005D012801D0012070BD1DB95F
:1014D000022084F83E000EE0042D03D102213F20BB
:1014E000015508E0082D03D102214020015502E0FA
:1014F00002214120015501222946206800F004FE06
:1015000019492068884201D1012000E0002028B15B
:101510002068406C40F4004021684864124920680B
:1015200088420BD02068B0F1804F07D00F49206867
:10153000884203D00E49206888420CD12068806818
:1015400000F00706062E0CD02068006840F001006D
:101550002168086005E02068006840F0010021680B
:1015600008600020B2E70000002C014000040040A9
:101570000008004010B5044605492068884205D19E
:1015800000F01CFA01F0C2F80249087010BD00001A
:1015900000080040DC010020704770472DE9F0474B
:1015A0000446206805682068C668206847694FF0CF
:1015B0000008C14605F00F08B8F1000F0AD105F088
:1015C000200038B106F0200020B1204600F094FE43
:1015D000BDE8F087B8F1000F71D007F0010018B92D
:1015E00006F4907000286AD005F0010030B106F4CE
:1015F000807018B1E06B40F00100E06305F004007A
:1016000030B107F0010018B1E06B40F00200E06378
:1016100005F0020030B107F0010018B1E06B40F0B6
:101620000400E06305F0080048B106F0200010B99E
:1016300007F0010018B1E06B40F00800E063E06BD8
:1016400068B305F0200028B106F0200010B1204654
:1016500000F052FE20684069C0F38019E06B00F092
:10166000080010B9B9F1000F22D0204600F024FE86
:101670002068406900F04000B0B12068406920F067
:10168000400021684861606B50B11848616B486345
:10169000606BFEF75BFE10B1606B416B88470CE03E
:1016A0002046FFF77AFF08E02046FFF776FF04E0C8
:1016B0002046FFF772FF0020E06389E7FFE705F0AF
:1016C000800030B106F0800018B1204600F0E2FE44
:1016D0007EE705F0400030B106F0400018B120462A
:1016E00000F0FAFD74E700BF72E70000A5220008D1
:1016F00010B504460CB9012010BDA06900B100E08E
:1017000000BF94F8390028B9002084F8380020463A
:1017100000F028F8242084F839002068C06820F4FC
:1017200000502168C860204600F036FE206800693D
:1017300020F49040216808612068406920F02A0068
:10174000216848612068C06840F400502168C86082
:101750000020E063202084F8390084F83A0000205B
:10176000CAE7000010B586B00446284920688842C0
:101770004AD100BF00BF2648806940F004002449D8
:1017800088610846806900F00400019000BF00BF36
:1017900000BF00BF00BF0846806940F004008861B8
:1017A0000846806900F00400019000BF00BF00BF40
:1017B00000BF00BF0846806940F480408861084649
:1017C000806900F48040019000BF00BF00BF481551
:1017D000029002200390012004900320059002A9AA
:1017E0000C48FEF70BFE4FF480600290002003903F
:1017F00002A90848FEF702FE2520FEF7F4FF0322A7
:1018000011462520FEF7FFFF06B010BD003801404D
:10181000001002400008014010B5034693F83A005A
:1018200020282FD101B10AB9012010BD00BF93F8C3
:101830003800012801D10220F7E7012083F83800A1
:1018400000BF99629A85DA850020D863222083F848
:101850003A0000BF002083F8380000BF1868C06855
:1018600040F480701C68E0601868406940F0010036
:101870001C6860611868C06840F020001C68E06067
:101880000020D2E70220D0E710B5044606492068C0
:10189000884208D1054800780549087001220349AB
:1018A0000448FFF7B9FF10BD0038014009000020CF
:1018B000080000200C010020704700BFFEE710B5B3
:1018C000FEF756FF4FF4801001F082FC482000F034
:1018D00017FF00F02FFF00F0FBFE00F0EFFE4FF4CB
:1018E000E13001F0A9FC10BD00B587B04FF0804099
:1018F000154908600320486000211348816040F2C8
:101900008331C1600021016180218161FFF731FDD8
:101910006020009000200190029004900822694607
:101920000948FFF7A8FC002001900C2269460648F0
:10193000FFF7A1FC08210448FFF7B2FD0C21024883
:10194000FFF7AEFD07B000BD4C01002000B587B029
:101950001648174908600320486000211448816038
:1019600040F28331C1600021016180218161FFF774
:1019700000FD602000900020019002900490002261
:1019800069460B48FFF777FC002001900422694666
:101990000748FFF770FC00210548FFF781FD04218F
:1019A0000348FFF77DFD07B000BD000000040040C4
:1019B0009401002000BFFEE770470000002025E0F2
:1019C00000EB4001144A02EB81010979E1B900EB17
:1019D000400132F82110491C89B200EB40020E4B45
:1019E00023F8221000EB400203EB8202528891425E
:1019F0000ADB002100EB400223F82210012100EB5A
:101A0000400203EB82021171411CC8B203490978FC
:101A10008842D5DB704700001C0000203400002005
:101A2000FFF74DFF00241CE004EB44000D4901EBDF
:101A30008000007968B104EB44010A4A02EB81019D
:101A400088688047002004EB4401064A02EB8101CC
:101A50000871601CC0B2044603490978884200DB63
:101A60000024E1E71C000020340000207047000043
:101A700008B508490968C9084FF47A72B1FBF2F158
:101A80004143009100BF00BF00994A1E0092002907
:101A9000F9D108BD00000020704710B5FEF75CFECC
:101AA00010BD70472DE9F04F89B0FE48007848B965
:101AB0000020FD49087000BF0122D102FB48FEF75B
:101AC0003FFE07E000BF00224FF40061F748FEF739
:101AD00037FE00BFF4480078072870D2DFE800F036
:101AE000041C80E3FEFDFC0000210820FEF7DAFB69
:101AF00000210C20FEF7D6FB00210846FEF7FAFB7A
:101B000000210420FEF7F6FB0020E9490880E9499E
:101B10000870E94908608BE2E5480088C8284FDA78
:101B2000E448007800284BD1E1480088401CE04997
:101B300008800846008801F0F8FD06460022DF4BC9
:101B400000F026FE0446DE4ADE4B01F03DFECDE904
:101B50000201D748008801F0E8FD06460022DA4B72
:101B600000F016FE0446D94AD94B01F02DFE8246FC
:101B70008B46CF48008801F0D8FD06460022D54BA1
:101B800000F006FE0446D44AD44B01F01DFE804608
:101B900052465B4602F03EF8CDE90001DDE9022342
:101BA00001F098FB0022CE4BCDE9040101F092FB3D
:101BB000CDE9060101F05CFBBF49086006E036E2B2
:101BC0000120BC4908700020B94908800021082084
:101BD000FEF768FBB84801680C20FEF763FB27E2BC
:101BE000B3480088C8284EDAB248007800284AD1A5
:101BF000AF480088401CAE4908800846008801F0C4
:101C000094FD06460022AD4B00F0C2FD0446AC4AEE
:101C1000AC4B01F0D9FDCDE90201A548008801F0E7
:101C200084FD06460022A84B00F0B2FD0446A74AF8
:101C3000A74B01F0C9FD804689469D48008801F008
:101C400074FD06460022A34B00F0A2FD0446A24A02
:101C5000A24B01F0B9FD824642464B4601F0DAFF45
:101C6000CDE90001DDE9022301F034FB00229C4BA9
:101C7000CDE9040101F02EFBCDE9060101F0F8FAEF
:101C80008D49086005E001208A49087000208849D4
:101C9000088000210846FEF72DFB874801680420D4
:101CA000FEF728FBC4E182480088C82852DA814840
:101CB000007800284ED17E480088401C7C4908806E
:101CC0000846008801F031FD064600227B4B00F0FB
:101CD0005FFD04467A4A02E03DE1B7E053E0794B0C
:101CE00001F072FDCDE902017148008801F01DFD8F
:101CF00006460022744B00F04BFD0446734A744BB9
:101D000001F062FD804689466948008801F00DFDBA
:101D1000064600226F4B00F03BFD04466E4A6F4BB7
:101D200001F052FD824642464B4601F073FFCDE979
:101D30000001DDE9022301F0CDFA0022684BCDE974
:101D4000040101F0C7FACDE9060101F091FA5A4900
:101D5000086005E0012057490870002054490880B8
:101D600000210820FEF79EFA534801680C20FEF778
:101D700099FA00210846FEF7BDFA4F480168042091
:101D8000FEF7B8FA54E14A480088C8284EDA4948B4
:101D9000007800284AD146480088401C4449088001
:101DA0000846008801F0C1FC06460022434B00F0C3
:101DB000EFFC0446424A434B01F006FD82468B4647
:101DC0003B48008801F0B1FC064600223E4B00F083
:101DD000DFFC04463D4A3E4B01F0F6FCCDE9000134
:101DE0003348008801F0A1FC06460022394B00F080
:101DF000CFFC0446384A394B01F0E6FC8046DDE969
:101E0000002301F007FF52465B46CDE9020101F0D5
:101E100061FA0022324BCDE9040101F05BFACDE911
:101E2000060101F025FA2449086005E00120214956
:101E3000087000201E4908801F4801680820FEF72E
:101E400031FA00210C20FEF72DFAF1E01848008845
:101E5000C82870DA1748007800286CD11448008828
:101E6000401C134908800846008801F05EFC0646C5
:101E70000022124B00F08CFC0446114A114B01F079
:101E8000A3FC804689460A48008801F04EFC0646BD
:101E900000220D4B00F07CFC04460C4A0C4B01F078
:101EA00093FC1FE0DC01002008000020000C014032
:101EB000180000201A000020140000200000084034
:101EC000FC68E388B5F8943E0000104082830DF46E
:101ED000F521243E000014405ACE61E3A79D943DB5
:101EE0000000E03FCDE902015348008801F01DFCED
:101EF00006460022514B00F04BFC0446504A514B21
:101F000001F062FCCDE90001DDE9022301F082FE6F
:101F100042464B46CDE9040101F0DCF9824600223D
:101F2000494B01F0D7F9CDE9060101F0A1F9474984
:101F3000086006E0FFE701204549087000203E499F
:101F40000880424801680020FEF7D4F900210420EF
:101F5000FEF7D0F96CE038480088C8284EDA3C48D3
:101F6000007800284AD134480088401C3249088053
:101F70000846008801F0D9FB06460022354B00F0E8
:101F800007FC0446344A354B01F01EFCCDE9020142
:101F90002948008801F0C9FB06460022304B00F0BA
:101FA000F7FB04462F4A304B01F00EFC8046894671
:101FB0002148008801F0B9FB064600221F4B00F0C3
:101FC000E7FB04461E4A1F4B01F0FEFB82464246D9
:101FD0004B4601F01FFECDE90001DDE9022301F0CF
:101FE00079F90022184BCDE9040101F073F9CDE92C
:101FF000060101F03DF91549086005E0012014498A
:10200000087000200C490880104801680820FEF77D
:1020100049F900210C20FEF745F90C480168002021
:10202000FEF768F900210420FEF764F900E000BF24
:1020300000BF09B0BDE8F08F180000200000144078
:102040005ACE61E3A79D943D0000E03F14000020BC
:102050001A00002000000840FC68E388B5F8943EB0
:102060000000104082830DF4F521243E10B500BF1E
:102070004FF400610248FEF759FB00BF10BD00009D
:10208000000C014010B50248FFF729F810BD000010
:10209000E801002010B50268184B984208D0B0F152
:1020A000804F05D0164B984202D0164B984203D170
:1020B00022F070024B681A43104B984208D0B0F1DE
:1020C000804F05D00E4B984202D00E4B984203D160
:1020D00022F44072CB681A4322F080034C6943EA31
:1020E000040202608B68C3620B688362034B9842F0
:1020F00001D10B6903630123436110BD002C014032
:10210000000400400008004030B501F01F05012424
:1021100004FA05F3046A9C430462046A01F01F0593
:1021200002FA05F52C43046230BD000030B5056AA3
:1021300025F001050562026A4368846924F0700491
:1021400024F003040D682C4322F002028D682A4318
:102150000D4DA84206D100BF22F00802CD682A43E7
:1021600022F00402084DA84207D123F4807323F41F
:1021700000734D692B438D692B43436084614D6827
:102180004563026230BD0000002C014030B5056A95
:1021900025F010050562026A4368846924F4E0446E
:1021A00024F440740D6844EA052422F020028D686E
:1021B00042EA05120E4DA84207D100BF22F080026C
:1021C000CD6842EA051222F04002094DA84209D129
:1021D00023F4806323F400634D6943EA85038D692A
:1021E00043EA8503436084614D688563026230BDC4
:1021F000002C014030B5056A25F480750562026A3D
:102200004368C46924F0700424F003040D682C436F
:1022100022F400728D6842EA05220F4DA84207D1D0
:1022200000BF22F40062CD6842EA052222F48062F7
:10223000094DA84209D123F4805323F400534D697A
:1022400043EA05138D6943EA05134360C4614D6891
:10225000C563026230BD0000002C014030B5056A44
:1022600025F480550562036A4468C26922F4E0429D
:1022700022F440720D6842EA052223F400538D686F
:1022800043EA0533064DA84204D124F480444D6945
:1022900044EA85144460C2614D680564036230BD40
:1022A000002C014070B505466C6A0020E085E08492
:1022B0002046FFF772F970BD0168C96821F490717A
:1022C0000268D1600168496921F001010268516129
:1022D000202180F83A10704710B504462068C06885
:1022E00020F040002168C860202084F83900204692
:1022F000FFF7E2FA002010BD70B5044694F83A00EA
:10230000222847D1A068B0F5805F0CD1206950B970
:102310000025A66A20684068C0F308003080A06AE3
:10232000801CA06215E0A56A0026A068B0F5805F59
:1023300003D0A06828B9206918B9206840682870BF
:1023400004E02068406800F07F002870A06A401C0C
:10235000A062E08D401E80B2E085C8B92068C068E8
:1023600020F020002168C8602068C06820F48070D8
:102370002168C8602068406920F001002168486138
:10238000202084F83A002046FFF77EFA002070BD36
:102390000020FCE70220FAE770B5044621680969CD
:1023A00021F44051E2681143226811612269A16859
:1023B0001143626941EA02052168C96841F20C6271
:1023C000914329432268D1602168496921F4407111
:1023D000A2691143226851612D4A2168914202D1BC
:1023E000FEF740FB01E0FEF72DFB00EBC00101EB27
:1023F000001162689200B1FBF2F100EBC00202EB47
:10240000001263689B00B2FBF3F26423B2FBF3F2A9
:1024100002EBC20303EB0212A1EB8201322202EBB8
:1024200001116422B1FBF2F101F0F00100EBC002F6
:1024300002EB001263689B00B2FBF3F26423B2FB71
:10244000F3F201EB021200EBC00101EB0011636833
:102450009B00B1FBF3F100EBC00303EB00136668D4
:10246000B600B3FBF6F36426B3FBF6F303EBC30647
:1024700006EB0313A1EB8301322303EB0111642369
:10248000B1FBF3F101F00F0111442268916070BDBE
:1024900000380140014691F83900212828D1886888
:1024A000B0F5805F0BD1086948B90A6A1088C0F39B
:1024B00008000B685860086A801C086205E00B6A17
:1024C000581C086218780B685860C88C401E80B28F
:1024D000C88458B90868C06820F080000B68D860CC
:1024E0000868C06840F040000B68D8600020704762
:1024F0000220FCE710B50248FFF750F810BD0000BD
:102500000C01002000BFFEE7490050EAC12018BFBF
:1025100004204A0D18BF40F0010040F2FF72B2EBF8
:10252000515F08BF40F00200012808BF0520704736
:1025300002480068C0F30220704700000CED00E084
:1025400010B5002804DB0A07130E054A135406E0F1
:102550000A07140E034A00F00F031B1FD45410BDCA
:1025600000E400E018ED00E02DE9F0414F1E00EB23
:10257000C7010446D1E9000115461E4637F00602A0
:102580000DD02A46334601F01FF97F1E04EBC70326
:10259000D3E9002300F09EFE37F00602F1D1022FAE
:1025A00025D0042F13D0062F18BFBDE8F0812A468E
:1025B000334601F009F9D4E90A2300F08BFE2A46DC
:1025C000334601F001F9D4E9082300F083FE2A46DE
:1025D000334601F0F9F8D4E9062300F07BFE2A46E1
:1025E000334601F0F1F8D4E9042300F073FE2A46E3
:1025F000334601F0E9F8D4E9022300F06BFE2A46E5
:10260000334601F0E1F8D4E90023BDE8F04100F0E1
:1026100061BE0000002213461046014900F016BFBB
:102620000000F03F00F056BE00221346104611464F
:1026300000F00CBF40F2013200204FF0E04101F009
:1026400005BD0000024A0020110701F0FFBC000098
:1026500001FDFFFF00BF704700B585B0002001906D
:1026600002900390049000BF1248806940F0080077
:10267000104988610846806900F00800009000BF9A
:1026800000BF4FF4404001900120029003200490CD
:1026900001A90948FDF7B2FE4FF440500190002017
:1026A00002900320049001A90348FDF7A7FE05B09E
:1026B00000BD000000100240000C014010B5FFF703
:1026C00013F9FFF743F9FFF7C7FF00F04DFD10BD09
:1026D00010B509480949086041F61F4048600021CB
:1026E000064881600921C16080218161FEF764FC98
:1026F0000248FEF7B7FC10BD00080040E8010020CA
:1027000001490860704700000400002010B54FF434
:1027100080510748FEF702F838B14FF400510448E1
:10272000FDF7FCFF08B1012010BD0020FCE7000010
:10273000000C014000B585B000BF1048806940F032
:1027400008000E4988610846806900F00800009082
:1027500000BF00BFC8140190012002900390032025
:10276000049001A90648FDF749FE00BF0122D102ED
:102770000348FDF7E5FF00BF05B000BD00100240B3
:10278000000C014010B5FFF74BF9002010BD000010
:102790002DE9F04D1D460C4698B0174621F000413A
:1027A00023F00043002814BF4FF0010C4FF0000C41
:1027B0000CEB440CFE4A0CEB02064FEA620C664539
:1027C0002BD33E0018BF012606EB45061644F94AF6
:1027D000964222D3F84A53EA070C02D0944205D11C
:1027E00048B918B000201146BDE8F08D002808BF98
:1027F0004FF0000C01D04FF0010C0CEB440212F52D
:10280000001F0AD8002F14BF4FF0010C4FF0000C2E
:102810000CEB450212F5001F07D918B03A462B46BB
:102820002146BDE8F04DFFF7FDBE0022DFF88CA386
:10283000002CB8BF534526DADFF884C36345A8BF30
:10284000022220DADFF870C39C451CDCDFF874C379
:102850000CEB235CBCF1140F08DDCCF1340627FA35
:1028600006FC0CFA06F6BE420DD108E05FB9CCF1C9
:10287000140623FA06FC0CFA06F69E4203D10CF06D
:102880000102C2F1020251EA000C19D1002D17DA3F
:10289000002C18BF022A01D0012A07D00220FDF720
:1028A000C4FC18B0BDE8F04DFFF7B4BE0220FDF740
:1028B000BCFCFFF7AFFE18B081F00041BDE8F08D21
:1028C000B7F1000C6CD1534525D104F1804212F5CB
:1028D000801201BF00280020B74918B008BFBDE82A
:1028E000F08DB548884207DC002DA1BF604629461F
:1028F00018B0BDE8F08D07E0281E05DA80F0004131
:1029000018B06046BDE8F08DAF497944D1E90001C7
:1029100018B0BDE8F08DDFF8A0C2634525D1002DC9
:102920001FDA19B1514512D1D8B909E0002840F099
:10293000EC82A24A214618B062F31E01BDE8F08D78
:102940000020214618B060F31E01BDE8F08D08DAC2
:1029500018B02346BDE8F04D02460020614600F065
:1029600075BD18B02146BDE8F08D514518DAB5F1B6
:10297000804F0DD0A5F1005CBCF1FF5C10D1B4F12B
:10298000000C0DDB18B06146BDE8F04D00F0FABB5D
:10299000234618B00246BDE8F04D194600F014BFBA
:1029A000060024F0004C3BD1D9B1514533D1002C65
:1029B00006DD002DA1BF0020514618B0BDE8F08D06
:1029C000002C01DD002D1BDB002C13DA002D11DBA8
:1029D000012A4FF0000014BF78497C4918B0BDE8C7
:1029E000F08D022A18BF002C0AD0012A08D1002C31
:1029F00006DA0AE0002CB8BF002D11DA012A04D053
:102A0000002018B00146BDE8F08D18B000204FF04E
:102A10000041BDE8F08DA1F14050B0F17F601AD0C7
:102A2000012000EBE47050EA020421D0624C521EF7
:102A30004FF0000B104304BF4FF0000B644C65488F
:102A400083427CDD644A654893421FDD884217DB80
:102A5000002D25DB37E0002C00DA4AB1022A0CBF3A
:102A600001204FF0FF3018B0BDE8F04D00F046BE39
:102A70000120FDF7DAFB18B0BDE8F04DFFF7D4BD3B
:102A80004D4A8A4202DC002D0ADC1CE0814202DA57
:102A9000002D18DA04E0484B994220DD002D12DDAC
:102AA0000220FDF7C2FBFFF7C5FD05460E460022DA
:102AB00053465846214600F087FE18B066F31E01C3
:102AC0002846BDE8F08D0220FDF7AFFBFFF7BAFD09
:102AD0000A46214618B062F31E01BDE8F08D0022BF
:102AE0003046614601F096F880460E466FF00102CE
:102AF00001F0ACFA4FF05532394B00F099FF4246E5
:102B0000334600F061FE0022364B00F091FF824612
:102B10004246334604911046194600F055FE52468F
:102B2000049B00F051FE8A4600904FF0C0422E4BAD
:102B30004046314600F048FE2C4A2B4B00E027E08F
:102B4000CDE906015146009800F03EFE8246019113
:102B5000274A284B4046314600F036FE5246019B3C
:102B600001F058F882460B4602460591DDE9060160
:102B700000F0B0FBDDE9062300268846304601F070
:102B800049F85246059B00F053FF024600F07EB91B
:102B90000020B1F5801F07DA35223046614601F08A
:102BA00055FA06466FF0340000EB215024E0000097
:102BB000FFFF1F00FFFF0F000000F03F0000F07F4D
:102BC0000000404301FCFFFF6A1800000000F0FF16
:102BD0000000F0BF0000E0410000F043FFFFEF3FC6
:102BE0005555D53F0000E03F4715F73FFE822B6566
:102BF00044DF5DF80BAE543EA0F2FF300190C1F30C
:102C0000130040F07F6141F040510291FE4988423B
:102C1000D8BF002004DDFD498142C8BF012001DD8D
:102C20000D9008E000200D900198401C0190029842
:102C3000A0F5801002900299F54878440B910D9907
:102C400000EBC100D0E900230F9330460A920B99A4
:102C500000F0E0FFCDE90601DDE90A2130460F9BD7
:102C600000F038FB02460B460020EA4900F0EEFB7C
:102C7000059102460B460090DDE9060100F0A4FD37
:102C80001490E5488A464FF000087844029900689D
:102C900012904FF0005040EA61010D980F9B01EB3C
:102CA000804000F5002109910A9A129800F0B2FFC5
:102CB00032460B9B00F0BCFE4246534600F084FDBA
:102CC0000646029140465146099B129A00F07CFD4F
:102CD000DDE9062300F0ACFE3246029B00F09AFFCD
:102CE000059B009A00F070FD0091149A04905346E1
:102CF0001046194600F068FD06460246C7480B46D6
:102D0000029106217844FFF72FFCCDE90510029BC4
:102D100032461046194600F057FDDDE9053200F055
:102D200053FD05910646534640461946149A00F055
:102D3000D1FA009B049A00F047FD3246059B00F053
:102D4000C9FACDE90510424653461046194600F02F
:102D50003BFD0022B24B02910A9000F0BBFADDE984
:102D6000053200F0B7FA0E464246AD4B404600F041
:102D700051FF029B0A9A00F04DFFDDE9053200F099
:102D800057FE424602910A9033461046514600F0E3
:102D90001BFDCDE906015346149A02990A9800F0EA
:102DA00013FD8A460290334642460099049800F08B
:102DB0000BFD5346029A00F08DFA82460B460246FE
:102DC0000591DDE9060100F085FADDE90623002022
:102DD0008846064600F01EFF5246059B00F028FE7E
:102DE000824609914FF060428E4B3046414600F0DA
:102DF000EBFC049006918C4A8A4B5046099900F0EE
:102E0000E3FC82460291894A894B3046414600F0F4
:102E1000DBFC5246029B00F05DFA864B7B440D9A28
:102E200003EBC203D3E9002300F054FA0E9007919C
:102E3000019800F063FC0591DDE9061382460E9AC5
:102E4000049800F047FA7C4A7A440D9B02EBC303D6
:102E5000D3E900230093029200F03CFA5246059B0E
:102E600000F038FA0026884652463046059B00F0AE
:102E7000D1FE009B029A00F0CDFE069B049A00F062
:102E8000C9FE079B0E9A00F0D3FD024600200B46B8
:102E900002903846294600F097FC824601912B4665
:102EA00038461946029A00F0B5FE3246434600F015
:102EB0008BFC5246019B00F00DFA07468A463246CB
:102EC00043462946029800F07FFC05460E463A46E6
:102ED000534600F0FFF9594A8846914221DBA8EB9E
:102EE000020353EA000210D12A46334600F092FE54
:102EF000CDE90401524A534B3846514600F0EAF9F5
:102F0000DDE9042300F05EFD21D20220FDF78DF9FA
:102F1000FFF790FB0A46214618B062F31E01BDE898
:102F2000F08D494B28F000429A4210D3474A08EBF3
:102F3000020353EA00027FF4C6AD2A46334600F08E
:102F400069FE3A46534600F03DFD7FF6BCAD0022D7
:102F5000019228F000403E493E4A01EB2051824256
:102F600023DA481C4FF4801121FA00F040443A4A19
:102F7000C0F30A517A44394BA1F2FF31CB4020EA29
:102F80000303C0F3130040F48010C1F11401C840E2
:102F900012680190B8F1000FBCBF40420190284672
:102FA000314600F037FE05460E462A46334638467F
:102FB000514600F08FF94FF000084246284B40463A
:102FC000059100F001FCCDE90601264A264B40465A
:102FD000059900F0F9FB009102902A4633464046DD
:102FE000059900F017FE3A46534600F021FD1F4AAE
:102FF0001F4B00F0E9FB009B029A00F06BF90746BB
:10300000884602460B4635E08E9803007AB60B00E0
:10301000B21400000000F03FEA1400001814000091
:103020000000084009C7EE3FFD033ADCF5015B14E0
:10303000E02F3EBEF0120000B412000000009040ED
:10304000FE822B654715973C00CC904000346F3FC3
:1030500001FCFFFF0000E03F00120000FFFF0F0037
:10306000432EE63F396CA80C615C20BEEF39FAFEB6
:10307000422EE63FDDE9060100F02CF9DDE90623EA
:1030800005460E4600F0C6FD3A46434600F0D0FC29
:103090000F462A46334600901046194600F094FB2E
:1030A000824602462E4888460B4605217844FFF7A3
:1030B0005BFA5246434600F087FB2A46334600F04F
:1030C000B7FC80468A463B4628463146009A00F0C7
:1030D0007BFB3B46009A00F0FDF806910090002231
:1030E0004FF080434046514600F094FD0F460C904F
:1030F000424653462846314600F066FB3B460C9A52
:1031000000F0A4F9069B009A00F084FD2A4633469D
:1031100000F080FD0022134B00F08AFC0546019868
:103120000E4601EB00510815002810DC28463146F8
:10313000019A00F08BFFFFF7E7F9042808BFFFF7BB
:1031400081FA28463146019A00F080FF05460B4679
:1031500018B02A4658462146BDE8F04D00F034BB71
:10316000A01000000000F03F10B5012291030448B8
:10317000FDF7E6FA0122D1030148FDF7E1FA10BD9F
:10318000000C01402DE9F04106460F4600F05CFCC2
:10319000041E0D4618BF0120284320F00040C0F156
:1031A0007F6000F1E040C00F0ED0301C18BF01203E
:1031B000384320F00040C0F17F6000F1E040C00FD4
:1031C00004BF0120FDF731F820462946BDE8F08113
:1031D00030B58FB005460124282105A8FCF7F5FF7E
:1031E00014216846FCF7F1FF0120059000040690C9
:1031F0000020079002200C90C1030D910E9505A8A8
:10320000FDF78CFC04460CB100BFFEE70F200090D8
:1032100002200190002002904FF480600390002073
:10322000049002216846FDF741FB04460CB100BF43
:10323000FEE70FB030BD000010B5044609480A494A
:1032400008600846446000218160C16001618161BD
:103250000C214161FEF74CFA012204490248FEF7B5
:10326000DBFA10BD003801400C01002009000020ED
:1032700021F00042A2F16052B2F5801F01F000433C
:1032800028BFD2F17F6C0BD95FEA001C43EAC2026F
:1032900042EB507018BF704728BF20F00100704704
:1032A000B2F5801FBCBF184670474FEA410C1CF5B1
:1032B000001F02D2084600F092BE70B500F02EFB4F
:1032C00000000089FFF7F6BF4FF00040A0F5800036
:1032D0007047000010B591EA030F48BF83F0004328
:1032E00000F1A084841A71EB030C05D2121943EB90
:1032F0000C03001B61EB0C01DFF824E14FEA1154D1
:10330000A4EB135C1EEA430F18BF9EEA445F73D020
:1033100023EA0E03DCF1200E21EA045143F480136A
:1033200032D322FA0CFE10EB0E0023FA0CFE41EB16
:103330000E01CCF1200E03FA0EFE10EB0E0051F13F
:103340000001B1F5801FCCF1200E32D201EB045107
:1033500012FA0EF2BDE8104058BF7047401C38BF4B
:103360005FEA420218BF7047002814BF20F0010036
:1033700041F100014FEA410313F5001F38BF7047C8
:10338000A1F1C04100F018BB012A43EB0302ACF1EC
:10339000200CDCF11F0E32BF4FF0000E23FA0CF3AD
:1033A00010EB030041EB0451B4EB115FD0D0A1EB63
:1033B000045101F5801149085FEA300001EB045126
:1033C0000ED350F1000038BF12FA0EFE08D1BDE84E
:1033D0001040C9E7401C38BF5FEA4202CAD1C3E7C8
:1033E000BDE810404FEA410313F5001F38BF704796
:1033F000A1F1C04100F0E0BA9EEA445F08D011EAB2
:103400005E0FBDE8104004BF01F00041002070478E
:10341000BDE8104070B500F081FA00BF64FBBE3E0D
:103420000000E0FF02494FF0000000F0DDBD00BFEA
:103430000000F87F491058BFC1F140415B1058BFF0
:10344000C3F140438B42EFF3008070472DE9C04148
:1034500030B4DFF8A0C23CEA111418BF3CEA1314E0
:1034600000F0EC8081EA03051CEA111444EAD574EB
:1034700018BF1CEA131500F0C780A4EB05044FF039
:10348000004545EAC12145EAC32341EA505143EAD8
:10349000525304F17F74994204F500344FEAC0207E
:1034A0004FEAC22208BF904200F09C804FEA1365A9
:1034B0000FF24016765D4FEA134506FB05F7C7F19C
:1034C000807706FB07F74FEAD737A7FB03687642FA
:1034D000C8F58038A7FB06CE38BFA8F1010807FB66
:1034E00008E64FF0000EA6FB028CE6FB03CEDCF1F3
:1034F000000CCEF1004E38BFAEF1010EA6FB0C5809
:103500004FF000074FF00005E6FB0E87A1FB08C651
:10351000A0FB07CE16EB0E0645F10005E1FB0765A3
:1035200015F1E04E7EBFA4F580345FEA46066D419A
:1035300016F1800745F100054FEA17274FEA0666A6
:1035400047EA0567A6F1DE46B6F1805F4FEA15252A
:103550001FD9384624F0010C05EBC471BCF1FE6F95
:1035600001EB0C1102D8F0BCBDE8008124425CBF25
:1035700001F5801E9EEAC47F02D4F0BCBDE8008144
:10358000244238D4F0BCA1F1C041BDE8004100F0B4
:1035900013BA4FEAD22242EA43524FEAD323A7FB9F
:1035A00002864FEAD02040EA415007FB03661EEA3C
:1035B0000E0F4FEAD12105FB026658BFA6EB00565D
:1035C000B6EB00564FEA520E4EEAC37E18EB0E0ED3
:1035D00056EB530EBDD518EB02085E417F1C55F12A
:1035E0000005B6E74FF480154FF000074FF00006D6
:1035F0004FF00008ADE7F0BC4FF0000001F1C04112
:1036000001F00041BDE8008111EA0C1F0CEA13151E
:1036100000D00CE013EA0C1F00F025804FF00000F2
:10362000F0BC81EA030101F00041BDE80081F0BC7B
:10363000BDE8004181EA030100F0BEB9F0BCBDE87D
:10364000004170B500F06AF9097EFC3E00F007B851
:1036500081EA03014FF0000001F00041704781EA68
:10366000030100F0A9B9F0BCBDE800414FF0000033
:1036700021497047FFFDFBF9F7F5F4F2F0EEEDEBB1
:10368000E9E8E6E4E3E1E0DEDDDBDAD8D7D5D4D360
:10369000D1D0CFCDCCCBCAC8C7C6C5C4C2C1C0BFAC
:1036A000BEBDBCBBBAB9B8B7B6B5B4B3B2B1B0AFB2
:1036B000AEADACABAAA9A8A8A7A6A5A4A3A3A2A196
:1036C000A09F9F9E9D9C9C9B9A9999989797969551
:1036D00095949393929191908F8F8E8E8D8C8C8BED
:1036E0008B8A898988888787868585848483838275
:1036F000828181800000FF070000F87F10F0004207
:1037000048BF4042B0FA80F310FA03F10AD0C3F187
:103710001D0303F580634FEA415002EB035202EBB5
:10372000D12170474FF000007047B0FA80F310FAD3
:1037300003F10AD0C3F11D0303F580634FEA415042
:103740004FEA035202EBD12170474FF0000070475F
:1037500051EA030C17D41CF5801F58BFBCF5801F1D
:1037600000F10680994218BF704708BF9042704729
:1037700007D711F5801F58BF13F5801F19D4994240
:103780007047894270471CF5801F08D5BCF5801F23
:10379000F7D58B4218BF704708BF824270474FF47D
:1037A000001C1CEB410F38BF1CEB430F01D28B42B6
:1037B000704770B500F0B2F8922449004FF0005104
:1037C0004FF08053FFF736BEDFF848C170B51CEAF2
:1037D000111E1EBF1CEA13159EEA0C0F95EA0C0F72
:1037E00000F06F8081EA030423EA4C134EEAD47E92
:1037F00021EA4C1141F4801143F48013AE44A1FB43
:10380000024CA0FB0365AEF17F7E361955EB0C052B
:10381000A1FB034C4CF10003A0FB021C16EB0C06B1
:10382000654153F10003094218BF46F0010613F445
:10383000007F0BD14FEA03314FEA0530340341EAF0
:10384000155140EA16506FF003020AE04FEAC32117
:103850004FEAC520F40241EA555140EA56506FF054
:10386000020202EB2E4201EB025585EACE710AD02C
:103870005FEA440C18BF24F0004450F1000041F10D
:10388000000120EAD47040F2FE7C624500D270BD97
:10389000A84214BF4FF080444FF04044002E08BFB0
:1038A0000024BEF1806FA8BFA1F1C041BDE8704007
:1038B00080F282804FF0000001F1C04101F0004130
:1038C00070479EEA0C0F0CEA131518BF95EA0C0F0F
:1038D00006D04FF0000081EA030E0EF0004170BDEB
:1038E00000F01CF88900013E00F007B800F009B8AC
:1038F0004FEA430C5FEA5C5C08D081EA030100F008
:103900005BB84FEA410C5FEA5C5CF6D14FF0000017
:10391000014970470000FF070000F87F0EF1020E1A
:103920002EF0030E5EF8046B364205D4012A43EBF9
:10393000030515F5001F12D8012841EB010C1CF5F9
:10394000001F0CD80ED14FEAD17C15F5001F0CEBEF
:103950004C0C0CF1020C08BF4CEBD37C04E04FF094
:10396000080C01E04FEAD37C0CEB4C0526FA05F677
:1039700006F00706B6F1040C06D20EEB860CBDE885
:1039800070404CF0010C6047DFE80CF0090B0202BC
:103990004FF000414FF00000A1F5002170BD194625
:1039A0001046012851EB010418BFD4F5001484BF60
:1039B000002001F0004170BD0808A0F500114FEA99
:1039C0003101704753EA010C17D41CF5801F58BF12
:1039D000BCF5801F00F106808B4218BF704708BFFE
:1039E0008242704707D713F5801F58BF11F5801F1B
:1039F00019D48B4270479B4270471CF5801F08D535
:103A0000BCF5801FF7D5994218BF704708BF904298
:103A100070474FF4001C1CEB430F38BF1CEB410FE9
:103A200001D2994270470FB40CBC03BCFFF7C1BE72
:103A300091EA030F10B581F000413FF553AC83F0DC
:103A4000004300F0EFB800002DE9F04101F5801CC3
:103A5000BCF5001FC0F2C3804FEA115C21EA0C5193
:103A60000CF1FD0C41F480115FEA5C0C0CF5C07C9C
:103A700001D3400049413DA4890241EA90518702A7
:103A80008E0E0A0CA45D04FB04F602FB06F6C6F1DA
:103A90004046A4FB0662F60D46EA422606FB06F403
:103AA000A4FB01235242C3F1404338BF5B1EA6FB77
:103AB00002420024E6FB0324D20B42EA4446A6FB62
:103AC0000623A1FB02E2A3FB07E4A4184FF00002C7
:103AD00052F10002E3FB01426442C2F1404E38BFA2
:103AE000AEF1010EA6FB04234FF00002E6FB0E32FE
:103AF000A2FB03464FF00004B61954F10004E2FBA8
:103B00000264A1FB06E6A4FB07E816EB08064FF0EB
:103B1000000858F10008E4FB01687642C8F14058FB
:103B200038BFA8F10108A2FB06E4A3FB08E52D19A4
:103B30004FF0000454F10004E2FB0854A1FB05E639
:103B4000A7FB04E818EB06084FF0000656F1000644
:103B5000E1FB048618F1200556F10006A809A8F13A
:103B60001B08B10908F03F08B8F10A0F40EA866067
:103B70001CD901EB0C51BDE8F08100BFFCF5EEE86B
:103B8000E2DDD8D3CFCBC7C3C0BDB9B6B4B1AEACFC
:103B9000A9A7A5A3A19F9D9B9A9896959392908F74
:103BA0008D8C8B898887868584838281A0FB0068C1
:103BB00000FB01F208EB4208B8EB872807D5341860
:103BC00058EB0104D5D5401C51F10001D1E7341A5E
:103BD00078EB0104CDD4401E71F10001C9E75FEA22
:103BE0004C0C5FEA9C5C0DD105D34FF0000001F056
:103BF0000041BDE8F081BDE8F04170B5FFF78EFEF1
:103C00006DDBFFBEBDE8F0414FF00000004970479A
:103C10000000F87F10B591EA030F48BF83F000431E
:103C20003FF560AB841A71EB030C07D212198CF0CC
:103C3000004C43EB0C03001B61EB0C01DFF8A4E12B
:103C40004FEA1154A4EB135C1EEA430F18BF9EEA1F
:103C5000445F00F0B08023EA6E03524221EA04512F
:103C6000C3EB6E0338BF5B1EDCF1200E25D322FAB6
:103C70000CFE10EB0E0043FA0CFE41EB0E01CCF1F2
:103C8000200E03FA0EFE10EB0E0051F10001CCF1F4
:103C9000200E29D412FA0EF201EB0451BDE81040B7
:103CA00058BF7047401C1CBFB2F1004F704700283E
:103CB0000CBF491C20F00100704712EB020E43EBD1
:103CC000030218BF4FF0010E4EEA4202ACF1200C85
:103CD000DCF11E0E54D943FA0CFE10EB0E0051F12C
:103CE000FF31CCF11E0ED5D50EF1010E12FA0EFEEB
:103CF000404141EB010101EB445C5FEA5C5C10D99F
:103D000010EBDE7001EB045138BFBEF1004FBDE88F
:103D1000104018BF704700280CBF491C20F001005C
:103D2000704730D24FEAD42C11F5001124F400640E
:103D30001BD0B1FA81F20B3AA41AA41ED2F12003CF
:103D4000914030FA03F31943904001EBCC71002C01
:103D500001EB0451BDE81040A8BF704701F1C0411C
:103D60004FF0000001F000417047B0FA80F310FA04
:103D700003F100D110BDE41A173C4805C90AE4E775
:103D800001EB045110BD491001EB0451BDE8104096
:103D90004FEA300002E04FF0000170474A0008BFD0
:103DA0000042F8D0B2F5001F28BF704701F0004173
:103DB0004FF0000070479EEA445F07D011EA5E0FA3
:103DC000BDE8104004BF002100207047BDE810404E
:103DD00070B5FFF7A3FD00BF40DFF63E83F0004162
:103DE000104670470000E0FFC10DD1F19E0206DBD6
:103DF0004FEA002343F0004323FA02F070470042E9
:103E000007D54FEA4001B1F1FE4F02D24FF000005A
:103E1000704710B500F09DF849922480002070474B
:103E20006FEA200070470000B0FA80F310FA03F246
:103E3000C3F19D030AD0D90501EB1220530638BF08
:103E4000704700F1010008BF20F00100704700003A
:103E50004FF47F0C1CEAD0121EBF1CEAD11392EA69
:103E60000C0F93EA0C0F00F0478090EA010F48BF57
:103E700042F480724FF0004C4CEA00204CEA0121E1
:103E800002EB0302A0FB0113A2F50002002918BFF8
:103E900043F001035B0028BF4FEA330342EB2242A9
:103EA0005FEA132C4CEBC2502EBFBCEB436FB2F554
:103EB0007C0F70474FEA036CBCF1004F08BF20F045
:103EC0000100B2F57C0F38BF70470BD582F0FF02BE
:103ED00012F5803FC8BF704700F1C040D8BF00F066
:103EE0000040704700F5000C5FEA4C0C48BF70477B
:103EF000B0F1C04000F073B890EA010F0CEAD113A2
:103F000048BF42F48072624538BF634504D280EAFC
:103F1000010000F00040704710B500F01AF800BF33
:103F20008900013E00F007B800F009B85FEA410CD3
:103F30005FEA1C6C08D080EA010000F050B85FEA2C
:103F4000400C5FEA1C6CF6D14FF00040A0F58000F9
:103F500070470EF1020E2EF0030E5EF8044B244261
:103F600004D44FEA4102B2F17F4F11D84FEA400327
:103F7000B3F17F4F0CD80ED14FEAD07CB2F17F4F16
:103F80000CEB4C0C0CF1020C08BF4CEBD17C04E0A8
:103F90004FF0080C01E04FEAD17C0CEB4C0324FA03
:103FA00003F404F00704B4F1040C06D20EEB840C05
:103FB000BDE810404CF0010C6047DFE80CF007084A
:103FC00002024FF00040A0F5800010BD08464200FC
:103FD00018BFD2F1807288BF00F0004010BDFF21F1
:103FE00041EAD050C00570470CF00F03092B08BF01
:103FF000082000F059800A2B0BD0082B18BF7047FF
:1040000008BF1CF0400F0AD04FF000004FF0000135
:1040100070471CF0400F18BF4FF0004070471CF075
:10402000100F08D020F0704300F07F4242EAD30125
:104030004FEA4370704700F0604021F07F4242EA4F
:10404000000201F07F4040EA727070474FF0FF0CB1
:104050004CF4E06C1CEA11531CBF9CEA030C944521
:10406000C2BFDA4201EB02517047002B0DD0BCF108
:10407000000F0FD0002A01F00041A4BF41F0E04141
:1040800041F07F614FF00000704701F000414FF0B8
:104090000000704750EA01334FF09B0C18BF4CF002
:1040A000806C7FF4BFA970471CF4801F11D01CF4F2
:1040B000E02F03D06FEACC31490070474FF04050F9
:1040C000EFF3008222F0704242EA000282F300889D
:1040D00070474FF000007047000000000000000033
:1040E000010203040607080900000000010203049E
:1040F000000000000000F03F000000000000F83F5A
:1041000000000000000000000000004003B8E23F93
:10411000000000000000000006D0CF43EBFD4C3E45
:10412000033333333333E33FFFAB6FDBB66DDB3F3A
:104130004D268F515555D53F01411DA96074D13F82
:1041400065DBC9934A86CD3FEF4E454A287ECA3F7C
:104150003E5555555555C53F93BDBE166CC166BFFE
:104160002CDE25AF6A56113FF16BD2C541BDBBBEF7
:10417000D0A4BE726937663E000000000000000057
:10418000A0410008000000204400000028010008B1
:10419000E4410008440000204C08000044010008ED
:1041A0000024F400000000000000000000000000F7
:1041B0000000000000000000000000000000C80037
:1041C000000000006D200008000001000000000059
:1041D000A51A000802000000000000001000000006
:0441E00001000000DA
:04000005080000ED02
:00000001FF
