:020000040800F2
:10000000D0150020A10100082F3A00082D34000867
:100010008D370008D50F0008414800080000000097
:10002000000000000000000000000000553B000838
:100030008311000800000000AD3A00082D3F0008C1
:10004000BB010008BB010008BB010008BB010008A0
:10005000BB010008BB010008BB010008BB01000890
:10006000BB010008BB010008BB010008BB01000880
:10007000BB010008BB010008BB010008BB01000870
:10008000BB010008BB010008BB010008BB01000860
:10009000BB010008BB010008BB010008BB01000850
:1000A000BB010008BB010008BB010008BB01000840
:1000B000BB010008BB010008BB010008BB01000830
:1000C000BB010008BB010008BB010008BB01000820
:1000D000BB010008A5460008B1460008BB010008A6
:1000E000BB010008BB010008BB010008BB01000800
:1000F000BB010008BB010008BB010008BB010008F0
:10010000BB010008BB010008BB010008BB010008DF
:10011000BB010008BB010008413F0008BB0100080B
:10012000BB0100086D100008BB010008BB010008FE
:1001300091100008BB010008BB010008BB010008CA
:10014000BB010008BB010008BB010008BB0100089F
:10015000BB010008BB010008BB01000805470008FF
:10016000BB010008BB010008BB010008BB0100087F
:10017000BB010008BB010008BB0100080000000033
:10018000BB010008BB010008DFF810D000F070FDD3
:1001900000480047BD8A0008AFF30080D01500205A
:1001A0000648804706480047FEE7FEE7FEE7FEE711
:1001B000FEE7FEE7FEE7FEE7FEE7FEE7313F000869
:1001C000890100089FED1A1AF5EE000A40EE010AB7
:1001D000BDEEE00AF5EEC00A10EE100AF1EE10FADC
:1001E00038BF401E00EE100A1349F7EE001AB8EEB1
:1001F000C00A30EEC00ADFED0F0A20EE200AFCEE46
:10020000C00A10EE900AC0F3080000EE900A01EB5D
:100210008000F8EE600A90ED011A70EE600A90ED31
:10022000000A71EEE01A21EE800A00EE810A7047A2
:1002300083F9223E00000044EC940008B5EEC00AA9
:10024000F1EE10FA07D2DFED1E0AB4EEE00AF1EE8D
:1002500010FAA8BF7047DFED1B0AB5EEC00A60EECA
:10026000200ABDEEE01A11EE100AF1EE10FA38BFC6
:10027000401E00EE100A1549F7EE001AB8EEC00A4B
:1002800030EEC00ADFED100A60EE200ABCEEE00A94
:1002900010EE100AC0F3080000EE100A01EB800017
:1002A000B8EE400A90ED011A70EEC00A90ED000A17
:1002B00071EEE01A21EE800A00EE810A704700001C
:1002C000CD024CB483F9223E00000044EC940008B7
:1002D0002DE9F04F82B0466853680193058847883E
:1002E0004B88002000900888874201BFB2F800C008
:1002F0006545528893421EBF6FF0020002B0BDE810
:10030000F08F9FED412A4FEA970EC7F3400B00BFD5
:10031000DDE9000202EB800A4A6898464FF00009C6
:10032000B0EE420AB4465FEA0E0025D092ED001A04
:10033000DCED001A02EB8302DCED010A01EE810A1A
:1003400092ED001A02EB8302401ED2ED001A02EB7E
:10035000830200EE810A9CED021ADCED030A000420
:100360000CF1100C000C01EE210A92ED001A02EBC8
:10037000830200EE810AD9D117F0030026D0ACF138
:100380000404A2EB830210F0010F08D002EB8302F9
:10039000D4ED010A92ED001A241D00EE810A5FEAF5
:1003A0000B0013D002EB830CD4ED010A9CED001A74
:1003B00002EBC302401E00EE810AD4ED020A92ED68
:1003C000001A04F1080400EE810AEBD109F10100E2
:1003D000AAEC010A1FFA80F9486800EB8902A8F12B
:1003E00001001FFA80F8B8F1000F99D1009806EBD0
:1003F0008706184480B20090681E05042D0C87D132
:1004000002B00020BDE8F08F000000002DE9F05F91
:100410000546002092469B46884606468146402473
:100420001BE0284641464746224600F0A6FA5346BE
:100430005A46C01A914110D311461846224600F080
:100440008DFA2D1A67EB01084F4622460120002144
:1004500000F084FA17EB00094E41201EA4F10104BC
:10046000DFDC484631462A464346BDE8F09F40EA75
:1004700001039B0703D009E008C9121F08C0042A22
:10048000FAD203E011F8013B00F8013B521EF9D209
:100490007047D2B201E000F8012B491EFBD2704731
:1004A0000022F6E710B513460A4604461946FFF740
:1004B000F0FF204610BD2DE9FE4F804681EA030083
:1004C000C00F0C46009021F0004123F00045B8EB2E
:1004D0000200A94105D24046214690461C460B46E3
:1004E000024623F00040104347D0270DC7F30A000F
:1004F000C3F30A510290401A019040286BDAC3F30B
:10050000130040F4801B0098924620B10023D2EBE8
:10051000030A63EB0B0B01985946C0F140025046A9
:1005200000F01CFA06460D4650465946019A00F066
:1005300034FA10EB08006141002487EA115284EA82
:10054000E7731A4340D0009A62B3019A012A4FEA36
:10055000075215DC001B61EB02014FF0004202EA7A
:100560000752CDE90042001C41F5801132462B466E
:1005700000F06BFA03B0BDE8F08F40462146F9E782
:10058000001B61EB0201001C41F5801300185B4168
:100590002018A2F5001747EB030140EAD570B61901
:1005A0006D4111E06D084FEA360645EAC0754FEA25
:1005B0000752001B61EB0201001C41F58011490844
:1005C0004FEA30000019514132462B4603B0BDE8D6
:1005D000F04F00F02BBA0098012240000023D0EB2E
:1005E000020263EBE073009821464FEAE074B8EB37
:1005F000000061EB0401E9E783F000435BE781F071
:10060000004158E72DE9FE4F81EA030404F000445D
:1006100021F0004100944FF0000B23F0004350EA1A
:1006200001045ED052EA03045BD0C3F30A54C1F361
:100630000A552C44A4F2F3340194A0FB0254C1F3F4
:10064000130141F48011C3F3130343F4801301FB3E
:10065000024400FB034E840A970A44EA815447EAA5
:100660008357A4FB076802958D0A05FB07854FEAAF
:10067000932C04FB0C542705029D4FEA065847EAC9
:100680001637B5EB08056EEB070C870E920E47EA9E
:10069000811742EA8312A7FB0201B6EB0B0164EB60
:1006A00000042B0D43EA0C335E1844EB1C50DA4671
:1006B0005146E7FB0201C5F313044FEA0B3343EA4B
:1006C00014534FEA0432019C43EA0603A4F10C04DC
:1006D0000294009CCDE900B400F0B7F903B0BDE886
:1006E000F08F00200146F9E72DE9F04D81EA03047F
:1006F00004F0004B21F0004514464FF0000A23F0AF
:10070000004150EA050220D054EA01021DD0C5F391
:100710000A570246C5F31303C1F31300C1F30A5687
:1007200040F4801543F48013A7EB0608101BD6464F
:1007300008F2FD3873EB050002D308F1010801E06F
:1007400092185B41B8F1000F03DA00200146BDE8C2
:10075000F08D00204FF48011064684460EE0171BF2
:1007600073EB050705D3121B63EB050306434CEA45
:10077000010C49084FEA300092185B4150EA01072A
:10078000EDD152EA030012D082EA040083EA0501A7
:10079000084305D0101BAB4106D20122002306E01E
:1007A00000224FF0004302E06FF0010253101AEBF9
:1007B00006004CEB085110EB0A0041EB0B01BDE8C1
:1007C000F04D00F033B90EB5C10F80EAE070084477
:1007D000CA07002140F233438DE80E000A460B465B
:1007E00000F033F903B000BD0EB540F23341029181
:1007F0000021CDE900110A460B4600F026F903B0AE
:1008000000BD70B5C1F30A5201F000450024C1F3E8
:10081000130140F2FF3341F480119A4201DA0020C3
:1008200070BD40F233439A42A2F2334203DC52429B
:1008300000F0A3F800E090402C43F1D0404270BD9E
:10084000C1F30A5210B5C1F3130140F2FF3341F472
:1008500080119A4201DA002010BD40F233439A42DF
:10086000A2F2334203DC524200F087F810BD904000
:1008700010BD00F0004230F000400AD0C10D01F57B
:100880006071C0F3160042EA0151C20840071143EB
:10089000704700200146704730B5041E71F1000416
:1008A00004DB4FF00044404264EB0101141E73F17D
:1008B000000405DB1C464FF00043524263EB040387
:1008C0008B4208BF824230BD30B5041E71F1000476
:1008D00004DB4FF00044404264EB0101141E73F14D
:1008E000000405DB1C464FF00043524263EB040357
:1008F000994208BF904230BD01F0004330B421F06E
:10090000004150EA010206D00A0DA2F56072C1F35F
:100910001301002A02DC30BC00207047440F44EA77
:10092000C104C100E01830BC00EBC25000F047B871
:1009300030B50B46014600202022012409E021FAAF
:1009400002F59D4205D303FA02F5491B04FA02F5AC
:100950002844151EA2F10102F1DC30BD202A04DB7F
:10096000203A00FA02F1002070479140C2F12003C2
:1009700020FA03F3194390407047202A04DB203A01
:1009800021FA02F00021704721FA02F3D040C2F1AF
:1009900020029140084319467047202A06DBCB17F6
:1009A000203A41FA02F043EAE07306E041FA02F32A
:1009B000D040C2F1200291400843194670470029F7
:1009C000A8BF7047401C490008BF20F001007047D5
:1009D00010B4B0FA80FC00FA0CF050EA010404BF35
:1009E00010BC704749B1CCF1200421FA04F411FA8B
:1009F0000CF118BF012121430843A3EB0C01CB1DCF
:100A00004FEA00614FEA102042BF002010BC70473F
:100A100000EBC35010440029A4BF10BC7047401C19
:100A2000490008BF20F0010010BC704710B5141E2B
:100A300073F1000408DA401C41F1000192185B4197
:100A40001A4301D120F0010010BD2DE9F04D92466E
:100A50009B4611B1B1FA81F202E0B0FA80F2203285
:100A60009046FFF77BFF04460F4640EA0A0041EA42
:100A70000B0153465A46084313D0114653EA01006E
:100A800019D0C8F140025046FFF777FF05460E46E1
:100A9000504659464246FFF761FF084305D0012002
:100AA00004E020463946BDE8F08D0020054346EAC3
:100AB000E0762C4337430A986305E40AA0EB08006C
:100AC0000022FD0A44EA47540A3002D500200146BC
:100AD000E9E7010510196941DDE908450019694197
:100AE000BDE8F04DA2E770B521F0004303430CD000
:100AF000C1F30A550024D5EB040564EB0403D617B3
:100B0000AD1AB34102DB0020014670BD201841EB55
:100B1000025170BD2DE9F04D00231A461B1A8A417F
:100B200003DB00200146BDE8F08DC1F30A52C1F39A
:100B3000130141F480154FF0000BD10702D10018CA
:100B40006D41521E0027044640F2FF11384601EB6A
:100B5000620A3E468046024600204FF48011FFF7AD
:100B60000CFFC2197141BB1846EB0100B4EB030C3A
:100B700075EB000C04D3E41A65EB000517460E462E
:100B8000241908F101006D4180463428E3DDF9198C
:100B900046EB0600091BA84103D24FF0FF32134673
:100BA00001E0002213461BEB070046EB0A51BDE8AB
:100BB000F04DFFF73BBF00002DE9F041054621F065
:100BC00000400C46284309D0C4F30A5040F2334198
:100BD000884205DD28462146BDE8F0812846FBE72E
:100BE00040F2FE31884210DC0CDB4FEA043040EA70
:100BF000155050EA053105D0104804F0004101437A
:100C00000020E9E700200146E6E7A0F23340464233
:100C1000C6F1400228462146FFF7A0FE0746884657
:100C2000284621463246FFF7A8FE43463A46FFF7DC
:100C3000FDFE3246BDE8F041FFF790BE0000F03FF8
:100C4000C1F30A52C1F3130140F2FF3341F48011A2
:100C50009A4202DA00200146704740F233439A423A
:100C6000A2F2334202DC5242FFF787BEFFF776BEA4
:100C7000064C074D06E0E06840F0010394E80700E9
:100C800098471034AC42F6D3FFF782FAF09E000882
:100C9000109F000870B58C1810F8015B15F0070361
:100CA00001D110F8013B2A1106D110F8012B03E005
:100CB00010F8016B01F8016B5B1EF9D12B0705D40D
:100CC0000023521E0DD401F8013BFAE710F8013B56
:100CD000CB1A921C03E013F8015B01F8015B521E72
:100CE000F9D5A142D8D3002070BD10B50146886B5C
:100CF000026C12F0500F05D0026CD20626D500F01F
:100D0000EFFA10BD016C41F40071016401688A685A
:100D100012F0405F17D1027EAAB9CA6A12F4700FAE
:100D200002D08A6852050ED44A6822F020024A6036
:100D3000016C21F480710164016CC90403D4016C5D
:100D400041F00101016400F0C9FA10BD806BC26C72
:100D5000BDE810400846104710B5806B4021016483
:100D6000416C41F00401416400F0BAFA10BD10B5C5
:100D7000806B00F0B4FA10BD4A494A6822F4403250
:100D80004A604A6843681A434A6001684A6822F424
:100D900080724A6001684A68036942EA03224A6035
:100DA00001684A6822F040724A6001684A688368B4
:100DB0001A434A6001688A6822F400628A60016806
:100DC0008A68C3681A438A60816A6FF07062D14290
:100DD00014D001688A6822F070628A6001688A68AB
:100DE000836A1A438A6001688A6822F040528A60E6
:100DF00001688A68C36A1A438A6009E001688A68E0
:100E000022F070628A6001688A6822F040528A602B
:100E100001688A6822F002028A6001688A68037E9B
:100E200042EA43028A6090F8201089B101684A685A
:100E300042F400624A6001684A6822F460424A60F3
:100E400001684B68426A521E43EA42324A6004E03B
:100E500001684A6822F400624A600168CA6A22F4A2
:100E60007002CA620168CB6A828B521E43EA025248
:100E7000CA6201688A6822F400728A6001688A681E
:100E800090F8303042EA43228A6001688A6822F48E
:100E900080628A6001688A68406942EA80208860CE
:100EA000704700000023014010B504462DED068B6D
:100EB000B0EE409AF0EE608A4048D0ED000AC4EDF2
:100EC000010A91ED038AB0EE490A07F0A5FE00EE93
:100ED000900A94ED001AF8EEE00A60EE880A20EE1F
:100EE00081AA19EE100AFFF7C4FC9FED351B53ECE5
:100EF000112BFFF787FBFFF7FFFC00EE100A9FEDB9
:100F0000329BB5EEC00AF1EE10FA1ADDF0EE4A0A95
:100F100007F016FE10EE100AFFF7ABFC53EC192B8E
:100F2000FFF7C9FAFFF7E8FC00EE900AF4EEC88A72
:100F3000F1EE10FA02DDB0EE480A25E0B0EE680AE4
:100F400022E0B5EEC00AF1EE10FA19D2F0EE4A0A2C
:100F500007F0D2FD10EE100AFFF78BFC53EC192BB3
:100F6000FFF74AFBFFF7C8FC00EE900AB1EE480A13
:100F7000F4EEC08AF1EE10FA06D3B0EE680A03E090
:100F8000DFED130AB0EE600A94ED001A40EE010A9C
:100F900094ED010AB6EE001AFEEE001A20EE011AD8
:100FA00020EE210A03F057FC94ED011AC0EE010A6D
:100FB000BDEC068BB0EE600A10BD0000840E002070
:100FC000A01A2FDD2406C13F000000000000E03F12
:100FD00000000000FEE700000149012006F084BA8D
:100FE00016010020FFF7F8BFAFF300801CB50C49D5
:100FF000022006F079FA002009496A460B5C135476
:10100000401C0828FADB06489DF8001013380170D0
:101010009DF8011041709DF8021081701CBD000008
:101020002601002010B50B490B4C0022B1F8AE1080
:10103000A31E002904D00120E07020711A8010BD89
:101040001988491C89B219808142F8D91A80E27046
:10105000227110BDDC080020300100200249002070
:10106000A1F8AE0070470000DC08002006480068C8
:10107000000508D50549012048700348083001687B
:1010800041F40061016070470064024013000020D9
:1010900006480068800608D5054901200870034805
:1010A0000830016841F0200101607047046402408B
:1010B000130000200168CAB2103A1823B2FBF3F201
:1010C000064B9B5CC3656FF30901032A02D9091D16
:1010D000816500E08165806D70470000E494000840
:1010E00010B5014600208A6A8B694FF0C074002B4E
:1010F0000ED0B3F5005F1AD062B3012A2AD0022ABB
:1011000028D0032A03D1C96AC90100D5012010BD26
:101110001AB1012A06D0022AF9D1C96AC901F6D545
:10112000012010BDC96AA142FBD1012010BD52B1FE
:10113000012A0AD0022A06D0032AF7D1C96AA1429D
:10114000F4D1012010BD012010BDC96AC901FBD531
:10115000012010BD012010BD30B50468256825F4BC
:1011600080252560046863608368402B04D0036891
:1011700099600068C26030BD03689A600068C16011
:1011800030BD704778B50024009490F83C20012AC7
:1011900019D0012280F83C200A680725092A14D9B1
:1011A0000368DE680A3A02EB42029540AE43DE6015
:1011B0000A788B680A3A02EB420293400268D568CB
:1011C0002B43D36011E0022078BD03681E6902EB57
:1011D00042029540AE431E610A788B6802EB4202E0
:1011E0009340026815692B4313614A681F25072A3B
:1011F00013D203685E6B521E02EB82029540AE432F
:101200005E630A8893B20A79521E02EB820293400F
:101210000268556B2B43536328E00D2A13D20368F1
:101220001E6BD21F02EB82029540AE431E630A88FA
:1012300093B20A79D21F02EB820293400268156BC7
:101240002B43136312E00368DE6A0D3A02EB82025D
:101250009540AE43DE620A8893B20A790D3A02EBFA
:10126000820293400268D56A2B43D362174A184B17
:1012700005689D4206D10D68122D03D1556845F4CD
:101280008005556005689D421BD10B68102B01D06D
:10129000112B16D1536843F40003536009681029D9
:1012A0000FD10C490C4A0968B1FBF2F101EB810145
:1012B0004900009102E00099491E0091009900291F
:1012C000F9D180F83C40002078BD000000230140A7
:1012D000002001400000002040420F00704770478E
:1012E000704770B504460026002C03D0206C002502
:1012F00010B107E0012070BD204600F01CF86564C5
:1013000084F83C50206CC00610D4206C20F4885027
:1013100040F0020020642046FFF72EFD6564206C3B
:1013200020F0020040F00100206400E0012684F873
:101330003C50304670BD7047F8B50446002300931A
:1013400094F83C00012807D0012084F83C00206874
:101350008568ED0702D014E00220F8BD856845F0ED
:10136000010585604648474D0068B0FBF5F000EB8D
:101370004000009002E00098401E00900098002875
:10138000F9D120688568ED0503D5856825F4807559
:10139000856020688568ED0768D0256C40F201669D
:1013A000B54345F4807525644068400505D5206C3B
:1013B00020F4005040F480502064206CC00404D518
:1013C000606C20F00600606400E0636484F83C30E8
:1013D0002D4EA36B2D48D863A36B2D481864A36BC7
:1013E0002C48D86423686FF0220018602068436896
:1013F00043F0806343602068836843F480738360B4
:10140000206813464C300A46A56B0146284600F07A
:1014100060FB70682049C00607D0206888422DD143
:10142000816811F0405F1CD028E0206888420FD00E
:101430001A4A904203D1D1F80423D20608D0184AA0
:1014400090421BD1D1F8041301F01F01102915D2CD
:10145000816811F0405F11D1816841F08041816065
:101460000CE0816841F08041816007E0206C40F031
:1014700010002064606C40F0010060640020F8BD42
:101480000000002040420F0000230140EB0C000848
:101490006F0D0008590D0008002001400021014097
:1014A0000022014010B590F82020012A07D0022A1E
:1014B00005D0416A41F480214162012010BD3C48C1
:1014C00000F50070026842F001020260026822F436
:1014D0007C52026002684B6A42EA032202600A7D83
:1014E00002F01F0301229A40C3699343C361A0F530
:1014F0000070CB69B3B9D0F80C329343C0F80C320A
:101500008C894B6864F31F434C6900EBC404C4F836
:1015100040320C890B6864F31F434C6900EBC40430
:10152000C4F84432CB69012B16D1D0F80C321343E6
:10153000C0F80C320C884B6864F31F434C6900EB15
:10154000C404C4F840320C89CB6864F31F434C696F
:1015500000EBC404C4F844328B697BB1D0F8043288
:101560001343C0F804320B6973B1D0F8143213433B
:10157000C0F81432096A01290CD010E0D0F8043206
:101580009343C0F80432EEE7D0F814329343C0F826
:101590001432EFE7D0F81C121143C0F81C12D0F837
:1015A000001221F00101C0F80012002010BD00005F
:1015B000006400400246002092F82030012B01D048
:1015C000022B04D121B11068006900F003007047BC
:1015D0001068C06800F00300704730B590F82040F4
:1015E000012C07D0022C05D0416A41F480214162D0
:1015F000012030BD21B104682469A4075FD003E055
:101600000468E468A40754D04FF4D874056804EB68
:1016100001142D5905F004059560F5B305682D59A1
:10162000ED08556005682C5904F00204D4604FF4AD
:10163000DA74056804EB01142D5905F00F051561E6
:1016400005682D59C5F30725956105682C59240CAB
:1016500054614FF4DC72046802EB0112A4581C7050
:101660000468A458240A5C700468A458240C9C7074
:101670000468A258120EDA704FF4DE72046802EBAE
:101680000112A4581C710468A458240A5C710468EF
:10169000A458240C9C71046800E016E0A258120EB5
:1016A000DA71B9B10068016941F0200101610020DF
:1016B00030BD416A41F400114162012030BD416AF0
:1016C00041F400114162012030BD05682D596D0DB6
:1016D0001560A7E70068C16841F02001C160E6E736
:1016E00070B50446002C03D094F8200010B104E03B
:1016F000012070BD204600F09DF82068016821F0AF
:101700000201016000F020FB054605260CE000F018
:101710001BFB401B0A2807D9606A40F40030606256
:1017200084F82060012070BD206840688007EED4F6
:101730002068016841F00101016000F005FB0546E9
:101740000CE000F001FB401B0A2807D9606A40F456
:101750000030606284F82060012070BD206840681D
:10176000C007EED0207E01283FD02068016821F01C
:1017700080010160607E01283DD02068016821F071
:1017800040010160A07E01283BD02068016821F063
:1017900020010160E07E012839D02068016841F015
:1017A00010010160207F012837D02068016821F0F6
:1017B00008010160607F012835D02068016821F0B0
:1017C00004010160D4E902010843D4E90412114381
:1017D00008436168491E08432168C86100206062AF
:1017E000012084F82000002070BD2068016841F0CD
:1017F00080010160BEE72068016841F0400101609E
:10180000C0E72068016841F020010160C2E720685C
:10181000016821F010010160C4E72068016841F00F
:1018200008010160C6E72068016841F00401016019
:10183000C8E7000030B587B00068194988422CD14C
:101840001848016841F008010160016801F00801D1
:101850000191016841F008010160006800F0080092
:10186000019010481030016841F00071016000687B
:1018700000F0007001900220029003900124049473
:10188000059009200690084D02A9284600F058F955
:10189000029402A9284600F053F907B030BD0000B9
:1018A0000064004030380240000C024070B504462D
:1018B00094F82000012805D0606A40F4002060629E
:1018C000012070BD022084F820002068016821F00A
:1018D0000101016000F038FA05460DE000F034FA2D
:1018E000401B0A2808D9606A40F400306062052075
:1018F00084F82000012070BD20684068C007EDD149
:10190000606270BD2DE9F0410446A76D00F01CFA3D
:10191000054694F835000026022806D08020606530
:1019200084F834600120BDE8F0812068016821F06E
:10193000160101602068416921F080014161206C3D
:1019400008B9A06C20B12068016821F0080101608D
:101950002068016821F0010101600BE000F0F4F95A
:10196000401B052806D9202034342062267003202D
:101970006070D8E720680068C007EFD134343F209A
:1019800094F828108840B86026700120607000200C
:10199000C9E790F83510022903D080214165012064
:1019A0007047052180F835100068016821F00101B9
:1019B00001600020704700002DE9F041044600F06E
:1019C000C3F905465CB1002684F83460022084F82F
:1019D00035002068016821F0010101600DE001205F
:1019E000BDE8F08100F0B0F9401B052805D92020A2
:1019F0006065032084F83500F2E720680068C007BE
:101A0000F0D121680A6820480240D4E90103184354
:101A1000D4E903352B43184363691843A36918437A
:101A2000E3691843236A18431043626A042A03D106
:101A3000D4E90B231A43104308602068406920F062
:101A40000700656A29460543012704290DD1A06ACC
:101A50000543E06A48B12046FFF742FB28B1402029
:101A6000606584F835700120BAE72068456120463A
:101A7000FFF720FB94F85C203F2191408160666570
:101A800084F835700020ABE73F8010F070B5044655
:101A9000002594F8340001280CD0012084F834008B
:101AA00094F835600020012E06D084F83400022519
:101AB000284670BD022070BD022684F8356060653E
:101AC0002046FFF749FB2068016841F001010160F1
:101AD000EEE72DE9F04104460025A66D94F83400A8
:101AE00001280DD0012084F8340094F835700020CE
:101AF000012F07D084F8340002252846BDE8F08184
:101B00000220FBE7022784F8357060652046FFF766
:101B100023FB94F85C103F208840B0602068016887
:101B200041F016010160206C20B12068016841F08D
:101B3000080101602068016841F001010160DCE7F3
:101B40002DE9F84F0022DFF89C914FF0010809F1D0
:101B5000040A03274FF00F0C0AF1040B08FA02F5F0
:101B60000B682B40AB4272D10C7904F00304012CBA
:101B700001D0022C15D18668540007FA04FE26EA2B
:101B80000E06D1F80CE00EFA04FE4EEA060EC0F87E
:101B900008E04468AC430D79C5F300159540254332
:101BA00045600C79E443A40708D0C568540007FADF
:101BB00004F6B5438E68A6402E43C6600C7904F047
:101BC0000304022C11D1D40800EB8406356A5407B3
:101BD000E40E0CFA04FE25EA0E05D1F810E00EFA28
:101BE00004FE4EEA050EC6F820E00568540007FA28
:101BF00004F6B5430E7906F00306A6402E430660B0
:101C00004C68E40067D5384C256845F4804525606C
:101C1000246804F480440094344C22F003052E1907
:101C2000D6F8085894074FEA147E0CFA0EF4A54330
:101C30002F4CA04201D1002424E02E4CA04201D11F
:101C400001241FE02C4CA04202D102241AE042E001
:101C50002A4CA04201D1032414E0294CA04201D116
:101C600004240FE0274CA04201D105240AE0264CB1
:101C7000A04201D1062405E0244CA04201D1072452
:101C800000E0082404FA0EF42C43C6F80848D9F8FA
:101C900000409C434D68ED0300D51C43C9F800404B
:101CA000DAF800409C434D68AD0300D51C43CAF8E8
:101CB0000040DBF800409C434D68ED0200D51C431A
:101CC000CBF80040074D0C352C689C434E68B6029B
:101CD00000D51C432C60521C102AFFF43FAFBDE816
:101CE000F88F0000003C01404438024000300140C1
:101CF000000002400004024000080240000C0240C4
:101D0000001002400014024000180240001C024073
:101D10000069084201D001207047002070474269E5
:101D200021EA02030A4043EA024181617047002A26
:101D300001D08161704709048161704701480068E2
:101D4000000C7047002004E00148806870470000E4
:101D50003801002070B50446002C11D021684CF6E3
:101D6000CC400860216845F255500860D4E9001065
:101D700048602168A0688860FFF7E6FF05460CE030
:101D8000012070BDFFF7E0FF401B302805D9206817
:101D9000C068800701D0032070BD2068C06880073C
:101DA000F0D121684AF6AA200860002070BD0068C2
:101DB0004AF6AA21016000207047000002488168AD
:101DC00002781144816070473801002010B509483D
:101DD000016841F400710160016841F480610160B3
:101DE000032000F059F80F2000F006F800F026F864
:101DF000002010BD003C024070B504460D4D4FF46C
:101E00007A712878B1FBF0F00B490968B1FBF0F06A
:101E100000F036FB08B1012070BD102C07D2002263
:101E20002146501E00F018F86C60002070BD0120A3
:101E300070BD00003801002000000020704700281D
:101E400009DB00F01F02012191404009800000F1F0
:101E5000E020C0F800117047F0B40D460D4B1B6830
:101E6000C3F30223C3F10704042C00D90424191D71
:101E7000072901D2002300E0DB1E012606FA04F147
:101E8000491E294099409E40761E16403143F0BCC1
:101E900002F084BE0CED00E000F00701054A106876
:101EA0004FF6FF03184040EA012003490843106041
:101EB000704700000CED00E00000FA052DE9F04746
:101EC00004460D46002C13D0DFF82891D9F8000005
:101ED000EFB200F00700A8420CD289F80070D9F8E0
:101EE000000000F00700A84204D00120BDE8F08700
:101EF0000120FBE72068404E810712D5400703D53B
:101F0000306840F4E05030602078000703D5306836
:101F100040F4604030603068A16820F0F000084371
:101F200030602078C00731D0334960680839012813
:101F300008D002280BD0032809D0096889070BD4E0
:101F40000120D3E70968890306D40120CEE7096898
:101F5000890101D40120C9E7316821F0030101435F
:101F60003160FFF7F1FE804641F2883A07E0FFF763
:101F7000EBFEA0EB0800504501D90320B6E730681E
:101F8000616800F00C00B0EB810FF0D1D9F80000CF
:101F900000F00700A84209D989F80070D9F80000BC
:101FA00000F00700A84201D001209FE720784007F9
:101FB00005D53068E16820F4E050084330602078AF
:101FC000000706D53068216920F4604040EAC1006E
:101FD000306000F03FF83168084AC1F30311515CEA
:101FE000C8400749086007480068FFF705FF002060
:101FF0007CE70000003C0240083802408C8F00085B
:10200000000000203C0100200148006870470000EB
:102010000000002000B5FFF7F7FF04490968044AF3
:10202000C1F38221515CC84000BD00000838024065
:102030009C8F000800B5FFF7E7FF04490968044AD0
:10204000C1F34231515CC84000BD00000838024075
:102050009C8F000810B51748006810F00C01164856
:1020600016D0164B042912D0082911D1114C241F67
:10207000216801F03F02216849020AD52068C0F3B7
:102080008810A0FB03010023FEF7C0F909E0184601
:1020900010BD21680023C1F38811A1FB0001FEF7E8
:1020A000B5F92168C1F30141491C4900B0FBF1F0C9
:1020B00010BD0000083802400024F400001BB700E7
:1020C0002DE9F84F0446002C13D02078DFF8A083C8
:1020D000C007A8F1040556D008F104000168C1F357
:1020E000810101290CD00068C0F38100022803D0CF
:1020F0000DE00120BDE8F88FD8F80000400206D5B9
:10210000286880033FD5606870BB0120F2E76068F3
:10211000B0F5803F10D0B0F5A02F12D0286820F481
:1021200080302860286820F4802028606068E0B152
:10213000FFF70AFE064614E0286840F48030286065
:10214000F4E7286840F480202860286840F4803054
:102150002860EBE7FFF7F8FD801B642801D9032016
:10216000C8E728688003F5D50DE0FFF7EDFD0646CA
:1021700006E0FFF7E9FD801B642801D90320B9E7D9
:1021800028688003F5D42078BA4F80074FF0000903
:1021900048D5B748001D016811F00C0F08D0006841
:1021A000C0F38100022813D1D8F8000040020FD4F8
:1021B0002868800704D5E068012801D0012099E74C
:1021C0002868216920F0F80040EAC100286029E071
:1021D000E068B8B101203860FFF7B6FD064606E0BA
:1021E000FFF7B2FD801B022801D9032082E728688F
:1021F0008007F5D52868216920F0F80040EAC10081
:1022000028600FE0C7F80090FFF79EFD064606E045
:10221000FFF79AFD801B022801D903206AE728688E
:102220008007F5D42078000729D5DFF844A292482A
:1022300061690AF1700A89B101210160FFF784FD2B
:10224000064606E0FFF780FD801B022801D9032027
:1022500050E7DAF800008007F4D510E0C0F80090ED
:10226000FFF772FD064606E0FFF76EFD801B0228B1
:1022700001D903203EE7DAF800008007F4D4207883
:10228000400778D54FF0000A79483C300068C0001C
:102290000BD477483C30016841F080510160006800
:1022A00000F0805000904FF0010ADFF8D0B1DBF869
:1022B0000000C00514D4DBF8000040F48070CBF8B7
:1022C0000000FFF741FD064606E0FFF73DFD801BDD
:1022D000022801D903200DE7DBF80000C005F4D582
:1022E000634EA0686C3601280FD0052812D03068E4
:1022F00020F001003060306820F004003060A068F9
:10230000F8B1FFF721FD834617E0306840F0010087
:102310003060F4E7306840F004003060306840F02E
:1023200001003060EBE7FFF70FFDA0EB0B0141F27E
:102330008830814201D90320DCE630688007F2D57D
:1023400010E0FFF701FD834609E0FFF7FDFCA0EB7D
:102350000B0141F28830814201D90320CAE630687E
:102360008007F2D4BAF1010F05D141483C30016831
:1023700021F080510160A069C0B33D49091D096881
:102380004FF0FF36C1F38101022946D0022805D063
:10239000C7F86090FFF7D8FC04463AE0C7F86090B1
:1023A000FFF7D2FC814607E0FFF7CEFCA0EB090067
:1023B000022801D903209DE628688001F4D4D4E9DD
:1023C00007010843616AA26A890106EB520241EAE9
:1023D0000241084394F82C1040EA0160C8F800005C
:1023E00001203866FFF7B0FC044607E03DE0FFF748
:1023F000ABFC001B022801D903207BE62868800182
:10240000F5D532E0FFF7A0FC001B022801D903201C
:1024100070E628688001F5D427E0012823D0D8F899
:102420000000E26900F4800191421AD1226A00F0B2
:102430003F01914215D147F6C071626A0140B1EB8C
:10244000821F0ED1A26A00F4403106EB5202B1EBBA
:10245000024F06D194F82C1000F07060B0EB016FC1
:1024600003D0012046E6012044E6002042E60000B9
:102470000438024000004742800E4742007000408E
:1024800010B5401EB0F1807F01D3012010BD4FF088
:10249000E02460610F21601702F080FB0020A06142
:1024A00007202061002010BD7047704710B590F8DC
:1024B0003C20012A22D0012280F83C20CA68002357
:1024C0008C6822F4407222434C6822F480622243DA
:1024D0000C6822F4006222430C6922F480522243E9
:1024E0004C6922F400522243C96922F480420A4313
:1024F00001684A6480F83C30002010BD022010BD05
:1025000010B50446002909D004290AD008290BD0A7
:1025100094F8450001280AD0012010BD94F842002B
:10252000F8E794F84300F5E794F84400F2E7022056
:1025300089B3042933D0082934D084F84500042213
:10254000206801F076FD2068416C41F4004141644F
:1025500019492068884214D0B0F1804F11D0174932
:1025600088420ED0164988420BD01649884208D0BE
:102570001549884205D01549884202D0144988423D
:1025800013D1816801F00701062912D0016841F0DA
:10259000010101600DE0FFE784F84200CFE784F815
:1025A0004300CCE784F84400C9E7016841F0010129
:1025B0000160002010BD0000000001400004004048
:1025C00000080040000C00400004014000400140B1
:1025D0000018004010B50446002C03D094F83D00CC
:1025E00010B107E0012010BD002084F83C00204617
:1025F00000F016F8022084F83D00211D206801F04B
:10260000A5FC01203D3460726070A070E070207104
:102610006071A071E07120722070002010BD000078
:1026200008B500680B49884212D10B48016841F097
:1026300010010160006800F01000009001221146B6
:102640003620FFF709FCBDE808403620FFF7F7BB4E
:1026500008BD0000001000404038024090F83D10D6
:10266000012901D001207047022180F83D10016846
:10267000CA6842F00102CA6000681449884214D056
:10268000B0F1804F11D0124988420ED011498842D2
:102690000BD01149884208D01049884205D0104912
:1026A000884202D00F49884209D1816801F00701B0
:1026B000062908D0016841F00101016003E00168CA
:1026C00041F001010160002070470000000001405E
:1026D0000004004000080040000C004000040140DD
:1026E0000040014000180040704770B50446206863
:1026F00001694FF00005C943890716D4C168C94371
:10270000890712D4E91E01610120207720688069C1
:10271000800703D02046FFF7E7FF05E0204600F0E2
:102720009BF8204600F028F9257720680169C94305
:10273000490718D4C168C943490714D46FF004018C
:102740000161022020772068806910F4407F03D067
:102750002046FFF7C9FF05E0204600F07DF820463F
:1027600000F00AF9257720680169C943090717D4E1
:10277000C168C943090713D46FF00801016104203F
:1027800020772068C069800703D02046FFF7ACFFA0
:1027900005E0204600F060F8204600F0EDF82577CF
:1027A00020680169C943C90618D4C168C943C9066C
:1027B00014D46FF010010161082020772068C069EF
:1027C00010F4407F03D02046FFF78EFF05E020463F
:1027D00000F042F8204600F0CFF825772068016924
:1027E000C943C90708D1C168C943C90704D1891EB3
:1027F0000161204600F030F920680169C9430906EB
:1028000009D4C168C943090605D46FF0800101618C
:102810002046FFF749FE20680169C943490609D4EB
:10282000C168C943490605D46FF0400101612046E3
:1028300000F05FFB20680169C94389060BD4C168B9
:10284000C943890607D46FF0200101612046BDE825
:102850007040FFF72ABE70BD704770B504460D4644
:1028600094F83C0001280AD0012084F83C0042B1D1
:10287000042A1AD0082A2DD00C2A53D13EE0022077
:1028800070BD2946206801F0E1FB2068816941F0B4
:10289000080181612068816921F00401816120685B
:1028A00081692A69114381613CE02946206801F071
:1028B00001FC2068816941F40061816120688169BF
:1028C00021F480618161206881692A6941EA0221DD
:1028D000816127E02946206801F026FC2068C16953
:1028E00041F00801C1612068C16921F00401C161A2
:1028F0002068C1692A691143C16113E02946206833
:1029000001F04AFC2068C16941F40061C16120689E
:10291000C16921F48061C1612068C1692A6941EA05
:102920000221C161002084F83C0070BD10B504464E
:10293000002C03D094F83D0010B107E0012010BD39
:10294000002084F83C00204600F015F8022084F8AE
:102950003D00211D206801F0F9FA01203D3460722C
:102960006070A070E07020716071A071E0712072E1
:102970002070002010BD70477047000010B504465D
:10298000002909D004290AD008290BD094F8410065
:1029900001280AD0012010BD94F83E00F8E794F811
:1029A0003F00F5E794F84000F2E70220A9B30429BC
:1029B00037D0082938D084F841000122206801F07E
:1029C0002BFB1E4920681E4A884201D0904203D149
:1029D000436C43F4004343642068884213D0B0F151
:1029E000804F10D0174988420DD0174988420AD02D
:1029F0001649884207D0904205D01549884202D036
:102A00001449884213D1816801F00701062912D0C8
:102A1000016841F0010101600DE0FFE784F83E002C
:102A2000CBE784F83F00C8E784F84000C5E70168B9
:102A300041F001010160002010BD000000000140D4
:102A4000000401400004004000080040000C004069
:102A5000004001400018004070B52DED108B00685B
:102A6000FE4988427ED100F0E3FFFD4B00210122A8
:102A700093F8670050B193F86500401CC0B283F82A
:102A80006500082802D303F8671F5A70F54B93F8C6
:102A9000670050B193F86500401CC0B283F8650030
:102AA000082802D303F8671F5A70EF4B1888401CA0
:102AB00080B218809FEDEDEB9FEDEEFBEF4CF04DFB
:102AC0009FEDF08B9FEDF1CAB0F5FA6F01D99A70C6
:102AD000198028886988401AFDF775FE53EC1E2B73
:102AE000FDF790FD53EC182BFDF78CFDFDF704FF6F
:102AF00000EE100AE64805F0ADFE84ED010A10EE86
:102B0000100AFDF7B6FE41EC100B02F005FA53EC8B
:102B10001F2B51EC100BFDF7BFFE01D284ED01CA53
:102B2000D4ED01CA9FEDDB9B9FEDDCAB9FEDDDBBE0
:102B3000F5EEC0CADD4EF1EE10FA2CD22889FDF771
:102B400053FE53EC182BFDF75DFD53EC192BFDF7ED
:102B500059FD53EC1A2BFDF74FFD41EC1D0BB0EE68
:102B60006C0A00E0C2E106F057F8FDF72CFE53ECCA
:102B70001D2BFDF747FD53EC1B2BFDF7B5FDFDF7B6
:102B8000BBFE00EE100A84ED000AC94805F062FEA3
:102B900084ED000A31E0F5EEC0CAF1EE10FA2ADD4C
:102BA0006889FDF721FE53EC182BFDF72BFD53EC44
:102BB000192BFDF727FD53EC1A2BFDF71DFD41ECFA
:102BC0001D0BB0EE6C0A06F027F8FDF7FCFD53EC88
:102BD0001D2BFDF717FD53EC1B2BFDF785FDFDF7B6
:102BE0008BFE00EE100A84ED000AB14805F032FEBB
:102BF00084ED000A01E084ED00CA2068FDF739FE8B
:102C000041EC100B02F088F99FEDAADB51EC100BA0
:102C100053EC1D2BFDF740FE01D284ED00CA206865
:102C2000FDF727FE9FEDA51B53EC112BFDF7EAFCEA
:102C3000FDF762FE00EE100A84ED020AD4ED010AEF
:102C400030EEC00A10EE100AFDF713FE9FED9D1B3B
:102C500053EC112BFDF748FDFDF74EFE2061FDF70B
:102C600008FE41EC100B02F057F99FED981B51EC58
:102C7000100B53EC112BFDF70FFE01D284ED04CAAB
:102C8000A888E988401AFDF79EFD53EC1E2BFDF73E
:102C9000B9FC53EC182BFDF7B5FCFDF72DFE00EE4B
:102CA000100A86ED010A8B4805F0D4FD86ED010A75
:102CB00010EE100AFDF7DDFD41EC100B02F02CF9CF
:102CC00053EC1F2B51EC100BFDF7E6FD01D286ED06
:102CD00001CAD6ED01CAF5EEC0CAF1EE10FA2AD249
:102CE000E889FDF781FD53EC182BFDF78BFC53ECC5
:102CF000192BFDF787FC53EC1A2BFDF77DFC41ECFB
:102D0000180BB0EE6C0A05F087FFFDF75CFD53EC85
:102D1000182BFDF777FC53EC1B2BFDF7E5FCFDF7BB
:102D2000EBFD00EE100A86ED000A6B4805F092FDFF
:102D300086ED000A31E0F5EEC0CAF1EE10FA2ADDA8
:102D4000A889FDF751FD53EC182BFDF75BFC53EC04
:102D5000192BFDF757FC53EC1A2BFDF74DFC41ECFA
:102D6000180BB0EE6C0A05F057FFFDF72CFD53EC85
:102D7000182BFDF747FC53EC1B2BFDF7B5FCFDF7BB
:102D8000BBFD00EE100A86ED000A534805F062FD17
:102D900086ED000A01E086ED00CA3068FDF769FDA6
:102DA00041EC100B02F0B8F853EC1D2B51EC100B5A
:102DB000FDF772FD01D286ED00CA3068FDF759FDBE
:102DC0009FED3E1B53EC112BFDF71CFCFDF794FD12
:102DD00000EE100A86ED020AD6ED010A30EEC00AB6
:102DE00010EE100AFDF745FD9FED361B53EC112B3D
:102DF000FDF77AFCFDF780FD3061FDF73AFD41EC0F
:102E0000100B02F089F89FED311B51EC100B53ECC5
:102E1000112BFDF741FD01D286ED04CA94ED000AA5
:102E20002E4801F099FC2D4896ED000A203001F063
:102E300093FC2B4D2949D4ED000A95ED060A01F1CA
:102E40001000FEF731F884ED050A2449D6ED000A9A
:102E5000203195ED070A01F1100043E00010004019
:102E6000080D0020E80E002030010020666666662E
:102E700066A642409A9999999999A93F4C0E0020CB
:102E800070080020000000000000303F000000003B
:102E9000CC0000206666666666660A409D8026C293
:102EA00086A7EF3F2758C05D2625753F680E002096
:102EB000DC0000209A9999999999C93FB81E85EB31
:102EC00051B8AE3FA01A2FDD2406C13F000000001C
:102ED0000000E03FD4000020E4000020BC040020FB
:102EE000D80D0020FDF7E0FF86ED050ABDEC108B44
:102EF00070BD704770477047F8B504462268106887
:102F0000D168536900F00F05002D08D1860606D55B
:102F10008E0604D52046BDE8F84001F064BA0026CC
:102F2000002D60D003F0010501F490772F435AD0B3
:102F3000C20705D0CA0503D5226C42F00102226403
:102F4000420705D5DA0703D0226C42F00202226460
:102F5000820705D5DA0703D0226C42F0040222640E
:102F6000020707D501F020022A4303D0226C42F069
:102F700008022264226C002A2BD0800604D5880621
:102F800002D5204601F02FFA20684069C0F3801076
:102F9000216C090700D408B3204601F0FFF920682E
:102FA0004169490616D5416921F040014161A06B94
:102FB00060B144490165A06BFEF7EBFC002808D026
:102FC000A06B016D01B0BDE8F04008472046FFF757
:102FD00092FFF8BD2046FFF78EFFF8BD2046FFF7B1
:102FE0008AFF2664F8BD236B012B58D1C30656D542
:102FF000CB0654D510685068009050694FF02003FC
:1030000040062ED5A16B0868406880B20028E9D040
:10301000A58D8542E6D9E085C869B0F5807F18D0D6
:10302000D06820F48070D0602068416921F00101EF
:1030300041612068416921F04001416184F83E30DE
:1030400026632068C16821F01001C160A06BFEF703
:1030500059FCA08DE18D401A81B22046FFF74AFF4E
:10306000F8BDA08DE18D401A81B2E08D0028F7D027
:103070000029F5D0D06820F49070D06020684269B3
:1030800022F00102426184F83E3026632068C26863
:1030900022F01002C2602046FFF72CFFF8BD0206A6
:1030A00006D50A0604D52046BDE8F84001F099BAD5
:1030B0004006F3D54806F1D52046BDE8F84001F0BA
:1030C00085B900008D43000870B50446002C04D07B
:1030D00094F83D00002510B106E0012070BD84F891
:1030E0003C50204600F022F8242084F83D0020685F
:1030F000C16821F40051C160204601F0CDF920687B
:10310000016921F4904101612068416921F02A019F
:1031100041612068C16841F40051C16025642020EC
:1031200084F83D0084F83E00002070BD30B587B0C3
:1031300000681E49884237D11D48016841F01001DE
:103140000160006800F0100001901948143801680F
:1031500041F002010160016801F002010191016882
:1031600041F002010160006800F00200019040207F
:1031700002900220039001210491059007240694F7
:103180000C4D02A92846FEF7DBFC80210291069433
:1031900002A92846FEF7D4FC2520FEF750FE0322A4
:1031A00011462520FEF758FE07B030BD0010014043
:1031B00044380240000402402DE9F84F04460E4610
:1031C0001546984694F83E00202802D00220BDE81B
:1031D000F88F0EB305B394F83C0001281ED00120EF
:1031E00084F83C004FF0000AC4F840A0222084F884
:1031F0003E00C4F830A0FEF7A7FD8146A585E58511
:10320000A0684FF48057B84201D1206940B13546DB
:10321000002684F83CA028E00120D8E70220D6E769
:103220000025F6E74B46002220212046CDF80080FD
:1032300001F006FA08B10320C9E725B1A068B84239
:103240001BD038B108E020684068C0F3080026F8B9
:10325000020B07E0206980B12068406800F07F0021
:1032600028706D1CE08D401EE085E08D0028D9D1CE
:10327000202084F83E000020A9E7206840682870DC
:10328000EFE790F83E30202B01D00220704759B173
:1032900052B190F83C30012B08D0012380F83C302B
:1032A0000023036301F082B90120704702207047B8
:1032B00030B400681649884228D1164A5088010463
:1032C00019D41146440409784FF0000307D50A29A0
:1032D00001D053800FE040F4004050800BE00D29F6
:1032E00010D00D4DC0F30D042955401C80B2508004
:1032F000C72800D953800848012230BC0549C8308E
:10330000FFF7BFBF40F480405080F4E730BC704707
:103310000010014008000020480100202DE9F8437A
:1033200004460E4615461F4694F83D00202802D05C
:103330000220BDE8F883C6B1BDB194F83C00012875
:1033400015D0012084F83C004FF00009C4F84090EB
:10335000212084F83D00FEF7F7FC8046A584E58433
:10336000A068B0F5805F04D005E00120E1E702200D
:10337000DFE7206920B13546002684F83C9013E051
:103380000025FAE74346002280212046009701F0FD
:1033900057F908B10320CCE79DB1216815F8010B5E
:1033A0004860E08C401EE084E08C0028EAD143466F
:1033B000002240212046009701F042F940B103204D
:1033C000B7E736F8020B2168C0F308004860E8E769
:1033D000202084F83D000020ABE7704710B5124C68
:1033E00094F8680000281ED094F86600801E81B210
:1033F000601C00F039F994F86610621E635C895C09
:1034000003EB012189B2884209D1617894F8D50093
:10341000814204D1A178032901D100F051F80020A4
:1034200004F8660FA07010BDE80E0020FEE7000053
:1034300008B5FEF7CBFC00F0EFFA042302220621C8
:10344000A82005F031FCA82004F086F84FF4E13004
:1034500005F086FC04F0ECFC42F2CF01092003F0F9
:10346000F7FF03F0D9FF04F049FA00F013F900F078
:10347000BDFC002006231A044FF4A001009003F0C5
:10348000FBFF40F2DC51042004F09EFA04F098F8AF
:1034900004496820088004F051FABDE8084002A001
:1034A00001F04EBBDC080020456E74657220696E29
:1034B000697469616C697A6174696F6E0A000000F1
:1034C00070B5124C0126A4F110056179227901280A
:1034D00041EA022304D129706A702B8184F8DD60EF
:1034E000022804D1A970EA706B8184F8DD6003289A
:1034F00004D129716A71AB8184F8DD60042804D19C
:10350000A971EA71EB8184F8DD6070BDE80E0020DE
:103510002DE9F041164D2872287003206870080AC2
:10352000A870E970100A28716A710621284600F017
:103530009BF8010AA971E871CD3D01220D4F1603D8
:1035400031463846FEF7F3FB00242819CD3001211F
:1035500000F0ACF8641C082CF7DB0022314638463A
:10356000FEF7E5FB012085F8D600BDE8F0810000FC
:10357000B50F0020001402402DE9F04186B08046CE
:1035800000253449086840F020000860086800F011
:1035900020000090086840F008000860086800F00B
:1035A00008000090086840F008000860086800F013
:1035B0000800009027491031086840F40030086086
:1035C000086800F40030009020200190022402944A
:1035D000012603960494072005901F4F01A9384641
:1035E000FEF7AEFA4020019001A93846FEF7A8FA8E
:1035F000E7020197029603960494184E01A93046FB
:10360000FEF79EFA174C16482060C4F80480A560A7
:10361000E5602561A5610C2060612046FFF754FD3F
:103620002068C16821F04001C1602068C16841F094
:103630002001C1602620FEF702FC0322114626204D
:10364000FEF70AFC002239463046FEF770FB06B052
:10365000BDE8F08130380240000C02400014024006
:1036600000440040940E002070B5FF22FF23084D57
:1036700005F5807605E010F8014B54402A5D5A406C
:10368000335D491E89B2F6D243EA022070BD0000C4
:10369000A491000810B54FF4E130FFF76DFF024927
:1036A000002081F8670010BDE80E00202DE9F041F0
:1036B00007460E4601220A4D140321462846FEF70E
:1036C00036FB4FF47A73324639460648FFF726FE3A
:1036D00021462846BDE8F0410022FEF728BB000045
:1036E00000140240940E002010B52DED048BB0EEB6
:1036F000408AF0EE608A9FED1D9B51EC180B53EC55
:10370000192BFDF7E1F811D251EC180B9FED190BB5
:1037100053EC102BFCF776FFFDF792F8BDEC048B11
:1037200080B20021BDE8104003F0FEBD53EC192B20
:1037300051EC180BFDF7B0F811D251EC180B9FEDBE
:103740000F0B53EC102BFCF75DFFFDF779F8BDEC88
:10375000048B81B20020BDE8104003F0E5BDBDEC54
:10376000048BBDE8104000F00DB800000000000020
:1037700000000000000000000000594000000000B0
:10378000000059C00021084603F0CEBDFEE700004E
:103790002DE9F0418EB006460D46142109A8FCF72C
:1037A0007FFE1C2102A8FCF77BFE0024444A10681F
:1037B00040F001001060106800F001000190404AE4
:1037C000143A106840F001001060106800F0010029
:1037D0000190106840F001001060106800F00100D6
:1037E0000190106840F010001060106800F01000A8
:1037F0000190106840F010001060106800F0100098
:1038000001909015099002220A920B920C920120CD
:103810000D90DFF8B08009A94046FEF791F98027A6
:10382000099709A94046FEF78BF938010990DFF89E
:10383000988009A94046FEF783F9F800099009A984
:103840004046FEF77DF9224A20481060556094609A
:10385000D6604015106197611046FFF767F8602049
:1038600002900494059407940894002202A9184831
:10387000FEF7F3FF042202A91548FEF7EEFF1448F5
:10388000403804604460846004614461F901C161AE
:1038900001464030FEF70AFE00210D48FFF76EF8A2
:1038A00000210B48FEF72CFE04210948FFF766F8BB
:1038B00004210748FEF724FE0EB0BDE8F0810000A9
:1038C0004438024000000240001002400000014065
:1038D000E40300202DE9F0418EB006460D46142188
:1038E00009A8FCF7DDFD1C2102A8FCF7D9FD002486
:1038F000434A106840F002001060106800F00200B7
:1039000001903F4A143A106840F0040010601068BB
:1039100000F004000190106840F001001060106891
:1039200000F001000190106840F004001060106881
:1039300000F004000190106840F002001060106870
:1039400000F0020001904020099002220A920B929E
:103950000C9203200D90DFF8AC8009A94046FEF7D9
:10396000EFF82020099009A92748FEF7E9F88027F9
:10397000099709A94046FEF7E3F80120099009A933
:103980002248FEF7DDF8234A214810605560946014
:10399000D6604015106197611046FEF7C7FF6020A2
:1039A00002900494059407940894002202A91948EF
:1039B000FEF753FF042202A91648FEF74EFF1548F2
:1039C00068380460446084600461B9014161490061
:1039D000C16101466830FEF769FD00210D48FEF720
:1039E000CDFF00210B48FEF78BFD04210948FEF7AF
:1039F000C5FF04210748FEF783FD0EB0BDE8F08146
:103A00004438024000080240000002400004024026
:103A1000000401402C04002010B553216320FFF75F
:103A2000B7FE5321BDE810406320FFF753BF704736
:103A3000F0B500200E4C00260127211F0D7814E060
:103A400000EB400104EB8102137963B934F82130B3
:103A50005B1C9BB224F82130B2F802C0634502D34C
:103A600024F821601771401CC0B2A842E8D3F0BD11
:103A70001C000020FFF7DCFC00240B4E0027A6F101
:103A8000040803F09BFF04EB440006EB8005287953
:103A900010B1A86880472F71641C98F80000E4B248
:103AA0008442EED30024ECE71C00002070470000A5
:103AB00010B52DED048BB0EE408AF0EE608A9FEDDC
:103AC0001D9B51EC180B53EC192BFCF7FDFE11D28A
:103AD00051EC180B9FED190B53EC102BFCF792FDDA
:103AE000FCF7AEFEBDEC048B80B20021BDE81040B7
:103AF00003F034BC53EC192B51EC180BFCF7CCFE43
:103B000011D251EC180B9FED0F0B53EC102BFCF75F
:103B100079FDFCF795FEBDEC048B81B20020BDE879
:103B2000104003F01BBCBDEC048BBDE8104000F05E
:103B30000DB80000000000000000000000000000C0
:103B40000000594000000000000059C00021084654
:103B500003F004BC7047000070B5FF22FF23084D3E
:103B600005F5807605E010F8014B54402A5D5A4077
:103B7000335D491E89B2F6D243EA022070BD0000CF
:103B8000A48F000810B51A4C94F8680000282ED0B5
:103B900094F86600801E81B2601CFFF7DDFF94F888
:103BA0006610621E635C895C03EB012189B2884266
:103BB00019D160782178884215D1A078112812D2C5
:103BC000DFE800F01111110911110C11111111117F
:103BD000111111110F0000F05DF804E000F0BAF8C7
:103BE00001E000F007F8002004F8660FA07010BD97
:103BF000080D00202DE9F047244D2B79EC7803EBDC
:103C0000042082B2AE796F7906EB07201FFA80FCA0
:103C10000020A5F22C480CE005EB400191F809903A
:103C2000097A09EB012102EB000928F81910401C60
:103C300080B26045F0D3513515F8500C287615F850
:103C40004F0C6876AC76EB762F776E770F480621AF
:103C50006930FFF781FF010AA977E877513D0C4EE3
:103C6000012211463046FEF762F800242819693017
:103C7000012100F0C9F8641CA4B2082CF6D3304628
:103C8000BDE8F04700220121FEF751B8080D0020E1
:103C9000001802402DE9F0412B4D2879E97800EB1E
:103CA000012087B2A879697900EB012086B22878D3
:103CB00085F869002946032081F86A007000032412
:103CC00081F86B00002014E020493A1831F91210F5
:103CD000CA1701EB1263621C2C444FEA132CD2B2B8
:103CE00084F869C0531C2A44DCB282F86910401C75
:103CF000C0B2B042E8D3144821466930FFF72CFF28
:103D0000020A611C6319C9B283F869204A1C29445C
:103D1000D6B281F869000E4F012211463846FEF7EF
:103D200006F8002406E028196930012100F06CF83B
:103D3000641CE4B2B442F6D33846BDE8F041002238
:103D40000121FDF7F4BF0000080D0020DC08002071
:103D5000001802402DE9F041224D2879E97800EB66
:103D6000012082B2A879697900EB0120A5F22C41EB
:103D700021F81200297885F869102B46062183F86E
:103D80006A102C46130A84F86B30234683F86C20A3
:103D9000020A83F86D201A4682F86E0002F169006B
:103DA000FFF7DAFE2246010A82F86F101146082654
:103DB00081F870000C4F012211463846FDF7B7FF1D
:103DC000002406E028196930012100F01DF8641C68
:103DD000A4B2B442F6D33846BDE8F0410022012136
:103DE000FDF7A5BF080D00200018024010B54FF4E4
:103DF000165000F025F8034801210170002180F8D9
:103E0000671010BD080D002070B506460D460A4C1F
:103E1000012211462046FDF78AFF4FF47A732A46A5
:103E200031460648FFF77AFA2046BDE87040002286
:103E30000121FDF77CBF000000180240C40C0020E7
:103E40002DE9F04186B0804600253448016841F0F4
:103E500040010160016801F040010091016841F0FA
:103E600040010160016801F040010091016841F0EA
:103E700040010160006800F04000009027481430C5
:103E8000016841F020010160006800F0200000900E
:103E90004FF4804001900226029601240394049678
:103EA000082005901E4F01A93846FDF749FE600223
:103EB000019001A93846FDF743FE01940294039452
:103EC000049601A93846FDF73BFE174C15482060C3
:103ED000C4F80480A560E5602561A5610C206061DF
:103EE0002046FFF7F1F82168C86820F04000C8605C
:103EF0002168C86840F02000C8604720FDF79FFF98
:103F0000032211464720FDF7A7FF00220121384672
:103F1000FDF70DFF06B0BDE8F0810000303802402B
:103F20000018024000140140C40C0020FDF746BFF9
:103F30000248016841F470010160704788ED00E0BB
:103F40000148FEF7D2BB0000740400202DE9F041C7
:103F50000268264D264E274FDFF89CC0274B4FF0B6
:103F60008048A84209D0404507D0B04205D0B842A9
:103F700003D0604501D0984203D122F070044A6812
:103F80002243A8421BD0404519D0B04217D0B842B6
:103F900015D0604513D0984211D0194CA0420ED0D4
:103FA000184CA0420BD0184CA04208D0174CA0428D
:103FB00005D0174CA04202D0164CA04203D122F4E7
:103FC0004074CA6822434C6922F080022243026096
:103FD0008A68C2620A688262A84201D0984201D10E
:103FE0000969016301214161BDE8F08100000140E0
:103FF0000004004000080040000C004000040140A4
:1040000000400140004401400048014000180040C9
:10401000001C00400020004010B501F01F010123EA
:104020008B40046A9C430462036A8A401343036220
:1040300010BD10B501F01F0104238B40046A9C439E
:104040000462036A8A401343036210BDF0B5026A3A
:1040500022F001020262026A4368846924F070045B
:1040600024F003050C682C4322F002058A682A43D9
:104070000E4E0F4FB04201D0B84205D122F00805D4
:10408000CA682A4322F00402B04201D0B84207D1E4
:1040900023F4807323F400734D691D438B692B4314
:1040A00043608461496841630262F0BD00000140E1
:1040B00000040140F0B5026A22F010020262036AB5
:1040C0004268846924F4E04424F440740D6844EAAE
:1040D000052423F020038D6843EA0513104D114E8B
:1040E000A84201D0B04206D123F08003CF6843EA52
:1040F000071323F04003A84201D0B04209D122F4B3
:10410000806222F400624D6942EA85028D6942EACA
:10411000850242608461496881630362F0BD0000EA
:104120000000014000040140F0B5026A22F48072F0
:104130000262026A4368C46924F0700424F0030533
:104140000C682C4322F400728D6842EA0522104D5F
:10415000104EA84201D0B04206D122F40062CF68CE
:1041600042EA072222F48062A84201D0B04209D17B
:1041700023F4805323F400534D6943EA05138D69FA
:1041800043EA05134360C4614968C1630262F0BD3C
:10419000000001400004014030B5026A22F4805260
:1041A0000262046A4268C36923F4E04323F4407363
:1041B0000D6843EA052324F400548D6844EA05346D
:1041C000084DA84202D0084DA84204D122F48042F2
:1041D0004D6942EA85124260C36149680164046224
:1041E00030BD00000000014000040140FCF7FABEB1
:1041F00010B5074CA078002803D0FCF72FFF002053
:10420000A070BDE810404FF47A70FCF70BBF0000BF
:104210003001002003F06ABBFCF7E6BE03F0C4BE29
:10422000FFF7B0BC2DE9F04FA3B0374EF069FCF7B3
:1042300020FB04460D46B069FCF71BFB06463348DD
:104240000F46C068FCF715FBDFF8C48082468B463A
:10425000D8F81400FCF70DFBCDE920012D4840698A
:10426000FCF707FBCDE91E01D8F80000FCF701FBC5
:10427000CDE91C01D8F80400FCF7FBFACDE91A01DE
:10428000D8F81000FCF7F5FACDE9180121480068CC
:10429000FCF7EFFACDE916011E484068FCF7E9FA91
:1042A00080461C4889460069FCF7E3FA41EC100B94
:1042B0001648CDE910ABCDE91267CDE91445007879
:1042C0000E90DDE92001CDE90C01DDE91E01CDE90B
:1042D0000A01DDE91C01CDE90801DDE91A01CDE99A
:1042E0000601DDE91801CDE90401DDE91601CDE99A
:1042F000020153EC102BCDE9008907A000F020FC4F
:1043000023B0BDE8F08F0000D80D0020DC040020B1
:10431000680E00204C0E002025662C25662C256694
:104320002C25662C25662C25662C25662C25662CCE
:1043300025642C25662C25662C25660D0A000000B8
:1043400004F0C2BB7047000010B503F0E1FBBDE80C
:10435000104002210148FDF7E2BC000000140240B9
:1043600010B5012211020220FFF7D2F8064890F89A
:10437000D610002906D0002180F8D610BDE81040E4
:10438000FFF72CB810BD0000E80E002010B5806BC0
:104390000021C185C184FEF7AEFD10BD0168CA6869
:1043A00022F49072CA6001684A6922F001024A61EF
:1043B000016B012904D10168CA6822F01002CA60A9
:1043C000202180F83E1000210163704710B501687C
:1043D000CA6822F04002CA60202180F83D10FEF732
:1043E000FCFF002010BD10B5044694F83E002228C2
:1043F00001D0022010BDA1684FF48052914201D13A
:10440000206920B1A06A91421DD051B10BE0A06A91
:1044100021684968C1F308010180A06A801CA0627C
:1044200009E0216979B12168496801F07F010170D3
:10443000A06A401CA062E08D401E0004000CE085D4
:1044400005D0002010BD216849680170F0E72068A0
:10445000C16821F02001C1602068C16821F4807129
:10446000C1602068416921F001014161202084F888
:104470003E00206B012805D02046FEF719FF0020E2
:10448000206310BD2068C16821F01001C160A18DBA
:104490002046FEF72FFDF2E72DE9F04104462068A3
:1044A0000169E26821F4405111430161A16820696A
:1044B000E26901436069104301432068C26849F220
:1044C0000C639A430A43C26020684169A26921F4DF
:1044D00040711143416133492068884202D032491A
:1044E000884202D1FDF7A6FD01E0FDF793FDE169E9
:1044F0000023192764253226B1F5004F28D06168C2
:104500008B0F8A00A0FB0701FBF780FF0146B0FB81
:10451000F5F07A42504301EB800006EB0010B0FB4F
:10452000F5F000F0F002B1FBF5F002EB0012B1FB88
:10453000F5F07B42584301EB800006EB0010B0FB26
:10454000F5F0216800F00F0010448860BDE8F081AC
:1045500061684A18A0FB07015B41FBF757FF014662
:10456000B0FBF5F00201B1FBF5F06FF01803584312
:1045700001EB800006EBC000B0FBF5F000F0F800A6
:1045800002EB4002B1FBF5F0584301EB800006EB73
:10459000C000B0FBF5F0216800F00700104488600F
:1045A000D4E70000001001400014014081628285C0
:1045B000C28500210164222280F83E2080F83C1050
:1045C0000168CA6842F48072CA6001684A6942F0B0
:1045D00001024A610068C16841F02001C160002009
:1045E000704790F83D10212901D002207047816862
:1045F000B1F5805F01D1016961B1016A4A1C0262B3
:10460000026809785160C18C491E0904090CC184F3
:104610000AD013E0016A02680988C1F308015160F9
:10462000016A891C0162EEE70168CA6822F0800213
:10463000CA600068C16841F04001C1600020704755
:104640002DE9F04104460E4617469846069D1DE0AA
:10465000681C1BD02DB1FDF777FBA0EB0800A8422A
:1046600014D92068C16821F4D071C1602068416903
:1046700021F001014161202084F83D0084F83E00D2
:10468000002084F83C000320BDE8F0812068006829
:1046900036EA000004D00020B842D9D00020F3E769
:1046A0000120F9E70148FEF727BC000010020020B6
:1046B00008B5134800680068C04380061ED44FF454
:1046C0007A73012269460E48FEF776FD0C48543095
:1046D00090F86810012911D090F866109DF800300C
:1046E0004A1C014480F866204B70002180F8651058
:1046F00090F86610012901D180F8671008BD00000C
:10470000940E002008B5134800680068C043800676
:104710001ED44FF47A73012269460E48FEF74CFD11
:104720000C48443090F86810012911D090F86610B8
:104730009DF800304A1C014480F866204B7000212F
:1047400080F8651090F86610012901D180F8671093
:1047500008BD0000C40C002070B504462DED028B8E
:10476000B0EE408A20780025022825D018EE100AE5
:10477000FCF77FF841EC100B00F0CEFB9FED291BFE
:1047800051EC100B53EC112BFCF79EF813D8A068DA
:10479000401CA06041F2883188420DD30220207075
:1047A0009FED220A84ED030A46F2A810A06065601E
:1047B000BDEC028B70BDA560207850B19FED1C0A46
:1047C00001281FD00228F3D1A06828B3401EA060A2
:1047D000EEE718EE100AFCF74CF841EC100B00F075
:1047E0009BFB9FED141B51EC100B53EC112BFCF7B2
:1047F0006BF8DDD20120207065609FED100A84ED1A
:10480000030AD5E76068401C6060B0F5FA6FCFD34B
:10481000257084ED030ACBE7257084ED030A6560FB
:10482000C6E7000000000000000049400000FC4115
:1048300000007C4200000000000054400000A04244
:10484000FEE703460846984201DA18467047904250
:10485000FCDD10467047F0EE401AB0EE600AB4EE90
:10486000E10AF1EE10FA02D8B0EE610A7047B4EE38
:10487000C10AF1EE10FAF9DBB0EE410A7047000010
:104880002DE9F0412DED048BB2EE0E0A9F4C84ED24
:10489000060A052084F83400012084F835009C497C
:1048A000B1EE082AF7EE001AB1F98000F0EE000A26
:1048B000B7EE081A9FED970A01281CD002282BD0CA
:1048C00003283AD0B1EE042A84ED072A84ED081AB1
:1048D000C4ED090AC4ED0A1AC4ED0B0A84ED0C1AE2
:1048E00084ED0F0A84ED0E0A042584F84C50B1F8CB
:1048F0009C0098BB33E084ED072AC4ED081AC4ED90
:10490000090AC4ED0A1A84ED0B1AC4ED0C1A84EDE1
:104910000F0A84ED0E0AE7E784ED072AC4ED081AB2
:10492000C4ED090AC4ED0A1A84ED0B1AC4ED0C1A81
:1049300084ED0F0A84ED0E0AD6E784ED072AC4ED54
:10494000081AC4ED090AC4ED0A1A84ED0B1AC4ED65
:104950000C1A84ED0F0A84ED0E0AC5E702E06E48DA
:10496000C07808B984F84C506C4E6D496E4FB06CED
:104970004FF4E16808446B499FED6C9B9FED6D8B94
:10498000884225D9B7F8480040F2145188421FD315
:10499000306DFBF76EFF41EC100B00F0BDFA53ECED
:1049A000192B51EC100BFBF78FFF0DD2306DFBF77D
:1049B00060FF41EC100B00F0AFFA53EC182B51ECF8
:1049C000100BFBF769FF03D3B7F84A00404501D944
:1049D00084F84C505949B06C88424EDC306DFBF77E
:1049E00048FF41EC100B00F097FA53EC182B51ECF8
:1049F000100BFBF769FF40D3B7F84A0040451BD9BD
:104A0000306DFBF736FF41EC100B00F085FA53ECEC
:104A1000192B51EC100BFBF757FF0DD2306DFBF744
:104A200028FF41EC100B00F077FA53EC182B51ECF7
:104A3000100BFBF731FF20D33949B06CC9438842D2
:104A40001DDD306DFBF715FF41EC100B00F064FA33
:104A500053EC192B51EC100BFBF736FF0FD2306DD6
:104A6000FBF707FF41EC100B00F056FA53EC182B44
:104A700051EC100BFBF710FF01D284F84C5030348E
:104A800054ED050A14ED040A2079617970EEC01A1C
:104A9000401A00EE900A227FF8EEE00A511A81EEE9
:104AA000A01A00EE901AF8EEE00A01EE200A84ED5A
:104AB000040A54ED030A14ED020A70EEC01A00EE67
:104AC000900AF8EEE00A81EEA01A00EE901AF8EED5
:104AD000E00A01EE200A84ED050A54ED010A94ED86
:104AE000000A70EEC01A00EE900AF8EEE00A81EEBD
:104AF000A01A00EE901AF8EEE00A01EE200A84ED0A
:104B0000060ABDEC048BBDE8F0810000FC0D00201E
:104B1000DC0800209A99193E30010020781100200D
:104B2000CCCCB4BD3233CD007008002000000000B2
:104B30000000184000000000000024406666184392
:104B40000FB4054B10B503A9044A029801F048FEC2
:104B500010BC5DF814FB0000297600080C00002052
:104B600003B401984100009850EAC12018BF042006
:104B70004A0D18BF40F0010040F2FF72B2EB515FE6
:104B800008BF40F00200012808BF052002B07047AE
:104B900020F00040C0F1FF40C00F70470907090E28
:104BA000002804DB00F1E02080F80014704700F0DA
:104BB0000F0000F1E02080F8141D70470000000095
:104BC00010B5B94A2DED020B2DED0C8B82B00F996B
:104BD00021F000409FEDB6CB90422CDBA0F140537A
:104BE0000E9AA3F17F631A430FD0B349884202DCC7
:104BF00016D10E98A0B19DED0E0B02B0BDEC0C8B42
:104C000002B0BDE8104001F0CFBC0029C1BF9FED4C
:104C1000AC0B02B0BDEC0C8B02B0C8BF10BD16E0EF
:104C2000012001F015FD02B0BDEC0C8B02B0BDE817
:104C3000104001F0CDBCA44A9FEDA59B9FEDA6AB13
:104C400090425EDAA6499FEDA8CB814208DBB0EE28
:104C50004C0AF0EE6C0A02B0BDEC0C8B02B010BD39
:104C60009DED0E0B53EC102B51EC100BFBF7CAFC17
:104C700041EC180B9E480621B0EE480AF0EE680A97
:104C8000784401F065FB53EC182B51EC100BFBF74B
:104C9000B9FC41EC1B0B9748B0EE480AF0EE680AED
:104CA0000421784401F054FB53EC182B51EC100B09
:104CB000FBF7A8FC53EC192BFBF7FDFB41EC100BA9
:104CC00051EC1B0B53EC102BFBF70EFD41EC100BC2
:104CD00053EC102B9DED0E0B51EC100BFBF792FCDF
:104CE00053EC1A2BFBF78BFC9DED0E1B53EC112B99
:104CF000FBF785FC53EC1C2BFBF781FC41EC100B04
:104D0000A9E79FED7D8B9FED7EBB9DED0E0B0029EE
:104D100053EC192B51EC100B52DAFBF7CCFB53EC94
:104D2000182BFBF76FFC41EC180B77480621B0EE0F
:104D3000480AF0EE680A784401F00AFB53EC182B9D
:104D400051EC100BFBF75EFC41EC1D0B6F48B0EE15
:104D5000480AF0EE680A0421784401F0F9FA53ECAD
:104D6000182B51EC100BFBF74DFC53EC192BFBF7F8
:104D7000A2FB41EC190B51EC180B03F05EFF41EC68
:104D8000180B53EC192B51EC1D0BFBF7ADFC53EC3E
:104D9000182BFBF737FC53EC1A2BFBF72DFC41ECDF
:104DA000100B51EC180B53EC102BFBF784FB53EC5E
:104DB0001B2BFBF727FC53EC1C2BFBF720FC6DE0B7
:104DC000FBF71DFC53EC182BFBF71CFC41EC180BFC
:104DD00003F033FF41EC1A0B00208DED00AB009087
:104DE0009DED000B51EC1A0B53EC102BFBF763FB02
:104DF0009DED000B41EC1C0B53EC102B51EC100BF8
:104E0000FBF700FC53EC182BFBF7F9FB53EC1C2BC6
:104E1000FBF76AFC41EC1C0B3D48B0EE480AF0EE93
:104E2000680A0621784401F093FA53EC182B51ECF0
:104E3000100BFBF7E7FB41EC1D0B3648B0EE480AC0
:104E4000F0EE680A0421784401F082FA53EC182B42
:104E500051EC100BFBF7D6FB53EC192BFBF72BFB9C
:104E600041EC100B51EC1D0B53EC102BFBF73CFCF1
:104E700053EC1A2BFBF7C6FB53EC1C2BFBF71BFB6D
:104E800041EC100B53EC102B9DED000B51EC100B73
:104E9000FBF711FB53EC1B2BFBF7B4FB41EC100BA6
:104EA000D9E60000000000000000F03F0000000014
:104EB000182D4454FB2109400000F07F0000000041
:104EC00000000000000000000000E03F00000000C3
:104ED000000000000000F03F075C143326A6913C60
:104EE0000000603C00000000182D4454FB21F93FF5
:104EF0006C5000007A500000000000000000E03F0D
:104F00000000000000000040B64F0000C44F000049
:104F1000C84E0000D64E00002DED020B019820F087
:104F2000004001909DED000B02B0704700000000B2
:104F30002DE9F04D2DED040B2DED0E8B96B0DDE936
:104F40002550279CDDF890A025F0004624F000486D
:104F5000BAF1000F14BF0121002101EB4502FC4909
:104F600053184A1093422AD3002814BF0123002368
:104F700003EB44030B44F7498B4220D358EA00016A
:104F80009FEDF59B76D0DFF8D8B35D4503D1BAF13C
:104F9000000F05D188E0BAF1000F08BF002100D052
:104FA000012101EB450111F5001F08D8002814BFAD
:104FB0000121002101EB440111F5001F0BD99DEDEA
:104FC000261B9DED240B16B0BDEC0E8B04B0BDE886
:104FD000F04D01F0F3BA0027002DBCBFE149884530
:104FE00021DAE1498845A8BF02271CDAC3451ADC4B
:104FF000DE4901EB2851142908DDC1F1340220FA01
:1050000002F101FA02F282420DD108E058B9C1F171
:10501000140228FA02F101FA02F2424503D101F02A
:105020000101C1F1020756EA0A0124D1002C22DA5B
:10503000002D18BF022F01D0012F0AD0022001F04D
:1050400007FB16B0BDEC0E8B04B0BDE8F04D01F0CF
:1050500093BA022001F0FCFA01F08EFA51EC100B29
:1050600081F0004141EC100B16B0BDEC0E8B04B08A
:10507000BDE8F08D18E09FEDBEAB9FEDBF8B002823
:1050800071D1B848804522D105F1804010F58010DB
:1050900008BFBAF1000F07D0B3450ADC002CA8BF47
:1050A0009DED260BE0DA0DE0B0EE490AF0EE690A5C
:1050B000DAE7002C06DA9DED260B51EC100B81F09F
:1050C00000416FE0AE48784490ED000BCCE7D84546
:1050D0004DD1002C48DA2EB186423AD1BAF1000FF8
:1050E00042D126E0BAF1000F13D0022001F0B0FA4D
:1050F00001F07EFA8DED020B9DED240B8DED000B82
:1051000010EE900A039961F31E0003909DED020BCF
:10511000AAE78DED02AB9DED240B1AEE901A10EE6E
:10512000900A8DED000B61F31E0003909DED020BC4
:105130009AE78DED028B9DED240B18EE901A10EE80
:10514000900A8DED000B61F31E0003909DED020BA4
:105150008AE709DA9DED240B51EC190B53EC102B67
:10516000FBF7C2FA1EE020E09DED240B7CE78642AF
:105170001BDAB4F1804F0DD0A4F10050B0F1FF5014
:1051800013D1002D11DB9DED240B51EC100B03F01E
:1051900054FD07E09DED240B53EC102B51EC100B4C
:1051A00000F0C2BC41EC100B5EE79DED240B51EC0E
:1051B000100B02F0F9F9BAF1000FCDE90E0142D15E
:1051C0009FED710B46B3A6F1E040B0F17F600CD0CB
:1051D0005E4538D1002D00DAA7B3022F0CBF0120A5
:1051E0004FF0FF30FBF7EFFADCE7002D01DD002C7C
:1051F0000DDA002D01DD002C1FDB002D16DA002C4E
:1052000014DB012F08BF9FED620B3FF42DAFB0EE12
:105210004A0AF0EE6A0A27E7022F18BF002D0CD0C9
:10522000012F0AD1002DFFF61FAF06E0002DB8BFF9
:10523000002C08DA012F3FF417AFB0EE480AF0EE69
:10524000680A11E71BE0012000EBE57050EA070156
:1052500015D0791EB0EE498AF0EE698A084308BF7E
:105260009FED4D8B4E480025804570DD4D494E48E1
:10527000884514DDB0420DDB002C19DB2FE0012046
:1052800001F0E6F916B0BDEC0E8B04B0BDE8F04DB0
:1052900001F09EB9B34502DC002C09DC1FE0864218
:1052A00002DA002C1BDA03E05E452BDD002C16DD54
:1052B000022001F0CDF901F09BF98DED020B53ECCA
:1052C0001A2B51EC180BFBF79DF9CDE9000103995E
:1052D000019861F31E0003909DED020BC4E60220CD
:1052E00001F0B6F901F094F910EE901A18EE900A58
:1052F0008DED020B8DED008B61F31E0003909DED93
:10530000020BB1E69DED0E0B53EC192B51EC100B7B
:10531000FBF772F99FED260BCDE9080153EC102B3A
:105320009DED080B51EC100BFBF76CF99FED221B68
:1053300053EC112BFBF763F99DED081B53EC112B7C
:10534000FBF760F99FED1E1B53EC112B3CE08CE04A
:10535000FFFF1F00FFFF0F00000000000000F03FF4
:105360000000F03F0000F07F0000404301FCFFFF21
:10537000000000000000F07F0000000000000000BE
:105380002E4D000000000000000000000000008022
:10539000000000000000F0FF000000000000F0BF6F
:1053A0000000E0410000F043FFFFEF3F000000007D
:1053B000000000000000D03F555555555555D53FCC
:1053C000000000000000E03FFBF719F99DED080B1D
:1053D00041EC1A0B53EC102B51EC100BFBF712F9AC
:1053E00053EC1A2BFBF70EF941EC1A0B9FEDFE0B59
:1053F00053EC102B9DED080B51EC100BFBF702F951
:1054000041EC1B0B9FEDFA0B51EC1A0B53EC102BDC
:10541000FBF7F8F841EC1A0B9FEDF70B53EC102B50
:105420009DED080B51EC100BFBF7ECF853EC1A2B2D
:10543000FBF7E2F841EC1A0B51EC1B0B53EC1A2B67
:10544000FBF739F80690CDE906519DED060B53ECBC
:105450001B2B51EC100BFBF7CFF853EC1A2BFBF77F
:10546000CEF841EC100B00F0A1B90020B6F5801F7A
:105470000EDA9FEDE30B53EC102B9DED0E0B51EC70
:10548000100BFBF7BFF8CDE90E016FF034000E46AC
:1054900000EB2650A0F2FF37C6F31300DA4940F0C4
:1054A0007F6646F040568842D8BF002408DDD749C1
:1054B0008142C8BF012403DC0024A6F580167F1CAE
:1054C000D348784400EBC4000F9690ED00CB9DEDDF
:1054D0000E0B53EC1C2B51EC100BFBF78DF89DEDD4
:1054E0000E0B41EC1B0B53EC1C2B51EC100BFAF781
:1054F000E2FF41EC100B51EC190B53EC102BFBF7B6
:10550000F3F841EC1D0B51EC1B0B53EC1D2BFBF77F
:1055100079F841EC1A0BBF488DED10AB784410952B
:1055200090ED000B4FF0005040EA660000EB844025
:105530008DED080B00F5002009909DED080B53EC54
:105540001C2B51EC100BFBF757F89DED0E1B53EC89
:10555000112BFBF754F841EC100B53EC102B9DED85
:10556000100B51EC100BFBF74DF89DED080B41ECC7
:105570001C0B53EC102B9DED100B51EC100BFBF79B
:1055800041F853EC1B2BFBF73AF853EC1C2BFBF7C1
:1055900033F853EC1D2BFBF735F841EC1C0B53ECA7
:1055A0001A2B51EC1A0BFBF72DF841EC1B0B9A4808
:1055B0000621B0EE4B0AF0EE6B0A784400F0C8FE0C
:1055C000B0EE401AF0EE601AB0EE41DAF0EE61DAB9
:1055D00053EC1B2B51EC1B0BFBF714F853EC1D2B5E
:1055E000FBF710F89DED100B41EC1B0B53EC1A2B45
:1055F00051EC100BFAF75FFF53EC1C2BFBF702F892
:1056000053EC1B2BFAF757FF9DED100B41EC1B0BD6
:1056100053EC102B51EC100BFAF7F4FF41EC1D0B7F
:105620009FED7FEB53EC1E2BFAF745FF53EC1B2B42
:10563000FAF741FF0890CDE908519DED080B53ECB6
:105640001E2B51EC100BFAF7D7FF53EC1D2BFAF77A
:10565000D3FF53EC1B2BFAF7D2FF9DED080B41EC67
:105660001D0B53EC102B9DED100B51EC100BFAF7AA
:10567000C9FF41EC1B0B53EC1A2B51EC1D0BFAF735
:10568000C1FF9DED080B41EC1A0B53EC102B51ECB4
:105690001C0BFAF7B7FF53EC1A2BFAF70CFF41EC8F
:1056A0001A0B51EC1B0B53EC1A2BFAF704FF0C905E
:1056B000CDE90C519DED0C0B53EC1B2B51EC100B59
:1056C000FAF79AFF53EC1A2BFAF799FF41EC1B0BF0
:1056D0009FED550B53EC102B9DED0C0B51EC100B6B
:1056E000FAF790FF41EC1A0B9FED510B51EC1B0B9D
:1056F00053EC102BFAF786FF41EC1B0B9FED4E0B82
:1057000053EC102B9DED0C0B51EC100BFAF77AFFBC
:1057100053EC1B2BFAF7CFFE41EC100B48487844B2
:1057200000EBC40090ED001B51EC100B53EC112B5F
:10573000FAF7C1FE41EC1B0B3846FBF744F8CDE904
:10574000080153EC1B2B51EC1A0BFAF7B4FE41EC99
:10575000100B3C48784400EBC40090ED00CB51ECBA
:10576000100B53EC1C2BFAF7A6FE9DED081B53EC17
:10577000112BFAF7A0FE0690CDE906519DED080B1E
:1057800053EC102B9DED060B51EC100BFAF734FF88
:1057900053EC1C2BFAF730FF53EC1A2BFAF72CFFC3
:1057A00053EC1B2BFAF72BFF41EC100B9DED261B46
:1057B00053EC102B8DED001B00959DED260B51EC4D
:1057C000100BFAF71FFF9DED000B41EC1A0B53EC89
:1057D000102B9DED260B51EC100BFAF70DFF9DEDF4
:1057E000061B53EC112B2FE0000000604715F73F1C
:1057F000FE822B654715F73F44DF5DF80BAE543E44
:1058000000000000000040438E9803007AB60B00B1
:105810007A480000D8480000B247000000000000AD
:105820000000000000000840000000E009C7EE3F53
:10583000FD033ADC09C7EE3FF5015B14E02F3EBEE5
:105840003E460000F8450000FAF7DCFE53EC1A2B48
:10585000FAF731FE9DED060B41EC1A0B53EC102BC1
:105860009DED000B51EC100BFAF7CCFECDE90C01CD
:105870009DED0C0B51EC1A0B53EC102BFAF71BFEA1
:10588000CDE902010C46AA498C422FDB611A08437C
:1058900018D19DED0C0B53EC102B9DED020B51EC30
:1058A000100BFAF7A9FE41EC1B0B9FEDA30B51EC7B
:1058B0001A0B53EC102BFAF7FEFD53EC1B2BFBF7E6
:1058C00003F82DD2022000F0C3FE00F091FE10EE8E
:1058D000901A18EE900A8DED020B8DED008B61F39E
:1058E0001E0003909DED020BFFF7BEBB944A24F00F
:1058F0000041914214D39349214408437FF4EFAC13
:105900009DED0C0B53EC102B9DED020B51EC100B8D
:10591000FAF772FE53EC1A2BFAF7D6FF7FF6DFACDC
:1059200024F000408849894A002601EB2051824238
:105930002BDA481C4FF4801121FA00F02044844AED
:10594000C0F30A517A44A1F2FF3192ED000B814A73
:105950008DED080BCA4020EA0202C0F3130040F4A8
:105960008010C1F1140120FA01F60992002CB8BF91
:1059700076429DED080B53EC102B9DED0C0B51EC7A
:10598000100BFAF739FECDE90C019DED0C0B51EC33
:105990001A0B53EC102BFAF78EFD9FED6F0B08904E
:1059A000CDE9085153EC102B9DED080B51EC100B79
:1059B000FAF728FE41EC1B0B9FED690B53EC102B03
:1059C0009DED080B51EC100BFAF71CFE9DED0C0B36
:1059D00041EC1C0B53EC102B9DED080B51EC100B04
:1059E000FAF70AFE53EC1A2BFAF709FE9FED5E1B3D
:1059F00053EC112BFAF706FE53EC1C2BFAF75BFD68
:105A000041EC1A0B51EC1B0B53EC1A2BFAF753FD1C
:105A1000CDE902019DED020B53EC1B2B51EC100B59
:105A2000FAF7EAFD53EC1A2BFAF7E9FD9DED020BAC
:105A300041EC1A0B53EC102B51EC100BFAF7E2FD72
:105A4000CDE908014A489DED080B0521784400F096
:105A50007FFC9DED081B51EC100B53EC112BFAF75A
:105A6000D1FD9DED021B53EC112BFAF7C8FDCDE9DA
:105A700006019DED020B53EC1A2B51EC100BFAF7BB
:105A8000C1FD53EC1A2BFAF716FD9FED3B0B41ECD1
:105A90001A0B53EC102B9DED060B51EC100BFAF783
:105AA000ABFD9DED060B41EC1B0B53EC102B9DED5C
:105AB000020B51EC100BFAF7A5FD53EC1B2BFAF778
:105AC00013FE53EC1A2BFAF797FD9DED021B53ECD6
:105AD000112BFAF791FD53EC192BFAF790FDCDE954
