:020000040800F2
:10000000D8600020A10100089F3500088B3100084E
:10001000FD320008610B0008D93D00080000000017
:100020000000000000000000000000003137000860
:10003000A70C0008000000001D3600083337000838
:10004000BB010008BB010008BB010008BB010008A0
:10005000BB010008BB010008BB010008BB01000890
:10006000BB010008BB010008BB010008BB01000880
:10007000BB010008BB010008BB010008BB01000870
:10008000BB010008BB010008BB010008BB01000860
:10009000BB010008BB010008BB010008BB01000850
:1000A000BB010008BB010008BB010008BB01000840
:1000B000BB010008BB010008BB010008BB01000830
:1000C000BB010008BB010008BB010008BB01000820
:1000D000BB010008CD3D0008BB010008BB010008C2
:1000E000BB010008BB010008BB010008BB01000800
:1000F000BB010008BB010008BB010008BB010008F0
:10010000BB010008BB010008BB010008BB010008DF
:10011000BB010008BB01000849370008BB0100080B
:10012000BB010008CD0B0008BB010008BB010008A3
:10013000BB010008BB010008BB010008BB010008AF
:10014000BB010008BB010008BB010008BB0100089F
:10015000BB010008BB010008BB010008BB0100088F
:10016000BB010008BB010008BB010008BB0100087F
:10017000BB010008BB010008BB0100080000000033
:10018000BB010008BB010008DFF810D000F0D8FB6D
:1001900000480047816B0008AFF30080D860002062
:1001A0000648804706480047FEE7FEE7FEE7FEE711
:1001B000FEE7FEE7FEE7FEE7FEE7FEE73937000869
:1001C000890100082DE9F05F0546002092469B4614
:1001D00088460646814640241BE02846414647465D
:1001E000224600F076FA53465A46C01A914110D37F
:1001F00011461846224600F05DFA2D1A67EB0108F9
:100200004F4622460120002100F054FA17EB000966
:100210004E41201EA4F10104DFDC484631462A4647
:100220004346BDE8F09FD2B201E000F8012B491E21
:10023000FBD270470022F6E710B513460A46044683
:100240001946FFF7F0FF204610BD2DE9FE4F80460E
:1002500081EA0300C00F0C46009021F0004123F01A
:100260000045B8EB0200A94105D240462146904620
:100270001C460B46024623F00040104347D0270D92
:10028000C7F30A00C3F30A510290401A01904028B4
:100290006BDAC3F3130040F4801B0098924620B140
:1002A0000023D2EB030A63EB0B0B01985946C0F114
:1002B0004002504600F0FEF906460D4650465946AB
:1002C000019A00F016FA10EB08006141002487EA59
:1002D000115284EAE7731A4340D0009A62B3019A3C
:1002E000012A4FEA075215DC001B61EB02014FF0B7
:1002F000004202EA0752CDE90042001C41F580119C
:1003000032462B4600F04DFA03B0BDE8F08F404670
:100310002146F9E7001B61EB0201001C41F5801347
:1003200000185B412018A2F5001747EB030140EAD3
:10033000D570B6196D4111E06D084FEA360645EAF1
:10034000C0754FEA0752001B61EB0201001C41F52A
:10035000801149084FEA30000019514132462B46BE
:1003600003B0BDE8F04F00F00DBA00980122400044
:100370000023D0EB020263EBE073009821464FEAC2
:10038000E074B8EB000061EB0401E9E783F000439F
:100390005BE781F0004158E72DE9FE4F81EA030455
:1003A00004F0004421F0004100944FF0000B23F0D2
:1003B000004350EA01045ED052EA03045BD0C3F369
:1003C0000A54C1F30A552C44A4F2F3340194A0FB5F
:1003D0000254C1F3130141F48011C3F3130343F436
:1003E000801301FB024400FB034E840A970A44EA8F
:1003F000815447EA8357A4FB076802958D0A05FBE1
:1004000007854FEA932C04FB0C542705029D4FEA05
:10041000065847EA1637B5EB08056EEB070C870E52
:10042000920E47EA811742EA8312A7FB0201B6EB5C
:100430000B0164EB00042B0D43EA0C335E1844EB14
:100440001C50DA465146E7FB0201C5F313044FEA9C
:100450000B3343EA14534FEA0432019C43EA060388
:10046000A4F10C040294009CCDE900B400F099F9C9
:1004700003B0BDE8F08F00200146F9E72DE9F04D0B
:1004800081EA030404F0004B21F0004514464FF0CC
:10049000000A23F0004150EA050220D054EA01028C
:1004A0001DD0C5F30A570246C5F31303C1F3130069
:1004B000C1F30A5640F4801543F48013A7EB0608F5
:1004C000101BD64608F2FD3873EB050002D308F185
:1004D000010801E092185B41B8F1000F03DA002037
:1004E0000146BDE8F08D00204FF480110646844699
:1004F0000EE0171B73EB050705D3121B63EB050317
:1005000006434CEA010C49084FEA300092185B415F
:1005100050EA0107EDD152EA030012D082EA04004A
:1005200083EA0501084305D0101BAB4106D2012226
:10053000002306E000224FF0004302E06FF00102CA
:1005400053101AEB06004CEB085110EB0A0041EB7C
:100550000B01BDE8F04D00F015B90EB5C10F80EAF2
:10056000E0700844CA07002140F233438DE80E00D2
:100570000A460B4600F015F903B000BD0EB540F277
:10058000334102910021CDE900110A460B4600F0EB
:1005900008F903B000BDC1F30A5210B5C1F313014D
:1005A00040F2FF3341F480119A4201DA002010BD7D
:1005B00040F233439A42A2F2334203DC524200F04B
:1005C00088F810BD904010BD00F0004230F00040AF
:1005D0000AD0C10D01F56071C0F3160042EA015165
:1005E000C2084007114370470020014670470000D1
:1005F00030B5041E71F1000404DB4FF000444042AA
:1006000064EB0101141E73F1000405DB1C464FF07E
:100610000043524263EB04038B4208BF824230BD69
:1006200030B5041E71F1000404DB4FF00044404279
:1006300064EB0101141E73F1000405DB1C464FF04E
:100640000043524263EB0403994208BF904230BD1D
:1006500001F0004330B421F0004150EA010206D01D
:100660000A0DA2F56072C1F31301002A02DC30BC4E
:1006700000207047440F44EAC104C100E01830BCB8
:1006800000EBC25000F047B830B50B4601460020E1
:100690002022012409E021FA02F59D4205D303FA44
:1006A00002F5491B04FA02F52844151EA2F10102C5
:1006B000F1DC30BD202A04DB203A00FA02F10020F0
:1006C00070479140C2F1200320FA03F31943904090
:1006D0007047202A04DB203A21FA02F000217047FB
:1006E00021FA02F3D040C2F120029140084319469A
:1006F0007047202A06DBCB17203A41FA02F043EA82
:10070000E07306E041FA02F3D040C2F120029140CA
:100710000843194670470029A8BF7047401C49008C
:1007200008BF20F00100704710B4B0FA80FC00FA56
:100730000CF050EA010404BF10BC704749B1CCF181
:10074000200421FA04F411FA0CF118BF012121430D
:100750000843A3EB0C01CB1D4FEA00614FEA1020C8
:1007600042BF002010BC704700EBC350104400296A
:10077000A4BF10BC7047401C490008BF20F0010016
:1007800010BC704710B5141E73F1000408DA401C49
:1007900041F1000192185B411A4301D120F00100A0
:1007A00010BD2DE9F04D92469B4611B1B1FA81F290
:1007B00002E0B0FA80F220329046FFF77BFF044659
:1007C0000F4640EA0A0041EA0B0153465A460843E5
:1007D00013D0114653EA010019D0C8F14002504627
:1007E000FFF777FF05460E46504659464246FFF74B
:1007F00061FF084305D0012004E020463946BDE8EA
:10080000F08D0020054346EAE0762C4337430A98F2
:100810006305E40AA0EB08000022FD0A44EA4754FD
:100820000A3002D500200146E9E7010510196941A7
:10083000DDE9084500196941BDE8F04DA2E770B552
:1008400021F0004303430CD0C1F30A550024D5EB3B
:10085000040564EB0403D617AD1AB34102DB002094
:10086000014670BD201841EB025170BD2DE9F04DDD
:1008700000231A461B1A8A4103DB00200146BDE80B
:10088000F08DC1F30A52C1F3130141F480154FF00A
:10089000000BD10702D100186D41521E00270446FB
:1008A00040F2FF11384601EB620A3E46804602469E
:1008B00000204FF48011FFF70CFFC2197141BB18E3
:1008C00046EB0100B4EB030C75EB000C04D3E41A07
:1008D00065EB000517460E46241908F101006D412D
:1008E00080463428E3DDF91946EB0600091BA841D0
:1008F00003D24FF0FF32134601E0002213461BEBF8
:10090000070046EB0A51BDE8F04DFFF73BBFC1F3CE
:100910000A52C1F3130140F2FF3341F480119A42AD
:1009200002DA00200146704740F233439A42A2F2B5
:10093000334202DC5242FFF7CCBEFFF7BBBE0000E1
:10094000064C074D06E0E06840F0010394E807001C
:1009500098471034AC42F6D3FFF71AFCC076000873
:10096000E076000870B5C1F30A5201F0004500249A
:10097000C1F3130140F2FF3341F480119A4201DACE
:10098000002070BD40F233439A42A2F2334203DCAE
:100990005242FFF79EFE00E090402C43F1D04042CF
:1009A00070BD10B50146886B026C12F0500F05D077
:1009B000026CD20626D500F092FA10BD016C41F40B
:1009C0000071016401688A6812F0405F17D1027EED
:1009D000AAB9CA6A12F4700F02D08A6852050ED4FE
:1009E0004A6822F020024A60016C21F4807101649F
:1009F000016CC90403D4016C41F00101016400F0F1
:100A0000FFF910BD806BC26CBDE81040084610476E
:100A100010B5806B40210164416C41F004014164D8
:100A200000F05DFA10BD10B5806B00F057FA10BDF4
:100A30004A494A6822F440324A604A6843681A4385
:100A40004A6001684A6822F480724A6001684A6814
:100A5000036942EA03224A6001684A6822F0407250
:100A60004A6001684A6883681A434A6001688A6874
:100A700022F400628A6001688A68C3681A438A6047
:100A8000816A6FF07062D14214D001688A6822F0E6
:100A900070628A6001688A68836A1A438A600168A2
:100AA0008A6822F040528A6001688A68C36A1A43E1
:100AB0008A6009E001688A6822F070628A600168D1
:100AC0008A6822F040528A6001688A6822F0020235
:100AD0008A6001688A68037E42EA43028A6090F86D
:100AE000201089B101684A6842F400624A600168D6
:100AF0004A6822F460424A6001684B68426A521EAA
:100B000043EA42324A6004E001684A6822F4006223
:100B10004A600168CA6A22F47002CA620168CB6A3C
:100B2000828B521E43EA0252CA6201688A6822F42A
:100B300000728A6001688A6890F8303042EA432285
:100B40008A6001688A6822F480628A6001688A6823
:100B5000406942EA8020886070470000002301401D
:100B6000FEE700F001B8000010B51649022005F0BC
:100B7000A7FE1449144C08784A7840EA02206083A2
:100B80008878CA7840EA0220A0830A7984F827206E
:100B90000020A1F114035AB1588018701A78002A65
:100BA00005D06083A083087048708870C87010BD3D
:100BB0005A88521C92B25A800A2AEFD958800122D0
:100BC0001A70EBE7A6000020105C0020014800F03E
:100BD00029BD0000045800200168CAB2103A182349
:100BE000B2FBF3F2064B9B5CC3656FF30901032A6A
:100BF00002D9091D816500E08165806D70470000A4
:100C00006C74000810B5014600208A6A8B694FF0A9
:100C1000C074002B0ED0B3F5005F1AD062B3012A66
:100C20002AD0022A28D0032A03D1C96AC90100D5D3
:100C3000012010BD1AB1012A06D0022AF9D1C96AD1
:100C4000C901F6D5012010BDC96AA142FBD101201E
:100C500010BD52B1012A0AD0022A06D0032AF7D1C8
:100C6000C96AA142F4D1012010BD012010BDC96A9A
:100C7000C901FBD5012010BD012010BD30B50468AD
:100C8000256825F480252560046863608368402B0F
:100C900004D0036899600068C26030BD03689A6040
:100CA0000068C16030BD704778B50024009490F8AA
:100CB0003C20012A19D0012280F83C200A6807252F
:100CC000092A14D90368DE680A3A02EB4202954009
:100CD000AE43DE600A788B680A3A02EB4202934028
:100CE0000268D5682B43D36011E0022078BD036809
:100CF0001E6902EB42029540AE431E610A788B6882
:100D000002EB42029340026815692B4313614A6863
:100D10001F25072A13D203685E6B521E02EB820264
:100D20009540AE435E630A8893B20A79521E02EB85
:100D3000820293400268556B2B43536328E00D2ACF
:100D400013D203681E6BD21F02EB82029540AE43A2
:100D50001E630A8893B20A79D21F02EB8202934083
:100D60000268156B2B43136312E00368DE6A0D3AC9
:100D700002EB82029540AE43DE620A8893B20A79A2
:100D80000D3A02EB820293400268D56A2B43D3628C
:100D9000174A184B05689D4206D10D68122D03D1E4
:100DA000556845F48005556005689D421BD10B6868
:100DB000102B01D0112B16D1536843F4000353605C
:100DC000096810290FD10C490C4A0968B1FBF2F1EE
:100DD00001EB81014900009102E00099491E009158
:100DE00000990029F9D180F83C40002078BD00002E
:100DF00000230140002001400000002040420F007D
:100E000070B500682549884247D1254800F04AF965
:100E10002348A83005F080FC214CA8346089FFF7F6
:100E2000ADFB9FED201B53EC112BFFF7B5FA9FEDA7
:100E30001F1B53EC112BFFF721FBFFF709FC1D4D86
:100E400028602089FFF79AFB9FED1B1B53EC112BA9
:100E5000FFF7A2FA9FED1A1B53EC112BFFF79CFA38
:100E6000FFF7F6FB6860A089FFF788FB9FED161B74
:100E700053EC112BFFF790FA9FED151B53EC112B40
:100E8000FFF7FCFAFFF7E4FBA860BDE8704042F60C
:100E9000F8221149024800F04FB870BD002201400D
:100EA000BC5700209999999999318A400000000017
:100EB0000000F640A85B0020CDCCCCCCCC4C394017
:100EC000000000000000303F1F85EB51B8FE60407D
:100ED000666666666666E040CC0100207047704733
:100EE00070B504460026002C03D0206C002510B1FC
:100EF00007E0012070BD204600F01CF8656484F80E
:100F00003C50206CC00610D4206C20F4885040F077
:100F1000020020642046FFF78BFD6564206C20F002
:100F2000020040F00100206400E0012684F83C50FB
:100F3000304670BD70470000F8B5044600230093AA
:100F400094F83C00012807D0012084F83C00206878
:100F50008568ED0702D014E00220F8BD856845F0F1
:100F6000010585604648474D0068B0FBF5F000EB91
:100F70004000009002E00098401E00900098002879
:100F8000F9D120688568ED0503D5856825F480755D
:100F9000856020688568ED0768D0256C40F20166A1
:100FA000B54345F4807525644068400505D5206C3F
:100FB00020F4005040F480502064206CC00404D51C
:100FC000606C20F00600606400E0636484F83C30EC
:100FD0002D4EA36B2D48D863A36B2D481864A36BCB
:100FE0002C48D86423686FF022001860206843689A
:100FF00043F0806343602068836843F480738360B8
:10100000206813464C300A46A56B0146284600F07E
:101010005BFC70682049C00607D0206888422DD14B
:10102000816811F0405F1CD028E0206888420FD012
:101030001A4A904203D1D1F80423D20608D0184AA4
:1010400090421BD1D1F8041301F01F01102915D2D1
:10105000816811F0405F11D1816841F08041816069
:101060000CE0816841F08041816007E0206C40F035
:1010700010002064606C40F0010060640020F8BD46
:101080000000002040420F0000230140A309000897
:10109000270A0008110A0008002001400021014031
:1010A0000022014010B50446002094F83C100129AC
:1010B0000CD0012184F83C1021688A6822F00102DA
:1010C0008A6021688A68D20702D01DE0022010BD24
:1010D0008A6822F480728A60A16B91F83520022A16
:1010E00007D1084600F044FA18B1216C41F04001E4
:1010F000216421684A6822F080624A60216C21F4F0
:10110000885141F001012164002184F83C1010BD98
:1011100010B590F82020012A07D0022A05D0416A94
:1011200041F480214162012010BD3C4800F500706F
:10113000026842F001020260026822F47C520260FE
:1011400002684B6A42EA032202600A7D02F01F0332
:1011500001229A40C3699343C361A0F50070CB6933
:10116000B3B9D0F80C329343C0F80C328C894B6879
:1011700064F31F434C6900EBC404C4F840320C898B
:101180000B6864F31F434C6900EBC404C4F8443299
:10119000CB69012B16D1D0F80C321343C0F80C32B6
:1011A0000C884B6864F31F434C6900EBC404C4F81B
:1011B00040320C89CB6864F31F434C6900EBC404D4
:1011C000C4F844328B697BB1D0F804321343C0F8C1
:1011D00004320B6973B1D0F814321343C0F81432DF
:1011E000096A01290CD010E0D0F804329343C0F80A
:1011F0000432EEE7D0F814329343C0F81432EFE72C
:10120000D0F81C121143C0F81C12D0F8001221F0C3
:101210000101C0F80012002010BD00000064004071
:101220000246002092F82030012B01D0022B04D17D
:1012300021B11068006900F0030070471068C068B1
:1012400000F00300704730B590F82040012C07D023
:10125000022C05D0416A41F480214162012030BD59
:1012600021B104682469A4075FD003E00468E4683E
:10127000A40754D04FF4D874056804EB01142D5919
:1012800005F004059560F5B305682D59ED08556026
:1012900005682C5904F00204D4604FF4DA74056830
:1012A00004EB01142D5905F00F05156105682D5942
:1012B000C5F30725956105682C59240C54614FF43A
:1012C000DC72046802EB0112A4581C700468A45874
:1012D000240A5C700468A458240C9C700468A2580A
:1012E000120EDA704FF4DE72046802EB0112A45899
:1012F0001C710468A458240A5C710468A458240C66
:101300009C71046800E016E0A258120EDA71B9B1BF
:101310000068016941F020010161002030BD416A8F
:1013200041F400114162012030BD416A41F40011D5
:101330004162012030BD05682D596D0D1560A7E78C
:101340000068C16841F02001C160E6E770B504465D
:10135000002C03D094F8200010B104E0012070BDEF
:10136000204600F09DF82068016821F0020101602C
:1013700000F0E0FB054605260CE000F0DBFB401B1F
:101380000A2807D9606A40F40030606284F820605F
:10139000012070BD206840688007EED42068016895
:1013A00041F00101016000F0C5FB05460CE000F0D2
:1013B000C1FB401B0A2807D9606A40F40030606214
:1013C00084F82060012070BD20684068C007EED01E
:1013D000207E01283FD02068016821F08001016053
:1013E000607E01283DD02068016821F04001016045
:1013F000A07E01283BD02068016821F02001016017
:10140000E07E012839D02068016841F010010160B8
:10141000207F012837D02068016821F00801016091
:10142000607F012835D02068016821F00401016047
:10143000D4E902010843D4E9041211430843616866
:10144000491E08432168C86100206062012084F8B9
:101450002000002070BD2068016841F0800101601B
:10146000BEE72068016841F040010160C0E72068E4
:10147000016841F020010160C2E72068016821F0A5
:1014800010010160C4E72068016841F008010160B3
:10149000C6E72068016841F004010160C8E7000068
:1014A00030B587B00068194988422CD118480168C6
:1014B00041F008010160016801F008010191016833
:1014C00041F008010160006800F008000190104838
:1014D0001030016841F000710160006800F0007098
:1014E00001900220029003900124049405900920A9
:1014F0000690084D02A9284600F01EFA029402A99F
:10150000284600F019FA07B030BD00000064004022
:1015100030380240000C024070B5044694F82000B8
:10152000012805D0606A40F400206062012070BD8F
:10153000022084F820002068016821F00101016088
:1015400000F0F8FA05460DE000F0F4FA401B0A2816
:1015500008D9606A40F400306062052084F82000F9
:10156000012070BD20684068C007EDD1606270BD89
:101570002DE9F0410446A76D00F0DCFA054694F829
:1015800035000026022806D08020606584F834608B
:101590000120BDE8F0812068016821F0160101609A
:1015A0002068416921F080014161206C08B9A06C7C
:1015B00020B12068016821F00801016020680168FD
:1015C00021F0010101600BE000F0B4FA401B052896
:1015D00006D9202034342062267003206070D8E7BA
:1015E00020680068C007EFD134343F2094F82810F9
:1015F0008840B8602670012060700020C9E790F82C
:101600003510022903D08021416501207047052152
:1016100080F835100068016821F0010101600020A8
:10162000704700002DE9F84304464FF00009CDF85B
:1016300000906F484FF416510068B0FBF1F7A56DAC
:101640002E6894F85C00082202FA00F1314210D0B2
:101650002068016849070CD5016821F00401016088
:1016600094F85C0002FA00F1A960606D40F001009E
:10167000606594F85C104FF0010808FA01F0304200
:1016800008D021684969090604D5A860606D40F05A
:101690000200606594F85C1004208840304208D055
:1016A00021680968890704D5A860606D40F00400CE
:1016B000606594F85C1010208840304220D021688A
:1016C000096809071CD5A8602068016849030CD582
:1016D0000068000304D4216C91B1204688470FE0D4
:1016E000A16C69B1204688470AE00168C90503D4A6
:1016F000016821F008010160216C09B1204688478A
:1017000094F85C102020884030424CD02168096851
:10171000C90648D5A86094F8350005280BD0206884
:101720000168490330D50068000328D4616C51B3C7
:101730002046884737E02068016821F016010160E3
:101740002068416921F080014161206C08B9A06CDA
:1017500020B12068016821F00801016094F85C1054
:101760003F208840A86084F8349084F83580216D4B
:1017700000293BD001B02046BDE8F0430847E16BAB
:1017800009B1204688470EE00168C90507D4016801
:1017900021F01001016084F8349084F83580E16B09
:1017A00009B120468847606D00281FD0606DC007D2
:1017B00014D0052084F835002068016821F001016B
:1017C00001600098401C0090B84203D8206800686F
:1017D000C007F6D184F8349084F83580E16C002994
:1017E00004D001B02046BDE8F0430847BDE8F883C7
:1017F000000000202DE9F041044600F09BF9054669
:101800005CB1002684F83460022084F8350020683A
:10181000016821F0010101600DE00120BDE8F081C7
:1018200000F088F9401B052805D9202060650320B9
:1018300084F83500F2E720680068C007F0D121681D
:101840000A6820480240D4E901031843D4E903356B
:101850002B43184363691843A3691843E36918438A
:10186000236A18431043626A042A03D1D4E90B2384
:101870001A43104308602068406920F00700656A39
:1018800029460543012704290DD1A06A0543E06AD2
:1018900048B12046FFF7B6F928B14020606584F8CA
:1018A00035700120BAE7206845612046FFF794F9BA
:1018B00094F85C203F2191408160666584F8357022
:1018C0000020ABE73F8010F02DE9F04104460025F1
:1018D000A66D94F8340001280DD0012084F834005E
:1018E00094F835700020012F07D084F834000225C9
:1018F0002846BDE8F0810220FBE7022784F8357016
:1019000060652046FFF7BAF994F85C103F208840E4
:10191000B0602068016841F016010160206C20B1C0
:101920002068016841F0080101602068016841F009
:1019300001010160DCE700002DE9F84F0022DFF82B
:101940009C914FF0010809F1040A03274FF00F0C96
:101950000AF1040B08FA02F50B682B40AB4272D176
:101960000C7904F00304012C01D0022C15D18668F7
:10197000540007FA04FE26EA0E06D1F80CE00EFA2F
:1019800004FE4EEA060EC0F808E04468AC430D7948
:10199000C5F300159540254345600C79E443A40741
:1019A00008D0C568540007FA04F6B5438E68A6400F
:1019B0002E43C6600C7904F00304022C11D1D40824
:1019C00000EB8406356A5407E40E0CFA04FE25EA9F
:1019D0000E05D1F810E00EFA04FE4EEA050EC6F828
:1019E00020E00568540007FA04F6B5430E7906F0C6
:1019F0000306A6402E4306604C68E40067D5384CC9
:101A0000256845F480452560246804F480440094EA
:101A1000344C22F003052E19D6F8085894074FEAE3
:101A2000147E0CFA0EF4A5432F4CA04201D10024E1
:101A300024E02E4CA04201D101241FE02C4CA042F6
:101A400002D102241AE042E02A4CA04201D1032430
:101A500014E0294CA04201D104240FE0274CA042FD
:101A600001D105240AE0264CA04201D1062405E05C
:101A7000244CA04201D1072400E0082404FA0EF40B
:101A80002C43C6F80848D9F800409C434D68ED0344
:101A900000D51C43C9F80040DAF800409C434D686B
:101AA000AD0300D51C43CAF80040DBF800409C435E
:101AB0004D68ED0200D51C43CBF80040074D0C35B6
:101AC0002C689C434E68B60200D51C432C60521C07
:101AD000102AFFF43FAFBDE8F88F0000003C014042
:101AE000443802400030014000000240000402403F
:101AF00000080240000C02400010024000140240A6
:101B000000180240001C0240426921EA02030A4018
:101B100043EA024181617047002A01D08161704728
:101B2000090481617047000001480068000C70479B
:101B3000002004E00148806870470000B0000020E9
:101B400070B50446002C11D021684CF6CC400860DA
:101B5000216845F255500860D4E9001048602168BA
:101B6000A0688860FFF7E6FF05460CE0012070BD25
:101B7000FFF7E0FF401B302805D92068C0688007C8
:101B800001D0032070BD2068C0688007F0D12168B3
:101B90004AF6AA200860002070BD00684AF6AA2113
:101BA00001600020704700000248816802781144FB
:101BB00081607047B000002010B50948016841F409
:101BC00000710160016841F480610160032000F050
:101BD00059F80F2000F006F800F026F8002010BD9C
:101BE000003C024070B504460D4D4FF47A712878E0
:101BF000B1FBF0F00B490968B1FBF0F000F036FBE7
:101C000008B1012070BD102C07D200222146501EC1
:101C100000F018F86C60002070BD012070BD00005D
:101C2000B0000020000000207047002809DB00F011
:101C30001F02012191404009800000F1E020C0F81E
:101C400000117047F0B40D460D4B1B68C3F302231F
:101C5000C3F10704042C00D90424191D072901D25B
:101C6000002300E0DB1E012606FA04F1491E29408C
:101C700099409E40761E16403143F0BC02F058B9A0
:101C80000CED00E000F00701054A10684FF6FF0375
:101C9000184040EA012003490843106070470000E3
:101CA0000CED00E00000FA052DE9F04704460D4672
:101CB000002C13D0DFF82891D9F80000EFB200F023
:101CC0000700A8420CD289F80070D9F8000000F093
:101CD0000700A84204D00120BDE8F0870120FBE7FF
:101CE0002068404E810712D5400703D5306840F484
:101CF000E05030602078000703D5306840F4604041
:101D000030603068A16820F0F0000843306020782F
:101D1000C00731D0334960680839012808D002284B
:101D20000BD0032809D0096889070BD40120D3E719
:101D30000968890306D40120CEE70968890101D426
:101D40000120C9E7316821F0030101433160FFF749
:101D5000F1FE804641F2883A07E0FFF7EBFEA0EB88
:101D60000800504501D90320B6E73068616800F0EB
:101D70000C00B0EB810FF0D1D9F8000000F00700A3
:101D8000A84209D989F80070D9F8000000F00700CE
:101D9000A84201D001209FE72078400705D5306890
:101DA000E16820F4E050084330602078000706D551
:101DB0003068216920F4604040EAC100306000F0E2
:101DC0003FF83168084AC1F30311515CC840074924
:101DD000086007480068FFF705FF00207CE7000067
:101DE000003C024008380240547400080000002003
:101DF000B400002001480068704700000000002087
:101E000000B5FFF7F7FF04490968044AC1F38221CE
:101E1000515CC84000BD00000838024064740008EE
:101E200000B5FFF7E7FF04490968044AC1F34231EE
:101E3000515CC84000BD00000838024064740008CE
:101E400010B51748006810F00C01164816D0164B54
:101E5000042912D0082911D1114C241F216801F046
:101E60003F02216849020AD52068C0F38810A0FB10
:101E700003010023FEF7A6F909E0184610BD21680A
:101E80000023C1F38811A1FB0001FEF79BF9216833
:101E9000C1F30141491C4900B0FBF1F010BD000045
:101EA000083802400024F400001BB7002DE9F84F69
:101EB0000446002C13D02078DFF8A083C007A8F1D7
:101EC000040556D008F104000168C1F3810101291D
:101ED0000CD00068C0F38100022803D00DE001207F
:101EE000BDE8F88FD8F80000400206D528688003C6
:101EF0003FD5606870BB0120F2E76068B0F5803FB5
:101F000010D0B0F5A02F12D0286820F480302860BF
:101F1000286820F4802028606068E0B1FFF70AFE9E
:101F2000064614E0286840F480302860F4E728680A
:101F300040F480202860286840F480302860EBE777
:101F4000FFF7F8FD801B642801D90320C8E7286843
:101F50008003F5D50DE0FFF7EDFD064606E0FFF73F
:101F6000E9FD801B642801D90320B9E728688003B4
:101F7000F5D42078BA4F80074FF0000948D5B7480C
:101F8000001D016811F00C0F08D00068C0F381003B
:101F9000022813D1D8F8000040020FD42868800727
:101FA00004D5E068012801D0012099E7286821695B
:101FB00020F0F80040EAC100286029E0E068B8B1EC
:101FC00001203860FFF7B6FD064606E0FFF7B2FDD8
:101FD000801B022801D9032082E728688007F5D5F5
:101FE0002868216920F0F80040EAC10028600FE06D
:101FF000C7F80090FFF79EFD064606E0FFF79AFD42
:10200000801B022801D903206AE728688007F5D4DD
:102010002078000729D5DFF844A2924861690AF1C7
:10202000700A89B101210160FFF784FD064606E0D0
:10203000FFF780FD801B022801D9032050E7DAF862
:1020400000008007F4D510E0C0F80090FFF772FDA3
:10205000064606E0FFF76EFD801B022801D903202B
:102060003EE7DAF800008007F4D42078400778D5FE
:102070004FF0000A79483C300068C0000BD4774824
:102080003C30016841F080510160006800F08050F0
:1020900000904FF0010ADFF8D0B1DBF80000C00576
:1020A00014D4DBF8000040F48070CBF80000FFF798
:1020B00041FD064606E0FFF73DFD801B022801D9E1
:1020C00003200DE7DBF80000C005F4D5634EA068DF
:1020D0006C3601280FD0052812D0306820F001009E
:1020E0003060306820F004003060A068F8B1FFF77D
:1020F00021FD834617E0306840F001003060F4E7CE
:10210000306840F004003060306840F0010030601A
:10211000EBE7FFF70FFDA0EB0B0141F288308142A6
:1021200001D90320DCE630688007F2D510E0FFF724
:1021300001FD834609E0FFF7FDFCA0EB0B0141F236
:102140008830814201D90320CAE630688007F2D482
:10215000BAF1010F05D141483C30016821F08051AE
:102160000160A069C0B33D49091D09684FF0FF3601
:10217000C1F38101022946D0022805D0C7F860903A
:10218000FFF7D8FC04463AE0C7F86090FFF7D2FCAE
:10219000814607E0FFF7CEFCA0EB0900022801D939
:1021A00003209DE628688001F4D4D4E907010843A0
:1021B000616AA26A890106EB520241EA02410843C0
:1021C00094F82C1040EA0160C8F80000012038663D
:1021D000FFF7B0FC044607E03DE0FFF7ABFC001B57
:1021E000022801D903207BE628688001F5D532E07A
:1021F000FFF7A0FC001B022801D9032070E6286825
:102200008001F5D427E0012823D0D8F80000E26946
:1022100000F4800191421AD1226A00F03F019142FC
:1022200015D147F6C071626A0140B1EB821F0ED131
:10223000A26A00F4403106EB5202B1EB024F06D124
:1022400094F82C1000F07060B0EB016F03D0012007
:1022500046E6012044E6002042E600000438024041
:1022600000004742800E47420070004010B5401EFB
:10227000B0F1807F01D3012010BD4FF0E0246061F8
:102280000F21601701F054FE0020A061072020619B
:10229000002010BD7047704710B590F83C20012A0F
:1022A00022D0012280F83C20CA6800238C6822F4E6
:1022B000407222434C6822F4806222430C6822F46C
:1022C000006222430C6922F4805222434C6922F4BA
:1022D00000522243C96922F480420A4301684A64D9
:1022E00080F83C30002010BD022010BD10B504461F
:1022F000002909D004290AD008290BD094F84500F8
:1023000001280AD0012010BD94F84200F8E794F8A3
:102310004300F5E794F84400F2E7022089B304296A
:1023200033D0082934D084F845000422206801F015
:1023300084FA2068416C41F40041416419492068E5
:10234000884214D0B0F1804F11D0174988420ED086
:10235000164988420BD01649884208D01549884250
:1023600005D01549884202D01449884213D18168AA
:1023700001F00701062912D0016841F00101016056
:102380000DE0FFE784F84200CFE784F84300CCE794
:1023900084F84400C9E7016841F0010101600020B0
:1023A00010BD000000000140000400400008004093
:1023B000000C0040000401400040014000180040B3
:1023C00010B50446002C03D094F83D0010B107E08E
:1023D000012010BD002084F83C00204600F016F8D3
:1023E000022084F83D00211D206801F0B3F901208E
:1023F0003D3460726070A070E07020716071A071F7
:10240000E07120722070002010BD000008B5006847
:102410000B49884212D10B48016841F0100101605C
:10242000006800F010000090012211463620FFF7EE
:1024300009FCBDE808403620FFF7F7BB08BD0000E7
:10244000001000404038024090F83D10012901D0B2
:1024500001207047022180F83D100168CA6842F0EF
:102460000102CA6000681449884214D0B0F1804F5C
:1024700011D0124988420ED0114988420BD011491F
:10248000884208D01049884205D01049884202D0BD
:102490000F49884209D1816801F00701062908D057
:1024A000016841F00101016003E0016841F00101B0
:1024B000016000207047000000000140000400405F
:1024C00000080040000C00400004014000400140B2
:1024D00000180040704770B50446206801694FF04D
:1024E0000005C943890716D4C168C943890712D4B6
:1024F000E91E01610120207720688069800703D0F0
:102500002046FFF7E7FF05E0204600F09BF8204655
:1025100000F028F9257720680169C943490718D4D4
:10252000C168C943490714D46FF004010161022056
:1025300020772068806910F4407F03D02046FFF7A1
:10254000C9FF05E0204600F07DF8204600F00AF9BA
:10255000257720680169C943090717D4C168C943B1
:10256000090713D46FF00801016104202077206867
:10257000C069800703D02046FFF7ACFF05E0204686
:1025800000F060F8204600F0EDF82577206801693A
:10259000C943C90618D4C168C943C90614D46FF029
:1025A00010010161082020772068C06910F4407F85
:1025B00003D02046FFF78EFF05E0204600F042F8EA
:1025C000204600F0CFF8257720680169C943C90784
:1025D00008D1C168C943C90704D1891E01612046D9
:1025E00000F030F920680169C943090609D4C168BF
:1025F000C943090605D46FF0800101612046FFF749
:1026000049FE20680169C943490609D4C168C94324
:10261000490605D46FF040010161204600F000FC3E
:1026200020680169C94389060BD4C168C94389067A
:1026300007D46FF0200101612046BDE87040FFF72C
:102640002ABE70BD704770B504460D4694F83C0034
:1026500001280AD0012084F83C0042B1042A1AD093
:10266000082A2DD00C2A53D13EE0022070BD294605
:10267000206801F0EFF82068816941F0080181616C
:102680002068816921F004018161206881692A69DB
:10269000114381613CE02946206801F00FF9206870
:1026A000816941F4006181612068816921F4806160
:1026B0008161206881692A6941EA0221816127E0FC
:1026C0002946206801F034F92068C16941F0080109
:1026D000C1612068C16921F00401C1612068C1693C
:1026E0002A691143C16113E02946206801F058F9B5
:1026F0002068C16941F40061C1612068C16921F4A9
:102700008061C1612068C1692A6941EA0221C16111
:10271000002084F83C0070BD10B50446002C03D0A6
:1027200094F83D0010B107E0012010BD002084F8AE
:102730003C00204600F015F8022084F83D00211DE1
:10274000206801F007F801203D3460726070A070CD
:10275000E07020716071A071E07120722070002023
:1027600010BD70477047000010B50446002909D01D
:1027700004290AD008290BD094F8410001280AD076
:10278000012010BD94F83E00F8E794F83F00F5E70B
:1027900094F84000F2E70220A9B3042937D00829B1
:1027A00038D084F841000122206801F039F81E4930
:1027B00020681E4A884201D0904203D1436C43F402
:1027C000004343642068884213D0B0F1804F10D09A
:1027D000174988420DD0174988420AD016498842C5
:1027E00007D0904205D01549884202D0144988424A
:1027F00013D1816801F00701062912D0016841F068
:10280000010101600DE0FFE784F83E00CBE784F8AA
:102810003F00C8E784F84000C5E7016841F00101C6
:102820000160002010BD00000000014000040140D4
:102830000004004000080040000C0040004001403F
:10284000001800402DE9F05F2DED108B0068FD4968
:10285000884271D100F0A4FEFB4E3078401CC0B21B
:1028600030704FF0000BC82804D9F84880F804B045
:1028700086F800B0F64D2888E988401AFDF76DFE0D
:102880009FEDF4FB53EC1F2BFDF786FD9FEDF31B33
:1028900053EC112BFDF780FDFDF7DAFEF14CA06043
:1028A000F14FDFF8C8839FEDF2BB9FEDF3CB9FEDB7
:1028B000F4DB9FEDF5AB9FEDF69B9FEDF7EAB84299
:1028C00060DBA888FDF75AFE53EC1B2BFDF764FD77
:1028D00053EC1C2BFDF7B9FC53EC1D2BFDF756FDFB
:1028E000FDF7B6FE6060FDF76FFE41EC100B01F0E6
:1028F000FFFD53EC1A2B51EC100BFDF779FE01D2C2
:1029000084ED01EA6068FDF75FFE53EC192BFDF7DB
:1029100043FD41EC180BA068FDF756FE41EC100B8F
:1029200001F0E6FD53EC182B51EC100BFDF760FEA7
:1029300003D8B0EE4E8A8DE041E26068FDF744FEB8
:10294000B0EE491AF0EE691A53EC112BFDF724FD95
:1029500041EC180BA068FDF737FE41EC100B01F0BD
:10296000C7FD53EC182B51EC100BFDF70FFD9FED3D
:10297000CB1B53EC112BFDF781FDFDF769FE08EE33
:10298000100A67E040455FD96888FDF7F7FD53EC12
:102990001B2BFDF701FD53EC1C2BFDF756FC53ECF4
:1029A0001D2BFDF7F3FCFDF753FE6060FDF70CFEF9
:1029B00041EC100B01F09CFD53EC1A2B51EC100B69
:1029C000FDF716FE01D284ED01EA6068FDF7FCFD1B
:1029D00053EC192BFDF7E0FC41EC180BA068FDF758
:1029E000F3FD41EC100B01F083FD53EC182B51EC7F
:1029F000100BFDF7FDFD02D8B0EE4E8A2AE06068AC
:102A0000FDF7E2FDB0EE491AF0EE691A53EC112B16
:102A1000FDF7C2FC41EC180BA068FDF7D5FD41ECB9
:102A2000100B01F065FD53EC182B51EC100BFDF76A
:102A3000ADFC9FED9C1B53EC112BFDF71FFDFDF72B
:102A400007FE08EE100A05E084ED02EA84ED01EAD3
:102A5000B0EE4E8A84ED048AA88A698A401AFDF78E
:102A60007CFD53EC1F2BFDF797FC9FED7C1B53EC7B
:102A7000112BFDF791FCFDF7EBFDDFF830A281464D
:102A8000CAF80800B84260DB288AFDF777FD53ECEE
:102A90001B2BFDF781FC53EC1C2BFDF7D6FB53ECF5
:102AA0001D2BFDF773FCFDF7D3FDCAF80400FDF7FD
:102AB0008BFD41EC100B01F01BFD53EC1A2B51EC7C
:102AC000100BFDF795FD01D28AED01EADAF804005A
:102AD000FDF77AFD53EC192BFDF75EFC41EC180B6A
:102AE000DAF80800FDF770FD41EC100B01F000FD75
:102AF00053EC182B51EC100BFDF77AFD02D8F0EED9
:102B00004E8AE0E0DAF80400FDF75EFD53EC192B85
:102B1000FDF742FC41EC180BDAF80800FDF754FD14
:102B200041EC100B01F0E4FC53EC182B51EC100BB2
:102B3000FDF72CFC9FED591B53EC112BFDF79EFC70
:102B4000FDF786FD08EE900ABDE0C14579D9E88918
:102B5000FDF714FD53EC1B2BFDF71EFC53EC1C2B57
:102B6000FDF773FB53EC1D2BFDF710FCFDF770FD1B
:102B700008EE100A8AED018A4846FDF725FD41EC72
:102B8000100B01F0B5FC53EC192B51EC100BFDF7B9
:102B900075FCFDF75DFD01EE100AF0EE480AB0EE9F
:102BA0004E0A01F01AF98AED010A10EE100AFDF73B
:102BB0000BFD41EC100B01F09BFC53EC1A2B51EC7C
:102BC000100BFDF715FD01D28AED01EADAF80400D9
:102BD000FDF7FAFC53EC192BFDF7DEFB41EC1A0B69
:102BE000DAF80800FDF7F0FC41EC100B01F080FC76
:102BF00053EC1A2B51EC100BFDF7FAFC02D8F0EE57
:102C00004E8A60E0DAF80400FDF7DEFC53EC192B85
:102C1000FDF7C2FB41EC180BDAF80800FDF7D4FC15
:102C200041EC100B01F064FC53EC182B51EC100B31
:102C3000FDF7ACFB9FED1B1B53EC112BFDF71EFCAE
:102C400036E03AE00010004010000020A60000200E
:102C5000645800206666666666A642400000000072
:102C60000000303F605B0020CDCCCC3DCDCCCCBD56
:102C7000B07D01DED307DE3FC63368E89FF367C04F
:102C8000000000000000F83F000000000000E03FEE
:102C9000B81E85EB51B8CE3F00000000F0A7C64B30
:102CA0003789C13FF0A7C64B3789C1BF845B00207D
:102CB000FDF7CEFC08EE900A05E08AED02EA8AED07
:102CC00001EAF0EE4E8ACAED048A7078401CC0B268
:102CD0007070022873D986F801B04749B1F9000035
:102CE000C830B0F5C87F06D8B1F90200C82802DCA8
:102CF00010F1C80F67DA94ED040A404803F062FE51
:102D000051EC100BFDF7A4FCA0619AED040A3C48BD
:102D100003F058FE51EC100BFDF79AFCCAF81800AE
:102D2000384D2869FDF750FC9FED378B53EC182B7D
:102D3000FDF732FB41EC100B01F0DAFB51EC100B0C
:102D4000FDF786FC09EE100A84ED079A6869FDF725
:102D50003BFC53EC182BFDF71FFB41EC100B01F073
:102D6000C7FB51EC100BFDF773FCCAF81C00F0EE2A
:102D7000088AB8EE088A29EE281AD4ED060A29EE48
:102D8000080A01F02AF884ED060A9AED070ADAED3E
:102D9000060A20EE281A20EE080A01F01EF88AED35
:102DA000060A94ED060A1A4803F0DEFD84ED060AD1
:102DB0009AED060A174803F0D7FD8AED060ABDEC26
:102DC000108BBDE8F09F84ED06EA8AED06EA9FEDE0
:102DD000120B002000F00AFADAF81800FDF7F4FBF5
:102DE00041EC100B012000F01BFCBDEC108BBDE88A
:102DF000F05F03F0CBBE0000445B0020385C002095
:102E0000885C0020205B0020736891ED7C3FB53F1B
:102E1000145A0020545A0020000000000000000056
:102E20007047704770470000F8B504462268106884
:102E3000D168536900F00F05002D08D1860606D52C
:102E40008E0604D52046BDE8F84000F092BE00266C
:102E5000002D60D003F0010501F490772F435AD084
:102E6000C20705D0CA0503D5226C42F001022264D4
:102E7000420705D5DA0703D0226C42F00202226431
:102E8000820705D5DA0703D0226C42F004022264DF
:102E9000020707D501F020022A4303D0226C42F03A
:102EA00008022264226C002A2BD0800604D58806F2
:102EB00002D5204600F05DFE20684069C0F3801016
:102EC000216C090700D408B3204600F02DFE2068CD
:102ED0004169490616D5416921F040014161A06B65
:102EE00060B144490165A06BFEF789FB002808D05A
:102EF000A06B016D01B0BDE8F04008472046FFF728
:102F000091FFF8BD2046FFF78DFFF8BD2046FFF783
:102F100089FF2664F8BD236B012B58D1C30656D513
:102F2000CB0654D510685068009050694FF02003CC
:102F300040062ED5A16B0868406880B20028E9D011
:102F4000A58D8542E6D9E085C869B0F5807F18D0A7
:102F5000D06820F48070D0602068416921F00101C0
:102F600041612068416921F04001416184F83E30AF
:102F700026632068C16821F01001C160A06BFEF7D4
:102F8000F7FAA08DE18D401A81B22046FFF749FF84
:102F9000F8BDA08DE18D401A81B2E08D0028F7D0F8
:102FA0000029F5D0D06820F49070D0602068426984
:102FB00022F00102426184F83E3026632068C26834
:102FC00022F01002C2602046FFF72BFFF8BD020678
:102FD00006D50A0604D52046BDE8F84000F0C7BE75
:102FE0004006F3D54806F1D52046BDE8F84000F08C
:102FF000B3BD0000193B000870B50446002C04D096
:1030000094F83D00002510B106E0012070BD84F861
:103010003C50204600F022F8242084F83D0020682F
:10302000C16821F40051C160204600F0FBFD20681A
:10303000016921F4904101612068416921F02A0170
:1030400041612068C16841F40051C16025642020BD
:1030500084F83D0084F83E00002070BD30B587B094
:1030600000681F49884238D11E48016841F01001AC
:103070000160006800F0100001901A4814380168DF
:1030800041F001010160016801F001010191016855
:1030900041F001010160006800F0010001904FF46F
:1030A00000700290022003900121049105900724F2
:1030B00006940D4D02A92846FEF73EFC2915029103
:1030C000069402A92846FEF737FC2520FEF7ADFD41
:1030D000032211462520FEF7B5FD07B030BD0000E4
:1030E00000100140443802400000024090F83E3099
:1030F000202B01D00220704759B152B190F83C30DA
:10310000012B08D0012380F83C300023036300F03A
:1031100013BE0120704702207047000030B40068E1
:103120001649884228D1164A5088010419D41146FC
:10313000440409784FF0000307D50A2901D05380D1
:103140000FE040F4004050800BE00D2910D00D4DF1
:10315000C0F30D042955401C80B25080C72800D907
:1031600053800848012230BC0549C830FFF7BEBF74
:1031700040F480405080F4E730BC704700100140BC
:1031800008000020C00000207047FEE708B5FEF7E9
:1031900013FD00F0F9F9042302220621A82003F010
:1031A00099FDA82003F0B0FB4FF4E13003F016FEC8
:1031B00003F064FC42F2CF01092003F099FA03F016
:1031C00077FA002006231A044FF4A001009003F0C0
:1031D0003FFB40F2DC51042003F044FC03F0A6FB6B
:1031E00003F0FEF8BDE8084003F0D0BC10B52DEDAB
:1031F000088BB0EE408AF0EE608A00289FED37BB66
:103200009FED38AB9FED399B33D053EC192B51EC2C
:10321000180BFDF705FA0FD253EC1B2B51EC180BD2
:10322000FDF7BAF8FDF7B7F9BDEC088B80B20021C5
:10323000BDE8104003F0C8B953EC192B51EC180B42
:10324000FDF7D6F90FD253EC1A2B51EC180BFDF702
:10325000A3F8FDF7A0F9BDEC088B81B20020BDE812
:10326000104003F0B1B9BDEC088BBDE8104000F090
:1032700041B853EC192B51EC180BFDF7D1F90FD2D3
:1032800053EC1B2B51EC180BFDF786F8FDF783F977
:10329000BDEC088B81B20020BDE8104003F094B96A
:1032A00053EC192B51EC180BFDF7A2F90FD253EC8C
:1032B0001A2B51EC180BFDF76FF8FDF76CF9BDEC0C
:1032C000088B80B20021BDE8104003F07DB9BDEC51
:1032D000088BBDE8104000F00DB8000000000000B1
:1032E0000000594000000000000059C0000000002C
:1032F000000000000021084603F066B9FEE7000068
:103300002DE9F0418EB006460D46142109A8FCF7C0
:1033100091FF1C2102A8FCF78DFF0024444A10688D
:1033200040F001001060106800F001000190404A78
:10333000143A106840F001001060106800F00100BD
:103340000190106840F001001060106800F001006A
:103350000190106840F010001060106800F010003C
:103360000190106840F010001060106800F010002C
:1033700001909015099002220A920B920C92012062
:103380000D90DFF8B08009A94046FEF7D5FA8027F6
:10339000099709A94046FEF7CFFA38010990DFF8EE
:1033A000988009A94046FEF7C7FAF800099009A9D4
:1033B0004046FEF7C1FA224A2048106055609460EA
:1033C000D6604015106197611046FFF7A5F960209F
:1033D00002900494059407940894002202A91848C6
:1033E000FFF731F9042202A91548FFF72CF9144818
:1033F000403804604460846004614461F901C16143
:1034000001464030FEF748FF00210D48FFF7ACF9B8
:1034100000210B48FEF76AFF04210948FFF7A4F9D1
:1034200004210748FEF762FF0EB0BDE8F0810000FE
:1034300044380240000002400010024000000140F9
:10344000BC5800202DE9F0418EB006460D461421EF
:1034500009A8FCF7EFFE1C2102A8FCF7EBFE0024F4
:10346000434A106840F002001060106800F002004B
:1034700001903F4A143A106840F004001060106850
:1034800000F004000190106840F001001060106826
:1034900000F001000190106840F004001060106816
:1034A00000F004000190106840F002001060106805
:1034B00000F0020001904020099002220A920B9233
:1034C0000C9203200D90DFF8AC8009A94046FEF76E
:1034D00033FA2020099009A92748FEF72DFA802702
:1034E000099709A94046FEF727FA0120099009A982
:1034F0002248FEF721FA234A214810605560946063
:10350000D6604015106197611046FFF705F96020FD
:1035100002900494059407940894002202A9194883
:10352000FFF791F8042202A91648FFF78CF8154816
:1035300068380460446084600461B90141614900F5
:10354000C16101466830FEF7A7FE00210D48FFF774
:103550000BF900210B48FEF7C9FE04210948FFF7CB
:1035600003F904210748FEF7C1FE0EB0BDE8F08163
:1035700044380240000802400000024000040240BB
:10358000000401400459002010B553216320FFF7C7
:10359000B7FE5321BDE810406320FFF753BF7047CB
:1035A000F0B500200E4C00260127211F0D7814E0F5
:1035B00000EB400104EB8102137963B934F8213048
:1035C0005B1C9BB224F82130B2F802C0634502D3E1
:1035D00024F821601771401CC0B2A842E8D3F0BDA6
:1035E00018000020FFF7D2FD00240B4E0027A6F1A3
:1035F000040803F031FA04EB440006EB8005287957
:1036000010B1A86880472F71641C98F80000E4B2DC
:103610008442EED30024ECE718000020704700003D
:1036200010B52DED088BB0EE408AF0EE608A0028D0
:103630009FED37BB9FED38AB9FED399B33D053ECFB
:10364000192B51EC180BFCF7EBFF0FD253EC1B2B93
:1036500051EC180BFCF7A0FEFCF79DFFBDEC088BAE
:1036600081B20020BDE8104002F0C8BF53EC192B16
:1036700051EC180BFCF7BCFF0FD253EC1A2B51EC9A
:10368000180BFCF789FEFCF786FFBDEC088B80B2B7
:103690000021BDE8104002F0B1BFBDEC088BBDE8D1
:1036A000104000F041B853EC192B51EC180BFCF70B
:1036B000B7FF0FD253EC1B2B51EC180BFCF76CFE31
:1036C000FCF769FFBDEC088B80B20021BDE810401B
:1036D00002F094BF53EC192B51EC180BFCF788FF48
:1036E0000FD253EC1A2B51EC180BFCF755FEFCF7DC
:1036F00052FFBDEC088B81B20020BDE8104002F003
:103700007DBFBDEC088BBDE8104000F00DB8000097
:10371000000000000000594000000000000059C0F7
:1037200000000000000000000021084602F066BF13
:103730007047FEF739BA00000248016841F4700191
:103740000160704788ED00E00148FEF7C4BE00004C
:103750004C5900202DE9F0410268264D264E274F96
:10376000DFF89CC0274B4FF08048A84209D0404565
:1037700007D0B04205D0B84203D0604501D098428E
:1037800003D122F070044A682243A8421BD040456E
:1037900019D0B04217D0B84215D0604513D0984226
:1037A00011D0194CA0420ED0184CA0420BD0184C8E
:1037B000A04208D0174CA04205D0174CA04202D01E
:1037C000164CA04203D122F44074CA6822434C69CB
:1037D00022F08002224302608A68C2620A68826222
:1037E000A84201D0984201D10969016301214161D8
:1037F000BDE8F081000001400004004000080040E6
:10380000000C004000040140004001400044014021
:103810000048014000180040001C0040002000400B
:1038200010B501F01F0101238B40046A9C43046220
:10383000036A8A401343036210BD10B501F01F01F3
:1038400004238B40046A9C430462036A8A40134346
:10385000036210BDF0B5026A22F001020262026A40
:103860004368846924F0700424F003050C682C4339
:1038700022F002058A682A430E4E0F4FB04201D053
:10388000B84205D122F00805CA682A4322F0040292
:10389000B04201D0B84207D123F4807323F40073FF
:1038A0004D691D438B692B434360846149684163C3
:1038B0000262F0BD0000014000040140F0B5026A60
:1038C00022F010020262036A4268846924F4E04430
:1038D00024F440740D6844EA052423F020038D6825
:1038E00043EA0513104D114EA84201D0B04206D153
:1038F00023F08003CF6843EA071323F04003A84274
:1039000001D0B04209D122F4806222F400624D69F4
:1039100042EA85028D6942EA850242608461496813
:1039200081630362F0BD000000000140000401401B
:10393000F0B5026A22F480720262026A4368C469C6
:1039400024F0700424F003050C682C4322F4007268
:103950008D6842EA0522104D104EA84201D0B042B7
:1039600006D122F40062CF6842EA072222F4806284
:10397000A84201D0B04209D123F4805323F400536C
:103980004D6943EA05138D6943EA05134360C46139
:103990004968C1630262F0BD0000014000040140BB
:1039A00030B5026A22F480520262046A4268C36936
:1039B00023F4E04323F440730D6843EA052324F421
:1039C00000548D6844EA0534084DA84202D0084DE1
:1039D000A84204D122F480424D6942EA8512426035
:1039E000C36149680164046230BD00000000014009
:1039F00000040140FDF7B5B82DE9F04F9DB0DFF8A8
:103A0000D480D8F81800FCF7DFFDDFF8CC9004462E
:103A10000D46D9F81800FCF7D7FD06460F46D8F832
:103A20000400FCF7D1FD82468B46D8F80800FCF76D
:103A3000CBFDCDE91A01D8F81000FCF7C5FDCDE9A2
:103A40001801264890ED000A10EE100AFCF7BCFDA4
:103A5000CDE91601D9F80400FCF7B6FDCDE9140153
:103A6000D9F80800FCF7B0FDCDE91201D9F8100033
:103A7000FCF7AAFD80461A48894690ED000A10EE30
:103A8000100AFCF7A1FD41EC100BCDE90CABCDE920
:103A90001045DDE91A01CDE90E67CDE90A01DDE93E
:103AA0001801CDE90801DDE91601CDE90601DDE9DE
:103AB0001401CDE90401DDE91201CDE9020153EC65
:103AC000102BCDE9008907A000F00AFA1DB0BDE86F
:103AD000F08F0000845B0020605B0020885C002089
:103AE000385C002025662C25662C25662C25662C46
:103AF00025662C25662C25662C25662C25662C250E
:103B0000660A090003F042B94FF480610148FDF7ED
:103B1000FBBF00000004024010B5806B0021C1858E
:103B2000C184FFF77FF910BD0168CA6822F4907262
:103B3000CA6001684A6922F001024A61016B0129E9
:103B400004D10168CA6822F01002CA60202180F8FE
:103B50003E1000210163704710B50168CA6822F069
:103B60004002CA60202180F83D10FFF70DFB0020C5
:103B700010BD10B5044694F83E00222801D0022062
:103B800010BDA1684FF48052914201D1206920B14B
:103B9000A06A91421DD051B10BE0A06A216849682A
:103BA000C1F308010180A06A801CA06209E02169BC
:103BB00079B12168496801F07F010170A06A401C59
:103BC000A062E08D401E0004000CE08505D00020BE
:103BD00010BD216849680170F0E72068C16821F0D4
:103BE0002001C1602068C16821F48071C160206833
:103BF000416921F001014161202084F83E00206BE1
:103C0000012805D02046FFF789FA0020206310BD67
:103C10002068C16821F01001C160A18D2046FFF726
:103C200000F9F2E72DE9F041044620680169E268F5
:103C300021F4405111430161A1682069E269014307
:103C40006069104301432068C26849F20C639A43DB
:103C50000A43C26020684169A26921F4407111439E
:103C6000416133492068884202D03249884202D1FA
:103C7000FEF7D6F801E0FEF7C3F8E1690023192743
:103C800064253226B1F5004F28D061688B0F8A0079
:103C9000A0FB0701FCF796FA0146B0FBF5F07A426B
:103CA000504301EB800006EB0010B0FBF5F000F094
:103CB000F002B1FBF5F002EB0012B1FBF5F07B4234
:103CC000584301EB800006EB0010B0FBF5F02168D3
:103CD00000F00F0010448860BDE8F08161684A1868
:103CE000A0FB07015B41FCF76DFA0146B0FBF5F064
:103CF0000201B1FBF5F06FF01803584301EB8000AF
:103D000006EBC000B0FBF5F000F0F80002EB40025B
:103D1000B1FBF5F0584301EB800006EBC000B0FBAF
:103D2000F5F0216800F0070010448860D4E7000037
:103D3000001001400014014081628285C28500218B
:103D40000164222280F83E2080F83C100168CA6895
:103D500042F48072CA6001684A6942F001024A6115
:103D60000068C16841F02001C1600020704790F8F0
:103D70003D10212901D0022070478168B1F5805F94
:103D800001D1016961B1016A4A1C026202680978C5
:103D90005160C18C491E0904090CC1840AD013E08A
:103DA000016A02680988C1F308015160016A891C2F
:103DB0000162EEE70168CA6822F08002CA6000680A
:103DC000C16841F04001C160002070470148FFF721
:103DD0002BB8000088010020FEE7F0EE401AB0EE9C
:103DE000600AB4EEE10AF1EE10FA02D8B0EE610A10
:103DF0007047B4EEC10AF1EE10FAF9DBB0EE410AF9
:103E00007047000010B52DED0A8BB7EE000A294C63
:103E100084ED030AB3EE0E0A84ED050A9FED2A0B2A
:103E20009FED2BAB9FED24CB9FED25BB53EC1A2BC5
:103E300051EC100BFCF7ADFA9FED279B53EC192BBF
:103E4000FCF7A7FA41EC100B00F0EEFAB0EE408A56
:103E5000F0EE608A6069FCF7B7FB53EC1C2BFCF7B3
:103E60000DFB53EC1B2BFCF797FA53EC1A2BFCF7CA
:103E700090FA53EC192BFCF78CFA41EC100B01F083
:103E80006BF953EC182B51EC100BFCF7DEF9FCF737
:103E9000DFFB2061B2EE0E0A84ED060AB0EE000AE6
:103EA00084ED010AB6EE000A84ED020ABDEC0A8B2D
:103EB00010BD0000445B0020000000000080664050
:103EC0004AD8124DFB21094086E5613352C1E03FDB
:103ED0004AD8124DFB21E93F4AD8124DFB21F93F48
:103EE0000FB4054B10B503A9044A029801F0F4FE83
:103EF00010BC5DF814FB0000B16900080C00002044
:103F000003B401984100009850EAC12018BF042072
:103F10004A0D18BF40F0010040F2FF72B2EB515F52
:103F200008BF40F00200012808BF052002B070471A
:103F30000907090E002804DB00F1E02080F80014D6
:103F4000704700F00F0000F1E02080F8141D70476A
:103F500070B59B482DED020B2DED068B079D25F0CE
:103F60000044A04218DC9748844202DC0AD106983B
:103F700040B19DED060BBDEC068B02B0BDE8704074
:103F800001F08EBD002DCCBF9FED8F0B9FED900BF0
:103F9000BDEC068B02B070BD8F48A04215DD8F4886
:103FA000A042D8BF4FF0FF3458DD9DED060B51EC19
:103FB000100BFFF7A5FF042808BF01F0A5FD9DED3C
:103FC000060BBDEC068B02B070BD9DED060B51ECEF
:103FD000100B02F09FFCCDE9060181489FED828B1A
:103FE000A0423CDD8248A0421FDD00249FED82AB51
:103FF0009DED060B53EC1A2B51EC100BFCF725F939
:104000009DED060B41EC190B53EC1A2B51EC100BE8
:10401000FCF7C2F953EC182BFCF7B8F953EC192B49
:10402000FCF72CFACDE9060149E09DED060B0124D1
:1040300053EC182B51EC100BFCF707F99DED060B18
:1040400041EC190B53EC182B51EC100BFCF79EF9BB
:1040500053EC192BFCF712FACDE906012FE0684862
:10406000A0421FDD02249FED689B9DED060B53ECE3
:10407000192B51EC100BFCF78FF953EC182BFCF7B4
:10408000E4F89DED060B41EC180B53EC192B51ECA9
:10409000100BFCF77BF953EC182BFCF7EFF9CDE98B
:1040A00006010CE09DED060B032453EC102B9FED55
:1040B000580B51EC100BFCF7E1F9CDE906019DED31
:1040C000060B53EC102B51EC100BFCF765F941EC8F
:1040D000180B53EC182BFCF75FF941EC190B4E4809
:1040E0000621B0EE490AF0EE690A784401F0ACFB13
:1040F00053EC182B51EC100BFCF74EF941EC180B5C
:104100004648B0EE490AF0EE690A0521784401F00C
:104110009BFB53EC192B51EC100BFCF73DF941ECD8
:10412000100B51EC180B53EC102B002C0EDAFCF793
:104130008CF89DED061B53EC112BFCF72DF99DED32
:10414000061B53EC112BFCF724F935E0FCF77DF846
:104150009DED061B53EC112BFCF71EF941EC100BE7
:104160002F48784400EBC40090ED001B51EC100B7D
:1041700053EC112BFCF70AF99DED061B53EC112BA8
:10418000FCF704F941EC100B2648784400EBC4001E
:1041900090ED001B51EC100B53EC112BFCF7F9F8D0
:1041A00041EC100B002DA2BFBDEC068B02B070BD20
:1041B00051EC100B81F0004141EC100B01E70000C5
:1041C000000010440000F07F182D4454FB21F93FFB
:1041D000182D4454FB21F9BF0000DC3F0000203EB5
:1041E0000000F33F00000000000000000000F03F6E
:1041F0000000E63F0000000000000000000000405A
:104200000080034000000000000000000000F83FB4
:10421000000000000000F0BF7A34000030340000DD
:10422000BA3300007233000070B56F4E2DED040BF1
:104230002DED048B82B0DDF824C0DDE907235C425C
:104240002CF000411C4341EAD474069D22F000404A
:10425000B44205D86C422C4340EAD474B4420BD922
:104260009DED081B9DED060B02B0BDEC048B04B068
:10427000BDE8704001F01EBCACF14054A4F17F6475
:104280001C430BD0022404EAAC7444EAD274054304
:104290009FED578B9FED582B07D015E09DED060B3A
:1042A00051EC100B02F088F942E0002C11BF012CF8
:1042B0009DED060B02B0BDEC048B04BF04B070BDD5
:1042C000022C38D0032C3BD00B439FED4D1B9FEDB0
:1042D0004E0B0AD0B14218D1B04209D121F0804131
:1042E00020F08040099107900FE0002A15DA10E0D5
:1042F000474B7B44002C08BF93ED000B0DD0012CE5
:1043000010D0022C17D0032C1AD0B0421DD1002A95
:1043100003DAB0EE410AF0EE610A02B0BDEC048BA4
:1043200004B070BD93ED000B51EC100B81F0004117
:1043300041EC100BF1E7B0EE480AF0EE680AECE74A
:10434000B0EE420AF0EE620AE7E7401A00159FED70
:10435000329B3C28C8BF8DED000B17DCBCF1000F71
:10436000BCBF10F13C0F8DED009B0FDB9DED080BEA
:1043700053EC102B9DED060B51EC100BFCF77EF867
:1043800002F0C8FA02F018F9CDE90001B4B1012C2D
:1043900010D0022C9FED220B53EC102B9DED000B47
:1043A00051EC100B19D0FBF7F1FF53EC182BFBF776
:1043B000EDFFBDE7019880F0004001909DED000BFE
:1043C00053EC192B51EC100BFCF712F904BF02202F
:1043D00001F0BAFB9DED000B9FE7FBF7D7FF53EC15
:1043E000182BFBF7D6FFA3E70000F07F00000000CA
:1043F000182D4454FB210940182D4454FB2109C0B9
:10440000182D4454FB21F9BF182D4454FB21F93FCA
:10441000D232000000000000000000000000000098
:10442000075C143326A6A13C10B52F499FED2C1B29
:104430002DED020B84B0059820F000408842D8BFD3
:104440009DED040B2DDD2949884209D1049840B91E
:104450004FF0010001F078FB01F036FB06B010BD13
:1044600005DB9DED040B01F01BFB06B010BD68469B
:104470009DED040B00F014FF10F0030004BF9DED50
:10448000021B9DED000B0CD001280ED09DED021BF0
:104490009DED000B022817D0012001F051FA06B063
:1044A00010BD01F019F906B010BD9DED021B9DED88
:1044B000000B012001F044FA51EC100B81F0004197
:1044C00006B041EC100B10BD01F006F951EC100BD9
:1044D00081F0004106B041EC100B10BD000000005F
:1044E0000000000000000000FB21E93F0000F07F19
:1044F0002DED020B019820F0004001909DED000B86
:1045000002B07047000000002DE9F04D2DED040BC6
:104510002DED0E8B96B0DDE92550279CDDF890A09F
:1045200025F0004624F00048BAF1000F14BF012125
:10453000002101EB4502FC4953184A1093422AD34B
:10454000002814BF0123002303EB44030B44F74965
:104550008B4220D358EA00019FEDF59B76D0DFF81F
:10456000D8B35D4503D1BAF1000F05D188E0BAF1A7
:10457000000F08BF002100D0012101EB450111F51A
:10458000001F08D8002814BF0121002101EB4401BD
:1045900011F5001F0BD99DED261B9DED240B16B0C8
:1045A000BDEC0E8B04B0BDE8F04D01F083BA0027DE
:1045B000002DBCBFE149884521DAE1498845A8BF03
:1045C00002271CDAC3451ADCDE4901EB2851142905
:1045D00008DDC1F1340220FA02F101FA02F282424E
:1045E0000DD108E058B9C1F1140228FA02F101FA1C
:1045F00002F2424503D101F00101C1F1020756EA7E
:104600000A0124D1002C22DA002D18BF022F01D07C
:10461000012F0AD0022001F097FA16B0BDEC0E8BE4
:1046200004B0BDE8F04D01F023BA022001F08CFA8D
:1046300001F01EFA51EC100B81F0004141EC100B1F
:1046400016B0BDEC0E8B04B0BDE8F08D18E09FED08
:10465000BEAB9FEDBF8B002871D1B848804522D1F9
:1046600005F1804010F5801008BFBAF1000F07D0A7
:10467000B3450ADC002CA8BF9DED260BE0DA0DE067
:10468000B0EE490AF0EE690ADAE7002C06DA9DED91
:10469000260B51EC100B81F000416FE0AE487844DE
:1046A00090ED000BCCE7D8454DD1002C48DA2EB167
:1046B00086423AD1BAF1000F42D126E0BAF1000F9A
:1046C00013D0022001F040FA01F00EFA8DED020B3A
:1046D0009DED240B8DED000B10EE900A039961F314
:1046E0001E0003909DED020BAAE78DED02AB9DED40
:1046F000240B1AEE901A10EE900A8DED000B61F368
:104700001E0003909DED020B9AE78DED028B9DED4F
:10471000240B18EE901A10EE900A8DED000B61F349
:104720001E0003909DED020B8AE709DA9DED240B34
:1047300051EC190B53EC102BFBF7A0FE1EE020E010
:104740009DED240B7CE786421BDAB4F1804F0DD03F
:10475000A4F10050B0F1FF5013D1002D11DB9DEDFD
:10476000240B51EC100B02F07DFA07E09DED240BB9
:1047700053EC102B51EC100B00F0C2BC41EC100BB1
:104780005EE79DED240B51EC100B02F0C3F8BAF17B
:10479000000FCDE90E0142D19FED710B46B3A6F19A
:1047A000E040B0F17F600CD05E4538D1002D00DADA
:1047B000A7B3022F0CBF01204FF0FF30FBF7CDFE57
:1047C000DCE7002D01DD002C0DDA002D01DD002CD1
:1047D0001FDB002D16DA002C14DB012F08BF9FED24
:1047E000620B3FF42DAFB0EE4A0AF0EE6A0A27E7FB
:1047F000022F18BF002D0CD0012F0AD1002DFFF67B
:104800001FAF06E0002DB8BF002C08DA012F3FF4DF
:1048100017AFB0EE480AF0EE680A11E71BE001207E
:1048200000EBE57050EA070115D0791EB0EE498A19
:10483000F0EE698A084308BF9FED4D8B4E48002576
:10484000804570DD4D494E48884514DDB0420DDB92
:10485000002C19DB2FE0012001F076F916B0BDEC39
:104860000E8B04B0BDE8F04D01F02EB9B34502DC6B
:10487000002C09DC1FE0864202DA002C1BDA03E080
:104880005E452BDD002C16DD022001F05DF901F004
:104890002BF98DED020B53EC1A2B51EC180BFBF797
:1048A0007BFDCDE900010399019861F31E0003909F
:1048B0009DED020BC4E6022001F046F901F024F957
:1048C00010EE901A18EE900A8DED020B8DED008B14
:1048D00061F31E0003909DED020BB1E69DED0E0B02
:1048E00053EC192B51EC100BFBF750FD9FED260BF1
:1048F000CDE9080153EC102B9DED080B51EC100B8A
:10490000FBF74AFD9FED221B53EC112BFBF741FDFA
:104910009DED081B53EC112BFBF73EFD9FED1E1B7D
:1049200053EC112B3CE08CE0FFFF1F00FFFF0F005A
:10493000000000000000F03F0000F03F0000F07FAA
:104940000000404301FCFFFF000000000000F07F7A
:104950000000000000000000262F00000000000002
:104960000000000000000080000000000000F0FFD8
:10497000000000000000F0BF0000E0410000F04334
:10498000FFFFEF3F00000000000000000000D03FEC
:10499000555555555555D53F000000000000E03FE6
:1049A000FBF7F7FC9DED080B41EC1A0B53EC102BB9
:1049B00051EC100BFBF7F0FC53EC1A2BFBF7ECFC63
:1049C00041EC1A0B9FEDFE0B53EC102B9DED080BE9
:1049D00051EC100BFBF7E0FC41EC1B0B9FEDFA0BCD
:1049E00051EC1A0B53EC102BFBF7D6FC41EC1A0BD5
:1049F0009FEDF70B53EC102B9DED080B51EC100BBA
:104A0000FBF7CAFC53EC1A2BFBF7C0FC41EC1A0B6A
:104A100051EC1B0B53EC1A2BFBF717FC0690CDE95E
:104A200006519DED060B53EC1B2B51EC100BFBF7C5
:104A3000ADFC53EC1A2BFBF7ACFC41EC100B00F077
:104A4000A1B90020B6F5801F0EDA9FEDE30B53EC01
:104A5000102B9DED0E0B51EC100BFBF79DFCCDE9DF
:104A60000E016FF034000E4600EB2650A0F2FF3727
:104A7000C6F31300DA4940F07F6646F0405688429C
:104A8000D8BF002408DDD7498142C8BF012403DC18
:104A90000024A6F580167F1CD348784400EBC400A0
:104AA0000F9690ED00CB9DED0E0B53EC1C2B51ECB3
:104AB000100BFBF76BFC9DED0E0B41EC1B0B53EC4D
:104AC0001C2B51EC100BFBF7C0FB41EC100B51EC15
:104AD000190B53EC102BFBF7D1FC41EC1D0B51ECE7
:104AE0001B0B53EC1D2BFBF757FC41EC1A0BBF487B
:104AF0008DED10AB7844109590ED000B4FF0005009
:104B000040EA660000EB84408DED080B00F50020C4
:104B100009909DED080B53EC1C2B51EC100BFBF78F
:104B200035FC9DED0E1B53EC112BFBF732FC41ECD9
:104B3000100B53EC102B9DED100B51EC100BFBF7F1
:104B40002BFC9DED080B41EC1C0B53EC102B9DED49
:104B5000100B51EC100BFBF71FFC53EC1B2BFBF75E
:104B600018FC53EC1C2BFBF711FC53EC1D2BFBF733
:104B700013FC41EC1C0B53EC1A2B51EC1A0BFBF7FA
:104B80000BFC41EC1B0B9A480621B0EE4B0AF0EEF1
:104B90006B0A784400F058FEB0EE401AF0EE601A4E
:104BA000B0EE41DAF0EE61DA53EC1B2B51EC1B0B4B
:104BB000FBF7F2FB53EC1D2BFBF7EEFB9DED100B0F
:104BC00041EC1B0B53EC1A2B51EC100BFBF73DFB8C
:104BD00053EC1C2BFBF7E0FB53EC1B2BFBF735FBDB
:104BE0009DED100B41EC1B0B53EC102B51EC100BFB
:104BF000FBF7D2FB41EC1D0B9FED7FEB53EC1E2B23
:104C0000FBF723FB53EC1B2BFBF71FFB0890CDE9B5
:104C100008519DED080B53EC1E2B51EC100BFBF7CC
:104C2000B5FB53EC1D2BFBF7B1FB53EC1B2BFBF738
:104C3000B0FB9DED080B41EC1D0B53EC102B9DEDD3
:104C4000100B51EC100BFBF7A7FB41EC1B0B53ECCB
:104C50001A2B51EC1D0BFBF79FFB9DED080B41EC54
:104C60001A0B53EC102B51EC1C0BFBF795FB53EC80
:104C70001A2BFBF7EAFA41EC1A0B51EC1B0B53EC25
:104C80001A2BFBF7E2FA0C90CDE90C519DED0C0BC1
:104C900053EC1B2B51EC100BFBF778FB53EC1A2B4E
:104CA000FBF777FB41EC1B0B9FED550B53EC102BE7
:104CB0009DED0C0B51EC100BFBF76EFB41EC1A0B4E
:104CC0009FED510B51EC1B0B53EC102BFBF764FBCE
:104CD00041EC1B0B9FED4E0B53EC102B9DED0C0B81
:104CE00051EC100BFBF758FB53EC1B2BFBF7ADFA09
:104CF00041EC100B4848784400EBC40090ED001BD9
:104D000051EC100B53EC112BFBF79FFA41EC1B0BF2
:104D10003846FBF722FCCDE9080153EC1B2B51EC84
:104D20001A0BFBF792FA41EC100B3C48784400EB6D
:104D3000C40090ED00CB51EC100B53EC1C2BFBF797
:104D400084FA9DED081B53EC112BFBF77EFA0690BD
:104D5000CDE906519DED080B53EC102B9DED060B94
:104D600051EC100BFBF712FB53EC1C2BFBF70EFB6B
:104D700053EC1A2BFBF70AFB53EC1B2BFBF709FB3D
:104D800041EC100B9DED261B53EC102B8DED001B01
:104D900000959DED260B51EC100BFBF7FDFA9DEDF8
:104DA000000B41EC1A0B53EC102B9DED260B51EC34
:104DB000100BFBF7EBFA9DED061B53EC112B2FE0CC
:104DC000000000604715F73FFE822B654715F73F4F
:104DD00044DF5DF80BAE543E00000000000040438D
:104DE0008E9803007AB60B00DA290000D02A000062
:104DF0001229000000000000000000000000084030
:104E0000000000E009C7EE3FFD033ADC09C7EE3FB2
:104E1000F5015B14E02F3EBE9E27000058270000DE
:104E2000FBF7BAFA53EC1A2BFBF70FFA9DED060BC2
:104E300041EC1A0B53EC102B9DED000B51EC100BB9
:104E4000FBF7AAFACDE90C019DED0C0B51EC1A0B06
:104E500053EC102BFBF7F9F9CDE902010C46AA49F6
:104E60008C422FDB611A084318D19DED0C0B53ECDB
:104E7000102B9DED020B51EC100BFBF787FA41EC68
:104E80001B0B9FEDA30B51EC1A0B53EC102BFBF7F4
:104E9000DCF953EC1B2BFBF7C3FB2DD2022000F0F7
:104EA00053FE00F021FE10EE901A18EE900A8DEDE0
:104EB000020B8DED008B61F31E0003909DED020B44
:104EC000FFF7BEBB944A24F00041914214D39349AA
:104ED000214408437FF4EFAC9DED0C0B53EC102BF9
:104EE0009DED020B51EC100BFBF750FA53EC1A2B13
:104EF000FBF796FB7FF6DFAC24F000408849894A37
:104F0000002601EB205182422BDA481C4FF480111D
:104F100021FA00F02044844AC0F30A517A44A1F2F5
:104F2000FF3192ED000B814A8DED080BCA4020EA5B
:104F30000202C0F3130040F48010C1F1140120FA02
:104F400001F60992002CB8BF76429DED080B53EC98
:104F5000102B9DED0C0B51EC100BFBF717FACDE964
:104F60000C019DED0C0B51EC1A0B53EC102BFBF7C5
:104F70006CF99FED6F0B0890CDE9085153EC102BA5
:104F80009DED080B51EC100BFBF706FA41EC1B0BE7
:104F90009FED690B53EC102B9DED080B51EC100BA2
:104FA000FBF7FAF99DED0C0B41EC1C0B53EC102BAD
:104FB0009DED080B51EC100BFBF7E8F953EC1A2BA5
:104FC000FBF7E7F99FED5E1B53EC112BFBF7E4F9C0
:104FD00053EC1C2BFBF739F941EC1A0B51EC1B0B72
:104FE00053EC1A2BFBF731F9CDE902019DED020BD1
:104FF00053EC1B2B51EC100BFBF7C8F953EC1A2B9D
:10500000FBF7C7F99DED020B41EC1A0B53EC102B8B
:1050100051EC100BFBF7C0F9CDE908014A489DEDB2
:10502000080B0521784400F00FFC9DED081B51ECA6
:10503000100B53EC112BFBF7AFF99DED021B53EC5A
:10504000112BFBF7A6F9CDE906019DED020B53EC00
:105050001A2B51EC100BFBF79FF953EC1A2BFBF7B3
:10506000F4F89FED3B0B41EC1A0B53EC102B9DED2C
:10507000060B51EC100BFBF789F99DED060B41EC8B
:105080001B0B53EC102B9DED020B51EC100BFBF79F
:1050900083F953EC1B2BFBF7F1F953EC1A2BFBF7BD
:1050A00075F99DED021B53EC112BFBF76FF953ECD7
:1050B000192BFBF76EF9CDE9020101EB0650011542
:1050C0000029C8BF039015DC9DED020B324651EC60
:1050D000100BFBF7B4FBFEF713FF042808BF00F02A
:1050E00013FD32469DED020B51EC100BFBF7A7FBB5
:1050F000CDE902019DED020B51EC180B53EC102B86
:10510000FBF74AF9FFF73ABB0000904000000000AF
:10511000FE822B654715973C00CC904000346F3FD2
:1051200001FCFFFF0000E03FA8260000FFFF0F008A
:1051300000000000432EE63F396CA80C615C20BEE5
:10514000EF39FAFE422EE63FB024000000000000D6
:10515000000000000000004010B52F499FED2C1BFF
:105160002DED020B84B0059820F000408842DCBF92
:1051700000209DED040B32DD2849884209D10498B6
:1051800040B94FF0010000F0DFFC00F09DFC06B0DC
:1051900010BD05DB9DED040B00F082FC06B010BDD8
:1051A00068469DED040B00F07BF810F0030011D071
:1051B000012818D09DED021B9DED000B02281AD08E
:1051C00000F08AFA51EC100B81F0004106B041EC7E
:1051D000100B10BD9DED021B9DED000B012000F09A
:1051E000AFFB06B010BD9DED021B9DED000B00F066
:1051F00073FA06B010BD012000F0A2FB51EC100BB9
:1052000081F0004106B041EC100B10BD0000000021
:105210000000000000000000FB21E93F0000F07FDB
:1052200000B52DED048BB0EE409AF0EE609A83B09D
:1052300051EC190BFBF71AFB41EC180B18EE100A96
:1052400018EE901A8DED008B002818BF012008433E
:1052500020F00040C0F17F6000F1E040C00F14D0AA
:1052600019EE101A19EE900A8DED009B002918BF57
:105270000121084320F00040C0F17F6000F1E040D0
:10528000C00F04BF012000F05FFCB0EE480A03B07D
:10529000F0EE680ABDEC048B00BD000000000000C9
:1052A0002DE9F14F04462DED020B2DED088B8AB050
:1052B0009FEDE70B80ED020B139EE74826F00045BB
:1052C00085420ADC9DED120B002084ED000B0AB034
:1052D000BDEC088B03B0BDE8F08FE0489FEDE0AB7C
:1052E0009FEDE1BBA84247DDE14F9FEDE39B9FEDC2
:1052F000E48B9DED120B53EC1A2B51EC100B002E8E
:105300001CDDFBF743F841EC100BBD4208D053EC19
:105310001B2B51EC100BFBF739F8C4E900010BE033
:1053200053EC192B51EC100BFBF730F853EC182B06
:10533000FBF72CF8C4E900010120C8E7FAF785FF64
:1053400041EC100BBD4208D053EC1B2B51EC100B61
:10535000FAF77BFFC4E900010BE053EC192B51EC89
:10536000100BFAF772FF53EC182BFAF76EFFC4E933
:1053700000014FF0FF30AAE7C348A84279DB9DED5A
:10538000120B51EC100B01F0C5FA41EC180B9FED1C
:10539000C00B53EC102BFAF7FFFF9FEDBF1B53EC34
:1053A000112BFAF752FFFBF7DDFA0746FBF7D5F8AA
:1053B00041EC190B53EC1A2BFAF7EEFF53EC182BB8
:1053C000FAF7E7FF41EC180B53EC1B2B51EC190BD0
:1053D000FAF7E2FFDFF8C8A241EC100B4FEA1558CC
:1053E0000125FA4453EC102B51EC180BFAF7CEFFC1
:1053F000032DC4E900013DD0C1F30A5005EB45116E
:10540000A8EB00001139814234DA0AEB051BB0EE3B
:1054100048AA9BED000BF0EE68AA53EC102B51EC60
:10542000190BFAF7B9FF41EC1B0B51EC1A0B53ECBB
:105430001B2BFAF7ABFF41EC180B51EC1A0B53EC9A
:10544000182BFAF7A3FF53EC1B2BFAF79FFF9BEDEA
:10545000020B41EC1A0B53EC102B51EC190BFAF721
:105460009BFF53EC1A2BFAF791FF41EC100B6D1CCC
:10547000B8E70EE0002EA8BF3846BFF628AF94ED7F
:10548000000B51EC100B81F00041C4E9000178429F
:105490001DE7C6F3130040F4801EC6F30A50A0F2C5
:1054A000F530471100F01F05C5F12000DDF848B0C8
:1054B00008900020069007900520EC467949002DC1
:1054C00007EB0002794408BF51F8221009D051F8C7
:1054D000223001EB8201AB404A68089922FA01F1BF
:1054E0001943A1FB0E26A1FB0B131A449A4234BFA9
:1054F0000123002303EB06080CEB8003D3E901A68C
:105500000E448E4234BF0121002192448A4411B1DD
:10551000924502D903E0924501D2012100E0002129
:10552000C3E901A641444CF82010011EA0F101007E
:10553000C4DC029800F10050850F0298DDE9036792
:105540008000DDF81480FBF708F841EC1A0B3046B8
:10555000FBF714F89FED541B53EC112BFAF71CFFCB
:1055600041EC1B0B3846FBF709F89FED511B53EC40
:10557000112BFAF711FF41EC180B4046FAF7FEFF2A
:105580009FED4D1B53EC112BFAF706FF41EC190B65
:1055900051EC180B53EC192BFAF757FE53EC1B2B5D
:1055A000FAF753FE53EC1A2BFAF74FFECDE9080138
:1055B000002008909DED080B53EC1A2B51EC100BBA
:1055C000FAF7E4FE53EC1B2BFAF7E0FE53EC182B32
:1055D000FAF7DCFE53EC192BFAF7DBFE9FED381BD4
:1055E00053EC112BFAF7D8FE9FED370B41EC180B5B
:1055F00053EC102B9DED080B51EC100BFAF7CCFE81
:1056000053EC182BFAF721FE9FED310B41EC180BF0
:1056100053EC102B9DED080B51EC100BFAF7BCFE70
:1056200053EC182BFAF711FE41EC100B139810F005
:10563000004F06D06D4251EC100B81F0004141EC5F
:10564000100B284684ED000B41E60000000000002E
:105650000000000000000000FB21E93F7CD902406F
:1056600000004054FB21F93F3163621A61B4D03D20
:10567000FB21F93F000000000000601A61B4D03D3A
:105680007370032E8A19A33BFB21394100000000EF
:1056900083C8C96D305FE43F000000000000E03FB8
:1056A000EA21000038210000000000000000103E48
:1056B000000000000000103C000000000000103A54
:1056C000182D4454FB21F93D3326A611460B113CFD
:1056D00000000054FB21F93D10B52DED040B2DED1C
:1056E000088B82B0B0EE419AF0EE619A0B9820F0F0
:1056F00000449FED4BABB4F1795F11DA9DED0A0BDD
:1057000051EC100BFBF72EF9002801BFB0EE4A0A4E
:10571000F0EE6A0A02B0BDEC088B04BF04B010BD05
:105720009DED0A0B53EC102B51EC100BFAF734FEE5
:1057300041EC180B3C480621B0EE480AF0EE680A2E
:10574000784400F081F853EC182B51EC100BFAF769
:1057500023FE9DED0A0B41EC1B0B53EC192B51EC76
:10576000100BFAF719FE41EC190B53EC1B2B51EC03
:10577000180BFAF711FE53EC192BFAF707FE9FED01
:105780002C0B41EC190B53EC102B51EC180BFAF7C6
:1057900003FE41EC100B2848844210DA53EC192B1D
:1057A00051EC100BFAF7F2FD53EC1A2BFAF7F1FD5E
:1057B00041EC100B02B0BDEC088B04B010BD1F48CB
:1057C000A042BCBF9FED1E1B8DED001B06DBA4F5A8
:1057D00000100190002000909DED001B51EC100B7B
:1057E00053EC112BFAF7D2FD9DED000B41EC180B99
:1057F00053EC102B51EC1A0BFAF7C8FD41EC1A0BC5
:1058000053EC192B51EC180BFAF7C0FD53EC1A2B83
:10581000FAF7BFFD41EC100BCCE7000000000000E0
:10582000000000000000F03F541E000000000000D7
:10583000000000000000E03F3333D33F0000E93FA9
:10584000000000000000D23F70B504462DED028B31
:105850004D1E00EBC500B0EE408AF0EE608A90ED80
:10586000000B35F0060017D053EC182B51EC100B41
:10587000FAF792FD41EC100B6D1E04EBC50090EDA4
:10588000001B51EC100B53EC112BFAF7DEFC41EC32
:10589000100B35F00600E7D1022D36D0042D1CD0B8
:1058A000062D1CBFBDEC028B70BD53EC182B51ECC8
:1058B000100BFAF771FD94ED0A1B53EC112BFAF75C
:1058C000C4FC53EC182BFAF767FD94ED081B53EC5E
:1058D000112BFAF7BAFC41EC100B53EC182B51ECDE
:1058E000100BFAF759FD94ED061B53EC112BFAF748
:1058F000ACFC53EC182BFAF74FFD94ED040B53EC72
:10590000102BFAF7A2FC41EC100B53EC182B51ECC6
:10591000100BFAF741FD94ED021B53EC112BFAF733
:1059200094FC53EC182BFAF737FD94ED001B53EC65
:10593000112BFAF78AFCBDEC028B41EC100B70BD09
:1059400031B504462DED040B2DED0A8BB0EE41BAB6
:10595000F0EE61BA0B989DED0A0B20F00040B0F11B
:10596000795F0DDA51EC100BFEF7CAFA042808BF74
:1059700000F0CAF89DED0A0BBDEC0A8B05B030BDF6
:1059800053EC102B51EC100BFAF706FD41EC180B01
:105990009DED0A0B53EC182B51EC100BFAF7FCFCA5
:1059A00041EC190B2C48B0EE480AF0EE680A0521CC
:1059B0007844FFF749FF9FED2ACBB0EE40AAF0EE06
:1059C00060AA9CB353EC1C2B51EC190BFAF7E4FCC6
:1059D00041EC1C0B53EC1A2B51EC190BFAF7DCFCC5
:1059E0009FED210B41EC190B53EC102B51EC1B0BD1
:1059F000FAF7D2FC53EC192BFAF7C8FC53EC182B2E
:105A0000FAF7CAFC53EC1B2BFAF7C0FC53EC1C2B27
:105A1000FAF7BCFC9DED0A1B53EC112BFAF7B9FC0D
:105A2000BDEC0A8B05B041EC100B30BDFFE753EC29
:105A30001A2B51EC180BFAF7AFFC53EC1C2BFAF7AE
:105A400004FC53EC192BFAF7A7FC9DED0A1B53EC51
:105A5000112BFAF7FAFBE3E7E41C0000000000005A
:105A6000495555555555C5BF000000000000E03FA1
:105A70009FED070B10B553EC102B9FED070B51EC6E
:105A8000100BFAF7FBFC41EC100B10BD00000000FE
:105A90000000000000000000000000000000F03FD7
:105AA00010B553EC102B51EC100BFAF7CEFB41EC78
:105AB000100B10BD10B553EC112B51EC100BFAF775
:105AC000C4FB41EC100B10BD9FED050B10B553EC62
:105AD000102B51EC100BFAF7D1FC41EC100B10BD60
