:020000040800F2
:10000000300A002081020008752B0008CF26000866
:10001000712B00087106000821390008000000005B
:10002000000000000000000000000000952C000807
:100030007506000800000000292C0008972C000815
:100040009B0200089B0200089B0200089B0200081C
:100050009B0200089B0200089B0200089B0200080C
:100060009B0200089B0200089B0200089B020008FC
:100070009B0200089B0200089B0200089B020008EC
:100080009B020008000000009B0200089B02000881
:100090009B0200089B0200089B0200089B020008CC
:1000A0009B0200089B0200089B0200089B020008BC
:1000B0009B0200089B0200089B0200089B020008AC
:1000C0009B0200089B0200089B0200089B0200089C
:1000D0009B020008113900089B0200089B020008DF
:1000E0009B0200089B0200089B0200089B0200087C
:1000F0009B0200089B0200089B0200080000000011
:10010000000000009B020008000000009B020008A5
:100110009B02000800000000B52C00089B020008AC
:100120009B0200089B0200089B0200089B0200083B
:100130009B02000800000000000000009B02000875
:100140009B0200089B020008000000000000000065
:10015000000000000000000000000000000000009F
:100160000000000000000000000000009B020008EA
:100170009B020008000000000000000000000000DA
:10018000000000009B0200080000000000000000CA
:10019000000000000000000000000000000000005F
:1001A00000000000000000009B0200089B02000805
:1001B0009B0200089B0200089B0200080000000050
:1001C000000000009B02000800000000000000008A
:1001D0009B0200089B02000800F002F800F041F8C2
:1001E0000AA090E8000C82448344AAF10107DA4592
:1001F00001D100F036F8AFF2090EBAE80F0013F0A3
:10020000010F18BFFB1A43F001031847BC3D000063
:10021000DC3D0000103A24BF78C878C1FAD85207F4
:1002200024BF30C830C144BF04680C607047000070
:100230000023002400250026103A28BF78C1FBD8EF
:10024000520728BF30C148BF0B607047642900F0D7
:10025000EF80002070471FB503F090FE1FBD10B562
:1002600010BD00F0D3F91146FFF7F5FF03F01AFCBB
:1002700000F0F1F903B4FFF7F2FF03BC03F06EFBEB
:100280000948804709480047FEE7FEE7FEE7FEE72A
:10029000FEE7FEE7FEE7FEE7FEE7FEE70448054966
:1002A000054A064B70470000A12C0008D901000840
:1002B00030040020300A00203006002030060020E4
:1002C000704753EA020C00F069802DE9F04B4FF0C3
:1002D0000006002B1FBFB3FA83F503FA05F424FAD6
:1002E00005F65E4012BF1643B2FA82F502FA05F433
:1002F000C5F120051EBF22FA05FC44EA0C04203596
:1003000056EA044C4FEA144418BF641C4FF000082E
:100310004FF00009904271EB030C39D3002919BF4B
:10032000B1FA81F701FA07F6B0FA80F700FA07F69A
:10033000C7F120071EBF20FA07FC46EA0C0620374B
:10034000B6FBF4FCA7EB0507103F07F01F0BCBF142
:1003500020060CFA0BFB2CFA06F644BFB346002627
:10036000202FA4BF5E464FF0000B5BEA060C08BFCF
:100370004FF0010B19EB0B09ABFB027C48EB0608B5
:10038000C01B06FB02CC0BFB03CC71EB0C01C1E7DD
:100390000B46024641464846BDE8F08B13B54FF088
:1003A00000004FF00001AFF30080BDE81C40704733
:1003B0000FB4044910B503AA029800F0F9F810BC74
:1003C0005DF814FB080000202DE9F0410E460446BC
:1003D000002020622046E168884730B3252805D0F8
:1003E000D4E901219047206A401CF2E7E1682046E9
:1003F00000278847050018D0A5F14100192802D828
:1004000020354FF400673246294620462760FFF723
:100410001DFF40B1012804D0F61D26F0070608365E
:10042000D8E7361DD6E72846DAE7206ABDE8F0812E
:100430002DE9F0410646002410687529314616A5BD
:1004400010D0AFF30080002802DA404213A507E085
:1004500031688A0701D512A502E0490704D511A524
:10046000012401E0AFF3008000210A2206F12407F5
:1004700009E0B0FBF2FCB0FBF2F302FB1C003030F1
:1004800078541846491C0028F3D123462A463046A2
:10049000BDE8F04100F033B8000000002D0000007E
:1004A0002B000000200000004FF0000200B51346B2
:1004B00094469646203922BFA0E80C50A0E80C5084
:1004C000B1F12001BFF4F7AF090728BFA0E80C5035
:1004D00048BF0CC05DF804EB890028BF40F8042B2E
:1004E00008BF704748BF20F8022B11F0804F18BF9B
:1004F00000F8012B704770477047704770472DE92F
:10050000F0470D4699469246044600F124080168DA
:10051000880604D5E06921F01001216000E0012087
:10052000A84201DD471B00E00027A1697A1902EB10
:100530000900081AA0612078C00602D42046AFF353
:100540000080002608E0D4E901211AF8060090474F
:10055000206A401C761C20624E45F4DB2078C006E1
:100560000AD52046AFF3008006E0D4E9012130200F
:100570009047206A401C2062381EA7F10107F4DC76
:1005800007E0D4E9012118F805009047206A401CD3
:100590002062281EA5F10105F3DC2046AFF30080A0
:1005A0002078000602D50220BDE8F0870120FBE795
:1005B000074B70B50D467B4400F011F80446284601
:1005C00000F020F810B14FF0FF3070BD204670BD34
:1005D0009B34000001694A1C02610878704700B52D
:1005E0008FB0CDE901310021059105497944CDE96C
:1005F000031011466846FFF7E7FE0FB000BD00008C
:10060000E5FFFFFF007B00F080007047754600F0BB
:100610002BF8AE4605006946534620F00700854694
:1006200018B020B5FFF73AFEBDE820404FF00006B5
:100630004FF000074FF000084FF0000B21F00701CA
:10064000AC46ACE8C009ACE8C009ACE8C009ACE80D
:10065000C0098D46704710B50446AFF300802046B0
:10066000BDE81040FFF706BE00487047D0030020E9
:1006700000BFFEE77047000070B504460D46164601
:100680000B48046000200A49486088600846C6603C
:100690000020086148618861C86108622A460548EF
:1006A00000F0BEF908B1012070BD00BFFCE70000FA
:1006B000C8020020EC02002010B51949016403684B
:1006C000D3F8803023F4F814838E44EA034304689B
:1006D000C4F8803001F1700343640368D3F88030BC
:1006E00023F0706490F8383044EA03630468C4F877
:1006F000803001F1B003836401F5C473C36401F574
:100700001873036501F51E7343650A4602E0002372
:100710001360121D01F554739A42F8D310BD000006
:1007200000A400402DE9F041054614461E46D1F8CC
:1007300004C0BCF1000F0AD1D1F810C0D1F8088074
:100740004CEA080CB1F800804CEA88430BE0D1F881
:1007500010C04CF0804CD1F808804CEA080CD1F85D
:1007600000804CEA080391F82080D1F81CC04CEAC4
:10077000086CD1F818804CEA080CD1F814804CEAC7
:10078000080CD1F80C804CEA080706EBC608D5F82F
:1007900054C00CEBC8021360121D1760121D00201C
:1007A00019E000F1030C14F80CC04FEA0C6800F1DA
:1007B000020C14F80CC048EA0C4800F1010C14F8C3
:1007C0000CC048EA0C2C14F800804CEA080CC2F863
:1007D00000C0121D001DDFF81880D1F80CC008EB16
:1007E0001C4C9CF800C08445DBD8BDE8F0810000BB
:1007F000B63F00080146002091F82520022A03D0C8
:100800000422CA63012027E00A68126822F00E025F
:100810000B681A608A6C126822F480728B6C1A6002
:100820000A68126822F001020B681A6091F84420ED
:1008300002F01F0301229A400B6C5A60D1E9133277
:100840005A604A6D42B14A6D126822F480724B6D53
:100850001A60D1E916325A60012281F8252000BFC2
:10086000002281F8242000BF704770B5044600259F
:1008700094F8250002280BD00420E063012084F8BE
:10088000250000BF002084F8240000BF012534E0CB
:100890002068006820F00E00216808602068006869
:1008A00020F0010021680860A06C006820F48070CE
:1008B000A16C086094F8440000F01F0101208840FA
:1008C000216C4860D4E913104860606D40B1606DE0
:1008D000006820F48070616D0860D4E916104860EB
:1008E000012084F8250000BF002084F8240000BF08
:1008F000A06B10B12046A16B8847284670BD70B52B
:100900000346144693F85C5001F4C07000B100BF78
:10091000012D01D0022D7DD11868826D01F00700F4
:1009200010B102F0010018B301F0380010B102F06C
:100930000200E8B101F4E07010B102F00400B8B1B7
:1009400001F4F05010B102F0080088B101F46040E9
:1009500010B102F0100058B101F4403010B102F0B3
:10096000200028B101F47C0040B102F0400028B919
:100970001868C06D40F001001E68F06501F00700C6
:1009800010B102F0010018BB01F0380010B102F004
:100990000200E8B901F4E07010B102F00400B8B947
:1009A00001F4F05010B102F0080088B901F4604081
:1009B00010B102F0100058B901F4403010B102F04B
:1009C000200028B901F47C0040B102F0400028B1B9
:1009D0001868C06D40F002001E68F06501F08000EC
:1009E00030B11868D0F8DC0020431E68C6F8DC007F
:1009F00001F4807030B11868D0F8E00020431E6820
:100A0000C6F8E0001868406D08431E687065002055
:100A100070BDFFE7186E40F0020018660120F7E78E
:100A20002DE9F04104460E461746706800B900E013
:100A300000BF94F85C00022821D12068D0F8C400DF
:100A400000F4001030B1206E40F4007020660120E8
:100A5000BDE8F0812068D0F8C400C0F301452B4602
:100A60003A4631462046FFF75DFE0120A840216846
:100A7000C1F8CC000120A840A0650020E8E7206E66
:100A800040F0080020660120E2E7F0B5024692F847
:100A90005C60012E01D0022E23D1086880B9087A4B
:100AA00080070F7B40EAC7600F8A40EA07404F6922
:100AB00040EA0704176C486807EB80031C600EE0EF
:100AC0000F7B086940EA47740F7A486940EA8775E6
:100AD000576C486807EBC0031C601B1D1D6000209D
:100AE000F0BD106E40F0020010660120F8E770477C
:100AF0007047704770B504460CB9012070BD90492D
:100B00002068884200D100BFA068B0F5407F00D1C6
:100B100000BF94F85C00002822D1603404F8030C74
:100B2000884860608848A0608848E0608848206104
:100B3000884860618848A0618848E06188482062F0
:100B4000884860628848A0628848E062206B603C08
:100B500010B98748C4F890002046D4F89010884710
:100B60002068806920F010002168886100F06AFA2E
:100B700005460DE000F066FA401B0A2808D9206EF1
:100B800040F001002066032084F85C000120B5E7F6
:100B90002068806900F008000828EBD02068806990
:100BA00040F001002168886100F04CFA05460DE034
:100BB00000F048FA401B0A2808D9206E40F00100D6
:100BC0002066032084F85C00012097E72068806994
:100BD00000F001000028EBD02068806940F002009E
:100BE0002168886156492068884202D1614960685D
:100BF0000860207C012806D12068806920F0400030
:100C00002168886105E02068806940F04000216823
:100C10008861607C012806D12068806940F48040AA
:100C20002168886105E02068806920F4804021689F
:100C30008861A07C012806D12068806920F480505A
:100C40002168886105E02068806940F4805021684F
:100C500088612068806920F44070A1680843216899
:100C600088612068806920F0A4002168886120687C
:100C7000006920F0100021680861E068012806D1B1
:100C80002068806940F004002168886120E0E06805
:100C9000F0B1E068022815D02068806940F080003B
:100CA000216888612068006940F0100021680861AF
:100CB000E06803280CD12068806940F0200021689A
:100CC000886105E02068806940F020002168886123
:100CD000207E401E4106E069401E41EA0020216A54
:100CE000491E0843A18A491E40EA01402168C861A3
:100CF000A068B0F5407F0FD1A06A401EE16A491E8E
:100D000040EA0121206B401E41EA0011A08C401EE8
:100D100041EA00402168C8602068D0F8C000E16B5B
:100D200008432168C1F8C0002046FFF7C5FC002039
:100D3000A0652066012084F85C000020DEE600004B
:100D4000006400403F0E0008050E0008070E000872
:100D5000410E00083D0E00083B0E0008F30A000893
:100D6000390E0008370E0008EF0A0008F10A0008E3
:100D7000790D00080065004010B598B004461421B4
:100D800013A8FFF791FB442102A8FFF78DFB1B4935
:100D9000206888422FD18014029040030E9002A850
:100DA00000F004FA00BF1648806D40F0007014494E
:100DB00088650846806D00F00070019000BF00BF9C
:100DC00000BF0846C06C40F00100C8640846C06C13
:100DD00000F00100019000BF00BF4FF4C05013901D
:100DE000022014900020159016900920179013A946
:100DF000C00600F027F818B010BD000000640040E5
:100E00000010024070477047014691F85C000128CD
:100E10000BD1022081F85C000868806920F0010095
:100E20000A689061002008667047086E40F0040070
:100E300008660120F8E770477047704770477047B1
:100E40007047000078B503460022D0E001269640A6
:100E50000D6805EA0604002C72D04D68012D08D0FB
:100E60004D68022D05D04D68112D02D04D68122D10
:100E700013D1986856000325B540A8435600CD68A5
:100E8000B54028439860586801259540A8430D79DE
:100E9000C5F30015954028435860D86856000325CF
:100EA000B540A84356008D68B5402843D8604D68CA
:100EB000022D02D04D68122D13D1D60803F1200562
:100EC00055F826005507EE0E0F25B540A8435607E6
:100ED000F60E0D69B5402843D60803F1200545F804
:100EE0002600186856000325B540A8430D7905F083
:100EF00003055600B540284318604D6805F080553D
:100F0000B5F1805F72D100BF3C4D2D6E45F00105FB
:100F10003A4E356635462D6E05F00105009500BF49
:100F200000BF4FEAB635960855F8260095072E0FF4
:100F30000F25B540A843B3F1904F02D100251AE028
:100F400054E02F4DAB4201D1012514E02D4DAB42B1
:100F500001D102250FE02C4DAB4201D103250AE05F
:100F60002A4DAB4201D1042505E0294DAB4201D108
:100F7000052500E006259607360FB5402843254D88
:100F8000960845F82600244D2868A0434D6805F4CE
:100F90008035B5F5803F00D120431F4D28602D1DC1
:100FA0002868A0434D6805F40035B5F5003F00D131
:100FB0002043194D2D1D28602D1D2868A0434D6824
:100FC00005F48015B5F5801F00D12043124D08357A
:100FD00028602D1D2868A0434D6805F40015B5F55F
:100FE000001F00D120430C4D0C352860521C0D68A9
:100FF000D540002D7FF42AAF78BD000000100240DC
:101000000004004800080048000C00480010004898
:101010000014004808000140000401400246136922
:101020000B400BB1012000E0002070470AB1816144
:1010300000E081627047000001480068000C7047C2
:10104000002004E001480068704700001000002004
:10105000034800680349096808440149086070476B
:10106000100000201800002010B50024032000F01C
:1010700089F80F2000F008F808B1012401E000F021
:101080002FF8204610BD000070B504460025114819
:101090000068D8B10F4800684FF47A71B1FBF0F0E6
:1010A0000D490968B1FBF0F6304600F073FE58B9FF
:1010B000102C07D200222146501E00F026F80748C7
:1010C000046004E0012502E0012500E00125284636
:1010D00070BD000018000020000000201400002057
:1010E00070470146084600280DDB00BF00BF00F036
:1010F0001F0301229A4043099B0003F1E023C3F838
:10110000002100BF00BF00BF70472DE9F05F80469F
:101110000D46164602F006FC074639462A46334677
:1011200001F00700C0F1070ABAF1040F02D94FF02D
:10113000040A01E0C0F1070AD14600F1040ABAF13D
:10114000070F02D24FF0000A01E0A0F1030AD446D3
:101150004FF0010A0AFA09FAAAF1010A0AEA020A98
:101160000AFA0CFA4FF0010B0BFA0CFBABF1010B76
:101170000BEA030B4AEA0B042146404602F0DAFB75
:10118000BDE8F09F00BF00F00702064B19684FF65C
:10119000FF031940044B0B4343EA0221014B196042
:1011A00000BF70470CED00E00000FA052DE9F843A0
:1011B00004460027B846206800F40020B0F5002F50
:1011C00073D1B946D348806D00F0805078B900BF24
:1011D000D048806D40F08050CE4988650846806DCB
:1011E00000F08050009000BF00BF4FF00109CA48D6
:1011F000006840F48070C8490860FFF723FF064686
:1012000006E0FFF71FFF801B022801D9032705E036
:10121000C148006800F480700028F2D000BF002FA1
:1012200046D1BC489030006800F44075CDB1206CC8
:10123000A84216D0B7489030006820F44075B548F1
:10124000D0F8900040F48030B249C1F890000846D0
:10125000D0F8900020F48030C1F890000846C0F823
:10126000905005F00100A0B1FFF7ECFE064608E043
:10127000FFF7E8FE801B41F28831884201D903273D
:1012800006E0A4489030006800F002000028EFD08B
:1012900000BF5FB99F489030006820F44070216C17
:1012A00008439C49C1F8900003E00CE0B84600E018
:1012B000B846B9F1010F05D19648806D20F08050F5
:1012C0009449886500BF207800F0010048B191483A
:1012D0008830006820F00300616808438D49C1F838
:1012E0008800207800F00200022809D1894888305F
:1012F000006820F00C00A16808438649C1F8880006
:10130000207800F00400042809D182488830006861
:1013100020F03000E16808437E49C1F88800207859
:1013200000F00800082809D17A488830006820F0C9
:10133000C000216908437749C1F88800207800F08F
:101340002000202809D173488830006820F44060CC
:10135000616908436F49C1F88800207800F04000B7
:10136000402809D16B488830006820F44050A169BA
:1013700008436849C1F88800207800F08000802880
:1013800009D164488830006820F44040E16908438E
:101390006049C1F88800208800F48070B0F5807F33
:1013A00009D15C488830006820F44030216A084345
:1013B0005849C1F88800208800F40070B0F5007F1B
:1013C00009D154488830006820F44020616A0843FD
:1013D0005049C1F88800208800F48060B0F5806F23
:1013E00013D14C488830006820F44010A16A0843AB
:1013F000484988310860A06AB0F5801F05D145488A
:10140000C06840F480104349C860208800F4006040
:10141000B0F5006F13D13F488830006820F44000D9
:10142000E16A08433B4988310860E06AB0F5800F03
:1014300005D13848C06840F480103649C86020881B
:1014400000F48050B0F5805F13D1324888300068D6
:1014500020F04070216B08432E4988310860206BD2
:10146000B0F1807F05D12B48C06840F48010294935
:10147000C860208800F40050B0F5005F13D1254803
:101480008830006820F04060616B08432149883152
:101490000860606BB0F1006F05D11E48C06840F471
:1014A00080101C49C860208800F48040B0F5804F4F
:1014B00013D118488830006820F04060A16B0843C1
:1014C000144988310860A06BB0F1006F05D1114854
:1014D000C06840F480100F49C860208800F40040C4
:1014E000B0F5004F13D10B488830006820F0405011
:1014F000E16B0843074988310860E06BB0F1805F19
:1015000005D10448C06840F480300249C8604046B4
:10151000BDE8F88300100240007000402DE9F04162
:1015200004460D464FF0000814B90120BDE8F081D3
:101530007D48006800F00F00A8420ED27A4800688B
:1015400020F00F002843784908600846006800F042
:101550000F00A84201D00120E8E7207800F0010048
:10156000002864D06068032823D17048006800F028
:10157000007008B90120D9E701F058FB06466C4815
:10158000864237D96948806800F0F00030B1207891
:1015900000F0020002282DD1A06858BB6348806883
:1015A00020F0F00040F08000604988604FF0800833
:1015B00020E06068022806D15C48006800F4003032
:1015C00040B90120B2E75948006800F4806008B9CA
:1015D0000120ABE700F0DEF806465548864209D9FF
:1015E0005248806820F0F00040F080004F49886049
:1015F0004FF080084D48806820F003006168084380
:101600004A498860FFF71EFD074608E0FFF71AFD0C
:10161000C01B41F28831884201D9032086E7434844
:10162000806800F00C006168B0EB810FEED120788B
:1016300000F00200022820D1207800F004000428E5
:1016400005D13A48806840F4E060384988602078E5
:1016500000F00800082807D13448806820F4605062
:1016600040F4E060314988603048806820F0F00044
:10167000A16808432D49886008E0B8F1800F05D1C2
:101680002A48806820F0F0002849886026480068D1
:1016900000F00F00A84219D92348006820F00F007D
:1016A000284321490860FFF7CDFC074608E0FFF713
:1016B000C9FCC01B41F28831884201D9032035E7BB
:1016C0001948006800F00F00A842F0D1207800F01F
:1016D0000400042807D11548806820F4E060E16820
:1016E000084312498860207800F00800082808D1D3
:1016F0000E48806820F46050216940EAC1000B491F
:10170000886000F047F809498968C1F30311094A64
:10171000515C01F01F01C840074908600748006894
:10172000FFF7B2FC02E70000002002400010024078
:1017300000B4C404863F000800000020140000200C
:1017400001480068704700000000002000B5FFF766
:10175000F7FF05498968C1F30221044A515C01F091
:101760001F01C84000BD000000100240963F000865
:1017700000B5FFF7E5FF05498968C1F3C221044AB6
:10178000515C01F01F01C84000BD00000010024084
:10179000963F000870B5224DAD6805F00C05042D8C
:1017A00001D120483AE01E4DAD6805F00C05082D2A
:1017B00001D11D4832E01A4DAD6805F00C050C2D25
:1017C0002BD1174DED6805F00304154DED68C5F3F9
:1017D00003156A1C022C0CD0032C09D1124DB5FB49
:1017E000F2F50F4EF668C6F3062605FB06F10AE091
:1017F00000BF0C4DB5FBF2F5094EF668C6F30626A0
:1018000005FB06F100BF00BF054DED68C5F341655E
:101810006D1C6B00B1FBF3F000E0002070BD000018
:10182000001002400024F400001BB7002DE9F8432B
:10183000044614B90120BDE8F883207800F00100C7
:10184000002865D0FC48806800F00C07FA48C068A2
:1018500000F003060C2F01D1032E01D0082F0AD16E
:10186000F548006800F40030002851D06068002876
:101870004ED10120DFE700BF6068B0F5803F06D1A0
:10188000ED48006840F48030EB4908601AE0606879
:10189000B0F5A02F0BD1E848006840F48020E6495D
:1018A00008600846006840F4803008600AE0E248BA
:1018B000006820F48030E04908600846006820F4A1
:1018C0008020086000BF606888B1FFF7BBFB054659
:1018D00006E0FFF7B7FB401B642801D90320AAE705
:1018E000D548006800F400300028F2D010E0FFF77F
:1018F000A9FB054606E0FFF7A5FB401B642801D9BC
:10190000032098E7CC48006800F400300028F2D1AA
:10191000207800F00200022860D1C748806800F0FB
:101920000C07C548C06800F003060C2F01D1022E39
:1019300001D0042F18D1C048006800F4806018B1AD
:10194000E06808B9012076E7BB48406820F0FE4017
:10195000217C40EA0160B8494860B8480068FFF758
:1019600093FB18B3012066E7E06800B3B248006853
:1019700040F48070B0490860FFF764FB054606E05C
:10198000FFF760FB401B022801D9032053E7AA4858
:10199000006800F480600028F2D0A748406820F07A
:1019A000FE40217C40EA0160A349486016E0A2485D
:1019B000006820F48070A0490860FFF743FB0546EB
:1019C00006E0FFF73FFB401B022801D9032032E766
:1019D0009948006800F480600028F2D1207800F077
:1019E0000800082836D16069D0B193489430006867
:1019F00040F001009049C1F89400FFF723FB054631
:101A000006E0FFF71FFB401B022801D9032012E765
:101A100089489430006800F002000028F1D019E0F5
:101A200085489430006820F001008349C1F8940093
:101A3000FFF708FB054606E0FFF704FB401B022802
:101A400001D90320F7E67C489430006800F00200DA
:101A50000028F1D1207800F00400042872D14FF062
:101A600000087548806D012121EA107078B100BF2F
:101A70007148806D40F080506F4988650846806DE0
:101A800000F08050009000BF00BF4FF001086C488C
:101A9000006800F48070B0B96948006840F4807054
:101AA00067490860FFF7CEFA054606E0FFF7CAFA75
:101AB000401B022801D90320BDE66148006800F4FC
:101AC00080700028F2D000BFA068012808D15A48D1
:101AD0009030006840F001005749C1F8900021E0C3
:101AE000A06805280FD154489030006840F00400E9
:101AF0005149C1F890000846D0F8900040F001002C
:101B0000C1F890000EE04C489030006820F00100D1
:101B10004949C1F890000846D0F8900020F0040030
:101B2000C1F8900000BFA068A8B1FFF78BFA054686
:101B300009E0FFF787FA401B41F28831884202D959
:101B4000032078E625E03C489030006800F0020071
:101B50000028EED013E0FFF775FA054608E0FFF71E
:101B600071FA401B41F28831884201D9032062E6B4
:101B700031489030006800F002000028EFD1B8F141
:101B8000010F05D12C48806D20F080502A498865CE
:101B900000BF207800F02000202836D1A069D0B105
:101BA00025489830006840F001002349C1F89800AA
:101BB000FFF748FA054606E0FFF744FA401B022803
:101BC00001D9032037E61C489830006800F0020075
:101BD0000028F1D019E018489830006820F0010082
:101BE0001549C1F89800FFF72DFA054606E0FFF702
:101BF00029FA401B022801D903201CE60E48983020
:101C0000006800F002000028F1D1E069002860D0EF
:101C10000948806800F00C000C287FD0E069022899
:101C200058D10548006820F0807003490860FFF72C
:101C300009FA05460DE000000010024014000020E3
:101C400000700040FFF7FEF9401B022801D9032075
:101C5000F1E54D48006800F000700028F2D1D4E9A9
:101C60000810401E41EA0011A06A41EA0021208EBE
:101C70000122C2EB500041EA40513420005DC2EB2A
:101C8000500041EA40612C20005D41EAC0603E49BD
:101C9000C9683E4A114008433B49C860084600688D
:101CA00040F0807008600846C06840F08070C860EE
:101CB000FFF7C8F9054606E0FFF7C4F9401B022804
:101CC00001D90320B7E53048006800F00070002813
:101CD000F2D056E02C48006820F080702A49086055
:101CE0000846C06820F00300C8600846C06828495C
:101CF00008402549C860FFF7A5F9054607E00DE053
:101D0000FFF7A0F9401B022801D9032093E51E48E4
:101D1000006800F000700028F2D132E0E06901288C
:101D200000D188E51848C66806F00301206A8142A0
:101D300025D106F0F001606A401EB1EB001F1ED1F4
:101D400006F4FE41A06AB1EB002F18D106F07841ED
:101D50002C20005DB1EBC06F11D106F4C001208EC4
:101D60000122C2EB5000B1EB405F08D106F0C06128
:101D70003420005DC2EB5000B1EB406F01D0012078
:101D800059E5002057E50000001002400C809F013B
:101D9000FFFFEEFE70B504462546681EB0F1807F59
:101DA00001D301200FE0681E4FF0E02148610F21B0
:101DB0004FF0FF3001F0BEFD00204FF0E0218861C0
:101DC00007200861002070BD70477047704770475A
:101DD00070477047704710B504460CB9012010BD1C
:101DE00094F83D0028B9002084F83C00204600F01B
:101DF00029F8022084F83D00211D206800F062FFD0
:101E0000012084F8480000BF84F83E0001213F20F3
:101E100001554020015541200155422001554320E4
:101E2000015500BF00BF012084F844004520015542
:101E3000462001554720015500BF012084F83D0090
:101E40000020CCE738B504460E492068884217D1F7
:101E500000BF00BF0C48806D40F010000A49886543
:101E60000846806D00F01000009000BF00BF00BF6A
:101E7000012211463620FFF748F93620FFF731F9E5
:101E800038BD00000010004000100240014691F8EB
:101E90003D00012801D001207047022081F83D005B
:101EA0000868C06840F001000B68D860184B0868EB
:101EB000984213D00868B0F1804F0FD0154B0868D6
:101EC00098420BD0144B0868984207D0134B08680F
:101ED000984203D0124B0868984210D10868806875
:101EE000104B00EA0302062A0FD0B2F5803F0CD057
:101EF0000868006840F001000B68186005E0086899
:101F0000006840F001000B6818600020C4E7000082
:101F1000002C014000040040000800400034014053
:101F20000040014007000100704710B504462068DA
:101F30000069C0F34000D8B12068C068C0F3400019
:101F4000B0B16FF00200216808610120207720689D
:101F5000806900F0030018B12046FFF7E5FF05E0B7
:101F6000204600F002F9204600F000F9002020771A
:101F700020680069C0F38000D8B12068C068C0F351
:101F80008000B0B16FF00400216808610220207762
:101F90002068806900F4407018B12046FFF7C4FF44
:101FA00005E0204600F0E1F8204600F0DFF80020D0
:101FB000207720680069C0F3C000D8B12068C068ED
:101FC000C0F3C000B0B16FF00800216808610420C0
:101FD00020772068C06900F0030018B12046FFF7A1
:101FE000A3FF05E0204600F0C0F8204600F0BEF850
:101FF0000020207720680069C0F30010D8B1206865
:10200000C068C0F30010B0B16FF010002168086123
:10201000082020772068C06900F4407018B120467D
:10202000FFF782FF05E0204600F09FF8204600F011
:102030009DF8002020772068006900F0010058B169
:102040002068C06800F0010030B16FF00100216825
:102050000861204600F08CF820680069C0F3C010C9
:1020600058B12068C068C0F3C01030B16FF0800074
:10207000216808612046FFF7A8FE20680069C0F3C8
:10208000002058B12068C068C0F3C01030B16FF4B0
:102090008070216808612046FFF796FE206800697D
:1020A000C0F3801058B12068C068C0F3801030B110
:1020B0006FF0400021680861204600F065F8206854
:1020C0000069C0F3401058B12068C068C0F34010E8
:1020D00030B16FF02000216808612046FFF776FEDE
:1020E00020680069C0F3005058B12068C068C0F390
:1020F000005030B16FF48010216808612046FFF76E
:1021000067FE20680069C0F3405058B12068C0687D
:10211000C0F3405030B16FF40010216808612046D0
:10212000FFF755FE20680069C0F3805058B1206861
:10213000C068C0F3805030B16FF48000216808613E
:102140002046FFF746FE20680069C0F3C05058B132
:102150002068C068C0F3C05030B16FF4000021683F
:1021600008612046FFF736FE10BD7047704700003B
:1021700010B5044603492068884201D100F0FCFCF8
:1021800010BD000000100040704770477047704756
:10219000704770472DE9F04704462068C5692068FC
:1021A00006682068876840F60F0005EA0009B9F163
:1021B000000F0FD105F0200060B106F0200010B92B
:1021C00007F0805030B1206F10B12046216F884752
:1021D000BDE8F087B9F1000F7ED0AD48384018B99E
:1021E000AC4830400028F7D005F0010058B106F4A3
:1021F000807040B1012021680862D4F88C0040F062
:102200000100C4F88C0005F0020058B107F001008D
:1022100040B1022021680862D4F88C0040F004002C
:10222000C4F88C0005F0040058B107F0010040B17B
:10223000042021680862D4F88C0040F00200C4F841
:102240008C0005F0080070B106F0200010B990482D
:10225000384040B1082021680862D4F88C0040F072
:102260000800C4F88C0005F4006060B106F08060DE
:1022700048B14FF4006021680862D4F88C0040F047
:102280002000C4F88C00D4F88C00002844D005F05D
:10229000200050B106F0200010B907F0805020B1A6
:1022A000206F10B12046216F8847D4F88CA0206899
:1022B000806800F04000402802D00AF0280028B3CF
:1022C000204600F053FE2068806800F0400040285F
:1022D00018D12068806800E01FE020F040002168ED
:1022E0008860E06F50B16C48E16F8863E06FFEF783
:1022F000BCFA88B1E06F816B88470DE02046FFF79C
:1023000048FF09E02046FFF744FF05E02046FFF7BD
:1023100040FF0020C4F88C005AE7E06E012879D114
:1023200005F01000002875D006F01000002871D0CC
:102330001020216808622068806800F04000402872
:102340003DD1E06F006840681FFA80F8B8F1000FD7
:1023500034D0B4F85C00404530DDA4F85E80E06F16
:102360000068006800F02000F8B92068006820F4D8
:102370008070216808602068806820F00100216872
:1023800088602068806820F04000216888602020F4
:10239000C4F888000020E0662068006820F0100083
:1023A00021680860E06FFEF725FAB4F85C00B4F825
:1023B0005E20801A81B22046FFF7E7FE08E734F876
:1023C0005C0F6188401A1FFA80F860885C3CF8B1A5
:1023D000B8F1000F1CD02068006820F490702168CC
:1023E0000860206880682A49C943084021688860DD
:1023F0002020C4F888000020E0662067206800687C
:1024000020F010002168086041462046FFF7BDFE1D
:10241000DEE6FFE705F4801050B107F4800038B124
:102420004FF48010216808622046FFF7B1FECFE626
:1024300005F0800058B106F0800010B907F40000E4
:1024400028B1606F10B12046616F8847C0E605F083
:10245000400030B106F0400018B1204600F0A4FD65
:10246000B6E605F4000030B106F0804018B1204611
:10247000FFF78DFEACE605F0807030B106F000404D
:1024800018B12046FFF782FEA2E600BFA0E60000DA
:102490000100001020010004532F000810B504466D
:1024A0000CB9012010BDA06900B100E000BFD4F854
:1024B000840028B9002084F88000204600F02AF823
:1024C0002420C4F884002068006820F001002168FE
:1024D0000860204600F06EFF012800D1E2E7A06A04
:1024E00010B1204600F07EFC2068406820F4904047
:1024F000216848602068806820F02A002168886090
:102500002068006840F0010021680860204600F063
:10251000E5FCC7E710B586B004462A492068884222
:102520004ED100BF00BF2848006E40F480402649CD
:1025300008660846006E00F48040009000BF00BFAF
:1025400000BF00BF00BF0846C06C40F00100C86477
:102550000846C06C00F00100009000BF00BF00BF43
:1025600000BF00BF0846C06C40F00100C8640846C8
:10257000C06C00F00100009000BF00BF00BF481514
:102580000190022002900120039002200490072075
:10259000059001A94FF09040FEF754FC4FF4806085
:1025A00001900720059001A94FF09040FEF74AFCEA
:1025B0002520FEF796FD032211462520FEF7A5FDF6
:1025C00006B010BD003801400010024070B504464E
:1025D0000D461646D4F88800202825D105B10EB93D
:1025E000012070BD00BF94F88000012801D10220B5
:1025F000F7E7012084F8800000BF0020E0660B4967
:10260000206888420AD02068406800F4000028B1A1
:102610002068006840F080602168086032462946E2
:10262000204601F08DF8DCE70220DAE70080004068
:1026300010B504462049206888423BD11F480088D5
:1026400000F4004088BB1D48008800F4804070B151
:102650001B4800780A2803D000201849088024E08D
:102660001648008840F40040144908801DE01448D2
:1026700000780D2806D11148008840F480400F49A9
:10268000088012E00E4800780C490988C1F30D015A
:102690000C4A505409480088401C084908800846E4
:1026A0000088C72801DD002008800122044906486F
:1026B000FFF78CFF10BD0000003801400C00002027
:1026C0000E000020440000200C010020704700BFD5
:1026D000FEE710B5FEF7C8FC01F058FAA82001F09B
:1026E00055F94FF4E13001F011FBA72140F2E7303A
:1026F00001F036F900F0F8F901F0DCFB01F028FAFE
:1027000010BD000010B500BF00224FF400414FF093
:102710009040FEF78BFC00BF00F0ECF800BF0022F9
:1027200080210E48FEF782FC00BF022001F03EF936
:1027300000BF0122D1034FF09040FEF777FC00BFAD
:10274000022001F033F900BF00224FF400414FF0A6
:102750009040FEF76BFC00BF10BD00000004004875
:1027600000B587B000BF1F48C06C40F002001D4993
:10277000C8640846C06C00F00200019000BF00BFB2
:1027800000BF0846C06C40F00100C8640846C06C39
:1027900000F00100019000BF00BF802002900120E6
:1027A000039004900220059002A90F48FEF74AFB0F
:1027B0004FF40040029002A94FF09040FEF742FB18
:1027C00000BF012280210848FEF730FC00BF00BF97
:1027D0000122D1034FF09040FEF728FC00BF07B064
:1027E00000BD0000001002400004004810B500BF0A
:1027F00000224FF400414FF09040FEF717FC00BF5D
:1028000000F078F800BF012280210E48FEF70EFC90
:1028100000BF022001F0CAF800BF0122D1034FF02F
:102820009040FEF703FC00BF022001F0BFF800BF9C
:1028300000224FF400414FF09040FEF7F7FB00BF3D
:1028400010BD00000004004870B50546002400F0EB
:1028500031F8002621E000BF00224FF400414FF084
:102860009040FEF7E3FB00BF022001F09FF800BF9D
:102870000122D1034FF09040FEF7D8FB00BF600665
:10288000040E80210A48FEF7C9FB08B1601CC4B2DF
:10289000012001F08BF8701CC6B2082EDBDB15B9E5
:1028A000FFF7A4FF01E0FFF72DFF204670BD0000F9
:1028B0000004004800B587B000BF0C48C06C40F071
:1028C00002000A49C8640846C06C00F0020001908A
:1028D00000BF00BF8020029000200390049005906C
:1028E00002A90348FEF7AEFA07B000BD001002408F
:1028F0000004004800B587B000BF0D48C06C40F030
:1029000002000B49C8640846C06C00F00200019048
:1029100000BF00BF8020029001200390002004909F
:10292000059002A90348FEF78DFA07B000BD00002C
:10293000001002400004004870B50446FFF7DAFFBB
:1029400000BF00224FF400414FF09040FEF76EFBB5
:1029500000BF00252CE000BFE00928B10122802142
:102960001748FEF763FB04E0002280211448FEF7BD
:102970005DFB00BF6006040E022001F017F800BFE7
:102980000122D1034FF09040FEF750FB00BF022020
:1029900001F00CF800BF00224FF400414FF09040CE
:1029A000FEF744FB00BF022001F000F8681CC5B22E
:1029B000082DD0DB00F062F80646304670BD0000FE
:1029C0000004004810B5FFF795FF00BF01228021E9
:1029D0001248FEF72BFB00BF00BF0122D1034FF0CE
:1029E0009040FEF723FB00BF042000F0DFFF00BF94
:1029F000002280210948FEF719FB00BF042000F0E7
:102A0000D5FF00BF00224FF400414FF09040FEF789
:102A10000DFB00BF022000F0C9FF10BD00040048FC
:102A200010B5FFF767FF00BF00224FF400414FF0E1
:102A30009040FEF7FBFA00BF00BF002280210E4845
:102A4000FEF7F4FA00BF042000F0B0FF00BF01223F
:102A5000D1034FF09040FEF7E9FA00BF00BF01221A
:102A600080210548FEF7E2FA00BF042000F09EFF37
:102A7000FFF7BCFE10BD00000004004810B50024A4
:102A8000FFF718FF00BF012280211648FEF7CEFA9B
:102A900000BF012000F08AFF00BF0122D1034FF0E8
:102AA0009040FEF7C3FA00BF012000F07FFF07E06F
:102AB000601CC4B2FA2C03DDFFF7B2FF012010BD89
:102AC00080210848FEF7AAFA0028F1D100BF0022B1
:102AD0004FF400414FF09040FEF7A8FA00BF0020ED
:102AE000EDE700000004004800B587B01E481F490C
:102AF00008600020486000211C488160C1600174AA
:102B00004174817418214161012181610621C161F3
:102B100007210162012141628162C16201630021DA
:102B200041638163C163FDF7E5FF10B1012007B088
:102B300000BD00200190029002200390012004902B
:102B400000200590069001A90848FDF79EFF08B1F6
:102B50000120ECE70548FEF757F900220121034860
:102B6000FDF7CDFE00BFE2E700640040EC0200206C
:102B700000BFFEE700BFFEE7002025E000EB4001BC
:102B8000144A02EB81010979E1B900EB400132F806
:102B90002110491C89B200EB40020E4B23F8221091
:102BA00000EB400203EB8202528891420ADB0021D3
:102BB00000EB400223F82210012100EB400203EB5E
:102BC00082021171411CC8B2034909788842D5DBE1
:102BD000704700001C00002040000020FFF779FD36
:102BE00000241CE004EB44000D4901EB8000007957
:102BF00068B104EB44010A4A02EB8101886880470E
:102C0000002004EB4401064A02EB81010871601CBC
:102C1000C0B2044603490978884200DB0024E1E79A
:102C20001C000020400000207047000070B5164DC9
:102C3000ED6805F00304144DED68C5F303156B1C36
:102C4000022C0CD0032C09D1104DB5FBF3F50E4E20
:102C5000F668C6F3062605FB06F10AE000BF0C4D38
:102C6000B5FBF3F5084EF668C6F3062605FB06F13C
:102C700000BF00BF044DED68C5F341656D1C6A00DF
:102C8000B1FBF2F070BD000000100240001BB70065
:102C90000024F400704710B5FEF7DAF910BD00000B
:102CA0000348006840F47000014908607047000064
:102CB00088ED00E010B50248FFF737F910BD0000BD
:102CC0008403002010B50268264B98420BD0B0F167
:102CD000804F08D0244B984205D0244B984202D014
:102CE000234B984203D122F070024B681A431D4BCC
:102CF000984214D0B0F1804F11D01B4B98420ED0A7
:102D00001A4B98420BD01A4B984208D0194B984254
:102D100005D0194B984202D0184B984203D122F4A7
:102D20004072CB681A4322F080034C6943EA0402E4
:102D300002608B68C3620B6883620A4B98420BD0B7
:102D40000B4B984208D00B4B984205D00A4B984247
:102D500002D00A4B984201D10B69036301234361FE
:102D600010BD0000002C014000040040000800409D
:102D7000003401400040014000440140004801404F
:102D800010B5064890F82B0038B10448B0F920205F
:102D9000B0F91E10022000F08BFE10BDA001002033
:102DA00010B5074890F82B0020B101F019F800F099
:102DB000A5FE03E000200249C883088410BD00007E
:102DC000A001002010B50448B0F92020B0F91E1071
:102DD00002A0FDF7EDFA10BDA001002025642C250E
:102DE000640A090090F8281001F0010139B1016866
:102DF000496821F40031C26A11430268516090F8B9
:102E0000281001F00201022907D10168496821F464
:102E10008031026B11430268516090F8281001F074
:102E20000401042907D10168496821F48021426B1B
:102E300011430268516090F8281001F00801082938
:102E400007D10168496821F40041826B114302688F
:102E5000516090F8281001F01001102907D1016885
:102E6000896821F48051C26B11430268916090F827
:102E7000281001F02001202907D10168896821F478
:102E80000051026C11430268916090F8281001F023
:102E90004001402913D10168496821F48011426C36
:102EA000114302685160416CB1F5801F07D1016880
:102EB000496821F4C001826C11430268516090F8A6
:102EC000281001F08001802907D10168496821F4A8
:102ED0000021C26C114302685160704738B5044646
:102EE0000020C4F88C00FEF7ADF8054620680068A5
:102EF00000F0080008280CD16FF07E402B4600221D
:102F00004FF400110090204600F0A2FC08B103200D
:102F100038BD2068006800F0040004280CD16FF070
:102F20007E402B4600224FF480010090204600F0A6
:102F30008FFC08B10320EBE72020C4F88400C4F81C
:102F400088000020E06600BF84F8800000BF00BF5A
:102F5000DEE770B50546AC6A0020A4F85E00A4F870
:102F600056002046FFF715F970BD0000016809689A
:102F700021F490710268116001688968094A114062
:102F800002689160C16E012905D10168096821F0CC
:102F90001001026811602021C0F888100021C1666C
:102FA00001677047FEFFFFEF10B504462068006818
:102FB00020F04000216808602020C4F88400002030
:102FC00060672046FFF782FB10BD2DE9F041044603
:102FD000B4F86070D4F88800222837D12068406A9D
:102FE00086B2A56D06EA07002880A06D801CA0654A
:102FF000B4F85E00401EA4F85E00B4F85E0020BB8A
:103000002068006820F4907021680860206880685B
:1030100020F00100216888602020C4F8880000208A
:103020002067E06E01280BD12068006820F01000B6
:1030300021680860B4F85C102046FFF7A6F802E0AB
:103040002046FFF7F5FA0020E06605E02068806979
:1030500040F0080021688861BDE8F0812DE9F84F53
:103060000446B4F860B02068C56920680068009024
:103070002068D0F808A0D4F88800222871D1B4F8CC
:10308000689074E02068406A1FFA80F8A76D08EA2B
:103090000B003880A06D801CA065B4F85E00401E57
:1030A000A4F85E002068C56905F00700B0B305F01C
:1030B000010060B1009800F4807040B101202168E7
:1030C0000862D4F88C0040F00100C4F88C0005F0D0
:1030D000020058B10AF0010040B1022021680862E4
:1030E000D4F88C0040F00400C4F88C0005F0040013
:1030F00058B10AF0010040B1042021680862D4F8F8
:103100008C0040F00200C4F88C00D4F88C0028B188
:103110002046FFF73EF80020C4F88C00B4F85E00AB
:1031200028BB2068006820F480702168086020684F
:10313000806821490840216888602020C4F8880000
:1031400000202067E06E01280CD12068006820F084
:10315000100021680860B4F85C102046FFF715F8ED
:1031600003E021E02046FFF763FA0020E066B9F1B2
:10317000000F03D005F02000002883D1B4F85E6072
:10318000C6B1B4F86800B04214DD2068806820F051
:10319000805021688860094820672068006840F0F6
:1031A00020002168086005E02068806940F0080080
:1031B00021688861BDE8F88FFEFFFFEFCB2F000884
:1031C00070B50446B4F86060D4F88800222837D17E
:1031D0002068406A85B2F0B22840A16D0870A06DE9
:1031E000401CA065B4F85E00401EA4F85E00B4F870
:1031F0005E0020BB2068006820F4907021680860A1
:103200002068806820F00100216888602020C4F8D0
:10321000880000202067E06E01280BD1206800683C
:1032200020F0100021680860B4F85C102046FEF71A
:10323000ACFF02E02046FFF7FBF90020E06605E066
:103240002068806940F008002168886170BD000036
:103250002DE9F05F0446B4F860A02068C5692068D5
:10326000D0F800B02068D0F80890D4F88800222860
:1032700070D1B4F8688073E02068406A87B20AF0C1
:10328000FF003840A16D0870A06D401CA065B4F827
:103290005E00401EA4F85E002068C56905F00700C6
:1032A000A8B305F0010058B10BF4807040B10120C3
:1032B00021680862D4F88C0040F00100C4F88C004A
:1032C00005F0020058B109F0010040B10220216868
:1032D0000862D4F88C0040F00400C4F88C0005F0BB
:1032E000040058B109F0010040B1042021680862CF
:1032F000D4F88C0040F00200C4F88C00D4F88C00A4
:1033000028B12046FEF745FF0020C4F88C00B4F831
:103310005E0028BB2068006820F480702168086087
:103320002068806821490840216888602020C4F80E
:10333000880000202067E06E01280CD1206800681A
:1033400020F0100021680860B4F85C102046FEF7F9
:103350001CFF03E021E02046FFF76AF90020E06649
:10336000B8F1000F03D005F02000002884D1B4F894
:103370005E60C6B1B4F86800B04214DD20688068B1
:1033800020F0805021688860094820672068006824
:1033900040F020002168086005E02068806940F066
:1033A000080021688861BDE8F09F0000FEFFFFEF84
:1033B000C13100082DE9FE4F044600200290D64995
:1033C0002068884200D100E000BF2169A06808435E
:1033D00061690843E16940EA010820680068CF4953
:1033E000084040EA0800216808602068406820F42E
:1033F0004050E168084321684860D4F81880C64905
:103400002068884202D0206A40EA08082068806864
:10341000C349084040EA0800216888602068C06A03
:1034200020F00F00616A08432168C86200BFBD49EF
:103430002068884216D1BC48006800F0030030B113
:10344000012808D0022804D0032808D105E001256E
:1034500007E0022505E0042503E0082501E010252A
:1034600000BF6FE0B1492068884216D1AE480068BD
:1034700000F00C0030B1042808D0082804D00C2833
:1034800008D105E0002507E0022505E0042503E05A
:10349000082501E0102500BF54E0A54920688842B6
:1034A00016D1A148006800F0300030B1102808D0D3
:1034B000202804D0302808D105E0002507E00225A7
:1034C00005E0042503E0082501E0102500BF39E0F0
:1034D00098492068884216D19348006800F0C000DF
:1034E00030B1402808D0802804D0C02808D105E099
:1034F000002507E0022505E0042503E0082501E09A
:10350000102500BF1EE084492068884219D18648F2
:10351000006800F4406048B1B0F5806F0AD0B0F5A3
:10352000006F05D0B0F5406F08D105E0002507E039
:10353000022505E0042503E0082501E0102500BF71
:1035400000E0102500BF7449206888425DD135B184
:10355000022D08D0042D08D0082D0DD109E0FEF76A
:10356000F5F806460CE0744E0AE0FEF713F906463D
:1035700006E04FF4004603E000260120029000BF61
:1035800000BF002E10D06D49606A31F81000B6FB04
:10359000F0F9606800EB4000484503D8606800031C
:1035A000484502D201200290AAE06449606A31F8DD
:1035B00010C06246002330461946FCF782FE4FF4E5
:1035C000807C00220B46A0FB0C1B03FB0CB300FB12
:1035D0000233606840088C461CEB000043EB02019C
:1035E000CDE90001D4F804C062460023FCF769FE6F
:1035F0000746B7F5407F05D3B7F5801F02D2206894
:10360000C7607DE0012002907AE0E069B0F5004FEC
:1036100040D1092D17D2DFE805F005090D160F1668
:1036200016161300FEF792F8064610E0FEF7A0F813
:1036300006460CE0404E0AE0FEF7ACF8064606E00F
:103640004FF4004603E000260120029000BF00BFB7
:10365000FEB13A49606A31F81000B6FBF0F0400064
:10366000616800EB5100B0FBF1F087B2102F0ED370
:10367000B7F5803F0BD24FF6F07007EA000AC7F3A8
:1036800042004AEA000A2068C0F80CA038E0012095
:10369000029035E0092D17D2DFE805F005090D1677
:1036A0000F1616161300FEF751F8064610E0FEF747
:1036B0005FF806460CE0204E0AE0FEF76BF806467F
:1036C00006E04FF4004603E000260120029000BF10
:1036D00000BFAEB11949606A31F81000B6FBF0F0D6
:1036E000616800EB5100B0FBF1F087B2102F05D3F9
:1036F000B7F5803F02D22068C76001E00120029048
:103700000120A4F86A00A4F8680000202067606720
:103710000298BDE8FE8F000000800040F369FFCFF3
:10372000FFF4FF11003801408810024000440040BF
:1037300000480040004C00400024F4009E3F000878
:1037400010B503469965A3F85C20A3F85E2000201D
:10375000186700BF9868B0F5805F0AD1186920B972
:1037600040F2FF10A3F8600020E0FF20A3F8600003
:103770001CE0986848B9186918B9FF20A3F86000E0
:1037800014E07F20A3F8600010E09868B0F1805F3B
:1037900009D1186918B97F20A3F8600006E03F201E
:1037A000A3F8600002E00020A3F8600000BF002042
:1037B000C3F88C002220C3F888001868806840F0A5
:1037C00001001C68A060586EB0F1005F20D1B3F812
:1037D000680090421CDC9868B0F5805F04D11869DD
:1037E00010B91748186701E01648186700BF002095
:1037F00083F8800000BF1868006840F480701C687F
:1038000020601868806840F080501C68A06015E057
:103810009868B0F5805F04D1186910B90A48186734
:1038200001E00A48186700BF002083F8800000BF4D
:103830001868006840F490701C682060002010BD7B
:103840005D30000851320008CB2F0008C13100085C
:103850002DE9F04104460D4617469846069E4AE07B
:10386000701C002847D0FDF7EDFBA0EB0800B0422C
:1038700000D8C6B92068006820F4D07021680860BC
:103880002068806820F00100216888602020C4F84A
:103890008400C4F8880000BF002084F8800000BFC6
:1038A0000320BDE8F0812068006800F0040010B338
:1038B0002068C069C0F3C020E8B14FF400602168FF
:1038C00008622068006820F4D070216808602068D1
:1038D000806820F00100216888602020C4F88400FE
:1038E000C4F88800C4F88C0000BF002084F8800071
:1038F00000BF0320D5E72068C0692840A84201D155
:10390000012000E00020B842AAD00020C9E7000052
:1039100010B50248FEF73EFC10BD00000C0100206F
:1039200000BFFEE702480068C0F3022070470000B5
:103930000CED00E010B5002804DB0A07130E054A61
:10394000135406E00A07140E034A00F00F031B1F6E
:10395000D45410BD00E400E018ED00E000BF704753
:1039600070B505460C46074807490860084644609C
:1039700000218160C560FEF72EFA0348FEF786FA43
:1039800070BD000000100040840300200149086061
:10399000704700000400002010B504464FF47A710F
:1039A00004FB01F000F002F810BD000070B5034602
:1039B00000224FF0E02675690D4E366803FB06F4D1
:1039C0004FF0E026B16910E04FF0E026B069884280
:1039D0000BD0884202D20E1A324402E02E1A0E4454
:1039E00032440146A24200D300E0EDE700BF70BDC3
:1039F0000400002070B5024692F8645002F15000B5
:103A000020F8151092F86400401C0A2590FBF5F68A
:103A100005FB160082F864000023002005E002F197
:103A2000500535F910502B44401C0A28F7DB0A20BA
:103A300093FBF0F004B2204670BD000000B50348CF
:103A400000F016F8024800F013F800BDD001002085
:103A50003802002000BF054A126802F04002002A26
:103A6000F9D0C2B2014B0C331A6070471C380140C8
:103A7000014600200BE09FED090B01EBC00282ED37
:103A8000000B002301F1500222F81030401C0A28DC
:103A9000F1DB002081F864007047000000000000A6
:103AA0000000000010B5FFF799F8002010BD0000DD
:103AB0007CB506460C461546E0B28DF80000200A9B
:103AC0008DF80100E8B28DF80200280A8DF8030095
:103AD0008DF80460084890F822008DF8050006482B
:103AE00090F824008DF806004FF400226946304615
:103AF000FCF7C2FD7CBD0000A001002000B511480C
:103B0000C08B1049498C401A00B20E49C883084640
:103B1000008C898C401A00B20A4908840846B0F922
:103B20001E100948FFF766FF00B20649C883084621
:103B3000B0F920100548FFF75DFF00B20149088485
:103B400000BD0000A0010020D001002038020020AC
:103B500010B5002411E000F043F90B48C08B0A496E
:103B600048840846008C88840220FFF715FF002057
:103B7000054981F82B00601C84B2642CEBDB01202A
:103B8000014981F82B0010BDA001002010B594B0B0
:103B90000024382106A8FCF787FC142101A8FCF7B3
:103BA00083FC00BF2948806D40F08050274988651C
:103BB0000846806D00F08050009000BF00BF00BF3D
:103BC0002348006820F4C06040F400702049086079
:103BD0000846006800F4C060009000BF00BF0120EC
:103BE00006900004079002200D9003210E911C21E5
:103BF000109101210F91022111911291139106A8A8
:103C0000FDF714FE044614B1012014B010BD0F20BE
:103C1000019003200290002003900490059004215D
:103C200001A8FDF77BFC04460CB10120EDE7FDF790
:103C300003FA41F20101884205D10648006840F4C8
:103C40008070044908600020DFE700000010024097
:103C500000700040002002400246FF2A01D10120EE
:103C6000704702F0100008B10120F9E7012907D1DF
:103C70000AB90020F4E702F0100020B10120EFE7BC
:103C80000AB90120ECE70020EAE770B505460C46CA
:103C9000FEF798FE2046FEF74FFE2846FEF74CFE44
:103CA000FEF790FE44F001042046FEF745FE00209A
:103CB000FEF7CAFD0646FEF7B3FE304670BD2DE99D
:103CC000F04106460C461546FEF77CFE2846FEF7F8
:103CD00033FE6020FEF730FE2012FEF72DFEE0B22C
:103CE000FEF72AFEB106080EFEF726FEFEF76AFE74
:103CF00045F001052846FEF71FFE0020FEF7A4FD53
:103D00000746FEF78DFE3846BDE8F08110B5044643
:103D100009480A4908600846446000218160C16082
:103D2000016181610C214161FEF7B8FB0122044968
:103D30000248FEF74BFC10BD003801400C0100208A
:103D40000E0000202DE9F04106460F4615460024DE
:103D500000BF12E039463046FFF797FF0B4908765F
:103D6000087E0121FFF778FF18B10A20FFF714FE43
:103D700001E0BDE8F081601CC4B20A2CEADB042C2F
:103D800002DD024880F8265000BFF2E7A0010020C3
:103D90002DE9F04105460F4690461E46002400BF1F
:103DA00013E0E8B242463946FFF789FF0B4908762F
:103DB000087E0121FFF750FF18B10A20FFF7ECFD44
:103DC00001E0BDE8F081601CC4B20A2CE9DB042CE0
:103DD00002DD024880F8266000BFF2E7A001002063
:103DE0001CB518213620FFF750FF31490876FEF741
:103DF000E9FD1820FEF7A0FD4620FEF79DFDFEF729
:103E0000E1FD1920FEF798FD0120FEF71DFD284970
:103E100008760120FEF718FD254948750120FEF7B8
:103E200013FD234908750120FEF70EFD2049C875D2
:103E30000020FEF709FD1E4988750846007D8DF8B3
:103E400004000846407D8DF805000846807D8DF809
:103E500000000846C07D8DF801009DF804009DF823
:103E6000051040EA012000B21149C8839DF8000006
:103E70009DF8011040EA012000B20D490884FEF7C8
:103E8000CFFD0B49087E0021FFF7E6FE20B1084870
:103E9000008D401C064908850549087E0021FFF772
:103EA000DBFE20B10248008D401C014908851CBD85
:103EB000A00100201CB5FFF7C1FD0020009001907B
:103EC0002D4981F82600FEF74BFC032218218020A3
:103ED000FFF738FF0220FFF75FFD03221821F020D3
:103EE000FFF730FF0220FFF757FDBDF800003C2828
:103EF0000BD1BDF802004EF28011884205D1BDF809
:103F0000040040F2E511884233D0042318223C21FA
:103F10000020FFF73DFF184890F8260000B11CBDB7
:103F20000220FFF739FD042318224EF280110120F0
:103F3000FFF72EFF104890F8260000B1EFE70220AF
:103F4000FFF72AFD0423182240F2E5110220FFF7B3
:103F50001FFF094890F8260000B1E0E70220FFF7B4
:103F60001BFD05221821E020FFF7ECFE0F20FFF7D4
:103F700013FD00BFD3E70000A00100204FF0407008
:103F8000E1EE100A7047000000000000000001028E
:103F900003040607080900000000010203040100F1
:103FA00002000400060008000A000C0010002000B7
:103FB0004000800000010001020304050607080C10
:103FC0001014182030400000E83F000800000020D6
:103FD00044000000140200082C40000844000020A7
:103FE000EC090000300200080024F400000000008A
:103FF00000000000000000000000000010000000B1
:10400000010000000000020000000000A12D0008D7
:104010000000040000000000812D000800000500E1
:0C40200000000000C52D00080300000097
:04000005080001D915
:00000001FF
