:020000040800F2
:10000000C0610020A1010008973700087B33000879
:10001000F1340008610B0008DD3F0008000000001B
:100020000000000000000000000000002939000866
:10003000DF0C000800000000153800082B3900080C
:10004000BB010008BB010008BB010008BB010008A0
:10005000BB010008BB010008BB010008BB01000890
:10006000BB010008BB010008BB010008BB01000880
:10007000BB010008BB010008BB010008BB01000870
:10008000BB010008BB010008BB010008BB01000860
:10009000BB010008BB010008BB010008BB01000850
:1000A000BB010008BB010008BB010008BB01000840
:1000B000BB010008BB010008BB010008BB01000830
:1000C000BB010008BB010008BB010008BB01000820
:1000D000BB010008D13F0008BB010008BB010008BC
:1000E000BB010008BB010008BB010008BB01000800
:1000F000BB010008BB010008BB010008BB010008F0
:10010000BB010008BB010008BB010008BB010008DF
:10011000BB010008BB01000841390008BB01000811
:10012000BB010008050C0008BB010008BB0100086A
:10013000BB010008BB010008BB010008BB010008AF
:10014000BB010008BB010008BB010008BB0100089F
:10015000BB010008BB010008BB010008BB0100088F
:10016000BB010008BB010008BB010008BB0100087F
:10017000BB010008BB010008BB0100080000000033
:10018000BB010008BB010008DFF810D000F0D8FB6D
:1001900000480047096F0008AFF30080C0610020ED
:1001A0000648804706480047FEE7FEE7FEE7FEE711
:1001B000FEE7FEE7FEE7FEE7FEE7FEE7313900086F
:1001C000890100082DE9F05F0546002092469B4614
:1001D00088460646814640241BE02846414647465D
:1001E000224600F076FA53465A46C01A914110D37F
:1001F00011461846224600F05DFA2D1A67EB0108F9
:100200004F4622460120002100F054FA17EB000966
:100210004E41201EA4F10104DFDC484631462A4647
:100220004346BDE8F09FD2B201E000F8012B491E21
:10023000FBD270470022F6E710B513460A46044683
:100240001946FFF7F0FF204610BD2DE9FE4F80460E
:1002500081EA0300C00F0C46009021F0004123F01A
:100260000045B8EB0200A94105D240462146904620
:100270001C460B46024623F00040104347D0270D92
:10028000C7F30A00C3F30A510290401A01904028B4
:100290006BDAC3F3130040F4801B0098924620B140
:1002A0000023D2EB030A63EB0B0B01985946C0F114
:1002B0004002504600F0FEF906460D4650465946AB
:1002C000019A00F016FA10EB08006141002487EA59
:1002D000115284EAE7731A4340D0009A62B3019A3C
:1002E000012A4FEA075215DC001B61EB02014FF0B7
:1002F000004202EA0752CDE90042001C41F580119C
:1003000032462B4600F04DFA03B0BDE8F08F404670
:100310002146F9E7001B61EB0201001C41F5801347
:1003200000185B412018A2F5001747EB030140EAD3
:10033000D570B6196D4111E06D084FEA360645EAF1
:10034000C0754FEA0752001B61EB0201001C41F52A
:10035000801149084FEA30000019514132462B46BE
:1003600003B0BDE8F04F00F00DBA00980122400044
:100370000023D0EB020263EBE073009821464FEAC2
:10038000E074B8EB000061EB0401E9E783F000439F
:100390005BE781F0004158E72DE9FE4F81EA030455
:1003A00004F0004421F0004100944FF0000B23F0D2
:1003B000004350EA01045ED052EA03045BD0C3F369
:1003C0000A54C1F30A552C44A4F2F3340194A0FB5F
:1003D0000254C1F3130141F48011C3F3130343F436
:1003E000801301FB024400FB034E840A970A44EA8F
:1003F000815447EA8357A4FB076802958D0A05FBE1
:1004000007854FEA932C04FB0C542705029D4FEA05
:10041000065847EA1637B5EB08056EEB070C870E52
:10042000920E47EA811742EA8312A7FB0201B6EB5C
:100430000B0164EB00042B0D43EA0C335E1844EB14
:100440001C50DA465146E7FB0201C5F313044FEA9C
:100450000B3343EA14534FEA0432019C43EA060388
:10046000A4F10C040294009CCDE900B400F099F9C9
:1004700003B0BDE8F08F00200146F9E72DE9F04D0B
:1004800081EA030404F0004B21F0004514464FF0CC
:10049000000A23F0004150EA050220D054EA01028C
:1004A0001DD0C5F30A570246C5F31303C1F3130069
:1004B000C1F30A5640F4801543F48013A7EB0608F5
:1004C000101BD64608F2FD3873EB050002D308F185
:1004D000010801E092185B41B8F1000F03DA002037
:1004E0000146BDE8F08D00204FF480110646844699
:1004F0000EE0171B73EB050705D3121B63EB050317
:1005000006434CEA010C49084FEA300092185B415F
:1005100050EA0107EDD152EA030012D082EA04004A
:1005200083EA0501084305D0101BAB4106D2012226
:10053000002306E000224FF0004302E06FF00102CA
:1005400053101AEB06004CEB085110EB0A0041EB7C
:100550000B01BDE8F04D00F015B90EB5C10F80EAF2
:10056000E0700844CA07002140F233438DE80E00D2
:100570000A460B4600F015F903B000BD0EB540F277
:10058000334102910021CDE900110A460B4600F0EB
:1005900008F903B000BDC1F30A5210B5C1F313014D
:1005A00040F2FF3341F480119A4201DA002010BD7D
:1005B00040F233439A42A2F2334203DC524200F04B
:1005C00088F810BD904010BD00F0004230F00040AF
:1005D0000AD0C10D01F56071C0F3160042EA015165
:1005E000C2084007114370470020014670470000D1
:1005F00030B5041E71F1000404DB4FF000444042AA
:1006000064EB0101141E73F1000405DB1C464FF07E
:100610000043524263EB04038B4208BF824230BD69
:1006200030B5041E71F1000404DB4FF00044404279
:1006300064EB0101141E73F1000405DB1C464FF04E
:100640000043524263EB0403994208BF904230BD1D
:1006500001F0004330B421F0004150EA010206D01D
:100660000A0DA2F56072C1F31301002A02DC30BC4E
:1006700000207047440F44EAC104C100E01830BCB8
:1006800000EBC25000F047B830B50B4601460020E1
:100690002022012409E021FA02F59D4205D303FA44
:1006A00002F5491B04FA02F52844151EA2F10102C5
:1006B000F1DC30BD202A04DB203A00FA02F10020F0
:1006C00070479140C2F1200320FA03F31943904090
:1006D0007047202A04DB203A21FA02F000217047FB
:1006E00021FA02F3D040C2F120029140084319469A
:1006F0007047202A06DBCB17203A41FA02F043EA82
:10070000E07306E041FA02F3D040C2F120029140CA
:100710000843194670470029A8BF7047401C49008C
:1007200008BF20F00100704710B4B0FA80FC00FA56
:100730000CF050EA010404BF10BC704749B1CCF181
:10074000200421FA04F411FA0CF118BF012121430D
:100750000843A3EB0C01CB1D4FEA00614FEA1020C8
:1007600042BF002010BC704700EBC350104400296A
:10077000A4BF10BC7047401C490008BF20F0010016
:1007800010BC704710B5141E73F1000408DA401C49
:1007900041F1000192185B411A4301D120F00100A0
:1007A00010BD2DE9F04D92469B4611B1B1FA81F290
:1007B00002E0B0FA80F220329046FFF77BFF044659
:1007C0000F4640EA0A0041EA0B0153465A460843E5
:1007D00013D0114653EA010019D0C8F14002504627
:1007E000FFF777FF05460E46504659464246FFF74B
:1007F00061FF084305D0012004E020463946BDE8EA
:10080000F08D0020054346EAE0762C4337430A98F2
:100810006305E40AA0EB08000022FD0A44EA4754FD
:100820000A3002D500200146E9E7010510196941A7
:10083000DDE9084500196941BDE8F04DA2E770B552
:1008400021F0004303430CD0C1F30A550024D5EB3B
:10085000040564EB0403D617AD1AB34102DB002094
:10086000014670BD201841EB025170BD2DE9F04DDD
:1008700000231A461B1A8A4103DB00200146BDE80B
:10088000F08DC1F30A52C1F3130141F480154FF00A
:10089000000BD10702D100186D41521E00270446FB
:1008A00040F2FF11384601EB620A3E46804602469E
:1008B00000204FF48011FFF70CFFC2197141BB18E3
:1008C00046EB0100B4EB030C75EB000C04D3E41A07
:1008D00065EB000517460E46241908F101006D412D
:1008E00080463428E3DDF91946EB0600091BA841D0
:1008F00003D24FF0FF32134601E0002213461BEBF8
:10090000070046EB0A51BDE8F04DFFF73BBFC1F3CE
:100910000A52C1F3130140F2FF3341F480119A42AD
:1009200002DA00200146704740F233439A42A2F2B5
:10093000334202DC5242FFF7CCBEFFF7BBBE0000E1
:10094000064C074D06E0E06840F0010394E807001C
:1009500098471034AC42F6D3FFF71AFC407A0008EF
:10096000607A000870B5C1F30A5201F00045002416
:10097000C1F3130140F2FF3341F480119A4201DACE
:10098000002070BD40F233439A42A2F2334203DCAE
:100990005242FFF79EFE00E090402C43F1D04042CF
:1009A00070BD10B50146886B026C12F0500F05D077
:1009B000026CD20626D500F0AEFA10BD016C41F4EF
:1009C0000071016401688A6812F0405F17D1027EED
:1009D000AAB9CA6A12F4700F02D08A6852050ED4FE
:1009E0004A6822F020024A60016C21F4807101649F
:1009F000016CC90403D4016C41F00101016400F0F1
:100A00001BFA10BD806BC26CBDE810400846104751
:100A100010B5806B40210164416C41F004014164D8
:100A200000F079FA10BD10B5806B00F073FA10BDBC
:100A30004A494A6822F440324A604A6843681A4385
:100A40004A6001684A6822F480724A6001684A6814
:100A5000036942EA03224A6001684A6822F0407250
:100A60004A6001684A6883681A434A6001688A6874
:100A700022F400628A6001688A68C3681A438A6047
:100A8000816A6FF07062D14214D001688A6822F0E6
:100A900070628A6001688A68836A1A438A600168A2
:100AA0008A6822F040528A6001688A68C36A1A43E1
:100AB0008A6009E001688A6822F070628A600168D1
:100AC0008A6822F040528A6001688A6822F0020235
:100AD0008A6001688A68037E42EA43028A6090F86D
:100AE000201089B101684A6842F400624A600168D6
:100AF0004A6822F460424A6001684B68426A521EAA
:100B000043EA42324A6004E001684A6822F4006223
:100B10004A600168CA6A22F47002CA620168CB6A3C
:100B2000828B521E43EA0252CA6201688A6822F42A
:100B300000728A6001688A6890F8303042EA432285
:100B40008A6001688A6822F480628A6001688A6823
:100B5000406942EA8020886070470000002301401D
:100B6000FEE700F001B8000070B52449022005F04E
:100B7000B7FF2249224C08784A7840EA0220608375
:100B80008878CA7840EA0220A0830A7984F827206E
:100B90000020A1F114033AB3588018701A782AB1D2
:100BA0006083A083087048708870C8704FF46172C9
:100BB000B4F91A10504203F012FA40F6AC5501464F
:100BC0006E422A46304603F01AFA60834FF4FA72F6
:100BD000B4F91C10504203F00AFA01462A46304686
:100BE00003F00DFAA08370BD5A88521C92B25A804D
:100BF0000A2AD3D9588001221A70CFE7AE0000200C
:100C0000D45C0020014800F029BD00000C580020F1
:100C10000168CAB2103A1823B2FBF3F2064B9B5C90
:100C2000C3656FF30901032A02D9091D816500E03C
:100C30008165806D70470000EC77000810B50146B3
:100C400000208A6A8B694FF0C074002B0ED0B3F578
:100C5000005F1AD062B3012A2AD0022A28D0032AC0
:100C600003D1C96AC90100D5012010BD1AB1012AFA
:100C700006D0022AF9D1C96AC901F6D5012010BDF2
:100C8000C96AA142FBD1012010BD52B1012A0AD08C
:100C9000022A06D0032AF7D1C96AA142F4D1012061
:100CA00010BD012010BDC96AC901FBD5012010BDCE
:100CB000012010BD30B50468256825F48025256025
:100CC000046863608368402B04D0036899600068FF
:100CD000C26030BD03689A600068C16030BD704773
:100CE00078B50024009490F83C20012A19D0012204
:100CF00080F83C200A680725092A14D90368DE68B1
:100D00000A3A02EB42029540AE43DE600A788B68F5
:100D10000A3A02EB420293400268D5682B43D36043
:100D200011E0022078BD03681E6902EB4202954083
:100D3000AE431E610A788B6802EB42029340026860
:100D400015692B4313614A681F25072A13D20368CC
:100D50005E6B521E02EB82029540AE435E630A88D0
:100D600093B20A79521E02EB820293400268556BDD
:100D70002B43536328E00D2A13D203681E6BD21F46
:100D800002EB82029540AE431E630A8893B20A7951
:100D9000D21F02EB820293400268156B2B43136350
:100DA00012E00368DE6A0D3A02EB82029540AE4320
:100DB000DE620A8893B20A790D3A02EB820293400E
:100DC0000268D56A2B43D362174A184B05689D42C7
:100DD00006D10D68122D03D1556845F48005556084
:100DE00005689D421BD10B68102B01D0112B16D129
:100DF000536843F400035360096810290FD10C496C
:100E00000C4A0968B1FBF2F101EB81014900009144
:100E100002E00099491E009100990029F9D180F85B
:100E20003C40002078BD000000230140002001402C
:100E30000000002040420F0070B50068254988423C
:100E400047D1254800F04AF92348A83005F074FD41
:100E5000214CA8346089FFF791FB9FED201B53ECD8
:100E6000112BFFF799FA9FED1F1B53EC112BFFF786
:100E700005FBFFF7EDFB1D4D28602089FFF77EFB8A
:100E80009FED1B1B53EC112BFFF786FA9FED1A1BEE
:100E900053EC112BFFF780FAFFF7DAFB6860A089AB
:100EA000FFF76CFB9FED161B53EC112BFFF774FA49
:100EB0009FED151B53EC112BFFF7E0FAFFF7C8FB72
:100EC000A860BDE8704042F6F8221149024800F0DF
:100ED0004FB870BD00220140C457002099999999DC
:100EE00099318A40000000000000F6406C5C002050
:100EF000CDCCCCCCCC4C3940000000000000303FC1
:100F00001F85EB51B8FE6040666666666666E04027
:100F1000D40100207047704770B504460026002CAD
:100F200003D0206C002510B107E0012070BD2046E1
:100F300000F01CF8656484F83C50206CC00610D4A6
:100F4000206C20F4885040F0020020642046FFF717
:100F50006FFD6564206C20F0020040F00100206409
:100F600000E0012684F83C50304670BD7047000018
:100F7000F8B504460023009394F83C00012807D0FC
:100F8000012084F83C0020688568ED0702D014E059
:100F90000220F8BD856845F0010585604648474D4B
:100FA0000068B0FBF5F000EB4000009002E0009814
:100FB000401E009000980028F9D120688568ED0552
:100FC00003D5856825F48075856020688568ED0700
:100FD00068D0256C40F20166B54345F48075256400
:100FE0004068400505D5206C20F4005040F4805046
:100FF0002064206CC00404D5606C20F0060060649E
:1010000000E0636484F83C302D4EA36B2D48D86318
:10101000A36B2D481864A36B2C48D86423686FF029
:10102000220018602068436843F0806343602068B2
:10103000836843F480738360206813464C300A460B
:10104000A56B0146284600F05BFC70682049C0068D
:1010500007D0206888422DD1816811F0405F1CD0F4
:1010600028E0206888420FD01A4A904203D1D1F874
:101070000423D20608D0184A90421BD1D1F8041399
:1010800001F01F01102915D2816811F0405F11D1C4
:10109000816841F0804181600CE0816841F08041CD
:1010A000816007E0206C40F010002064606C40F02C
:1010B000010060640020F8BD0000002040420F00E5
:1010C00000230140A3090008270A0008110A0008AC
:1010D00000200140002101400022014010B50446DB
:1010E000002094F83C1001290CD0012184F83C1018
:1010F00021688A6822F001028A6021688A68D20722
:1011000002D01DE0022010BD8A6822F480728A603D
:10111000A16B91F83520022A07D1084600F044FA65
:1011200018B1216C41F04001216421684A6822F025
:1011300080624A60216C21F4885141F001012164F0
:10114000002184F83C1010BD10B590F82020012A31
:1011500007D0022A05D0416A41F480214162012072
:1011600010BD3C4800F50070026842F001020260C8
:10117000026822F47C52026002684B6A42EA03224F
:1011800002600A7D02F01F0301229A40C369934363
:10119000C361A0F50070CB69B3B9D0F80C329343AA
:1011A000C0F80C328C894B6864F31F434C6900EB28
:1011B000C404C4F840320C890B6864F31F434C69C3
:1011C00000EBC404C4F84432CB69012B16D1D0F82B
:1011D0000C321343C0F80C320C884B6864F31F4385
:1011E0004C6900EBC404C4F840320C89CB6864F34A
:1011F0001F434C6900EBC404C4F844328B697BB1D3
:10120000D0F804321343C0F804320B6973B1D0F83C
:1012100014321343C0F81432096A01290CD010E0CB
:10122000D0F804329343C0F80432EEE7D0F8143219
:101230009343C0F81432EFE7D0F81C121143C0F802
:101240001C12D0F8001221F00101C0F80012002099
:1012500010BD0000006400400246002092F82030DB
:10126000012B01D0022B04D121B11068006900F0DC
:10127000030070471068C06800F00300704730B585
:1012800090F82040012C07D0022C05D0416A41F48F
:1012900080214162012030BD21B104682469A40786
:1012A0005FD003E00468E468A40754D04FF4D87416
:1012B000056804EB01142D5905F004059560F5B39C
:1012C00005682D59ED08556005682C5904F0020495
:1012D000D4604FF4DA74056804EB01142D5905F05D
:1012E0000F05156105682D59C5F30725956105683A
:1012F0002C59240C54614FF4DC72046802EB011287
:10130000A4581C700468A458240A5C700468A4588B
:10131000240C9C700468A258120EDA704FF4DE722E
:10132000046802EB0112A4581C710468A458240A32
:101330005C710468A458240C9C71046800E016E0F9
:10134000A258120EDA71B9B10068016941F02001AA
:101350000161002030BD416A41F400114162012069
:1013600030BD416A41F400114162012030BD056881
:101370002D596D0D1560A7E70068C16841F0200187
:10138000C160E6E770B50446002C03D094F8200055
:1013900010B104E0012070BD204600F09DF82068E7
:1013A000016821F00201016000F0E0FB054605261E
:1013B0000CE000F0DBFB401B0A2807D9606A40F410
:1013C0000030606284F82060012070BD20684068B1
:1013D0008007EED42068016841F00101016000F04F
:1013E000C5FB05460CE000F0C1FB401B0A2807D9ED
:1013F000606A40F40030606284F82060012070BDB3
:1014000020684068C007EED0207E01283FD02068C9
:10141000016821F080010160607E01283DD02068D4
:10142000016821F040010160A07E01283BD02068C6
:10143000016821F020010160E07E012839D0206898
:10144000016841F010010160207F012837D0206839
:10145000016821F008010160607F012835D0206813
:10146000016821F004010160D4E902010843D4E9D4
:101470000412114308436168491E08432168C8618A
:1014800000206062012084F82000002070BD2068E8
:10149000016841F080010160BEE72068016841F009
:1014A00040010160C0E72068016841F0200101604F
:1014B000C2E72068016821F010010160C4E72068DC
:1014C000016841F008010160C6E72068016841F049
:1014D00004010160C8E7000030B587B00068194911
:1014E00088422CD11848016841F008010160016868
:1014F00001F008010191016841F0080101600068F4
:1015000000F00800019010481030016841F00071AF
:101510000160006800F000700190022002900390CA
:1015200001240494059009200690084D02A928463C
:1015300000F01EFA029402A9284600F019FA07B03A
:1015400030BD00000064004030380240000C024012
:1015500070B5044694F82000012805D0606A40F474
:1015600000206062012070BD022084F82000206805
:10157000016821F00101016000F0F8FA05460DE074
:1015800000F0F4FA401B0A2808D9606A40F40030E1
:101590006062052084F82000012070BD206840684A
:1015A000C007EDD1606270BD2DE9F0410446A76D22
:1015B00000F0DCFA054694F835000026022806D033
:1015C0008020606584F834600120BDE8F0812068E7
:1015D000016821F0160101602068416921F0800155
:1015E0004161206C08B9A06C20B12068016821F02D
:1015F000080101602068016821F0010101600BE031
:1016000000F0B4FA401B052806D9202034342062AB
:10161000267003206070D8E720680068C007EFD10B
:1016200034343F2094F828108840B8602670012098
:1016300060700020C9E790F83510022903D080219E
:10164000416501207047052180F835100068016868
:1016500021F0010101600020704700002DE9F843EE
:1016600004464FF00009CDF800906F484FF4165132
:101670000068B0FBF1F7A56D2E6894F85C000822B5
:1016800002FA00F1314210D02068016849070CD5F8
:10169000016821F00401016094F85C0002FA00F195
:1016A000A960606D40F00100606594F85C104FF037
:1016B000010808FA01F0304208D02168496909069A
:1016C00004D5A860606D40F00200606594F85C107D
:1016D00004208840304208D021680968890704D571
:1016E000A860606D40F00400606594F85C10102004
:1016F0008840304220D02168096809071CD5A860BD
:101700002068016849030CD50068000304D4216CEB
:1017100091B1204688470FE0A16C69B12046884707
:101720000AE00168C90503D4016821F008010160DD
:10173000216C09B12046884794F85C10202088402D
:1017400030424CD021680968C90648D5A86094F891
:10175000350005280BD020680168490330D50068A2
:10176000000328D4616C51B32046884737E02068D5
:10177000016821F0160101602068416921F08001B3
:101780004161206C08B9A06C20B12068016821F08B
:101790000801016094F85C103F208840A86084F83C
:1017A000349084F83580216D00293BD001B020466B
:1017B000BDE8F0430847E16B09B1204688470EE0D9
:1017C0000168C90507D4016821F01001016084F89F
:1017D000349084F83580E16B09B120468847606D0C
:1017E00000281FD0606DC00714D0052084F8350094
:1017F0002068016821F0010101600098401C009000
:10180000B84203D820680068C007F6D184F8349045
:1018100084F83580E16C002904D001B02046BDE891
:10182000F0430847BDE8F883000000202DE9F041AF
:10183000044600F09BF905465CB1002684F834604C
:10184000022084F835002068016821F00101016060
:101850000DE00120BDE8F08100F088F9401B05286B
:1018600005D920206065032084F83500F2E7206860
:101870000068C007F0D121680A6820480240D4E916
:1018800001031843D4E903352B4318436369184314
:10189000A3691843E3691843236A18431043626A33
:1018A000042A03D1D4E90B231A43104308602068AB
:1018B000406920F00700656A29460543012704298D
:1018C0000DD1A06A0543E06A48B12046FFF7B6F99A
:1018D00028B14020606584F835700120BAE720689F
:1018E00045612046FFF794F994F85C203F21914030
:1018F0008160666584F835700020ABE73F8010F0AA
:101900002DE9F04104460025A66D94F83400012825
:101910000DD0012084F8340094F835700020012F98
:1019200007D084F8340002252846BDE8F081022063
:10193000FBE7022784F8357060652046FFF7BAF9A7
:1019400094F85C103F208840B0602068016841F046
:1019500016010160206C20B12068016841F0080187
:1019600001602068016841F001010160DCE70000CE
:101970002DE9F84F0022DFF89C914FF0010809F1A2
:10198000040A03274FF00F0C0AF1040B08FA02F5C2
:101990000B682B40AB4272D10C7904F00304012C8C
:1019A00001D0022C15D18668540007FA04FE26EAFD
:1019B0000E06D1F80CE00EFA04FE4EEA060EC0F850
:1019C00008E04468AC430D79C5F300159540254304
:1019D00045600C79E443A40708D0C568540007FAB1
:1019E00004F6B5438E68A6402E43C6600C7904F019
:1019F0000304022C11D1D40800EB8406356A540785
:101A0000E40E0CFA04FE25EA0E05D1F810E00EFAF9
:101A100004FE4EEA050EC6F820E00568540007FAF9
:101A200004F6B5430E7906F00306A6402E43066081
:101A30004C68E40067D5384C256845F4804525603E
:101A4000246804F480440094344C22F003052E19D9
:101A5000D6F8085894074FEA147E0CFA0EF4A54302
:101A60002F4CA04201D1002424E02E4CA04201D1F1
:101A700001241FE02C4CA04202D102241AE042E0D3
:101A80002A4CA04201D1032414E0294CA04201D1E8
:101A900004240FE0274CA04201D105240AE0264C83
:101AA000A04201D1062405E0244CA04201D1072424
:101AB00000E0082404FA0EF42C43C6F80848D9F8CC
:101AC00000409C434D68ED0300D51C43C9F800401D
:101AD000DAF800409C434D68AD0300D51C43CAF8BA
:101AE0000040DBF800409C434D68ED0200D51C43EC
:101AF000CBF80040074D0C352C689C434E68B6026D
:101B000000D51C432C60521C102AFFF43FAFBDE8E7
:101B1000F88F0000003C0140443802400030014092
:101B2000000002400004024000080240000C024095
:101B3000001002400014024000180240001C024045
:101B4000426921EA02030A4043EA02418161704787
:101B5000002A01D08161704709048161704700004B
:101B600001480068000C7047002004E001488068CC
:101B700070470000B800002070B50446002C11D05A
:101B800021684CF6CC400860216845F25550086049
:101B9000D4E9001048602168A0688860FFF7E6FF7C
:101BA00005460CE0012070BDFFF7E0FF401B302828
:101BB00005D92068C068800701D0032070BD206867
:101BC000C0688007F0D121684AF6AA20086000208A
:101BD00070BD00684AF6AA2101600020704700002D
:101BE000024881680278114481607047B800002083
:101BF00010B50948016841F400710160016841F4C1
:101C000080610160032000F059F80F2000F006F811
:101C100000F026F8002010BD003C024070B50446DC
:101C20000D4D4FF47A712878B1FBF0F00B4909683B
:101C3000B1FBF0F000F036FB08B1012070BD102CB4
:101C400007D200222146501E00F018F86C600020D8
:101C500070BD012070BD0000B80000200000002011
:101C60007047002809DB00F01F0201219140400964
:101C7000800000F1E020C0F800117047F0B40D467C
:101C80000D4B1B68C3F30223C3F10704042C00D9D6
:101C90000424191D072901D2002300E0DB1E0126C0
:101CA00006FA04F1491E294099409E40761E1640CE
:101CB0003143F0BC02F056BA0CED00E000F0070131
:101CC000054A10684FF6FF03184040EA0120034917
:101CD00008431060704700000CED00E00000FA05BA
:101CE0002DE9F04704460D46002C13D0DFF828916B
:101CF000D9F80000EFB200F00700A8420CD289F832
:101D00000070D9F8000000F00700A84204D00120BC
:101D1000BDE8F0870120FBE72068404E810712D51F
:101D2000400703D5306840F4E05030602078000769
:101D300003D5306840F4604030603068A16820F01E
:101D4000F000084330602078C00731D03349606824
:101D50000839012808D002280BD0032809D00968C7
:101D600089070BD40120D3E70968890306D4012031
:101D7000CEE70968890101D40120C9E7316821F063
:101D8000030101433160FFF7F1FE804641F2883ADA
:101D900007E0FFF7EBFEA0EB0800504501D9032058
:101DA000B6E73068616800F00C00B0EB810FF0D14D
:101DB000D9F8000000F00700A84209D989F800709E
:101DC000D9F8000000F00700A84201D001209FE7E9
:101DD0002078400705D53068E16820F4E0500843DA
:101DE00030602078000706D53068216920F4604013
:101DF00040EAC100306000F03FF83168084AC1F3A2
:101E00000311515CC8400749086007480068FFF7A4
:101E100005FF00207CE70000003C0240083802403B
:101E2000D477000800000020BC00002001480068B2
:101E3000704700000000002000B5FFF7F7FF0449DD
:101E40000968044AC1F38221515CC84000BD00000A
:101E500008380240E477000800B5FFF7E7FF0449BF
:101E60000968044AC1F34231515CC84000BD00001A
:101E700008380240E477000810B51748006810F0F1
:101E80000C01164816D0164B042912D0082911D17E
:101E9000114C241F216801F03F02216849020AD534
:101EA0002068C0F38810A0FB03010023FEF78AF925
:101EB00009E0184610BD21680023C1F38811A1FB79
:101EC0000001FEF77FF92168C1F30141491C490077
:101ED000B0FBF1F010BD0000083802400024F4000F
:101EE000001BB7002DE9F84F0446002C13D02078D2
:101EF000DFF8A083C007A8F1040556D008F104005C
:101F00000168C1F3810101290CD00068C0F3810090
:101F1000022803D00DE00120BDE8F88FD8F80000BA
:101F2000400206D5286880033FD5606870BB012059
:101F3000F2E76068B0F5803F10D0B0F5A02F12D066
:101F4000286820F480302860286820F480202860E9
:101F50006068E0B1FFF70AFE064614E0286840F426
:101F600080302860F4E7286840F4802028602868E2
:101F700040F480302860EBE7FFF7F8FD801B642811
:101F800001D90320C8E728688003F5D50DE0FFF7E5
:101F9000EDFD064606E0FFF7E9FD801B642801D948
:101FA0000320B9E728688003F5D42078BA4F80076A
:101FB0004FF0000948D5B748001D016811F00C0F1B
:101FC00008D00068C0F38100022813D1D8F80000BF
:101FD00040020FD42868800704D5E068012801D0AA
:101FE000012099E72868216920F0F80040EAC10043
:101FF000286029E0E068B8B101203860FFF7B6FD3D
:10200000064606E0FFF7B2FD801B022801D9032037
:1020100082E728688007F5D52868216920F0F80054
:1020200040EAC10028600FE0C7F80090FFF79EFD6E
:10203000064606E0FFF79AFD801B022801D903201F
:102040006AE728688007F5D42078000729D5DFF8EB
:1020500044A2924861690AF1700A89B101210160C4
:10206000FFF784FD064606E0FFF780FD801B02288F
:1020700001D9032050E7DAF800008007F4D510E01A
:10208000C0F80090FFF772FD064606E0FFF76EFD10
:10209000801B022801D903203EE7DAF80000800700
:1020A000F4D42078400778D54FF0000A79483C30C6
:1020B0000068C0000BD477483C30016841F0805183
:1020C0000160006800F0805000904FF0010ADFF8D6
:1020D000D0B1DBF80000C00514D4DBF8000040F4F8
:1020E0008070CBF80000FFF741FD064606E0FFF7E1
:1020F0003DFD801B022801D903200DE7DBF800001D
:10210000C005F4D5634EA0686C3601280FD00528B1
:1021100012D0306820F001003060306820F00400F8
:102120003060A068F8B1FFF721FD834617E0306802
:1021300040F001003060F4E7306840F004003060A7
:10214000306840F001003060EBE7FFF70FFDA0EBD7
:102150000B0141F28830814201D90320DCE630686E
:102160008007F2D510E0FFF701FD834609E0FFF795
:10217000FDFCA0EB0B0141F28830814201D9032024
:10218000CAE630688007F2D4BAF1010F05D14148A0
:102190003C30016821F080510160A069C0B33D4925
:1021A000091D09684FF0FF36C1F38101022946D0AD
:1021B000022805D0C7F86090FFF7D8FC04463AE043
:1021C000C7F86090FFF7D2FC814607E0FFF7CEFC2E
:1021D000A0EB0900022801D903209DE628688001B0
:1021E000F4D4D4E907010843616AA26A890106EBC5
:1021F000520241EA0241084394F82C1040EA01607F
:10220000C8F8000001203866FFF7B0FC044607E07C
:102210003DE0FFF7ABFC001B022801D903207BE661
:1022200028688001F5D532E0FFF7A0FC001B0228EA
:1022300001D9032070E628688001F5D427E0012841
:1022400023D0D8F80000E26900F4800191421AD14D
:10225000226A00F03F01914215D147F6C071626ACF
:102260000140B1EB821F0ED1A26A00F4403106EBAF
:102270005202B1EB024F06D194F82C1000F07060BE
:10228000B0EB016F03D0012046E6012044E60020B8
:1022900042E600000438024000004742800E4742F8
:1022A0000070004010B5401EB0F1807F01D30120C6
:1022B00010BD4FF0E02460610F21601701F052FF64
:1022C0000020A06107202061002010BD70477047EA
:1022D00010B590F83C20012A22D0012280F83C2041
:1022E000CA6800238C6822F4407222434C6822F4AE
:1022F000806222430C6822F4006222430C6922F4BB
:10230000805222434C6922F400522243C96922F4CC
:1023100080420A4301684A6480F83C30002010BDC6
:10232000022010BD10B50446002909D004290AD0A6
:1023300008290BD094F8450001280AD0012010BDCF
:1023400094F84200F8E794F84300F5E794F8440065
:10235000F2E7022089B3042933D0082934D084F865
:1023600045000422206801F064FB2068416C41F4C0
:102370000041416419492068884214D0B0F1804F6F
:1023800011D0174988420ED0164988420BD0164901
:10239000884208D01549884205D01549884202D0A4
:1023A0001449884213D1816801F00701062912D02F
:1023B000016841F0010101600DE0FFE784F842008F
:1023C000CFE784F84300CCE784F84400C9E701680C
:1023D00041F001010160002010BD0000000001403B
:1023E0000004004000080040000C004000040140D0
:1023F000004001400018004010B50446002C03D0F6
:1024000094F83D0010B107E0012010BD002084F8D1
:102410003C00204600F016F8022084F83D00211D03
:10242000206801F093FA01203D3460726070A07062
:10243000E07020716071A071E07120722070002046
:1024400010BD000008B500680B49884212D10B4846
:10245000016841F010010160006800F01000009078
:10246000012211463620FFF709FCBDE8084036205E
:10247000FFF7F7BB08BD00000010004040380240E5
:1024800090F83D10012901D001207047022180F809
:102490003D100168CA6842F00102CA600068144930
:1024A000884214D0B0F1804F11D0124988420ED02A
:1024B000114988420BD01149884208D010498842FE
:1024C00005D01049884202D00F49884209D181685D
:1024D00001F00701062908D0016841F001010160FF
:1024E00003E0016841F00101016000207047000035
:1024F000000001400004004000080040000C0040C3
:10250000000401400040014000180040704770B5D1
:102510000446206801694FF00005C943890716D4B5
:10252000C168C943890712D4E91E016101202077DF
:1025300020688069800703D02046FFF7E7FF05E0A9
:10254000204600F09BF8204600F028F92577206807
:102550000169C943490718D4C168C943490714D45C
:102560006FF004010161022020772068806910F477
:10257000407F03D02046FFF7C9FF05E0204600F06A
:102580007DF8204600F00AF9257720680169C943E3
:10259000090717D4C168C943090713D46FF00801AC
:1025A0000161042020772068C069800703D020469D
:1025B000FFF7ACFF05E0204600F060F8204600F091
:1025C000EDF8257720680169C943C90618D4C168A8
:1025D000C943C90614D46FF01001016108202077A7
:1025E0002068C06910F4407F03D02046FFF78EFFBB
:1025F00005E0204600F042F8204600F0CFF82577AD
:1026000020680169C943C90708D1C168C943C9071E
:1026100004D1891E0161204600F030F9206801696B
:10262000C943090609D4C168C943090605D46FF036
:10263000800101612046FFF749FE20680169C94316
:10264000490609D4C168C943490605D46FF0400161
:102650000161204600F0DCFC20680169C94389065D
:102660000BD4C168C943890607D46FF0200101610A
:102670002046BDE87040FFF72ABE70BD704770B5B8
:1026800004460D4694F83C0001280AD0012084F845
:102690003C0042B1042A1AD0082A2DD00C2A53D16A
:1026A0003EE0022070BD2946206801F0CFF9206885
:1026B000816941F0080181612068816921F004018C
:1026C0008161206881692A69114381613CE0294662
:1026D000206801F0EFF92068816941F400618161AF
:1026E0002068816921F480618161206881692A699B
:1026F00041EA0221816127E02946206801F014FAAD
:102700002068C16941F00801C1612068C16921F0F8
:102710000401C1612068C1692A691143C16113E0E4
:102720002946206801F038FA2068C16941F4006147
:10273000C1612068C16921F48061C1612068C169FB
:102740002A6941EA0221C161002084F83C0070BD81
:1027500010B50446002C03D094F83D0010B107E0FA
:10276000012010BD002084F83C00204600F015F840
:10277000022084F83D00211D206801F0E7F80120C7
:102780003D3460726070A070E07020716071A07163
:10279000E07120722070002010BD7047704700006B
:1027A00010B50446002909D004290AD008290BD005
:1027B00094F8410001280AD0012010BD94F83E0091
:1027C000F8E794F83F00F5E794F84000F2E70220BC
:1027D000A9B3042937D0082938D084F84100012250
:1027E000206801F019F91E4920681E4A884201D06C
:1027F000904203D1436C43F4004343642068884211
:1028000013D0B0F1804F10D0174988420DD017492E
:1028100088420AD01649884207D0904205D015490F
:10282000884202D01449884213D1816801F007011F
:10283000062912D0016841F0010101600DE0FFE7B7
:1028400084F83E00CBE784F83F00C8E784F84000F6
:10285000C5E7016841F001010160002010BD0000E2
:102860000000014000040140000400400008004056
:10287000000C004000400140001800402DE9F047E6
:102880002DED108B0068FE4988427DD100F084FF59
:10289000FC4F3878401CC0B238709FEDFBDB9FEDD9
:1028A000FCEBDFF8F483FD4D9FEDFD8A0024C82882
:1028B00002D9FC4804713C70B8F80000B8F8061062
:1028C000401AFDF74AFE53EC1D2BFDF765FD53EC56
:1028D0001E2BFDF761FDFDF7BBFEA860FDF774FE42
:1028E00041EC100BF04804F07FFA51EC100BFDF7AF
:1028F000AFFEA860FDF768FE41EC100B01F014FF7D
:102900009FEDEA1B51EC100B53EC112BFDF770FE01
:1029100001D285ED028A95ED020A9FEDE6AB9FEDAF
:10292000E7BB9FEDE8CB9FEDE99BB5EEC00AE94E12
:10293000F1EE10FA6DDDB8F80400FDF71FFE8A46CF
:10294000814653EC1A2BFDF727FD41EC1F0B4AEC97
:10295000109B9FEDE11B01F0F3FE53EC1B2B51ECA0
:10296000100BFDF719FD53EC1F2BFDF76EFC53EC1C
:102970001C2BFDF76AFCFDF76BFE6860FDF724FE7B
:1029800041EC100BD64800E020E304F02DFA51ECA6
:10299000100BFDF75DFE6860FDF716FE53EC192B7A
:1029A000FDF7FAFC41EC1F0BA868FDF70DFE41ECAA
:1029B000100B01F0B9FE53EC1F2B51EC100BFDF77F
:1029C00017FE02D885ED048A98E06868FDF7FCFDE3
:1029D000B0EE491AF0EE691A53EC112BFDF7DCFC4E
:1029E00041EC1F0BA868FDF7EFFD41EC100B01F067
:1029F0009BFE53EC1F2B51EC100BFDF7C7FC9FED1A
:102A0000B91B53EC112BFDF739FDFDF721FE2861B1
:102A100074E0B5EEC00AF1EE10FA6BD2B8F802001D
:102A2000FDF7ACFD8A46814653EC1A2BFDF7B4FC4A
:102A300041EC1F0B4AEC109B9FEDA71B01F080FEA1
:102A400053EC1B2B51EC100BFDF7A6FC53EC1F2B8A
:102A5000FDF7FBFB53EC1C2BFDF7F7FBFDF7F8FD37
:102A60006860FDF7B1FD41EC100B9D4804F0BCF926
:102A700051EC100BFDF7ECFD6860FDF7A5FD53EC84
:102A8000192BFDF789FC41EC1F0BA868FDF79CFD95
:102A900041EC100B01F048FE53EC1F2B51EC100BD6
:102AA000FDF7A6FD02D885ED048A27E06868FDF7EA
:102AB0008BFDB0EE491AF0EE691A53EC112BFDF7BD
:102AC0006BFC41EC1F0BA868FDF77EFD41EC100B81
:102AD00001F02AFE53EC1F2B51EC100BFDF756FCB6
:102AE0009FED821B53EC112BFDF7C8FCFDF7B0FDE9
:102AF000286103E085ED018A85ED048AB8F81400A9
:102B0000B8F81210401AFDF728FD53EC1D2BFDF705
:102B100043FC53EC1E2BFDF73FFCFDF799FDB06025
:102B2000FDF752FD41EC100B724804F05DF951ECD9
:102B3000100BFDF78DFDB060FDF746FD41EC100B6D
:102B400001F0F2FD9FED591B51EC100B53EC112BD2
:102B5000FDF74EFD01D286ED028A96ED020AB5EE32
:102B6000C00AF1EE10FA67DDB8F81000FDF706FDB7
:102B70008946804653EC1A2BFDF70EFC41EC1A0BEC
:102B800049EC108B9FED541B01F0DAFD53EC1B2B2D
:102B900051EC100BFDF700FC53EC1A2BFDF755FB25
:102BA00053EC1C2BFDF751FBFDF752FD7060FDF758
:102BB0000BFD41EC100B504804F016F951EC100BD2
:102BC000FDF746FD7060FDF7FFFC53EC192BFDF798
:102BD000E3FB41EC1A0BB068FDF7F6FC41EC100B7F
:102BE00001F0A2FD53EC1A2B51EC100BFDF700FD88
:102BF00002D886ED048AD1E07068FDF7E5FC53EC5D
:102C0000192BFDF7C9FB41EC190BB068FDF7DCFC93
:102C100041EC100B01F088FD53EC192B51EC100B1B
:102C2000FDF7B4FB9FED2F1B53EC112BFDF726FC9A
:102C3000FDF70EFD3061B1E0B5EEC00AF1EE10FA1D
:102C40007DD2B8F80E00FDF799FC8946804653EC1A
:102C50001A2BFDF7A1FB41EC1A0B49EC108B9FEDF1
:102C60001E1B01F06DFD53EC1B2B51EC100BFDF7FF
:102C700093FB53EC1A2BFDF7E8FA53EC1C2B3DE0C9
:102C800000100040100000206666666666A642409E
:102C9000000000000000303F6C580020145C002051
:102CA00000000000AE000020405B00207B14AE4717
:102CB000E17A943FF0A7C64B3789F73F588D25AC92
:102CC0008DB153BF66666666662679C0A4703D0AFC
:102CD000D7A3C03F405C002000000000000000407F
:102CE000605B0020F0A7C64B3789C13FF0A7C64BF9
:102CF0003789C1BF505B0020705B0020FDF7A5FA4B
:102D0000FDF7A6FC7060FDF75FFC41EC100BB148CD
:102D100004F06AF851EC100BFDF79AFC7060FDF7B7
:102D200053FC53EC192BFDF737FB41EC1A0BB06841
:102D3000FDF74AFC41EC100B01F0F6FC00E029E045
:102D400053EC1A2B51EC100BFDF752FC02D886ED18
:102D5000048A23E07068FDF737FC53EC192BFDF76C
:102D60001BFB41EC190BB068FDF72EFC41EC100B7E
:102D700001F0DAFC53EC192B51EC100BFDF706FBBC
:102D80001FED261B53EC112BFDF778FBFDF760FCC4
:102D9000306103E086ED018A86ED048A78780A21A5
:102DA000B0FBF1F201FB120000287CD18A48B0F997
:102DB0000010C831B1F5C87F06D8B0F90200C828A4
:102DC00002DC10F1C80F6FDA95ED040A834803F0B6
:102DD00009FF51EC100BFDF73BFCE86196ED040A8E
:102DE0007F4803F0FFFE51EC100BFDF731FCF06162
:102DF000D5ED070ADFED7B8AB0EE681A9FED7A9A6F
:102E0000B0EE490A01F005F985ED070AD6ED070A8B
:102E1000B0EE681AB0EE490A01F0FBF810EE108A25
:102E200086ED070AE869FDF7CFFB41EC100B01F0D6
:102E30007BFC51EC100BFDF70BFC00EE100A6B480D
:102E400080ED000A4046FDF7BFFB41EC100B01F09E
:102E50006BFC51EC100BFDF7FBFB00EE100A644815
:102E600080ED000A95ED010A604803F0BBFE51ECCD
:102E7000100BFDF7EDFBA86196ED010A5C4803F02D
:102E8000B1FE51EC100BFDF7E3FB08EE900AC6ED26
:102E9000068AE869B0F17C5F0FDDA869FDF794FB55
:102EA00041EC100B01E08EE075E001F03DFC51ECCF
:102EB000100BFDF7CDFBA86116E0B0F13F4F11D923
:102EC000A869FDF781FB41EC100B01F02DFC51ECE2
:102ED000100BFDF7BDFB00EE100AB1EE400A85EDC8
:102EE000060A01E085ED068A424B41F288316868A6
:102EF0004A00B6EE000A984211DD7888401C80B284
:102F00007880884205D9D5ED060A60EE800AC5EDC5
:102F1000060A904204D97C8085ED068A00E07C8018
:102F2000706898420FDDB888401C80B2B880884233
:102F300003D928EE800A86ED060A904204D9BC80A7
:102F400086ED068A00E0BC8095ED060A2A4803F06B
:102F50001BFE85ED060A96ED060A284803F014FECE
:102F600086ED060A9FED268ADFED268AD5ED060A54
:102F7000B0EE481AB0EE680A01F04BF885ED060A8B
:102F8000D6ED060AB0EE481AB0EE680A01F041F834
:102F900086ED060A16E085ED078A86ED078A85ED3F
:102FA000068A86ED068A9FED180B002000F018FABD
:102FB000B069FDF709FB41EC100B012000F02CFC7F
:102FC00003F0A8FF7C707878401C7870BDEC108B03
:102FD000BDE8F087705B0020F85B0020FC5C0020FF
:102FE0005C5D002000008C4200008CC22C5D002043
:102FF0008C5D002000008C42205A0020605A002086
:10300000CDCC4C3FCDCC4CBF0000000000000000F8
:103010007047704770470000F8B504462268106892
:10302000D168536900F00F05002D08D1860606D53A
:103030008E0604D52046BDE8F84000F09CBE002670
:10304000002D60D003F0010501F490772F435AD092
:10305000C20705D0CA0503D5226C42F001022264E2
:10306000420705D5DA0703D0226C42F0020222643F
:10307000820705D5DA0703D0226C42F004022264ED
:10308000020707D501F020022A4303D0226C42F048
:1030900008022264226C002A2BD0800604D5880600
:1030A00002D5204600F067FE20684069C0F380101A
:1030B000216C090700D408B3204600F037FE2068D1
:1030C0004169490616D5416921F040014161A06B73
:1030D00060B144490165A06BFEF7ADFA002808D045
:1030E000A06B016D01B0BDE8F04008472046FFF736
:1030F00091FFF8BD2046FFF78DFFF8BD2046FFF792
:1031000089FF2664F8BD236B012B58D1C30656D521
:10311000CB0654D510685068009050694FF02003DA
:1031200040062ED5A16B0868406880B20028E9D01F
:10313000A58D8542E6D9E085C869B0F5807F18D0B5
:10314000D06820F48070D0602068416921F00101CE
:1031500041612068416921F04001416184F83E30BD
:1031600026632068C16821F01001C160A06BFEF7E2
:103170001BFAA08DE18D401A81B22046FFF749FF6E
:10318000F8BDA08DE18D401A81B2E08D0028F7D006
:103190000029F5D0D06820F49070D0602068426992
:1031A00022F00102426184F83E3026632068C26842
:1031B00022F01002C2602046FFF72BFFF8BD020686
:1031C00006D50A0604D52046BDE8F84000F0D1BE79
:1031D0004006F3D54806F1D52046BDE8F84000F09A
:1031E000BDBD00001D3D000870B50446002C04D094
:1031F00094F83D00002510B106E0012070BD84F870
:103200003C50204600F022F8242084F83D0020683D
:10321000C16821F40051C160204600F005FE20681D
:10322000016921F4904101612068416921F02A017E
:1032300041612068C16841F40051C16025642020CB
:1032400084F83D0084F83E00002070BD30B587B0A2
:1032500000681F49884238D11E48016841F01001BA
:103260000160006800F0100001901A4814380168ED
:1032700041F001010160016801F001010191016863
:1032800041F001010160006800F0010001904FF47D
:103290000070029002200390012104910590072400
:1032A00006940D4D02A92846FEF762FB29150291EE
:1032B000069402A92846FEF75BFB2520FEF7D1FC09
:1032C000032211462520FEF7D9FC07B030BD0000CF
:1032D00000100140443802400000024090F83E30A7
:1032E000202B01D00220704759B152B190F83C30E8
:1032F000012B08D0012380F83C300023036300F049
:103300001DBE0120704702207047000030B40068E5
:103310001649884228D1164A5088010419D411460A
:10332000440409784FF0000307D50A2901D05380DF
:103330000FE040F4004050800BE00D2910D00D4DFF
:10334000C0F30D042955401C80B25080C72800D915
:1033500053800848012230BC0549C830FFF7BEBF82
:1033600040F480405080F4E730BC704700100140CA
:1033700008000020C80000207047FEE708B5FEF7EF
:1033800037FC00F0FDF9042302220621A82003F0F7
:1033900061FEA82003F0C8FB4FF4E13003F0DEFE2D
:1033A00003F0A0FC42F2CF01092003F0B1FA03F0D0
:1033B0008FFA002006231A044FF4A001009003F0B6
:1033C00057FB40F2DC51042003F080FC03F0BEFB0D
:1033D00003F03AFD03F020F9BDE8084003F09ABD80
:1033E00010B52DED088BB0EE408AF0EE608A002813
:1033F0009FED37BB9FED38AB9FED399B33D053EC3E
:10340000192B51EC180BFDF70BF90FD253EC1B2BBA
:1034100051EC180BFCF7C0FFFDF7BDF8BDEC088BB5
:1034200080B20021BDE8104003F0EAB953EC192B3B
:1034300051EC180BFDF7DCF80FD253EC1A2B51ECC2
:10344000180BFCF7A9FFFDF7A6F8BDEC088B81B2BD
:103450000020BDE8104003F0D3B9BDEC088BBDE8F7
:10346000104000F041B853EC192B51EC180BFDF74C
:10347000D7F80FD253EC1B2B51EC180BFCF78CFF39
:10348000FDF789F8BDEC088B81B20020BDE8104043
:1034900003F0B6B953EC192B51EC180BFDF7A8F853
:1034A0000FD253EC1A2B51EC180BFCF775FFFDF7FC
:1034B00072F8BDEC088B80B20021BDE8104003F02B
:1034C0009FB9BDEC088BBDE8104000F00DB80000BE
:1034D000000000000000594000000000000059C03A
:1034E00000000000000000000021084603F088B939
:1034F000FEE700002DE9F0418EB006460D4614218E
:1035000009A8FCF797FE1C2102A8FCF793FE0024F3
:10351000454A106840F001001060106800F001009A
:103520000190414A143A106840F0010010601068A0
:1035300000F001000190106840F001001060106878
:1035400000F001000190106840F010001060106859
:1035500000F010000190106840F01000106010683A
:1035600000F0100001909015099002220A920B922F
:103570000C9201200D90DFF8B48009A94046FEF7B7
:10358000F7F98027099709A94046FEF7F1F93801B4
:103590000990DFF89C8009A94046FEF7E9F9F80098
:1035A000099009A94046FEF7E3F9234A2148106033
:1035B00055609460D6604015106197611046FFF722
:1035C000C7F86020029004940594079408940022A0
:1035D00002A91948FFF753F8042202A91648FFF779
:1035E0004EF81548403804604460846004614461CA
:1035F000F901C1613221C16001464030FEF768FE29
:1036000000210D48FFF7CCF800210B48FEF78AFE99
:1036100004210948FFF7C4F804210748FEF782FE99
:103620000EB0BDE8F08100004438024000000240C6
:103630000010024000000140C45800202DE9F04174
:103640008EB006460D46142109A8FCF7F3FD1C2197
:1036500002A8FCF7EFFD0024434A106840F0020086
:103660001060106800F0020001903F4A143A1068A0
:1036700040F004001060106800F004000190106831
:1036800040F001001060106800F001000190106827
:1036900040F004001060106800F004000190106811
:1036A00040F002001060106800F00200019040201D
:1036B000099002220A920B920C9203200D90DFF8DF
:1036C000AC8009A94046FEF753F92020099009A9CA
:1036D0002748FEF74DF98027099709A94046FEF7CC
:1036E00047F90120099009A92248FEF741F9234A28
:1036F0002148106055609460D66040151061976154
:103700001046FFF725F86020029004940594079472
:103710000894002202A91948FEF7B1FF042202A969
:103720001648FEF7ACFF15486838046044608460B2
:103730000461B90141614900C16101466830FEF789
:10374000C7FD00210D48FFF72BF800210B48FEF7BD
:10375000E9FD04210948FFF723F804210748FEF793
:10376000E1FD0EB0BDE8F08144380240000802409F
:103770000000024000040240000401400C590020F7
:1037800010B553216320FFF7B5FE5321BDE810406B
:103790006320FFF753BF7047F0B500200E4C0026A2
:1037A0000127211F0D7814E000EB400104EB81029A
:1037B000137963B934F821305B1C9BB224F82130B3
:1037C000B2F802C0634502D324F821601771401C8F
:1037D000C0B2A842E8D3F0BD1C000020FFF7CEFD28
:1037E00000240B4E0027A6F1040803F069FA04EB4D
:1037F000440006EB8005287910B1A86880472F7136
:10380000641C98F80000E4B28442EED30024ECE794
:103810001C0000207047000010B52DED088BB0EEA5
:10382000408AF0EE608A00289FED37BB9FED38ABF1
:103830009FED399B33D053EC192B51EC180BFCF74F
:10384000EFFE0FD253EC1B2B51EC180BFCF7A4FD31
:10385000FCF7A1FEBDEC088B81B20020BDE8104052
:1038600002F0DCBF53EC192B51EC180BFCF7C0FE37
:103870000FD253EC1A2B51EC180BFCF78DFDFCF713
:103880008AFEBDEC088B80B20021BDE8104002F03A
:10389000C5BFBDEC088BBDE8104000F041B853EC4B
:1038A000192B51EC180BFCF7BBFE0FD253EC1B2B62
:1038B00051EC180BFCF770FDFCF76DFEBDEC088BAE
:1038C00080B20021BDE8104002F0A8BF53EC192BD4
:1038D00051EC180BFCF78CFE0FD253EC1A2B51EC69
:1038E000180BFCF759FDFCF756FEBDEC088B81B2B6
:1038F0000020BDE8104002F091BFBDEC088BBDE890
:10390000104000F00DB80000000000000000594019
:1039100000000000000059C000000000000000008E
:103920000021084602F07ABF7047FEF759B900003F
:103930000248016841F470010160704788ED00E0C1
:103940000148FEF7E4BD0000545900202DE9F04184
:103950000268264D264E274FDFF89CC0274B4FF0BC
:103960008048A84209D0404507D0B04205D0B842AF
:1039700003D0604501D0984203D122F070044A6818
:103980002243A8421BD0404519D0B04217D0B842BC
:1039900015D0604513D0984211D0194CA0420ED0DA
:1039A000184CA0420BD0184CA04208D0174CA04293
:1039B00005D0174CA04202D0164CA04203D122F4ED
:1039C0004074CA6822434C6922F08002224302609C
:1039D0008A68C2620A688262A84201D0984201D114
:1039E0000969016301214161BDE8F08100000140E6
:1039F0000004004000080040000C004000040140AA
:103A000000400140004401400048014000180040CF
:103A1000001C00400020004010B501F01F010123F0
:103A20008B40046A9C430462036A8A401343036226
:103A300010BD10B501F01F0104238B40046A9C43A4
:103A40000462036A8A401343036210BDF0B5026A40
:103A500022F001020262026A4368846924F0700461
:103A600024F003050C682C4322F002058A682A43DF
:103A70000E4E0F4FB04201D0B84205D122F00805DA
:103A8000CA682A4322F00402B04201D0B84207D1EA
:103A900023F4807323F400734D691D438B692B431A
:103AA00043608461496841630262F0BD00000140E7
:103AB00000040140F0B5026A22F010020262036ABB
:103AC0004268846924F4E04424F440740D6844EAB4
:103AD000052423F020038D6843EA0513104D114E91
:103AE000A84201D0B04206D123F08003CF6843EA58
:103AF000071323F04003A84201D0B04209D122F4B9
:103B0000806222F400624D6942EA85028D6942EAD0
:103B1000850242608461496881630362F0BD0000F0
:103B20000000014000040140F0B5026A22F48072F6
:103B30000262026A4368C46924F0700424F0030539
:103B40000C682C4322F400728D6842EA0522104D65
:103B5000104EA84201D0B04206D122F40062CF68D4
:103B600042EA072222F48062A84201D0B04209D181
:103B700023F4805323F400534D6943EA05138D6900
:103B800043EA05134360C4614968C1630262F0BD42
:103B9000000001400004014030B5026A22F4805266
:103BA0000262046A4268C36923F4E04323F4407369
:103BB0000D6843EA052324F400548D6844EA053473
:103BC000084DA84202D0084DA84204D122F48042F8
:103BD0004D6942EA85124260C3614968016404622A
:103BE00030BD00000000014000040140FCF7B9BFF7
:103BF0002DE9F04FA1B03748C069FCF7E5FC8246DB
:103C000035488B468069FCF7DFFC044631480D4699
:103C10008069FCF7D9FC06462F480F464068FCF740
:103C2000D3FC80462C4889468068FCF7CDFCCDE962
:103C30001E0129480069FCF7C7FCCDE91C01274893
:103C400090ED000A10EE100AFCF7BEFCCDE91A0157
:103C500020484068FCF7B8FCCDE918011D48806891
:103C6000FCF7B2FCCDE916011A480069FCF7ACFC80
:103C7000CDE914011A4890ED000A10EE100AFCF785
:103C8000A3FC41EC100B10A853EC102BA0E8300C57
:103C9000CDE90E67DDE91E01CDE90C89CDE90A0108
:103CA000DDE91C01CDE90801DDE91A01CDE90601D4
:103CB000DDE91801CDE90401DDE91601CDE90201D4
:103CC000DDE91401CDE9000106A000F023FA21B0DE
:103CD000BDE8F08F145C0020405C00205C5D00209B
:103CE000FC5C002025662C25662C25662C25662C80
:103CF00025662C25662C25662C25662C25662C250C
:103D0000662C25660A09000003F000BA4FF48061B2
:103D10000148FDF715BF00000004024010B5806B9C
:103D20000021C185C184FFF775F910BD0168CA681B
:103D300022F49072CA6001684A6922F001024A6165
:103D4000016B012904D10168CA6822F01002CA601F
:103D5000202180F83E1000210163704710B50168F2
:103D6000CA6822F04002CA60202180F83D10FFF7A7
:103D700003FB002010BD10B5044694F83E00222835
:103D800001D0022010BDA1684FF48052914201D1B0
:103D9000206920B1A06A91421DD051B10BE0A06A08
:103DA00021684968C1F308010180A06A801CA062F3
:103DB00009E0216979B12168496801F07F0101704A
:103DC000A06A401CA062E08D401E0004000CE0854B
:103DD00005D0002010BD216849680170F0E7206817
:103DE000C16821F02001C1602068C16821F48071A0
:103DF000C1602068416921F001014161202084F8FF
:103E00003E00206B012805D02046FFF77FFA0020F6
:103E1000206310BD2068C16821F01001C160A18D30
:103E20002046FFF7F6F8F2E72DE9F0410446206856
:103E30000169E26821F4405111430161A1682069E0
:103E4000E26901436069104301432068C26849F296
:103E50000C639A430A43C26020684169A26921F455
:103E600040711143416133492068884202D0324990
:103E7000884202D1FDF7F0FF01E0FDF7DDFFE169C7
:103E80000023192764253226B1F5004F28D0616838
:103E90008B0F8A00A0FB0701FCF794F90146B0FBE9
:103EA000F5F07A42504301EB800006EB0010B0FBC6
:103EB000F5F000F0F002B1FBF5F002EB0012B1FBFF
:103EC000F5F07B42584301EB800006EB0010B0FB9D
:103ED000F5F0216800F00F0010448860BDE8F08123
:103EE00061684A18A0FB07015B41FCF76BF90146CA
:103EF000B0FBF5F00201B1FBF5F06FF01803584389
:103F000001EB800006EBC000B0FBF5F000F0F8001C
:103F100002EB4002B1FBF5F0584301EB800006EBE9
:103F2000C000B0FBF5F0216800F007001044886085
:103F3000D4E7000000100140001401408162828536
:103F4000C28500210164222280F83E2080F83C10C6
:103F50000168CA6842F48072CA6001684A6942F026
:103F600001024A610068C16841F02001C16000207F
:103F7000704790F83D10212901D0022070478168D8
:103F8000B1F5805F01D1016961B1016A4A1C026229
:103F9000026809785160C18C491E0904090CC1846A
:103FA0000AD013E0016A02680988C1F30801516070
:103FB000016A891C0162EEE70168CA6822F080028A
:103FC000CA600068C16841F04001C16000207047CC
:103FD0000148FFF721B8000090010020FEE70346EA
:103FE0000846984202DB904200DC002070470346FE
:103FF0000846984202DB904200DC002070470346EE
:104000000846984201DA184670479042FCDD104697
:104010007047F0EE401AB0EE600AB4EEE10AF1EE3D
:1040200010FA02D8B0EE610A7047B4EEC10AF1EEA0
:1040300010FAF9DBB0EE410A7047000010B52DED23
:104040000C8BB7EE00DA284C84ED03DAB3EE0E0ADF
:1040500084ED050A9FED290B9FED2A9B9FED23BB65
:104060009FED24CB53EC192B51EC100BFCF791F97D
:104070009FED26AB53EC1A2BFCF78BF941EC100BA0
:1040800000F0EEFAB0EE408AF0EE608A6069FCF76C
:104090009BFA53EC1B2BFCF7F1F953EC1C2BFCF7B0
:1040A0007BF953EC192BFCF774F953EC1A2BFCF742
:1040B00070F941EC100B01F06BF953EC182B51EC3B
:1040C000100BFCF7C2F8FCF7C3FA2061B2EE0E0A3F
:1040D00084ED060AB0EE080A84ED010A84ED02DAE6
:1040E000BDEC0C8B10BD0000F85B00200000000050
:1040F000008066404AD8124DFB21094086E56133B5
:1041000052C1E03F4AD8124DFB21E93F4AD8124D37
:10411000FB21F93F0FB4054B10B503A9044A0298DF
:1041200001F0F6FE10BC5DF814FB0000D16B000836
:104130000C00002003B401984100009850EAC1200F
:1041400018BF04204A0D18BF40F0010040F2FF7272
:10415000B2EB515F08BF40F00200012808BF052004
:1041600002B070470907090E002804DB00F1E020C7
:1041700080F80014704700F00F0000F1E02080F894
:10418000141D70470000000070B59B482DED020B18
:104190002DED068B079D25F00044A04218DC9748C2
:1041A000844202DC0AD1069840B19DED060BBDECBD
:1041B000068B02B0BDE8704001F08EBD002DCCBF73
:1041C0009FED8F0B9FED900BBDEC068B02B070BD89
:1041D0008F48A04215DD8F48A042D8BF4FF0FF3472
:1041E00058DD9DED060B51EC100BFFF7A3FF0428E3
:1041F00008BF01F0A5FD9DED060BBDEC068B02B0DE
:1042000070BD9DED060B51EC100B02F093FCCDE957
:10421000060181489FED828BA0423CDD8248A0428E
:104220001FDD00249FED82AB9DED060B53EC1A2B96
:1042300051EC100BFCF709F89DED060B41EC190B46
:1042400053EC1A2B51EC100BFCF7A6F853EC182B7F
:10425000FCF79CF853EC192BFCF710F9CDE906019B
:1042600049E09DED060B012453EC182B51EC100B8B
:10427000FBF7EBFF9DED060B41EC190B53EC182BF4
:1042800051EC100BFCF782F853EC192BFCF7F6F805
:10429000CDE906012FE06848A0421FDD02249FED12
:1042A000689B9DED060B53EC192B51EC100BFCF7A2
:1042B00073F853EC182BFBF7C8FF9DED060B41EC90
:1042C000180B53EC192B51EC100BFCF75FF853EC67
:1042D000182BFCF7D3F8CDE906010CE09DED060B99
:1042E000032453EC102B9FED580B51EC100BFCF7F3
:1042F000C5F8CDE906019DED060B53EC102B51ECF2
:10430000100BFCF749F841EC180B53EC182BFCF799
:1043100043F841EC190B4E480621B0EE490AF0EE85
:10432000690A784401F0ACFB53EC182B51EC100BEC
:10433000FCF732F841EC180B4648B0EE490AF0EEB3
:10434000690A0521784401F09BFB53EC192B51ECD1
:10435000100BFCF721F841EC100B51EC180B53EC4F
:10436000102B002C0EDAFBF770FF9DED061B53ECB3
:10437000112BFCF711F89DED061B53EC112BFCF7EC
:1043800008F835E0FBF761FF9DED061B53EC112BA0
:10439000FCF702F841EC100B2F48784400EBC40006
:1043A00090ED001B51EC100B53EC112BFBF7EEFFC3
:1043B0009DED061B53EC112BFBF7E8FF41EC100BB6
:1043C0002648784400EBC40090ED001B51EC100B24
:1043D00053EC112BFBF7DDFF41EC100B002DA2BFBE
:1043E000BDEC068B02B070BD51EC100B81F00041AA
:1043F00041EC100B01E70000000010440000F07FCA
:10440000182D4454FB21F93F182D4454FB21F9BFCA
:104410000000DC3F0000203E0000F33F00000000F1
:10442000000000000000F03F0000E63F0000000038
:104430000000000000000040008003400000000079
:10444000000000000000F83F000000000000F0BF86
:10445000C23500007835000002350000BA34000093
:1044600070B56F4E2DED040B2DED048B82B0DDF891
:1044700024C0DDE907235C422CF000411C4341EAE3
:10448000D474069D22F00040B44205D86C422C43FF
:1044900040EAD474B4420BD99DED081B9DED060B88
:1044A00002B0BDEC048B04B0BDE8704001F01EBC4E
:1044B000ACF14054A4F17F641C430BD0022404EA05
:1044C000AC7444EAD27405439FED578B9FED582B93
:1044D00007D015E09DED060B51EC100B02F088F9AA
:1044E00042E0002C11BF012C9DED060B02B0BDEC8B
:1044F000048B04BF04B070BD022C38D0032C3BD019
:104500000B439FED4D1B9FED4E0B0AD0B14218D1CE
:10451000B04209D121F0804120F0804009910790FC
:104520000FE0002A15DA10E0474B7B44002C08BF4F
:1045300093ED000B0DD0012C10D0022C17D0032CC2
:104540001AD0B0421DD1002A03DAB0EE410AF0EED3
:10455000610A02B0BDEC048B04B070BD93ED000B9A
:1045600051EC100B81F0004141EC100BF1E7B0EE83
:10457000480AF0EE680AECE7B0EE420AF0EE620A92
:10458000E7E7401A00159FED329B3C28C8BF8DED30
:10459000000B17DCBCF1000FBCBF10F13C0F8DED20
:1045A000009B0FDB9DED080B53EC102B9DED060BD4
:1045B00051EC100BFBF762FF02F0BCFA02F018F9A5
:1045C000CDE90001B4B1012C10D0022C9FED220BDB
:1045D00053EC102B9DED000B51EC100B19D0FBF799
:1045E000D5FE53EC182BFBF7D1FEBDE7019880F008
:1045F000004001909DED000B53EC192B51EC100B7A
:10460000FBF7F6FF04BF022001F0BAFB9DED000BA3
:104610009FE7FBF7BBFE53EC182BFBF7BAFEA3E7B3
:104620000000F07F00000000182D4454FB210940D9
:10463000182D4454FB2109C0182D4454FB21F9BF07
:10464000182D4454FB21F93F1A34000000000000EB
:104650000000000000000000075C143326A6A13C07
:1046600010B52F499FED2C1B2DED020B84B0059842
:1046700020F000408842D8BF9DED040B2DDD294974
:10468000884209D1049840B94FF0010001F078FB4D
:1046900001F036FB06B010BD05DB9DED040B01F00B
:1046A0001BFB06B010BD68469DED040B00F014FF27
:1046B00010F0030004BF9DED021B9DED000B0CD01C
:1046C00001280ED09DED021B9DED000B022817D096
:1046D000012001F051FA06B010BD01F019F906B041
:1046E00010BD9DED021B9DED000B012001F044FA71
:1046F00051EC100B81F0004106B041EC100B10BDE5
:1047000001F006F951EC100B81F0004106B041ECCC
:10471000100B10BD000000000000000000000000B1
:10472000FB21E93F0000F07F2DED020B019820F006
:10473000004001909DED000B02B0704700000000AA
:104740002DE9F04D2DED040B2DED0E8B96B0DDE92E
:104750002550279CDDF890A025F0004624F0004865
:10476000BAF1000F14BF0121002101EB4502FC4901
:1047700053184A1093422AD3002814BF0123002360
:1047800003EB44030B44F7498B4220D358EA000162
:104790009FEDF59B76D0DFF8D8B35D4503D1BAF134
:1047A000000F05D188E0BAF1000F08BF002100D04A
:1047B000012101EB450111F5001F08D8002814BFA5
:1047C0000121002101EB440111F5001F0BD99DEDE2
:1047D000261B9DED240B16B0BDEC0E8B04B0BDE87E
:1047E000F04D01F083BA0027002DBCBFE149884598
:1047F00021DAE1498845A8BF02271CDAC3451ADC43
:10480000DE4901EB2851142908DDC1F1340220FAF8
:1048100002F101FA02F282420DD108E058B9C1F169
:10482000140228FA02F101FA02F2424503D101F022
:104830000101C1F1020756EA0A0124D1002C22DA53
:10484000002D18BF022F01D0012F0AD0022001F045
:1048500097FA16B0BDEC0E8B04B0BDE8F04D01F038
:1048600023BA022001F08CFA01F01EFA51EC100B71
:1048700081F0004141EC100B16B0BDEC0E8B04B082
:10488000BDE8F08D18E09FEDBEAB9FEDBF8B00281B
:1048900071D1B848804522D105F1804010F58010D3
:1048A00008BFBAF1000F07D0B3450ADC002CA8BF3F
:1048B0009DED260BE0DA0DE0B0EE490AF0EE690A54
:1048C000DAE7002C06DA9DED260B51EC100B81F097
:1048D00000416FE0AE48784490ED000BCCE7D8453E
:1048E0004DD1002C48DA2EB186423AD1BAF1000FF0
:1048F00042D126E0BAF1000F13D0022001F040FAB5
:1049000001F00EFA8DED020B9DED240B8DED000BE9
:1049100010EE900A039961F31E0003909DED020BC7
:10492000AAE78DED02AB9DED240B1AEE901A10EE66
:10493000900A8DED000B61F31E0003909DED020BBC
:104940009AE78DED028B9DED240B18EE901A10EE78
:10495000900A8DED000B61F31E0003909DED020B9C
:104960008AE709DA9DED240B51EC190B53EC102B5F
:10497000FBF784FD1EE020E09DED240B7CE78642E2
:104980001BDAB4F1804F0DD0A4F10050B0F1FF500C
:1049900013D1002D11DB9DED240B51EC100B02F017
:1049A00021FB07E09DED240B53EC102B51EC100B79
:1049B00000F0C2BC41EC100B5EE79DED240B51EC06
:1049C000100B02F0B7F8BAF1000FCDE90E0142D199
:1049D0009FED710B46B3A6F1E040B0F17F600CD0C3
:1049E0005E4538D1002D00DAA7B3022F0CBF01209D
:1049F0004FF0FF30FBF7B1FDDCE7002D01DD002CAF
:104A00000DDA002D01DD002C1FDB002D16DA002C45
:104A100014DB012F08BF9FED620B3FF42DAFB0EE0A
:104A20004A0AF0EE6A0A27E7022F18BF002D0CD0C1
:104A3000012F0AD1002DFFF61FAF06E0002DB8BFF1
:104A4000002C08DA012F3FF417AFB0EE480AF0EE61
:104A5000680A11E71BE0012000EBE57050EA07014E
:104A600015D0791EB0EE498AF0EE698A084308BF76
:104A70009FED4D8B4E480025804570DD4D494E48D9
:104A8000884514DDB0420DDB002C19DB2FE001203E
:104A900001F076F916B0BDEC0E8B04B0BDE8F04D18
:104AA00001F02EB9B34502DC002C09DC1FE0864280
:104AB00002DA002C1BDA03E05E452BDD002C16DD4C
:104AC000022001F05DF901F02BF98DED020B53ECA2
:104AD0001A2B51EC180BFBF75FFCCDE90001039991
:104AE000019861F31E0003909DED020BC4E60220C5
:104AF00001F046F901F024F910EE901A18EE900A30
:104B00008DED020B8DED008B61F31E0003909DED8A
:104B1000020BB1E69DED0E0B53EC192B51EC100B73
:104B2000FBF734FC9FED260BCDE9080153EC102B6D
:104B30009DED080B51EC100BFBF72EFC9FED221B9B
:104B400053EC112BFBF725FC9DED081B53EC112BAF
:104B5000FBF722FC9FED1E1B53EC112B3CE08CE07D
:104B6000FFFF1F00FFFF0F00000000000000F03FEC
:104B70000000F03F0000F07F0000404301FCFFFF19
:104B8000000000000000F07F0000000000000000B6
:104B90006E300000000000000000000000000080F7
:104BA000000000000000F0FF000000000000F0BF67
:104BB0000000E0410000F043FFFFEF3F0000000075
:104BC000000000000000D03F555555555555D53FC4
:104BD000000000000000E03FFBF7DBFB9DED080B51
:104BE00041EC1A0B53EC102B51EC100BFBF7D4FBE0
:104BF00053EC1A2BFBF7D0FB41EC1A0B9FEDFE0B8D
:104C000053EC102B9DED080B51EC100BFBF7C4FB84
:104C100041EC1B0B9FEDFA0B51EC1A0B53EC102BD4
:104C2000FBF7BAFB41EC1A0B9FEDF70B53EC102B83
:104C30009DED080B51EC100BFBF7AEFB53EC1A2B60
:104C4000FBF7A4FB41EC1A0B51EC1B0B53EC1A2B9A
:104C5000FBF7FBFA0690CDE906519DED060B53ECF0
:104C60001B2B51EC100BFBF791FB53EC1A2BFBF7B2
:104C700090FB41EC100B00F0A1B90020B6F5801FAD
:104C80000EDA9FEDE30B53EC102B9DED0E0B51EC68
:104C9000100BFBF781FBCDE90E016FF034000E46DF
:104CA00000EB2650A0F2FF37C6F31300DA4940F0BC
:104CB0007F6646F040568842D8BF002408DDD749B9
:104CC0008142C8BF012403DC0024A6F580167F1CA6
:104CD000D348784400EBC4000F9690ED00CB9DEDD7
:104CE0000E0B53EC1C2B51EC100BFBF74FFB9DED07
:104CF0000E0B41EC1B0B53EC1C2B51EC100BFBF778
:104D0000A4FA41EC100B51EC190B53EC102BFBF7F0
:104D1000B5FB41EC1D0B51EC1B0B53EC1D2BFBF7B2
:104D20003BFB41EC1A0BBF488DED10AB784410955E
:104D300090ED000B4FF0005040EA660000EB84401D
:104D40008DED080B00F5002009909DED080B53EC4C
:104D50001C2B51EC100BFBF719FB9DED0E1B53ECBC
:104D6000112BFBF716FB41EC100B53EC102B9DEDB8
:104D7000100B51EC100BFBF70FFB9DED080B41ECFA
:104D80001C0B53EC102B9DED100B51EC100BFBF793
:104D900003FB53EC1B2BFBF7FCFA53EC1C2BFBF730
:104DA000F5FA53EC1D2BFBF7F7FA41EC1C0B53EC17
:104DB0001A2B51EC1A0BFBF7EFFA41EC1B0B9A483C
:104DC0000621B0EE4B0AF0EE6B0A784400F058FE74
:104DD000B0EE401AF0EE601AB0EE41DAF0EE61DAB1
:104DE00053EC1B2B51EC1B0BFBF7D6FA53EC1D2B92
:104DF000FBF7D2FA9DED100B41EC1B0B53EC1A2B79
:104E000051EC100BFBF721FA53EC1C2BFBF7C4FA07
:104E100053EC1B2BFBF719FA9DED100B41EC1B0B10
:104E200053EC102B51EC100BFBF7B6FA41EC1D0BB9
:104E30009FED7FEB53EC1E2BFBF707FA53EC1B2B7C
:104E4000FBF703FA0890CDE908519DED080B53ECF0
:104E50001E2B51EC100BFBF799FA53EC1D2BFBF7B3
:104E600095FA53EC1B2BFBF794FA9DED080B41ECE4
:104E70001D0B53EC102B9DED100B51EC100BFBF7A1
:104E80008BFA41EC1B0B53EC1A2B51EC1D0BFBF76F
:104E900083FA9DED080B41EC1A0B53EC102B51ECEF
:104EA0001C0BFBF779FA53EC1A2BFBF7CEF941EC0C
:104EB0001A0B51EC1B0B53EC1A2BFBF7C6F90C9099
:104EC000CDE90C519DED0C0B53EC1B2B51EC100B51
:104ED000FBF75CFA53EC1A2BFBF75BFA41EC1B0B6C
:104EE0009FED550B53EC102B9DED0C0B51EC100B63
:104EF000FBF752FA41EC1A0B9FED510B51EC1B0BD7
:104F000053EC102BFBF748FA41EC1B0B9FED4E0BBB
:104F100053EC102B9DED0C0B51EC100BFBF73CFAF6
:104F200053EC1B2BFBF791F941EC100B48487844EC
:104F300000EBC40090ED001B51EC100B53EC112B57
:104F4000FBF783F941EC1B0B3846FBF706FBCDE979
:104F5000080153EC1B2B51EC1A0BFBF776F941ECD3
:104F6000100B3C48784400EBC40090ED00CB51ECB2
:104F7000100B53EC1C2BFBF768F99DED081B53EC51
:104F8000112BFBF762F90690CDE906519DED080B58
:104F900053EC102B9DED060B51EC100BFBF7F6F9C3
:104FA00053EC1C2BFBF7F2F953EC1A2BFBF7EEF941
:104FB00053EC1B2BFBF7EDF941EC100B9DED261B81
:104FC00053EC102B8DED001B00959DED260B51EC45
:104FD000100BFBF7E1F99DED000B41EC1A0B53ECC4
:104FE000102B9DED260B51EC100BFBF7CFF99DED2F
:104FF000061B53EC112B2FE0000000604715F73F14
:10500000FE822B654715F73F44DF5DF80BAE543E3B
:1050100000000000000040438E9803007AB60B00A9
:10502000222B0000182C00005A2A0000000000006B
:105030000000000000000840000000E009C7EE3F4B
:10504000FD033ADC09C7EE3FF5015B14E02F3EBEDD
:10505000E6280000A0280000FBF79EF953EC1A2B6D
:10506000FBF7F3F89DED060B41EC1A0B53EC102BFC
:105070009DED000B51EC100BFBF78EF9CDE90C0107
:105080009DED0C0B51EC1A0B53EC102BFBF7DDF8DC
:10509000CDE902010C46AA498C422FDB611A084374
:1050A00018D19DED0C0B53EC102B9DED020B51EC28
:1050B000100BFBF76BF941EC1B0B9FEDA30B51ECB5
:1050C0001A0B53EC102BFBF7C0F853EC1B2BFBF720
:1050D000A7FA2DD2022000F053FE00F021FE10EEC0
:1050E000901A18EE900A8DED020B8DED008B61F396
:1050F0001E0003909DED020BFFF7BEBB944A24F007
:105100000041914214D39349214408437FF4EFAC0A
:105110009DED0C0B53EC102B9DED020B51EC100B85
:10512000FBF734F953EC1A2BFBF77AFA7FF6DFAC76
:1051300024F000408849894A002601EB2051824230
:105140002BDA481C4FF4801121FA00F02044844AE5
:10515000C0F30A517A44A1F2FF3192ED000B814A6B
:105160008DED080BCA4020EA0202C0F3130040F4A0
:105170008010C1F1140120FA01F60992002CB8BF89
:1051800076429DED080B53EC102B9DED0C0B51EC72
:10519000100BFBF7FBF8CDE90C019DED0C0B51EC6E
:1051A0001A0B53EC102BFBF750F89FED6F0B089088
:1051B000CDE9085153EC102B9DED080B51EC100B71
:1051C000FBF7EAF841EC1B0B9FED690B53EC102B3E
:1051D0009DED080B51EC100BFBF7DEF89DED0C0B71
:1051E00041EC1C0B53EC102B9DED080B51EC100BFC
:1051F000FBF7CCF853EC1A2BFBF7CBF89FED5E1BBB
:1052000053EC112BFBF7C8F853EC1C2BFBF71DF8E4
:1052100041EC1A0B51EC1B0B53EC1A2BFBF715F856
:10522000CDE902019DED020B53EC1B2B51EC100B51
:10523000FBF7ACF853EC1A2BFBF7ABF89DED020B28
:1052400041EC1A0B53EC102B51EC100BFBF7A4F8AC
:10525000CDE908014A489DED080B0521784400F08E
:105260000FFC9DED081B51EC100B53EC112BFBF7C1
:1052700093F89DED021B53EC112BFBF78AF8CDE957
:1052800006019DED020B53EC1A2B51EC100BFBF7B2
:1052900083F853EC1A2BFAF7D8FF9FED3B0B41EC48
:1052A0001A0B53EC102B9DED060B51EC100BFBF77A
:1052B0006DF89DED060B41EC1B0B53EC102B9DED97
:1052C000020B51EC100BFBF767F853EC1B2BFBF7B1
:1052D000D5F853EC1A2BFBF759F89DED021B53EC54
:1052E000112BFBF753F853EC192BFBF752F8CDE9D0
:1052F000020101EB065001150029C8BF039015DC1F
:105300009DED020B324651EC100BFBF798FAFEF7BD
:1053100011FF042808BF00F013FD32469DED020B7B
:1053200051EC100BFBF78BFACDE902019DED020B5E
:1053300051EC180B53EC102BFBF72EF8FFF73ABB90
:105340000000904000000000FE822B654715973C4E
:1053500000CC904000346F3F01FCFFFF0000E03FB5
:10536000F0270000FFFF0F0000000000432EE63F83
:10537000396CA80C615C20BEEF39FAFE422EE63F84
:10538000F8250000000000000000000000000040C0
:1053900010B52F499FED2C1B2DED020B84B0059805
:1053A00020F000408842DCBF00209DED040B32DD80
:1053B0002849884209D1049840B94FF0010000F013
:1053C000DFFC00F09DFC06B010BD05DB9DED040B7D
:1053D00000F082FC06B010BD68469DED040B00F0A5
:1053E0007BF810F0030011D0012818D09DED021BAE
:1053F0009DED000B02281AD000F08AFA51EC100B38
:1054000081F0004106B041EC100B10BD9DED021B78
:105410009DED000B012000F0AFFB06B010BD9DED2F
:10542000021B9DED000B00F073FA06B010BD0120C9
:1054300000F0A2FB51EC100B81F0004106B041ECF2
:10544000100B10BD00000000000000000000000074
:10545000FB21E93F0000F07F00B52DED048BB0EE9D
:10546000409AF0EE609A83B051EC190BFBF7FEF90D
:1054700041EC180B18EE100A18EE901A8DED008B07
:10548000002818BF0120084320F00040C0F17F60D1
:1054900000F1E040C00F14D019EE101A19EE900A76
:1054A0008DED009B002918BF0121084320F000402A
:1054B000C0F17F6000F1E040C00F04BF012000F0A8
:1054C0005FFCB0EE480A03B0F0EE680ABDEC048B56
:1054D00000BD0000000000002DE9F14F04462DED55
:1054E000020B2DED088B8AB09FEDE70B80ED020BD0
:1054F000139EE74826F0004585420ADC9DED120B1D
:10550000002084ED000B0AB0BDEC088B03B0BDE8B1
:10551000F08FE0489FEDE0AB9FEDE1BBA84247DD97
:10552000E14F9FEDE39B9FEDE48B9DED120B53EC60
:105530001A2B51EC100B002E1CDDFAF727FF41EC63
:10554000100BBD4208D053EC1B2B51EC100BFAF79B
:105550001DFFC4E900010BE053EC192B51EC100BBB
:10556000FAF714FF53EC182BFAF710FFC4E9000107
:105570000120C8E7FAF769FE41EC100BBD4208D0E4
:1055800053EC1B2B51EC100BFAF75FFEC4E9000142
:105590000BE053EC192B51EC100BFAF756FE53ECC1
:1055A000182BFAF752FEC4E900014FF0FF30AAE7CA
:1055B000C348A84279DB9DED120B51EC100B01F0B2
:1055C000B9FA41EC180B9FEDC00B53EC102BFAF716
:1055D000E3FE9FEDBF1B53EC112BFAF736FEFBF7F2
:1055E000C1F90746FAF7B9FF41EC190B53EC1A2B36
:1055F000FAF7D2FE53EC182BFAF7CBFE41EC180B5E
:1056000053EC1B2B51EC190BFAF7C6FEDFF8C8A2BE
:1056100041EC100B4FEA15580125FA4453EC102BBE
:1056200051EC180BFAF7B2FE032DC4E900013DD08E
:10563000C1F30A5005EB4511A8EB00001139814276
:1056400034DA0AEB051BB0EE48AA9BED000BF0EE36
:1056500068AA53EC102B51EC190BFAF79DFE41ECA4
:105660001B0B51EC1A0B53EC1B2BFAF78FFE41EC82
:10567000180B51EC1A0B53EC182BFAF787FE53EC6E
:105680001B2BFAF783FE9BED020B41EC1A0B53EC3C
:10569000102B51EC190BFAF77FFE53EC1A2BFAF78B
:1056A00075FE41EC100B6D1CB8E70EE0002EA8BF94
:1056B0003846BFF628AF94ED000B51EC100B81F08B
:1056C0000041C4E9000178421DE7C6F3130040F42D
:1056D000801EC6F30A50A0F2F530471100F01F05F6
:1056E000C5F12000DDF848B0089000200690079032
:1056F0000520EC467949002D07EB0002794408BFEC
:1057000051F8221009D051F8223001EB8201AB4050
:105710004A68089922FA01F11943A1FB0E26A1FB60
:105720000B131A449A4234BF0123002303EB0608EB
:105730000CEB8003D3E901A60E448E4234BF012155
:10574000002192448A4411B1924502D903E0924566
:1057500001D2012100E00021C3E901A641444CF837
:105760002010011EA0F10100C4DC029800F10050DD
:10577000850F0298DDE903678000DDF81480FAF7F1
:10578000ECFE41EC1A0B3046FAF7F8FE9FED541B85
:1057900053EC112BFAF700FE41EC1B0B3846FAF7DD
:1057A000EDFE9FED511B53EC112BFAF7F5FD41EC8B
:1057B000180B4046FAF7E2FE9FED4D1B53EC112B00
:1057C000FAF7EAFD41EC190B51EC180B53EC192BCD
:1057D000FAF73BFD53EC1B2BFAF737FD53EC1A2B72
:1057E000FAF733FDCDE90801002008909DED080B84
:1057F00053EC1A2B51EC100BFAF7C8FD53EC1B2B92
:10580000FAF7C4FD53EC182BFAF7C0FD53EC192B33
:10581000FAF7BFFD9FED381B53EC112BFAF7BCFDD7
:105820009FED370B41EC180B53EC102B9DED080B43
:1058300051EC100BFAF7B0FD53EC182BFAF705FDFD
:105840009FED310B41EC180B53EC102B9DED080B29
:1058500051EC100BFAF7A0FD53EC182BFAF7F5FCFE
:1058600041EC100B139810F0004F06D06D4251EC34
:10587000100B81F0004141EC100B284684ED000B29
:1058800041E60000000000000000000000000000F1
:10589000FB21E93F7CD9024000004054FB21F93F45
:1058A0003163621A61B4D03DFB21F93F0000000072
:1058B0000000601A61B4D03D7370032E8A19A33BB7
:1058C000FB2139410000000083C8C96D305FE43F0F
:1058D000000000000000E03F3223000080220000B2
:1058E000000000000000103E000000000000103C1E
:1058F000000000000000103A182D4454FB21F93D2F
:105900003326A611460B113C00000054FB21F93D43
:1059100010B52DED040B2DED088B82B0B0EE419A41
:10592000F0EE619A0B9820F000449FED4BABB4F180
:10593000795F11DA9DED0A0B51EC100BFBF712F8B1
:10594000002801BFB0EE4A0AF0EE6A0A02B0BDECD0
:10595000088B04BF04B010BD9DED0A0B53EC102B57
:1059600051EC100BFAF718FD41EC180B3C480621DE
:10597000B0EE480AF0EE680A784400F081F853EC83
:10598000182B51EC100BFAF707FD9DED0A0B41ECBB
:105990001B0B53EC192B51EC100BFAF7FDFC41ECEF
:1059A000190B53EC1B2B51EC180BFAF7F5FC53ECCD
:1059B000192BFAF7EBFC9FED2C0B41EC190B53EC78
:1059C000102B51EC180BFAF7E7FC41EC100B2848B0
:1059D000844210DA53EC192B51EC100BFAF7D6FC79
:1059E00053EC1A2BFAF7D5FC41EC100B02B0BDECCE
:1059F000088B04B010BD1F48A042BCBF9FED1E1B0A
:105A00008DED001B06DBA4F5001001900020009036
:105A10009DED001B51EC100B53EC112BFAF7B6FC6B
:105A20009DED000B41EC180B53EC102B51EC1A0BB5
:105A3000FAF7ACFC41EC1A0B53EC192B51EC180B98
:105A4000FAF7A4FC53EC1A2BFAF7A3FC41EC100B69
:105A5000CCE7000000000000000000000000F03F64
:105A60009C1F000000000000000000000000E03F5C
:105A70003333D33F0000E93F000000000000D23F75
:105A800070B504462DED028B4D1E00EBC500B0EE47
:105A9000408AF0EE608A90ED000B35F0060017D0DA
:105AA00053EC182B51EC100BFAF776FC41EC100B71
:105AB0006D1E04EBC50090ED001B51EC100B53EC78
:105AC000112BFAF7C2FB41EC100B35F00600E7D1C1
:105AD000022D36D0042D1CD0062D1CBFBDEC028B30
